:1000000070EF4FF0000000009EEF4FF00000000086
:0C001000000000000000000082EF4FF034
:10001C0005012D6B938A016A080E015C12E22D37E3
:10002C002D9181880000000000000000000081BAC2
:10003C002D81819800000000000000000000012AC2
:10004C00EBD7939A2CB102D0818A01D0819A00000F
:10005C0081880000000000000000000081982DC580
:04006C0000F012008E
:10007000939A819A0000000000000000000093881D
:0E00800000000000000000000000938A120043
:10008E00016A080E015C16E205012CBF02D0819AAE
:10009E0001D0818A8188000000000000000000006D
:1000AE002C372C9181980000000000000000000009
:1000BE00012AE7D7938A0000818800000000000023
:1000CE000000000081BA02D0019001D00180819819
:0C00DE00939A000E01B0010E006E12009B
:1000EA00938A938800000000000000000000939AA1
:1000FA00819A000000000000000000009398819897
:02010A001200E1
:10010C000450085E0550D8A0053C095E0650D8A0E6
:10011C00063C0A5E0750D8A0073C0B5E0336070E60
:10012C000C6E0334083609360A360B36045003A01D
:10013C000ED0085E0550D8A0053C095E0650D8A02C
:10014C00063C0A5E0750D8A0073C0B5E0DD0082673
:10015C000550D8B0053C09260650D8B0063C0A26F6
:10016C000750D8B0073C0B2603360C2EDAD70234D6
:10017C00083609360A360B36045003A00ED0085E3A
:10018C000550D8A0053C095E0650D8A0063C0A5E76
:10019C000750D8A0073C0B5E0DD008260550D8B0F0
:1001AC00053C09260650D8B0063C0A260750D8B0A4
:1001BC00073C0B260236070E0C6E02340836093645
:1001CC000A360B36045002A00ED0085E0550D8A09B
:1001DC00053C095E0650D8A0063C0A5E0750D8A024
:1001EC00073C0B5E0DD008260550D8B0053C0926FF
:1001FC000650D8B0063C0A260750D8B0073C0B2650
:10020C0002360C2EDAD70134083609360A360B368C
:10021C00045002A00ED0085E0550D8A0053C095E23
:10022C000650D8A0063C0A5E0750D8A0073C0B5ECF
:10023C000DD008260550D8B0053C09260650D8B07C
:10024C00063C0A260750D8B0073C0B260136070E91
:10025C000C6E0134083609360A360B36045001A0F0
:10026C000ED0085E0550D8A0053C095E0650D8A0FB
:10027C00063C0A5E0750D8A0073C0B5E0DD0082642
:10028C000550D8B0053C09260650D8B0063C0A26C5
:10029C000750D8B0073C0B2601360C2EDAD70034A9
:1002AC00083609360A360B36045001A00ED0085E0B
:1002BC000550D8A0053C095E0650D8A0063C0A5E45
:1002CC000750D8A0073C0B5E0DD008260550D8B0BF
:1002DC00053C09260650D8B0063C0A260750D8B073
:1002EC00073C0B260036070E0C6E00340836093618
:1002FC000A360B36045000A00ED0085E0550D8A06C
:10030C00053C095E0650D8A0063C0A5E0750D8A0F2
:10031C00073C0B5E0DD008260550D8B0053C0926CD
:10032C000650D8B0063C0A260750D8B0073C0B261E
:10033C0000360C2EDAD700B00ED00450082605502B
:10034C00D8B0053C09260650D8B0063C0A26075002
:08035C00D8B0073C0B2612008B
:100364000B1E0A1E091E081E082AD8B4092AD8B46E
:080374000A2AD8B40B2A12007A
:10037C00B6DEA00E05012C6F84DE25C52CF581DEC2
:10038C0024C52CF57EDEABDEA10E05012C6F79DECB
:10039C000501296B2805016E026A000E025A800EB7
:1003AC00006E800E0218005C02E10150295D11E222
:1003BC00295126252A6F000E27212B6F010E2C6F39
:1003CC0027DE2AC5E1FF2BC5E2FF00C0E6FF292B83
:1003DC00E1D7295126252A6F000E27212B6F2C6B74
:1003EC0017DE2AC5E1FF2BC5E2FF00C0E6FF3ADEAF
:0203FC001200ED
:1003FE0028C500F005012807005228E024C5E9FFB2
:10040E0025C5EAFFEE50000A0CE024C5E9FF25C51C
:10041E00EAFF26C5D9FF27C5DAFFEE50DE1801E147
:10042E000FD024C5E9FF25C5EAFF26C5D9FF27C58C
:10043E00DAFFDE50EE5C006E016A000E015A08D043
:10044E000501244B252B264B272BD2D7006A016A98
:02045E0012008A
:10046000120E0C6EDA0E0D6E0D2EFED70C2EFCD772
:040470000000120076
:0604740000000000120070
:0C047A00290E0D6E0D2EFED700001200A2
:10048600030E0301036F000E046F0201EF6B0301FD
:10049600076B0201D8510301075D35E203C324F55A
:1004A60004C325F5DF0E0501266F020E276F100E19
:1004B600286F61DF22C524F523C525F5DF0E266FDB
:1004C600020E276F100E286F97DF0050011001E112
:1004D6001AD00F0E030103250501246F000E030138
:1004E60004210501256F244B252B030E266F030ED1
:1004F600276F020E286F3FDF03010751010F006EC1
:1005060000C007F3C6D70201D8510301075D3FE2D9
:1005160003C305F304C306F3120E0325006E000E93
:100526000421016E00C005F301C006F300C024F5E6
:1005360001C025F5DC0E0501266F020E276F020E9F
:10054600286F19DF020E030105250501246F000E31
:10055600030106210501256FDA0E266F020E276FAD
:10056600020E286F08DF040E030105250501246F1E
:10057600000E030106210501256FD90E266F020E16
:10058600276F010E286FF7DE010E006E03D0020101
:06059600DF6B006A120099
:10059C000B6A0A6A096A00500402F4CF09F0F3CF1F
:1005AC0008F001500502F4CF0BF0F3CF0AF0005025
:1005BC000502F3500926F4500A22E86A0B22015076
:1005CC000402F3500926F4500A22E86A0B2208C0F0
:1005DC0000F009C001F00AC002F00BC003F01200D9
:1005EC000450000A12E10550000A0FE10650000AFF
:1005FC000CE10750000A09E1FF0E006EFF0E016EC0
:10060C00FF0E026E7F0E036E97D00C6A07BE0C2A8B
:10061C000D6A0B6A0A6A096A086A03500210011013
:10062C000010D8B484D0035007180E6E0EBE0D1EE9
:10063C0007AE0BD0041E051E061E071E042AD8B4D6
:10064C00052AD8B4062AD8B4072A03AE0BD0001E4C
:10065C00011E021E031E002AD8B4012AD8B4022A95
:10066C00D8B4032A035007100E6E0EBE1CD048DD02
:10067C000CBE36D00DAE5BD0001E011E021E031E3A
:10068C00002AD8B4012AD8B4022AD8B4032A081EE6
:10069C00091E0A1E0B1E082AD8B4092AD8B40A2A25
:1006AC00D8B40B2A44D007AE15D003BE0DD00350DE
:1006BC000B6E02500A6E0150096E0050086E036AF0
:1006CC00026A016A006AD6D7036A026A016A006A82
:1006DC00002A000C031E021E011E001E0C8EC7D722
:1006EC00082AD8B4092AD8B40A2AD8B40B2A045038
:1006FC00085CD8A4BFD70550095CD8A4BBD706505A
:10070C000A5CD8A4B7D707500B5CD8A4B3D70B6A34
:10071C000A6A096A086A002AD8B4012AD8B4022ADB
:10072C00D8B4032A03AEA6D70E6A0E88FF0C0E6A45
:0A073C000CA001D011DE000F120026
:1007460005011B6B05011A511B5D37E2CBDCA00EC0
:100756002C6F9ADC17C52CF597DC16C52CF594DCA6
:1007660005011A511B5D1DE21B511825E96E000E8D
:100776001921EA6EEECF2CF587DC0501164B172BF7
:100786003F0E1615016E17C502F0000E0216000E7A
:10079600021802E1000E011802E11B2B02D01B2BEE
:1007A600DFD763DC05019EDCA00E2C6F6DDC0052EA
:0C07B60001E101D0F7D759DCC5D71200D3
:1007C200220E0C6E086A096A0A6A0B6A0C06D8B411
:1007D2001FD0D8900B320A32093208320332023269
:1007E20001320032D8A0F2D70C06D8B409D0045096
:1007F20008260550092206500A2207500B22EAD782
:10080200045008260550092206500A2207500B22DE
:020812001200D2
:1008140005011C511A25E16E000E1CBFFF0E1B21A1
:10082400E26EE66A1C070501800E1C19006E800E3C
:10083400000A005C41E31C511A251D6F000E1CBF09
:10084400FF0E1B211E6F0A0E046E000E056E066E4F
:10085400076E16C500F017C501F018C502F019C5DA
:1008640003F0C2DE08C000F009C001F00AC002F0C3
:100874000BC003F0300E00261DC5E1FF1EC5E2FFCC
:1008840000C0E6FF05011C070A0E046E000E056E8B
:10089400066E076E16C500F017C501F018C502F004
:1008A40019C503F0A1DE00C016F501C017F502C09A
:1008B40018F503C019F5B7D71AC500F01BC501F028
:0208C400120020
:1008C600800E05012119006E800E1919005C08E1E1
:1008D6001851205D05E117511F5D02E116511E5D9D
:1008E60009E21AC516F51BC517F51CC518F51DC571
:1008F60019F518D0800E1919006E800E1D19005CAE
:1009060008E11C51185D05E11B51175D02E11A5102
:10091600165D08E21EC516F51FC517F520C518F5A4
:1009260021C519F516C500F017C501F018C502F066
:0609360019C503F01200D8
:10093C00086A080E0C6E003408360450085ED8B0F5
:0E094C0002D00826D89000360C2EF5D71200E7
:10095A000FEE84F0EF50EFCF00F0009200C0EFFFEF
:02096A00120079
:08096C0016C500F0003A12006C
:100974000FEE83F0EF50EFCF00F0009C00C0EFFFCC
:0209840012005F
:1009860005011651390806E3300E165D03E3010E24
:08099600006E01D0006A12009E
:10099E0005011A6B1B6B16C524F517C525F5DF0E61
:1009AE00266F020E276F100E286F22DD00500110E9
:1009BE000AE016C522F517C523F55EDD005203E1E8
:1009CE00010E006ED7D018C524F519C525F5EF0E0A
:1009DE000501266F020E276F100E286F09DD0050DD
:1009EE000110D8B4C6D003C305F304C306F3120E28
:1009FE0003010325006E000E0421016E00C005F3F5
:100A0E0001C006F300C024F501C025F5DC0E05017A
:100A1E00266F020E276F020E286FA9DC020E03014D
:100A2E0005250501246F000E030106210501256F22
:100A3E00DA0E266F020E276F020E286F98DC040E58
:100A4E00030105250501246F000E03010621050192
:100A5E00256FD90E266F020E276F010E286F87DCC9
:100A6E00050E0301052505011C6F000E030106216D
:100A7E0005011D6F1CC505F31DC506F31CC51AF532
:100A8E001DC51BF5D9C200F0000E016E110E046ECD
:100A9E00000E056E7CDD00501C251A6F01501D21C5
:100AAE001B6F0301076B0201D9510301075D53E26E
:100ABE0005C324F506C325F5EF0E0501266F020EBC
:100ACE00276F100E286F53DC100E03010525006EE4
:100ADE00000E0621016E00C005F301C006F300C032
:100AEE0024F501C025F5DE0E0501266F020E276FD7
:100AFE00010E286F3CDC010E03010525006E000E71
:100B0E000621016E00C005F301C006F318C524F5D9
:100B1E0019C525F5EF0E0501266F020E276F100E73
:100B2E00286F66DC0050011001E115D0DEC200F026
:100B3E00000E016EDAC204F0DBC205F028DD0050B3
:100B4E0005011A2701501B2303010751010F006EE7
:100B5E0000C007F3A8D70201D9510301075D05E3D1
:100B6E000201EF6B020E006E05D01AC505F31BC510
:060B7E0006F3006A1200FC
:100B8400050116BF02D0809001D0808016BD02D02E
:100B9400809201D0808216BB02D0809401D08084E0
:100BA40016B902D0809801D080880301B9B102D06F
:100BB400848401D0849480865BDC8096050116B71A
:100BC40002D0809001D0808016B502D0809201D0EE
:100BD400808216B302D0809401D0808416B102D0F2
:100BE400809801D080880301B9B102D0848401D0F7
:100BF400849480863DDC8096B9A102D02FDC01D09C
:040C04003ADC1200C4
:100C080010D0800E05010C6F1AD0C00E0C6F17D0D3
:100C1800940E0C6F14D0D40E0C6F11D0800E0C6F84
:100C28000ED005010C51010AECE00C51020AEDE06E
:100C38000C51030AEDE00C51040AEDE0EFD70D0565
:100C4800006E0C51002600C00CF50301B98100C0EC
:100C580016F594DFB9910EC516F590DFB98112002B
:0E0C6800026A016A006A086A036A000E12003E
:100C7600010E05010F6F000E106F800E0D6F000E36
:100C86000E6F0D510E112DE03AEC02F03AEC02F027
:100C96003AEC02F03AEC02F05DDE96923AEC02F0A3
:100CA6003AEC02F00D510C15006E000E0E15016E99
:100CB6000050011002E0958C02D059DE959C3AEC6A
:100CC60002F03AEC02F096820301B99384B204D0A2
:100CD600B9A301D001D0FAD705010E330D330E9F0B
:100CE600D0D70F6B106B3AEC02F03AEC02F032DE22
:100CF60096923AEC02F03AEC02F0958C3AEC02F05D
:100D06003AEC02F03AEC02F03AEC02F09682030179
:100D1600B99384B204D0B9A301D001D0FAD70501A2
:100D26000F6B106B3AEC02F03AEC02F083BC0F81C9
:100D36003AEC02F03AEC02F03AEC02F03AEC02F04D
:100D46003AEC02F03AEC02F03AEC02F03AEC02F03D
:100D56003AEC02F03AEC02F03AEC02F03AEC02F02D
:100D66003AEC02F03AEC02F03AEC02F03AEC02F01D
:0E0D7600F1DD9692FCDD959C0FC500F0120099
:100D84000A0E046E0CC500F0D7DD00C016F5ECDDCC
:100D940000C00DF50A0E046E0CC500F0CDDD08C0D0
:0E0DA40000F005010D51002600C00CF51200F4
:080DB2000AAE029E000E1200C1
:100DBA000B840BAEE8EF06F0010E036E026A016ABD
:0A0DCA00006A0A360232FF0E120022
:100DD4000B820BAEF4EF06F003680268016800684A
:080DE4000A360232FF0E120074
:100DEC00C3DD959C3AEC02F03AEC02F096820301DA
:100DFC00B99384B204D0B9A301D001D0FAD73AEC9C
:100E0C0002F03AEC02F03AEC02F03AEC02F03AEC76
:100E1C0002F03AEC02F03AEC02F03AEC02F0958C6B
:0A0E2C003AEC02F03AEC02F012007A
:100E360005010F6B030E0C25E96E000E0D21EA6EFF
:100E4600EECF16F5000E176F186F196F000E176F9D
:100E5600186F196F070E0C251A6F000E0D211B6FE8
:100E66000F511A27000E1B23010E1C6FD0DC050143
:100E76000F2B0E530FE0070E0C25006E000E0D21F2
:100E8600016E0F510024E16E000E0120E26E2D0E60
:100E9600E66E0F2B020E0C25E96E000E0D21EA6E92
:100EA600EECF16F5000E176F186F196F000E176F3D
:100EB600186F196F070E0C251A6F000E0D211B6F88
:100EC6000F511A27000E1B23020E1C6FA0DC020E08
:100ED60005010F270E530FE0070E0C25006E000EBE
:100EE6000D21016E0F510024E16E000E0120E26E0D
:100EF6003A0EE66E0F2B010E0C25E96E000E0D2143
:100F0600EA6EEECF16F5000E176F186F196F000E0A
:100F1600176F186F196F070E0C251A6F000E0D212B
:100F26001B6F0F511A27000E1B23020E1C6F6FDC5E
:100F3600020E05010F270E530FE0070E0C25006E5B
:100F4600000E0D21016E0F510024E16E000E0120EE
:100F5600E26E3A0EE66E0F2B0CC5E9FF0DC5EAFFF1
:100F6600EECF16F5000E176F186F196F000E176F7C
:100F7600186F196F070E0C251A6F000E0D211B6FC7
:100F86000F511A27000E1B23020E1C6F40DC020EA7
:100F960005010F270E530FE0070E0C25006E000EFD
:100FA6000D21016E0F510024E16E000E0120E26E4C
:100FB600200EE66E0F2B040E0C25E96E000E0D2199
:100FC600EA6EEECF16F5000E176F186F196F000E4A
:100FD600176F186F196F070E0C251A6F000E0D216B
:100FE6001B6F0F511A27000E1B23020E1C6F0FDCFE
:100FF600020E05010F270E530FE0070E0C25006E9B
:10100600000E0D21016E0F510024E16E000E01202D
:10101600E26E2F0EE66E0F2B050E0C25E96E000E06
:101026000D21EA6EEECF16F5000E176F186F196FC9
:10103600000E176F186F196F070E0C251A6F000E2A
:101046000D211B6F0F511A27000E1B23020E1C6F5A
:101056000AEC04F0020E05010F270E530FE0070EEF
:101066000C25006E000E0D21016E0F510024E16E5D
:10107600000E0120E26E2F0EE66E0F2B060E0C25DB
:10108600E96E000E0D21EA6EEECF16F5000E176F13
:10109600186F196F000E176F186F196F070E0C2552
:1010A6001A6F000E0D211B6F0F511A27000E1B23FE
:1010B600020E1C6F0AEC04F0020E05010F25026EEB
:1010C60002C00FF5070E0C25006E000E0D21016EF5
:1010D60002500024E16E000E0120E26EE66A070E61
:0C10E6000C25006E000E0D21016E1200A2
:0E10F2000301B9910CC516F544DDB981120059
:101100000CC516F50DC517F50EC518F50FC519F563
:1011100046DC00C014F5005203E014C500F037D0DF
:10112000800E05011119006E800E005C02E1010EB7
:10113000105D29E311510201DB5D04E1050110514D
:101140000201DA5D20E3010E0501105D006E000E64
:101150001159016EDEC204F0000E056ECEEC02F0F5
:101160000050030105250501246F015003010621EC
:101170000501256F12C526F513C527F5DEC228F532
:10118000BEEC01F003D0030E006E01D0006A120025
:101190000CC516F50DC517F50EC518F50FC519F5D3
:1011A000CFEC04F000C015F5005203E015C500F0C7
:1011B0003FD0050114510201DE5D03E2040E006E12
:1011C00037D0800E05011119006E800E005C02E11F
:1011D000010E105D29E311510201DB5D04E10501FF
:1011E00010510201DA5D20E3010E0501105D006E71
:1011F000000E1159016EDEC204F0000E056ECEEC39
:1012000002F00050030105250501166F015003018E
:1012100006210501176F12C518F513C519F514C578
:101220001AF5A3EC03F003D0030E006E01D0006AA0
:021230001200AA
:1012320003012B533AE1745338E12D6B010E2B6FEE
:101242000CC52FF30DC530F30EC531F30FC532F3C4
:1012520012C52EF30301330EE16E030EE26E2D5121
:10126200E126D8B0E22A2D5105011025E96E000EC3
:101272001121EA6EEECFE6FF03012D510501102583
:10128200E96E000E1121EA6EEE5207E003012D51C4
:10129200010F006E00C02DF301D001D0DBD7030196
:0E12A200B76BB86B010E006E01D0006A12002F
:1012B00005010C515A0804E3410E0C5DD8B00C8BAB
:0612C0000CC500F0120055
:1012C6000CC516F50DC517F50EC518F50FC519F59C
:1012D600CFEC04F000C013F5005203E013C500F094
:1012E60063D0050112510201DE5D03E2040E006EB9
:1012F6005BD0010EDC25006E000EDD21016E00C004
:10130600DCF201C0DDF2DCC216F5DDC217F5000E17
:101316000501186F196F010E1A6F000E1B6F1C6FF7
:101326001D6FDAC21EF5DBC21FF5000E206F216F9E
:1013360063EC04F000C0DCF201C0DDF20F0E030125
:1013460003250501166F000E030104210501176F21
:10135600030E1627000E1723DC0E186F020E196FE8
:10136600020E1A6FA3EC03F0010E0201DC5D006EA3
:10137600000EDD59016EDEC204F0000E056ECEECE5
:1013860002F00050030105250501166F0150030107
:1013960006210501176F10C518F511C519F512C5F7
:0A13A6001AF5A3EC03F0006A120030
:1013B0000CC502F00DC503F002C000F003C001F03F
:1013C000024A032A00C0E9FF01C0EAFFEE5201E031
:1013D000F3D705010C51025C006E0D510358016EEC
:0A13E000010E005E000E015A12001B
:1013EA00958C3AEC02F03AEC02F096823AEC02F072
:1013FA003AEC02F0BAEC04F0959C3AEC02F03AECC2
:0A140A0002F0ADEC04F0969212001F
:101414000501106B116B126B136B0F6B0E510F5D8B
:101424003FE20F510C25E96E000E0D21EA6EEE50DD
:10143400000A36E010C500F011C501F012C502F033
:1014440013C503F00A0E046E000E056E066E076ED9
:10145400E1EC03F000C010F501C011F502C012F573
:1014640003C013F50F510C25E96E000E0D21EA6E31
:10147400300EEE5C046E056A000E055A045000241A
:10148400106F05500120116F000E05BEFF0E0220E3
:10149400126F000E05BEFF0E0320136F0F2BBED775
:1014A40010C500F011C501F012C502F013C503F018
:0214B400120024
:1014B60005010E6B0E510C25E96E000E0D21EA6E2C
:0E14C600EE5202E00E2BF6D70EC500F012001B
:1014D40005010E6B0E510C25E96E000E0D21EA6E0E
:1014E400EE50000A17E00E510C25E96E000E0D2196
:1014F400EA6E300EEE5C0AE30E510C25E96E000E26
:101504000D21EA6EEE50390801E302D0006A09D0D9
:101514000E2BE0D70E51000A03E0010E006E01D03D
:04152400006A120047
:1015280005010C51200A09E00C510D0804E3090ECD
:101538000C5D01E302D0006A02D0010E006E1200B9
:1015480005010C51660806E3610E0C5D03E3010E0C
:10155800006E01D0006A00C00DF50C51460806E384
:10156800410E0C5D03E3010E006E01D0006A0050CD
:101578000D130CC516F5C3EC04F00D51001200C094
:041588000DF512004B
:10158C000CC516F50DC517F50EC518F50FC519F5D3
:10159C00CFEC04F000C014F5005203E014C500F0C9
:1015AC0046D012C5E1FF13C5E2FFE66AE66AE66AB9
:1015BC00E66A800E05011119006E800E005C02E1D6
:1015CC00010E105D30E311510201DD5D04E10501F6
:1015DC0010510201DC5D27E3DE51040820E3010E0B
:1015EC000501105D006E000E1159016EDEC204F093
:1015FC00000E056ECEEC02F000500301052505012E
:10160C00246F0150030106210501256F12C526F533
:10161C0013C527F5DEC228F5BEEC01F003D0060E8B
:10162C00006E05D003D0030E006E01D0006A1200CC
:10163C000CC516F5B6EC04F00F0E00160A0E0002DF
:10164C00F3CF01F00F0E05010C15006E01500026B2
:06165C0000C00CF51200B5
:1016620005010E6B0F6B800E106F000E116F105183
:10167200111125E03AEC02F03AEC02F0958C3AECCA
:1016820002F03AEC02F096820301B99384B204D0DC
:10169200B9A301D001D0FAD783AC05D0050110510E
:1016A2000E1311510F1305013AEC02F03AEC02F05D
:1016B200ADEC04F0969211331033119FD8D7958C6C
:1016C2003AEC02F03AEC02F00C510D1103E0BAECE4
:1016D20004F0959C3AEC02F03AEC02F09682030197
:1016E200B99384B204D0B9A301D001D0FAD73AECAD
:1016F20002F03AEC02F0ADEC04F096923AEC02F011
:101702003AEC02F0BAEC04F0959C0EC500F012001F
:1017120005010C515A0806E3410E0C5D03E3010E6C
:08172200006E01D0006A120004
:10172A000CB0D7EF0BF00CA27FEF0CF00E6A000E94
:10173A000264EEEF0BF0F00E0214D8A4B9EF0BF02E
:10174A00023A01380F0B02260138F00B016E0038FD
:10175A000F0B01260038F00B006E08380F0B00261D
:10176A000838F00B086E0E84D89002BED2EF0BF048
:10177A0008360036013602360E2A02BED2EF0BF0C8
:10178A0008360036013602360E2A02BED2EF0BF0B8
:10179A0008360036013602360E2A0E50036473EFFD
:1017AA000CF0035E0BBC08AE79EF0CF0D880800E0B
:1017BA0008640030000E002201220222D8A079EF2C
:1017CA000CF0023201320032034A7FEF0CF079EF5B
:1017DA000CF001C002F000C001F008C000F0086A75
:1017EA00000E0E86026425EF0CF0F00E0214D8A447
:1017FA000DEF0CF0023A01380F0B02260138F00BFC
:10180A00016E00380F0B01260038F00B006E0E84B3
:10181A00D89002BED2EF0BF00036013602360E2AFD
:10182A0002BED2EF0BF00036013602360E2A02BE95
:10183A00D2EF0BF00036013602360E2AD2EF0BF049
:10184A0001C002F000C001F0006A000E0E960E8878
:10185A00026452EF0CF0F00E0214D8A43DEF0CF023
:10186A00023A01380F0B02260138F00B016E0E8482
:10187A00D89002BED2EF0BF0013602360E2A02BE13
:10188A00D2EF0BF0013602360E2A02BED2EF0BF06F
:10189A00013602360E2AD2EF0BF001C002F0016ABD
:1018AA00000E0E86026485EF0CF0F00E0214D8A426
:1018BA0061EF0CF0023A0E84D89002BED2EF0BF020
:1018CA0002360E2A02BED2EF0BF002360E2A02BEF2
:1018DA00D2EF0BF002360E2AD2EF0BF0010E0C6E8D
:1018EA00DDEC06F089EF0CF0020E0C6ED9EC06F076
:1018FA0089EF0CF0040E0C6EEAEC06F089EF0CF09E
:0A190A00080E0C6E34EC06F012001B
:10191400FEC40CF5FFC40DF5CCDD00500D0A08E142
:10192400FEC40CF5FFC40DF5D3DD005201E002D076
:10193400006A3CD1030E0401FC250501006F000E72
:101944000401FD210501016FFEC40CF5FFC40DF572
:10195400010E0E6F5DDD00C5E1FF01C5E2FF00C0B1
:10196400E6FF020E0401FC250501006F000E0401D0
:10197400FD210501016F010E0401FE2505010C6F17
:10198400000E0401FF2105010D6F020E0E6F40DDF4
:1019940000C5E1FF01C5E2FF00C0E6FF010E04013E
:1019A400FC250501006F000E0401FD210501016FF6
:1019B400030E0401FE2505010C6F000E0401FF2136
:1019C40005010D6F020E0E6F23DD00C5E1FF01C599
:1019D400E2FF00C0E6FFFCC400F5FDC401F5050EFE
:1019E4000401FE2505010C6F000E0401FF21050111
:1019F4000D6F020E0E6F0CDD00C5E1FF01C5E2FFA5
:101A040000C0E6FF040E0401FC250501006F000E72
:101A14000401FD210501016F070E0401FE250501E6
:101A24000C6F000E0401FF2105010D6F020E0E6FF5
:101A3400EFDC00C5E1FF01C5E2FF00C0E6FF050ED3
:101A44000401FC250501006F000E0401FD210501C0
:101A5400016F090E0401FE2505010C6F000E04013F
:101A6400FF2105010D6F020E0E6FD2DC00C5E1FFF0
:101A740001C5E2FF00C0E6FF060E0401FC250501D6
:101A8400006F000E0401FD210501016F0B0E04011E
:101A9400FE2505010C6F000E0401FF2105010D6FE9
:101AA400020E0E6FB5DC00C5E1FF01C5E2FF00C008
:101AB400E6FF99DCD00E0C6F3BEC06F00C6B3BECB4
:101AC40006F0FCC4E9FFFDC4EAFFEECF0CF5C2EC5E
:101AD40006F000C00CF53BEC06F0010E0401FC25F9
:101AE400E96E000EFD21EA6EEECF0CF5C2EC06F0B5
:101AF40000C00CF53BEC06F0020E0401FC25E96E77
:101B0400000EFD21EA6EEECF0CF5C2EC06F000C02B
:101B14000CF53BEC06F0030E0401FC25E96E000E07
:101B2400FD21EA6EEECF0CF5C2EC06F000C00CF518
:101B34003BEC06F0040E0401FC25E96E000EFD21C9
:101B4400EA6EEECF0CF5C2EC06F000C00CF53BECEF
:101B540006F0050E0401FC25E96E000EFD21EA6E77
:101B6400EECF0CF5C2EC06F000C00CF53BEC06F031
:101B7400060E0401FC25E96E000EFD21EA6EEECF8F
:101B84000CF5C2EC06F000C00CF53BEC06F0800E40
:101B94000C6F3BEC06F0F6EC06F0FCC40CF5FDC44F
:0E1BA4000DF5010E05010E6F1BEC07F012008F
:101BB200FCC422F5FDC423F543EC02F0005202E11D
:101BC200006A1BD00201DC6BDD6B0F0E03010325E3
:101BD2000501166F000E030104210501176F030EA4
:101BE2001627000E1723DC0E186F020E196F020E55
:0C1BF2001A6FA3EC03F0010E006E12004D
:0C1BFE00FCC4ADFFACB201D0FDD712005A
:0A1C0A00D5C2CFFFD4C2CEFF1200F6
:101C14000401FC5315E10AC30CF50BC30DF50CC309
:101C24000EF50DC30FF5FDC410F5FEC411F5050145
:101C3400126B19EC09F0005203E1010E0401FC6F70
:101C44000401FC5348E0FDC40CF5FEC40DF5D8ECCA
:101C540009F00050010F126F6E0E0C6F020E0D6F23
:101C64005C0E0E6F020E0F6FFDC410F5FEC411F56D
:101C740063EC09F000522FE16E0E05010C6F020EA9
:101C84000D6F650E0E6F020E0F6FDCC210F5DDC214
:101C940011F5FF0E126F040E136F80EC08F00401AF
:101CA400FF51310A03E00301084B092B6E0E0501B5
:101CB4000C6F020E0D6F650E0E6F020E0F6FDCC2FD
:101CC40010F5DDC211F5820E126F020E136F010EB4
:081CD400146FC8EC08F01200C7
:101CDC000501006B016B00510401FC25E96E000E3F
:101CEC00FD21EA6EEE5203E00501002BF4D705014D
:101CFC0001510401FE25E96E000EFF21EA6EEE5241
:101D0C0016E0050100510401FC25E16E000EFD21D9
:101D1C00E26E050101510401FE25E96E000EFF2162
:101D2C00EA6EEECFE6FF0501002B012BE0D7050193
:101D3C0000510401FC25E16E000EFD21E26EE66A05
:061D4C0000C500F01200CA
:101D5200FCC4E9FFFDC4EAFFEECFFEF4000E04016D
:101D6200FF6F000EFF6F000EFF1902E1200EFE1939
:101D720007E0000EFF1902E1090EFE1901E003D08F
:101D8200FC4BFD2BE5D70501016B026B036B046B6A
:101D9200000E0401FF1902E12D0EFE1907E10501F3
:101DA200034B042B0401FC4BFD2B08D0000EFF1942
:101DB20002E12B0EFE1902E1FC4BFD2BFCC4E9FFF4
:101DC200FDC4EAFFEECFFEF4000EFF6F000EFF6FC0
:101DD200FEC416F5C3EC04F000521CE001C500F08D
:101DE20002C501F00A0E046E000E056ECEEC02F082
:101DF200300E0401FE5D026E000EFF59036E0250AA
:101E020000240501016F03500120026F0401FC4B05
:101E1200FD2BD4D705010351041108E0015100083C
:101E2200006E02C501F0000E015604D001C500F09B
:061E320002C501F01200E0
:101E38000B6A0A6A096A086A0E6A0334083604508B
:101E4800085E0550D8A0053C095E0650D8A0063C9F
:101E58000A5E0750D8A0073C0B5EE86AD8A0010EBE
:101E68000E5E0336070E0C6E0334083609360A3642
:101E78000B360E36045003A012D0085E0550D8A0C9
:101E8800053C095E0650D8A0063C0A5E0750D8A05B
:101E9800073C0B5EE86AD8A0010E0E5E11D008263A
:101EA8000550D8B0053C09260650D8B0063C0A268D
:101EB8000750D8B0073C0B26E86AD8B0010E0E26AA
:101EC80003360C2ED1D70234083609360A360B36BB
:101ED8000E36045003A012D0085E0550D8A0053C69
:101EE800095E0650D8A0063C0A5E0750D8A0073CF9
:101EF8000B5EE86AD8A0010E0E5E11D008260550C8
:101F0800D8B0053C09260650D8B0063C0A2607502A
:101F1800D8B0073C0B26E86AD8B0010E0E26023668
:101F2800070E0C6E0234083609360A360B360E36A2
:101F3800045002A012D0085E0550D8A0053C095EE6
:101F48000650D8A0063C0A5E0750D8A0073C0B5E96
:101F5800E86AD8A0010E0E5E11D008260550D8B048
:101F6800053C09260650D8B0063C0A260750D8B0CA
:101F7800073C0B26E86AD8B0010E0E2602360C2E56
:101F8800D1D70134083609360A360B360E360450D6
:101F980002A012D0085E0550D8A0053C095E065084
:101FA800D8A0063C0A5E0750D8A0073C0B5EE86A3A
:101FB800D8A0010E0E5E11D008260550D8B0053CF9
:101FC80009260650D8B0063C0A260750D8B0073C68
:101FD8000B26E86AD8B0010E0E260136070E0C6EE5
:101FE8000134083609360A360B360E36045001A07D
:101FF80012D0085E0550D8A0053C095E0650D8A04E
:10200800063C0A5E0750D8A0073C0B5EE86AD8A0D9
:10201800010E0E5E11D008260550D8B0053C0926E1
:102028000650D8B0063C0A260750D8B0073C0B2605
:10203800E86AD8B0010E0E2601360C2ED1D700342E
:10204800083609360A360B360E36045001A012D06F
:10205800085E0550D8A0053C095E0650D8A0063C8D
:102068000A5E0750D8A0073C0B5EE86AD8A0010EAC
:102078000E5E11D008260550D8B0053C092606503A
:10208800D8B0063C0A260750D8B0073C0B26E86AA9
:10209800D8B0010E0E260036070E0C6E0034083636
:1020A80009360A360B360E36045000A012D0085EE8
:1020B8000550D8A0053C095E0650D8A0063C0A5E2B
:1020C8000750D8A0073C0B5EE86AD8A0010E0E5E48
:1020D80011D008260550D8B0053C09260650D8B0BE
:1020E800063C0A260750D8B0073C0B26E86AD8B049
:1020F800010E0E2600360C2ED1D700B00ED004509B
:1021080008260550D8B0053C09260650D8B0063C2C
:0C2118000A260750D8B0073C0B26120026
:102124000401FE6BFF6B0501036B046BFCC4E9FF48
:10213400FDC4EAFFEECF0CF594EC0AF0005204E083
:102144000401FC4BFD2BF2D7FCC4E9FFFDC4EAFFFC
:10215400EE502D0A06E10401FE4BFF2BFC4BFD2B38
:102164000AD0FCC4E9FFFDC4EAFFEE502B0A03E1E8
:102174000401FC4BFD2B0401FCC400F0FDC401F080
:10218400FC4BFD2B00C0E9FF01C0EAFFEECF01F5D7
:10219400000E0501026F000E026F01C50CF5A4ECE0
:1021A4000AF000522EE001C50CF589EC0BF0005248
:1021B40008E001C50CF558EC09F000C001F5000E6B
:1021C400026F01C516F5C3EC04F0005205E0300EB1
:1021D400015F000E025B04D0570E015F000E025B2C
:1021E400033703910437033703910437033703910B
:1021F400043703370391043701510327000E0423E6
:10220400BAD70401FE51FF1109E00501035100088A
:10221400006E04C501F0000E015604D003C500F0A1
:0622240004C501F01200E8
:10222A00F5EC09F0D00E05010C6F3BEC06F00C6BD7
:10223A003BEC06F0F5EC09F0D10E0C6F3BEC06F026
:10224A00FCC4FFF4FDC400F5010E0C6F000E0D6F07
:10225A0031EC0BF0FFC4E1FF00C5E2FF00C0E6FF6E
:10226A00010E0401FC25FF6F000EFD210501006F20
:10227A00010E0C6F000E0D6F31EC0BF0FFC4E1FF85
:10228A0000C5E2FF00C0E6FF020E0401FC25FF6F55
:10229A00000EFD210501006F010E0C6F000E0D6F7F
:1022AA0031EC0BF0FFC4E1FF00C5E2FF00C0E6FF1E
:1022BA00030E0401FC25FF6F000EFD210501006FCE
:1022CA00010E0C6F000E0D6F31EC0BF0FFC4E1FF35
:1022DA0000C5E2FF00C0E6FF040E0401FC25FF6F03
:1022EA00000EFD210501006F010E0C6F000E0D6F2F
:1022FA0031EC0BF0FFC4E1FF00C5E2FF00C0E6FFCE
:10230A00050E0401FC25FF6F000EFD210501006F7B
:10231A00010E0C6F000E0D6F31EC0BF0FFC4E1FFE4
:10232A0000C5E2FF00C0E6FF060E0401FC25FF6FB0
:10233A00000EFD210501006F0C6B0D6B31EC0BF0EB
:10234A00FFC4E1FF00C5E2FF00C0E6FFF6EC06F0BD
:10235A00FCC4FFF4FDC400F5FCC4E9FFFDC4EAFFB8
:10236A00EECF00F07F0E001405010C6F1EEC0BF08F
:10237A00FFC4E1FF00C5E2FF00C0E6FF010E040151
:10238A00FC25FF6F000EFD210501006FFFC4E9FF68
:10239A0000C5EAFFEECF0CF51EEC0BF0FFC4E1FF1F
:1023AA0000C5E2FF00C0E6FF020E0401FC25FF6F34
:1023BA00000EFD210501006FFFC4E9FF00C5EAFF19
:1023CA00EECF0CF51EEC0BF0FFC4E1FF00C5E2FFF7
:1023DA0000C0E6FF030E0401FC25FF6F000EFD217D
:1023EA000501006FFFC4E9FF00C5EAFFEECF0CF557
:1023FA001EEC0BF0FFC4E1FF00C5E2FF00C0E6FFE0
:10240A00040E0401FC25FF6F000EFD210501006F7B
:10241A00FFC4E9FF00C5EAFFEECF0CF51EEC0BF096
:10242A00FFC4E1FF00C5E2FF00C0E6FF050E04019C
:10243A00FC25FF6F000EFD210501006FFFC4E9FFB7
:10244A0000C5EAFFEECF0CF51EEC0BF0FFC4E1FF6E
:10245A0000C5E2FF00C0E6FF060E0401FC25FF6F7F
:10246A00000EFD210501006FFFC4E9FF00C5EAFF68
:10247A00EECF0CF51EEC0BF0FFC4E1FF00C5E2FF46
:10248A0000C0E6FFFCC40CF5FDC40DF5FEC40EF554
:10249A001BEC07F0070E0401FC25006E000EFD215F
:0424AA00016E1200AD
:0E24AE000401FCB102D09D9001D09D8012006F
:1024BC000401FE6BFE51FC25E96E000EFD21EA6E57
:1024CC00EE50000A27E0FE51FC25E96E000EFD21BE
:1024DC00EA6E610EEE5C1CE3FE51FC25E96E000E0B
:1024EC00FD21EA6EEE507A0813E3FE51FC25016ED5
:1024FC00000EFD21026E01C0E9FF02C0EAFF200EB2
:10250C00EE5C006E01C0E1FF02C0E2FF00C0E6FF1E
:0E251C00FE2BD0D7FCC400F0FDC401F012006D
:10252A0001C522F502C523F543EC02F000525CE036
:10253A0009C5E1FF0AC5E2FF010EE66E000EE66E6E
:10254A0009C5E9FF0AC5EAFFEECF01F0EECF02F0B6
:10255A0002500201DB5D02E10150DA5D42E301C58E
:10256A000CF502C50DF503C50EF504C50FF509C531
:10257A00E9FF0AC5EAFFEECF10F5EECF11F5FC0E22
:10258A000501126F040E136FC6EC0AF0005216E131
:10259A00050108510401FF190EE105010751040163
:1025AA00FE1909E1050106510401FD1904E10501BD
:1025BA0005510401FC1902E1006A18D009C5E9FFB6
:1025CA000AC5EAFFEECF00F0EECF01F0004A012A79
:1025DA0009C5E1FF0AC5E2FF00C0E6FF01C0E6FF48
:0E25EA00AFD7030E006E02D0010E006E12007D
:1025F800016A05010551015C18E201500325E96EE5
:10260800000E0421EA6EEE5210E001500125E16E41
:10261800000E0221E26E01500325E96E000E04212E
:10262800EA6EEECFE6FF012AE4D701500125E16EFC
:0E263800000E0221E26EE66A01C000F0120000
:1026460010D0800E0401FC6F1AD0C00EFC6F17D09C
:10265600940EFC6F14D0D40EFC6F11D0800EFC6F5C
:102666000ED00401FC51010AECE0FC51020AEDE037
:10267600FC51030AEDE0FC51040AEDE0EFD7FD053D
:10268600006EFC51002600C0FCF400C016F5C2EC3A
:1026960005F0B9910501006B00510401FE25E96EB4
:1026A600000EFF21EA6EEE520FE005010051040113
:1026B600FE25E96E000EFF21EA6EEECF0CF579ECF1
:0E26C60008F00501002BE8D70301B9811200CE
:1026D40001C516F502C517F503C518F504C519F5A6
:1026E400CFEC04F000C0FCF4005203E0FCC400F0A2
:1026F40095D007C50CF508C50DF5D8EC09F00050C8
:10270400010F016E01C007F301500201DE5D03E217
:10271400040E006E83D00501095349E00201DB5128
:10272400DD5D02E1DA51DC5D3EE2DCC200F0DDC2D7
:1027340001F0DEC204F0000E056ECEEC02F0005093
:10274400030105250501166F01500301062105014A
:10275400176F07C518F508C519F507C31AF5A3ECD3
:1027640003F0010E0201DC25006E000EDD21016E76
:1027740000C0DCF201C0DDF20F0E030103250501E8
:10278400166F000E030104210501176F030E1627AF
:10279400000E1723DC0E186F020E196F020E1A6F4B
:1027A400A3EC03F003D0050E006E38D036D0800EB3
:1027B40005010619006E800E005C02E1010E055D44
:1027C40029E306510201DD5D04E105010551020121
:1027D400DC5D20E3010E0501055D006E000E065967
:1027E400016EDEC204F0000E056ECEEC02F0005065
:1027F400030105250501166F01500301062105019A
:10280400176F07C518F508C519F507C31AF5A3EC22
:0E28140003F003D0030E006E01D0006A120024
:102822000B800BAE1DEF14F0026A0AAEFF0E026EB1
:0C283200016E006E0A360232FF0E12002A
:10283E00026A05010651025C19E202500125F66E8C
:10284E00000E0221F76E000E0321F86E0900F5CF7F
:10285E0001F002500425D96E000E0521DA6E0150EA
:10286E00DE1802E0006A04D0022AE3D7010E006EE1
:02287E00120046
:102880000401FC6BFD6BFC5105010125E96E000E96
:102890000221EA6EEE5203E00401FC2BF4D704019E
:1028A000FD5105010325F66E000E0421F76E000EA2
:1028B0000521F86E0900F5CF00F000521CE004017C
:1028C000FC5105010125E16E000E0221E26E0401BA
:1028D000FD5105010325F66E000E0421F76E000E72
:1028E0000521F86E0900F5CF00F000C0E6FF0401F5
:1028F000FC2BFD2BD4D70401FC5105010125E16E11
:0E290000000E0221E26EE66AFCC400F0120036
:10290E00140E0401FD6FFD530CE0FCC40CF5FDC468
:10291E000DF5200E05010E6F04EC06F00401FD0707
:04292E00F2D71200CA
:10293200FCC40CF5FDC40DF5D8EC09F0010E005EE7
:10294200000E015A00C0FFF4016B026B036B046BB3
:102952000401FE6B080EFE5DD8B0D3D0FE51FC25FB
:10296200E96E000EFD21EA6EEE52D8B4CAD0FE51D5
:10297200FC25E96E000EFD21EA6E300EEE5C2BE3C3
:10298200FE51FC25E96E000EFD21EA6EEE5039087B
:1029920022E3FFC400F00032009E010E016E050E1C
:1029A200026E00500126D8B0022AFE51FC25E96EC3
:1029B200000EFD21EA6E300EEE5C006E01C0E9FFF2
:1029C20002C0EAFFEE50001201C0E1FF02C0E2FFC6
:1029D20000C0E6FF6DD0FE51FC25E96E000EFD2120
:1029E200EA6E610EEE5C2DE3FE51FC25E96E000EEF
:1029F200FD21EA6EEE50660824E3FFC400F00032C7
:102A0200009E010E016E050E026E00500126D8B026
:102A1200022AFE51FC25E96E000EFD21EA6E610ECE
:102A2200EE5C006E0A0E002601C0E9FF02C0EAFF5A
:102A3200EE50001201C0E1FF02C0E2FF00C0E6FF5B
:102A420037D0FE51FC25E96E000EFD21EA6E410EE3
:102A5200EE5C2DE3FE51FC25E96E000EFD21EA6ECF
:102A6200EE50460824E3FFC400F00032009E010E3F
:102A7200016E050E026E00500126D8B0022AFE51E8
:102A8200FC25E96E000EFD21EA6E410EEE5C006E41
:102A92000A0E002601C0E9FF02C0EAFFEE50001252
:102AA20001C0E1FF02C0E2FF00C0E6FF01D029D071
:102AB200010EFF15016E0150010A1FE1FFC400F073
:102AC2000032009E010E0501056F050E066F0050D3
:102AD2000527D8B0062B010EE96E050EEA6E0050EE
:102AE200E926D8B0EA2AEECF16F5B6EC04F005C511
:102AF200E1FF06C5E2FF00C0E6FF0401FE2BFF076F
:102B020029D701C500F002C501F003C502F004C5D2
:042B120003F01200BA
:102B16000401FCB102D06F9A01D06F8AFCB302D0D7
:102B26006F9C01D06F8CFCB502D06F9E01D06F8E6A
:102B36006EBA03D06FAA03D011D06FAA0FD06EBCA5
:102B460003D06FAC03D00AD06FAC08D06EBE03D0F2
:102B56006FAE03D003D06FAE01D001D0E9D712001B
:102B66000501016B026B036B046BFCC4E9FFFDC43A
:102B7600EAFFEECF01F5FF0E0401FC25E96EFF0E1C
:102B8600FD21EA6EEECF02F5FE0EFC25016EFF0E6C
:102B9600FD21026E01C0E9FF02C0EAFF030EEE143A
:102BA6000501036F01C0E9FF02C0EAFFEECF00F0A6
:102BB60000BA02D0039501D0038501C0E9FF02C027
:102BC600EAFFEECF00F000BC02D0039701D00387E6
:102BD60001C0E9FF02C0EAFFEECF00F000BE02D05E
:102BE600039901D00389FD0E0401FC25016EFF0E39
:102BF600FD21026E01C0E9FF02C0EAFFEECF00F040
:102C060000B003D00501039B02D00501038B01C070
:102C1600E9FF02C0EAFFEECF00F000B202D0039D4A
:102C260001D0038D01C0E9FF02C0EAFFEECF00F03C
:102C360000B402D0039F01D0038F01C0E9FF02C098
:102C4600EAFFEECF01F001C004F50433049F04331C
:102C5600049F0433049F01C500F002C501F003C5BB
:082C660002F004C503F01200A6
:102C6E0001C5E1FF02C5E2FF03C5E6FFFF0E050148
:102C7E000125E16EFF0E0221E26E04C5E6FFFE0E97
:102C8E000125E16EFF0E0221E26E030E0515006EA8
:102C9E0000C0E6FFFE0E0125E16EFF0E0221E26E80
:102CAE00E686030E006E005007E0033703910437EB
:102CBE0005370637FF0FF8D7FE0E0125016EFF0E02
:102CCE000221026EE00E0515006E01C0E9FF02C082
:102CDE00EAFFEE50001201C0E1FF02C0E2FF00C0A9
:102CEE00E6FFFD0E0125E16EFF0E0221E26E06C526
:042CFE00E6FF1200DB
:062D02009388938A120081
:102D08000401FE6B0501016B026B036B046B04018C
:102D1800FE51FC25E96E000EFEBFFF0EFD21EA6E96
:102D2800EE523AE001C500F002C501F003C502F019
:102D380004C503F00A0E046E000E056E066E076EDB
:102D4800E1EC03F000C001F501C002F502C003F593
:102D580003C004F5FE51FC25E96E000EFEBFFF0E10
:102D6800FD21EA6E300EEE5C046E056A000E055A0F
:102D7800045000240501016F05500120026F000E68
:102D880005BEFF0E0220036F000E05BEFF0E0320D6
:102D9800046F0401FE2BBBD701C500F002C501F08A
:0A2DA80003C502F004C503F0120099
:102DB2000401FF6BFF51FC25E96E000EFD21EA6E56
:102DC200EE5202E0FF2BF6D7FF51FC25E16E000E1A
:102DD200FD21E26EFEC4E6FFFF2BFF51FC25E16EF2
:0E2DE200000EFD21E26EE66AFFC400F0120052
:102DF00001C516F502C517F503C518F504C519F583
:102E0000CFEC04F000C0FCF4005203E0FCC400F07E
:102E100037D0800E05010619006E800E005C02E1BD
:102E2000010E055D29E306510201DD5D04E10501A6
:102E300005510201DC5D20E3010E0501055D006E18
:102E4000000E0659016EDEC204F0000E056ECEECD7
:102E500002F00050030105250501246F0150030114
:102E600006210501256F07C526F508C527F5DEC231
:102E700028F5BEEC01F003D0030E006E01D0006A0D
:022E800012003E
:082E82000B6A0B86FF0E120023
:102E8A000401FC6BFC5105010325F66E000E0421BA
:102E9A00F76E000E0521F86E0900F5CF00F000521A
:102EAA001BE00401FC5105010125E16E000E02211F
:102EBA00E26E0401FC5105010325F66E000E0421A1
:102ECA00F76E000E0521F86E0900F5CF00F000C07C
:102EDA00E6FF0401FC2BD6D70401FC5105010125AC
:102EEA00E16E000E0221E26EE66AFCC400F01200F6
:102EFA00086A096A100E0C6E013408360936045045
:102F0A00085E0550D8A0053C095ED8B007D0045029
:102F1A0008260550D8B0053C0926D8900036013657
:062F2A000C2EEAD7120094
:102F30000401FC6B07C500F0050107070052D8B477
:102F4000A5D00401FC51050105250401FD6F000E0B
:102F5000050106210401FE6F010EE96E050EEA6E01
:102F600005010751E926D8B0EA2AEECF16F5B6ECEE
:102F700004F00F0E0016FDC4E1FFFEC4E2FF00C026
:102F8000E6FF0401FC5105010525E96E000E06214E
:102F9000EA6E0A0EEE5C16E20401FC5105010525FD
:102FA000016E000E0621026E01C0E9FF02C0EAFFB9
:102FB000300EEE24006E01C0E1FF02C0E2FF00C04F
:102FC000E6FF15D00401FC5105010525016E000E38
:102FD0000621026E01C0E9FF02C0EAFF370EEE24AF
:102FE000006E01C0E1FF02C0E2FF00C0E6FF040185
:102FF000FC2BFC5105010525E16E000E0621E26E59
:10300000010EE96E050EEA6E0751E926D8B0EA2AEC
:103010000F0EEE14006E00C0E6FF0401FC51050126
:103020000525E96E000E0621EA6E0A0EEE5C16E238
:103030000401FC5105010525016E000E0621026EFA
:1030400001C0E9FF02C0EAFF300EEE24006E01C0AD
:10305000E1FF02C0E2FF00C0E6FF15D00401FC5111
:1030600005010525016E000E0621026E01C0E9FF73
:1030700002C0EAFF370EEE24006E01C0E1FF02C07D
:10308000E2FF00C0E6FF0401FC2B54D70401FC5111
:1030900005010525E16E000E0621E26EE66A05C512
:0830A00000F006C501F012006A
:1030A80001C516F502C517F503C518F504C519F5C8
:1030B800CFEC04F000C0FCF4005203E0FCC400F0C4
:1030C8008CD0DEC207F30201DE51040803E2060ECB
:1030D800006E83D005010B5349E00201DB51DD5D31
:1030E80002E1DA51DC5D3EE2DCC200F0DDC201F053
:1030F800DEC204F0000E056ECEEC02F000500301B3
:1031080005250501166F0150030106210501176FFA
:10311800070E186F050E196F07C31AF5A3EC03F015
:10312800010E0201DC25006E000EDD21016E00C0DB
:10313800DCF201C0DDF20F0E030103250501166F55
:10314800000E030104210501176F030E1627000E58
:103158001723DC0E186F020E196F020E1A6FA3ECFC
:1031680003F003D0050E006E38D036D0800E05016E
:103178000619006E800E005C02E1010E055D29E370
:1031880006510201DD5D04E1050105510201DC5D26
:1031980020E3010E0501055D006E000E0659016E63
:1031A800DEC204F0000E056ECEEC02F00050030102
:1031B80005250501166F0150030106210501176F4A
:1031C800070E186F050E196F07C31AF5A3EC03F065
:0C31D80003D0030E006E01D0006A12004C
:0431E4008EDD12006A
:1031E800230E0401E56F450EE66F520EE76F520E8F
:1031F800E86F5F0EE96F410EEA6F440EEB6F440E05
:10320800EC6F520EED6F230EEE6FEF6BF06BF0511B
:10321800DA25E96E000EDB21EA6EEE52D8B497D1BA
:10322800F051DA25E96E000EDB21EA6EEE50020A53
:10323800D8A478D0F02BDF6B020EDF5D1BE2F051D3
:10324800DA25E96E000EDB21EA6EEE5213E0C30EBA
:10325800E16E020EE26EDF51E126D8B0E22AF051AB
:10326800DA25E96E000EDB21EA6EEECFE6FFF02BE1
:10327800DF2BE2D7C30EE16E020EE26EDF51E126CC
:10328800D8B0E22AE66AC30EFC6F020EFD6FA9EC05
:103298000EF000C0E0F4E0C400F00401E0070052C2
:1032A80035E0DF6B020EDF5D1BE2F051DA25E96ED7
:1032B800000EDB21EA6EEE5213E0C30EE16E020E41
:1032C800E26EDF51E126D8B0E22AF051DA25E96E44
:1032D800000EDB21EA6EEECFE6FFF02BDF2BE2D704
:1032E800C30EE16E020EE26EDF51E126D8B0E22A8B
:1032F800E66AC30EFC6F020EFD6F92EC10F000C080
:10330800DFF400C0FCF4FFEC0DF0C5D70401F05168
:10331800DA25E96E000EDB21EA6EEE500A0AD8B40F
:10332800F02B14D1F051DA25E96E000EDB21EA6E9C
:10333800EE50030A0AE0F051DA25E96E000EDB21AF
:10334800EA6EEE50050A01E0ACD0F051DA25E96EDC
:10335800000EDB21EA6EEECFE0F4E50EE16F040E1D
:10336800E26FF02BDF6B040EDF5D1BE2F051DA2514
:10337800E96E000EDB21EA6EEE5213E0C30EE16E39
:10338800020EE26EDF51E126D8B0E22AF051DA25CA
:10339800E96E000EDB21EA6EEECFE6FFF02BDF2BA5
:1033A800E2D7C30EE16E020EE26EDF51E126D8B01D
:1033B800E22AE66AC30EFC6F020EFD6F92EC10F073
:1033C80000C0E3F401C0E4F40401DF6BDFC400F0E3
:1033D800000E016E026E036E003600900136023652
:1033E8000336DC510024F66EDD510120F76EDE5104
:1033F8000220F86E0900F5CF00F00900F5CF01F0C2
:103408000050011029E0DFC405F0DF2B05C000F0F3
:10341800000E016E026E036E003600900136023611
:103428000336DC510024F66EDD510120F76EDE51C3
:103438000220F86E0900F5CF01F00900F5CF02F07F
:10344800E451021802E10150E31905E1E3C4E1F493
:10345800E4C4E2F401D0BAD7E051030A0AE1E1C4B6
:103468000CF5E2C40DF5D8EC09F000C0FCF4FFEC53
:103478000DF00401DF6BDF51E125E96E000EE2215A
:10348800EA6EEE520DE0DF51E125E96E000EE22111
:10349800EA6EEECFFCF4FFEC0DF00401DF2BEBD766
:1034A80055D0F051DA25E96E000EDB21EA6EEE50B8
:1034B800040A40E1F02BDF6B020EDF5D1BE2F051E6
:1034C800DA25E96E000EDB21EA6EEE5213E0C30E38
:1034D800E16E020EE26EDF51E126D8B0E22AF05129
:1034E800DA25E96E000EDB21EA6EEECFE6FFF02B5F
:1034F800DF2BE2D7C30EE16E020EE26EDF51E1264A
:10350800D8B0E22AE66AC30EFC6F020EFD6F92EC99
:1035180010F000C0DFF400C0FCF4FFEC0DF0040173
:10352800F051DA25E96E000EDB21EA6EEE52D8A4DE
:10353800F02B0CD0F051DA25E96E000EDB21EA6E93
:10354800EECFFCF4FFEC0DF00401F02B60D6120076
:10355800010E0201A46FBF6B030E0401FC6F87EC20
:1035680014F0030EFC6F110EFD6FF80EFE6F000EC7
:10357800FF6F23EC13F00401DF6B030EDE6F310ED7
:103588000501016FA50E026F000E036F750E046F23
:10359800030E056F0401DF5105010427D8B0052B80
:1035A800030E066F1FEC14F00052D8B48ED304013A
:1035B800DE51DF25006E00C0DFF4060EDE6F5F0E01
:1035C8000501016F040E026F750E036F030E046F81
:1035D80000500327D8B0042B060E056FFCEC12F040
:1035E8005F0E0401FC6F040EFD6F99EC14F000C02F
:1035F800E4F401C0E5F402C0E6F403C0E7F4DE51E8
:10360800DF25006E00C0DFF4030EDE6F5F0E0501DC
:10361800016F040E026F030E0026016A000E0122DC
:10362800750E0024036F030E0120046F040E056F4E
:10363800FCEC12F05F0E0401FC6F040EFD6F84ECCD
:1036480016F000C0E0F401C0E1F4190E0501016FA5
:10365800A50E026F000E036F750E046F030E056F43
:103668000401DF5105010427D8B0052BDEC406F597
:103678001FEC14F00052D8B4AFD00401DE51DF259E
:10368800006E00C0DFF4040EDE6FE4C4E8F4E5C4A5
:10369800E9F4E6C4EAF4E7C4EBF4040E002600C03B
:1036A800DFF4010EDE6F750EE96E030EEA6E005050
:1036B800E926D8B0EA2AEECFE2F4002A00C0DFF407
:1036C800010EDE6F750EE96E030EEA6E0050E926F4
:1036D800D8B0EA2AEECFE3F4440E05010C6F000ED1
:1036E8000D6F240E0E6F000E0F6FE0C410F5E1C4CD
:1036F80011F5EC0E126F040E136FC6EC0AF00050B1
:10370800030A69E1010E0201DC25016E000EDD21CC
:10371800026E0401E151021802E10150E0195BE177
:10372800440E0501016F000E026F240E036F000E98
:10373800046FFF0E056FFF0E066FE8C407F5E9C4B6
:1037480008F5EAC409F5EBC40AF5010E0B6FA8DC0D
:10375800005241E1440E0501016F000E026F240E74
:10376800036F000E046FE0C405F5E1C406F5E8C474
:1037780007F5E9C408F5EAC409F5EBC40AF50B6BCB
:103788008FDC440E0501016F000E026F1B0E036FE4
:10379800000E046FE0C405F5E1C406F5E2C407F5C0
:1037A800000E086F096F0A6F0B6B7ADC440E050177
:1037B800016F000E026F270E036F000E046FE0C446
:1037C80005F5E1C406F5E3C407F5000E086F096FB7
:1037D8000A6F0B6B65DC77D2490E0501016FA50EE8
:1037E800026F000E036F750E046F030E056F040160
:1037F800DF5105010427D8B0052BDEC406F51FEC00
:1038080014F00052D8B4B5D00401DE51DF25006EA3
:1038180000C0DFF4040EDE6F040E002600C0DFF4E3
:10382800060EDE6F5F0E0501016F040E026F750E46
:10383800036F030E046F00500327D8B0042B060E45
:10384800056FFCEC12F05F0E0401FC6F040EFD6FB7
:1038580099EC14F000C0E8F401C0E9F402C0EAF4FD
:1038680003C0EBF4DE51DF25006E00C0DFF4010E6B
:10387800DE6F750EE96E030EEA6E0050E926D8B0C9
:10388800EA2AEECFE2F4002A00C0DFF4010EDE6F70
:10389800750EE96E030EEA6E0050E926D8B0EA2AE2
:1038A800EECFE3F4440E05010C6F000E0D6F240EED
:1038B8000E6F000E0F6FE0C410F5E1C411F5EC0EA9
:1038C800126F040E136FC6EC0AF0005251E10401A6
:1038D800EF51E71908E1EE51E61905E1ED51E51957
:1038E80002E1EC51E41944E1440E0501016F000EB8
:1038F800026F240E036F000E046FE0C405F5E1C4E7
:1039080006F5E8C407F5E9C408F5EAC409F5EBC407
:103918000AF50B6B54EC18F0440E0501016F000E0C
:10392800026F1B0E036F000E046FE0C405F5E1C4BF
:1039380006F5E2C407F5000E086F096F0A6F0B6BF6
:1039480054EC18F0440E0501016F000E026F270EAB
:10395800036F000E046FE0C405F5E1C406F5E3C487
:1039680007F5000E086F096F0A6F0B6B54EC18F01F
:10397800AAD1450E0501016FA50E026F000E036F57
:10398800750E046F030E056F0401DF51050104274E
:10399800D8B0052BDEC406F51FEC14F0005251E038
:1039A8000401DE51DF25006E00C0DFF4040EDE6F77
:1039B800040E002600C0DFF4010EDE6F750EE96EFE
:1039C800030EEA6E0050E926D8B0EA2AEECFE2F4F8
:1039D800440E05010C6F000E0D6F240E0E6F000EC5
:1039E8000F6FE0C410F5E1C411F5EC0E126F040E70
:1039F800136FC6EC0AF0005223E10401EF51E719F6
:103A080008E1EE51E61905E1ED51E51902E1EC5145
:103A1800E41916E1440E0501016F000E026F1B0E3A
:103A2800036F000E046FE0C405F5E1C406F5E2C4B7
:103A380007F5000E086F096F0A6F0B6B54EC18F04E
:103A480042D12D0E0501016FA50E026F000E036F06
:103A5800750E046F030E056F0401DF51050104277D
:103A6800D8B0052BDEC406F51FEC14F0005251E067
:103A78000401DE51DF25006E00C0DFF4040EDE6FA6
:103A8800040E002600C0DFF4010EDE6F750EE96E2D
:103A9800030EEA6E0050E926D8B0EA2AEECFE3F426
:103AA800440E05010C6F000E0D6F240E0E6F000EF4
:103AB8000F6FE0C410F5E1C411F5EC0E126F040E9F
:103AC800136FC6EC0AF0005223E10401EF51E71925
:103AD80008E1EE51E61905E1ED51E51902E1EC5175
:103AE800E41916E1440E0501016F000E026F270E5E
:103AF800036F000E046FE0C405F5E1C406F5E3C4E6
:103B080007F5000E086F096F0A6F0B6B54EC18F07D
:103B1800DAD0510E0501016FA50E026F000E036F7A
:103B2800750E046F030E056F0401DF5105010427AC
:103B3800D8B0052BDEC406F51FEC14F00052D8B43B
:103B4800C2D00401DE51DF27040EDE6F040E05012A
:103B5800016F040E026FF50E036FA40E046F000EC2
:103B6800056F45EC17F0070E016F040E026F750E16
:103B7800036F030E046FDFC405F5FCEC12F0440E6E
:103B88000C6F000E0D6F240E0E6F000E0F6FE0C449
:103B980010F5E1C411F5EC0E126F040E136FC6ECAC
:103BA8000AF00052D8A479D00401E751EF1908E1CE
:103BB800E651EE1905E1E551ED1902E1E451EC1980
:103BC8005EE1440E0501016F000E026F1B0E036FCC
:103BD800000E046FE0C405F5E1C406F5E20E076FB8
:103BE800040E086FF8EC16F0440E0501016F000E84
:103BF800026F270E036F000E046FE0C405F5E1C4E1
:103C080006F5E30E076F040E086FF8EC16F0040EC5
:103C18000401FC6F040EFD6FE2C4FEF4D9EC16F04B
:103C2800040EFC6F040EFD6FE3C4FEF4D9EC16F02D
:103C3800040E0501016F040E026F580E036FA50EE6
:103C4800046F000E056F40EC14F016C301F5000E6A
:103C5800026F036F046F5F0E056F040E066F010E8F
:103C6800076F98EC17F0040E0401FC6F040EFD6F4B
:103C78005F0EFE6F040EFF6F6EEC0EF00DD0040E9B
:103C88000501016F040E026FAA0E036FA40E046FE4
:103C9800000E056F40EC14F00DD00501040E016F05
:103CA800040E026FB30E036FA40E046F000E056FAF
:103CB80040EC14F0010E0401FC6F040EFD6F040EBD
:103CC800FE6F0AEC0EF01DEF30F0350E0501016FA6
:103CD800A50E026F000E036F750E046F030E056FBD
:103CE8000401DF5105010427D8B0052BDEC406F511
:103CF8001FEC14F00052D8B4B3D00401DE51DF2514
:103D0800006E00C0DFF4030EDE6F3D0E0501016F8B
:103D1800A50E026F000E036F750E046F030E056F7C
:103D280000500427D8B0052B030E066F1FEC14F0C3
:103D3800005215E00401DE51DF25006E00C0DFF4FB
:103D4800440EFC6F040EFD6F750EFE6F030EFF6FC1
:103D58000050FE27D8B0FF2B8AEC0CF07FD0410E24
:103D6800016FA50E026F000E036F750E046F030E30
:103D7800056F0401DF5105010427D8B0052BDEC407
:103D880006F51FEC14F0005269E00401DE51DF274C
:103D9800440EFC6F040EFD6F010EFE6F15EC11F062
:103DA800040E0501016F040E026FF50E036FA40ED9
:103DB800046F000E056F45EC17F0040E016F040E3A
:103DC800026F350E036FA50E046F000E056F40ECF1
:103DD80014F0040E016F040E026F410E036FA50E5E
:103DE800046F000E056F40EC14F0040E0401FC6F24
:103DF800040EFD6F4B0EFE6F040EFF6F6EEC0EF09F
:103E0800040E0501016F040E026F580E036FA50E14
:103E1800046F000E056F40EC14F016C301F5000E98
:103E2800026F036F046F5F0E056F040E066F010EBD
:103E3800076F98EC17F0040E0401FC6F040EFD6F79
:103E48005F0EFE6F040EFF6F6EEC0EF0010EFC6F3E
:103E5800040EFD6F040EFE6F0AEC0EF01DEF30F03D
:103E6800210E0501016FA50E026F000E036F750E7E
:103E7800046F030E056F0401DF5105010427D8B054
:103E8800052BDEC406F51FEC14F00052D8B4A2EFDF
:103E980025F00401DE51DF25006E00C0DFF4060EB8
:103EA800DE6F5F0E0501016F040E026F750E036F62
:103EB800030E046F00500327D8B0042B060E056FBD
:103EC800FCEC12F05F0E0401FC6F040EFD6F99EC20
:103ED80014F000C0E4F401C0E5F402C0E6F403C045
:103EE800E7F4DE51DF25006E00C0DFF4030EDE6F5D
:103EF8005F0E0501016F040E026F030E0026016AB2
:103F0800000E0122750E0024036F030E0120046FBA
:103F1800040E056FFCEC12F05F0E0401FC6F040E3A
:103F2800FD6F84EC16F000C0E0F401C0E1F4190E56
:103F38000501016FA50E026F000E036F750E046F69
:103F4800030E056F0401DF5105010427D8B0052BC6
:103F5800DEC406F51FEC14F00052D8B40AD10401EF
:103F6800DE51DF25006E00C0DFF4040EDE6FE4C40E
:103F7800E8F4E5C4E9F4E6C4EAF4E7C4EBF4040EB3
:103F8800002600C0DFF4080EDE6F5F0E0501016F2A
:103F9800040E026F750E036F030E046F00500327A3
:103FA800D8B0042B080E056FFCEC12F05F0E04016C
:103FB800FC6F040EFD6F99EC14F000C0F0F401C022
:103FC800F1F402C0F2F403C0F3F4DE51DF25006E11
:103FD80000C0DFF4080EDE6F5F0E0501016F040EEE
:103FE800026F750E036F030E046F00500327D8B0DD
:103FF800042B080E056FFCEC12F05F0E0401FC6F39
:10400800040EFD6F99EC14F000C0F4F401C0F5F44F
:1040180002C0F6F403C0F7F4DE51DF25006E00C0DD
:10402800DFF4010EDE6F750EE96E030EEA6E0050C6
:10403800E926D8B0EA2AEECFE3F4D40E05010C6FD6
:10404800000E0D6FA80E0E6F010E0F6FE0C410F575
:10405800E1C411F5EC0E126F040E136FC6EC0AF0F2
:104068000050030AD8A483D0010E0201DC25016E9A
:10407800000EDD21026E0401E151021802E1015037
:10408800E01975E1D40E0501016F000E026FA80E4C
:10409800036F010E046FFF0E056FFF0E066FE8C475
:1040A80007F5E9C408F5EAC409F5EBC40AF5010EF9
:1040B8000B6F54EC18F000525AE1D40E0501016F51
:1040C800000E026FAB0E036F010E046FE0C405F51E
:1040D800E1C406F5F0C407F5F1C408F5F2C409F522
:1040E800F3C40AF50B6B54EC18F0D40E0501016FFC
:1040F800000E026F830E036F000E046FE0C405F517
:10410800E1C406F5F4C407F5F5C408F5F6C409F5E5
:10411800F7C40AF50B6B54EC18F0D40E0501016FC7
:10412800000E026FCC0E036F000E046FE0C405F59D
:10413800E1C406F5E3C407F5000E086F096F0A6FBE
:104148000B6B54EC18F0D40E0501016F000E026FD2
:10415800E50E036F000E046FE0C405F5E1C406F533
:104168006D0E076F020E086F096B6AEC13F0A0EF73
:1041780025F0490E0501016FA50E026F000E036FB1
:10418800750E046F030E056F0401DF510501042746
:10419800D8B0052BDEC406F51FEC14F00052D8B4D5
:1041A8000ED10401DE51DF25006E00C0DFF4040EDD
:1041B800DE6F040E002600C0DFF4060EDE6F5F0E11
:1041C8000501016F040E026F750E036F030E046F75
:1041D80000500327D8B0042B060E056FFCEC12F034
:1041E8005F0E0401FC6F040EFD6F99EC14F000C023
:1041F800E8F401C0E9F402C0EAF403C0EBF4DE51CC
:10420800DF25006E00C0DFF4080EDE6F5F0E0501CB
:10421800016F040E026F750E036F030E046F0050DA
:104228000327D8B0042B080E056FFCEC12F05F0EC4
:104238000401FC6F040EFD6F99EC14F000C0F0F45B
:1042480001C0F1F402C0F2F403C0F3F4DE51DF253B
:10425800006E00C0DFF4080EDE6F5F0E0501016F0F
:10426800040E026F750E036F030E046F00500327D0
:10427800D8B0042B080E056FFCEC12F05F0E040199
:10428800FC6F040EFD6F99EC14F000C0F4F401C04B
:10429800F5F402C0F6F403C0F7F4DE51DF25006E32
:1042A80000C0DFF4010EDE6F750EE96E030EEA6ED4
:1042B8000050E926D8B0EA2AEECFE3F4D40E05017F
:1042C8000C6F000E0D6FA80E0E6F010E0F6FE0C47D
:1042D80010F5E1C411F5EC0E126F040E136FC6EC65
:1042E8000AF000526BE10401EF51E71908E1EE51C1
:1042F800E61905E1ED51E51902E1EC51E4195EE139
:10430800D40E0501016F000E026FA80E036F010E97
:10431800046FE0C405F5E1C406F5E8C407F5E9C48F
:1043280008F5EAC409F5EBC40AF50B6B54EC18F070
:10433800D40E0501016F000E026FAB0E036F010E64
:10434800046FE0C405F5E1C406F5F0C407F5F1C44F
:1043580008F5F2C409F5F3C40AF50B6B54EC18F030
:10436800D40E0501016F000E026F830E036F000E5D
:10437800046FE0C405F5E1C406F5F4C407F5F5C417
:1043880008F5F6C409F5F7C40AF50B6B54EC18F0F8
:10439800D40E0501016F000E026FCC0E036F000EE4
:1043A800046FE0C405F5E1C406F5E3C407F5000EA3
:1043B800086F096F0A6F0B6B54EC18F0BDD3510EE0
:1043C8000501016FA50E026F000E036F750E046FD5
:1043D800030E056F0401DF5105010427D8B0052B32
:1043E800DEC406F51FEC14F00052D8B4F8D004016E
:1043F800DE51DF27040EDE6F040E0501016F040E87
:10440800026FF50E036FA40E046F000E056F45ECE6
:1044180017F0070E016F040E026F750E036F030E7F
:10442800046FDFC405F5FCEC12F0D40E0C6F000E1F
:104438000D6FA80E0E6F010E0F6FE0C410F5E1C4EA
:1044480011F5EC0E126F040E136FC6EC0AF0005251
:10445800D8A4BBD00401E751EF1908E1E651EE19E1
:1044680005E1E551ED1902E1E451EC19D8A4A0D019
:10447800D40E05010C6F000E0D6FAB0E0E6F010E02
:104488000F6FE0C410F5E1C411F5F00E126F040EC1
:10449800136FC6EC0AF0D40E05010C6F000E0D6FF9
:1044A800830E0E6F000E0F6FE0C410F5E1C411F516
:1044B800F40E126F040E136FC6EC0AF0D40E050149
:1044C800016F000E026FCC0E036F000E046FE0C484
:1044D80005F5E1C406F5E30E076F040E086FF8EC66
:1044E80016F0F0C401F5F1C402F5F2C403F5F3C403
:1044F80004F55F0E0501056F040E066F040E076FC5
:1045080098EC17F0040E0401FC6F040EFD6F5F0EAB
:10451800FE6F040EFF6F6EEC0EF0F4C401F5F5C4E7
:1045280002F5F6C403F5F7C404F55F0E0501056F3F
:10453800040E066F040E076F98EC17F0040E0401C2
:10454800FC6F040EFD6F5F0EFE6F040EFF6F6EECC6
:104558000EF0040EFC6F040EFD6FE3C4FEF4D9ECFC
:1045680016F0040E0501016F040E026F580E036F5A
:10457800A50E046F000E056F40EC14F016C301F58C
:10458800000E026F036F046F5F0E056F040E066F57
:10459800010E076F98EC17F0040E0401FC6F040E6F
:1045A800FD6F5F0EFE6F040EFF6F6EEC0EF00DD008
:1045B800040E0501016F040E026FAA0E036FA40E0C
:1045C800046F000E056F40EC14F0010E0401FC6F3F
:1045D800040EFD6F040EFE6F0AEC0EF0ADD2110E44
:1045E8000501016FA50E026F000E036F750E046FB3
:1045F800030E056F0401DF5105010427D8B0052B10
:10460800DEC406F51FEC14F0005269E00401DE5127
:10461800DF25006E00C0DFF4040EDE6F040E0026F6
:1046280000C0DFF4080EDE6F5F0E0501016F040E97
:10463800026F750E036F030E046F00500327D8B086
:10464800042B080E056FFCEC12F05F0E0401FC6FE2
:10465800040EFD6F99EC14F000C0F0F401C0F1F401
:1046680002C0F2F403C0F3F4D40E05010C6F000E7F
:104678000D6FA80E0E6F010E0F6FE0C410F5E1C4A8
:1046880011F5EC0E126F040E136FC6EC0AF000520F
:1046980025E10401EF51E71908E1EE51E61905E1BA
:1046A800ED51E51902E1EC51E41918E1D40E0501C8
:1046B800016F000E026FAB0E036F010E046FE0C4B2
:1046C80005F5E1C406F5F0C407F5F1C408F5F2C430
:1046D80009F5F3C40AF50B6B54EC18F02DD2390E1A
:1046E8000501016FA50E026F000E036F750E046FB2
:1046F800030E056F0401DF5105010427D8B0052B0F
:10470800DEC406F51FEC14F0005269E00401DE5126
:10471800DF25006E00C0DFF4040EDE6F040E0026F5
:1047280000C0DFF4080EDE6F5F0E0501016F040E96
:10473800026F750E036F030E046F00500327D8B085
:10474800042B080E056FFCEC12F05F0E0401FC6FE1
:10475800040EFD6F99EC14F000C0F4F401C0F5F4F8
:1047680002C0F6F403C0F7F4D40E05010C6F000E76
:104778000D6FA80E0E6F010E0F6FE0C410F5E1C4A7
:1047880011F5EC0E126F040E136FC6EC0AF000520E
:1047980025E10401EF51E71908E1EE51E61905E1B9
:1047A800ED51E51902E1EC51E41918E1D40E0501C7
:1047B800016F000E026F830E036F000E046FE0C4DA
:1047C80005F5E1C406F5F4C407F5F5C408F5F6C423
:1047D80009F5F7C40AF50B6B54EC18F0ADD12D0EA2
:1047E8000501016FA50E026F000E036F750E046FB1
:1047F800030E056F0401DF5105010427D8B0052B0E
:10480800DEC406F51FEC14F0005251E00401DE513D
:10481800DF25006E00C0DFF4040EDE6F040E0026F4
:1048280000C0DFF4010EDE6F750EE96E030EEA6E4E
:104838000050E926D8B0EA2AEECFE3F4D40E0501F9
:104848000C6F000E0D6FA80E0E6F010E0F6FE0C4F7
:1048580010F5E1C411F5EC0E126F040E136FC6ECDF
:104868000AF0005223E10401EF51E71908E1EE5183
:10487800E61905E1ED51E51902E1EC51E41916E1FB
:10488800D40E0501016F000E026FCC0E036F000EEF
:10489800046FE0C405F5E1C406F5E3C407F5000EAE
:1048A800086F096F0A6F0B6B54EC18F045D1150EA1
:1048B8000501016FA50E026F000E036F750E046FE0
:1048C800030E056F0401DF5105010427D8B0052B3D
:1048D800DEC406F51FEC14F00052D8B47AD00401F7
:1048E800DE51DF25006E00C0DFF4040EDE6F040E1B
:1048F800002600C0DFF4010EDE6F750EE96E030EB0
:10490800EA6E0050E926D8B0EA2AEECFE3F4002A8E
:1049180000C0DFF40C0EDE6F5F0E0501016F040EA0
:10492800026F750E036F030E046F00500327D8B093
:10493800042B0C0E056FFCEC12F0D40E0C6F000E5D
:104948000D6FA80E0E6F010E0F6FE0C410F5E1C4D5
:1049580011F5EC0E126F040E136FC6EC0AF000523C
:1049680037E10401EF51E71908E1EE51E61905E1D5
:10497800ED51E51902E1EC51E4192AE1D40E0501E3
:10498800016F000E026FCC0E036F000E046FE0C4BF
:1049980005F5E1C406F5E3C407F5000E086F096FD5
:1049A8000A6F0B6B54EC18F0D40E0501016F000E62
:1049B800026FE50E036F000E046FE0C405F5E1C455
:1049C80006F55F0E076F040E086F096B6AEC13F0AB
:1049D800B3D00D0E0501016FA50E026F000E036F17
:1049E800750E046F030E056F0401DF5105010427DE
:1049F800D8B0052BDEC406F51FEC14F00052D8B46D
:104A08008ED00401DE51DF25006E00C0DFF4040EF5
:104A1800DE6F040E002600C0DFF4010EDE6F750E97
:104A2800E96E030EEA6E0050E926D8B0EA2AEECF06
:104A3800E3F4002A00C0DFF4080EDE6F5F0E050104
:104A4800016F040E026F750E036F030E046F0050A2
:104A58000327D8B0042B080E056FFCEC12F05F0E8C
:104A68000401FC6F040EFD6F99EC14F000C0F4F41F
:104A780001C0F5F402C0F6F403C0F7F4D40E050142
:104A88000C6F000E0D6FA80E0E6F010E0F6FE0C4B5
:104A980010F5E1C411F5EC0E126F040E136FC6EC9D
:104AA8000AF000523BE10401EF51E71908E1EE5129
:104AB800E61905E1ED51E51902E1EC51E4192EE1A1
:104AC800D40E0501016F000E026FCC0E036F000EAD
:104AD800046FE0C405F5E1C406F5E3C407F5000E6C
:104AE800086F096F0A6F0B6B54EC18F0D40E0501B0
:104AF800016F000E026F830E036F000E046FE0C497
:104B080005F5E1C406F5F4C407F5F5C408F5F6C4DF
:104B180009F5F7C40AF50B6B54EC18F00DD0040E28
:104B28000501016F040E026FB30E036FA40E046F2C
:104B3800000E056F40EC14F01DEF30F00501DD0E9E
:104B4800016FA40E026F000E036F750E046F030E43
:104B5800056F0401DF5105010427D8B0052BDEC419
:104B680006F51FEC14F00052D8B46ED10401DE51E2
:104B7800DF25006E00C0DFF4060EDE6F5F0E050154
:104B8800016F040E026F750E036F030E046F005061
:104B98000327D8B0042B060E056FFCEC12F05F0E4D
:104BA8000401FC6F040EFD6F99EC14F000C0E4F4EE
:104BB80001C0E5F402C0E6F403C0E7F4DE51DF25E6
:104BC800006E00C0DFF4030EDE6F5F0E0501016F9B
:104BD800040E026F030E0026016A000E0122750EF4
:104BE8000024036F030E0120046F040E056FFCEC14
:104BF80012F05F0E0401FC6F040EFD6F84EC16F0DA
:104C080000C0E0F401C0E1F4190E0501016FA50E22
:104C1800026F000E036F750E046F030E056F04011B
:104C2800DF5105010427D8B0052BDEC406F51FECBB
:104C380014F0005265E00401DE51DF27040EDE6F38
:104C4800E4C4E8F4E5C4E9F4E6C4EAF4E7C4EBF440
:104C5800DC0E05010C6F000E0D6F410E0E6F000E7D
:104C68000F6FE0C410F5E1C411F5EC0E126F040EDD
:104C7800136FC6EC0AF00050030A41E1010E02016D
:104C8800DC25016E000EDD21026E0401E1510218DF
:104C980002E10150E01933E1DC0E0501016F000E5D
:104CA800026F410E036F000E046FFF0E056FFF0EBB
:104CB800066FE8C407F5E9C408F5EAC409F5EBC4CA
:104CC8000AF5010E0B6F54EC18F0005218E1DC0ED7
:104CD8000501016F000E026F410E036F000E046F95
:104CE800E0C405F5E1C406F5E8C407F5E9C408F52C
:104CF800EAC409F5EBC40AF50B6B54EC18F0A2D022
:104D0800510E0501016FA50E026F000E036F750E9F
:104D1800046F030E056F0401DF5105010427D8B0A5
:104D2800052BDEC406F51FEC14F00052D8B48AD067
:104D38000401DE51DF27040EDE6F040E0501016F4A
:104D4800040E026FF50E036FA40E046F000E056FBC
:104D580045EC17F0070E016F040E026F750E036F16
:104D6800030E046FDFC405F5FCEC12F0DC0E0C6FCB
:104D7800000E0D6F410E0E6F000E0F6FE0C410F5A0
:104D8800E1C411F5EC0E126F040E136FC6EC0AF0B5
:104D9800005242E10401E751EF1908E1E651EE192A
:104DA80005E1E551ED1902E1E451EC1927E1040EA2
:104DB8000501016F040E026F580E036FA50E046FF4
:104DC800000E056F40EC14F016C301F5000E026FDB
:104DD800036F046F5F0E056F040E066F010E076FF9
:104DE80098EC17F0040E0401FC6F040EFD6F5F0EC3
:104DF800FE6F040EFF6F6EEC0EF00DD0040E050171
:104E0800016F040E026FAA0E036FA40E046F000E4A
:104E1800056F40EC14F00DD00501040E016F040E6F
:104E2800026FB30E036FA40E046F000E056F40EC03
:104E380014F0010E0401FC6F040EFD6F040EFE6FEA
:104E48000AEC0EF01DEF30F0D90E0501016FA40E2B
:104E5800026F000E036F750E046F030E056F0401D9
:104E6800DF5105010427D8B0052BDEC406F51FEC79
:104E780014F00052D8B43ED20401DE51DF27030EED
:104E8800DE6F040E0501016F040E026FF50E036F4D
:104E9800A40E046F000E056F45EC17F0040E016FA9
:104EA800040E026FD90E036FA40E046F000E056F77
:104EB80040EC14F0E50E016FA40E026F000E036FB4
:104EC800750E046F030E056F0401DF5105010427F9
:104ED800D8B0052BDEC406F51FEC14F0005251E0E3
:104EE8000401DE51DF25006E00C0DFF4750EFC6F93
:104EF800030EFD6F0050FC27D8B0FD2BD9EC0DF048
:104F0800005231E0040E0501016F040E026FE50E38
:104F1800036FA40E046F000E056F40EC14F05F0ED3
:104F2800016F040E026F750E036F030E046F040108
:104F3800DF5105010327D8B0042B030E056FFCECE5
:104F480012F05F0E0401FC6F040EFD6F5EEC12F0B0
:104F5800040EFC6F040EFD6F5F0EFE6F040EFF6FF4
:104F68006EEC0EF00DD0040E0501016F040E026FF9
:104F7800AA0E036FA40E046F000E056F40EC14F028
:104F880089D10501E10E016FA40E026F000E036FB7
:104F9800750E046F030E056F0401DF510501042728
:104FA800D8B0052BDEC406F51FEC14F00052D8B4B7
:104FB800A1D00401DE51DF25006E00C0DFF4750EBC
:104FC8000501226F030E236F00502227D8B0232B30
:104FD80043EC02F00052D8B47FD0040E0501016FF3
:104FE800040E026FE10E036FA40E046F000E056F2E
:104FF80040EC14F05F0E016F040E026F750E036F24
:10500800030E046F0401DF5105010327D8B0042BF8
:10501800030E056FFCEC12F05F0E0401FC6F040E2A
:10502800FD6F5EEC12F0040EFC6F040EFD6F5F0E58
:10503800FE6F040EFF6F6EEC0EF0040E0501016F9B
:10504800040E026FCD0E036FA40E046F000E056FE1
:1050580040EC14F0DCC216F5DDC217F5000E186F2F
:10506800196F5F0E1A6F040E1B6F040E1C6F0AEC8B
:1050780004F0040E0401FC6F040EFD6F5F0EFE6F5A
:10508800040EFF6F6EEC0EF0040E0501016F040EA6
:10509800026FD10E036FA40E046F000E056F40EC73
:1050A80014F0DAC216F5DBC217F5000E186F196F87
:1050B8005F0E1A6F040E1B6F040E1C6F0AEC04F0CF
:1050C800040E0401FC6F040EFD6F5F0EFE6F040EEC
:1050D800FF6F6EEC0EF00DD0040E0501016F040E8B
:1050E800026FAA0E036FA40E046F000E056F40EC4A
:1050F80014F0D0D005012D0E016FA50E026F000E21
:10510800036F750E046F030E056F0401DF5105016F
:105118000427D8B0052BDEC406F51FEC14F00052A6
:10512800D8B4B8D00401DE51DF25006E00C0DFF42A
:10513800750E0501226F030E236F00502227D8B089
:10514800232B43EC02F00052D8B497D0040E05018B
:10515800016F040E026F2D0E036FA50E046F000E73
:10516800056F40EC14F05F0E016F040E026F750EB0
:10517800036F030E046F0401DF5105010327D8B044
:10518800042B030E056FFCEC12F05F0E0401FC6F9C
:10519800040EFD6F5EEC12F0040EFC6F040EFD6F42
:1051A8005F0EFE6F040EFF6F6EEC0EF0010EE06FE7
:1051B800000EE16FE1510201DD5D04E10401E051FF
:1051C8000201DC5D20E3750E0501016F030E026F1D
:1051D8000401DF5105010127D8B0022B270E036F08
:1051E800000E046FE0C405F5E1C406F52D0E076F47
:1051F800000E086F096F0A6F0B6B54EC18F004016E
:10520800E04BE12BD7D7750E0501016F030E026F36
:105218000401DF5105010127D8B0022B270E036FC7
:10522800000E046F010E056F000E066F2D0E076F3E
:10523800000E086F096F0A6F0B6B54EC18F00052E0
:105248000EE1040E0501016F040E026F950E036F47
:10525800A40E046F000E056F40EC14F00DD005018C
:10526800040E016F040E026FB30E036FA40E046FD9
:10527800000E056F40EC14F00DD00501040E016F0F
:10528800040E026FAA0E036FA40E046F000E056FC2
:1052980040EC14F005015F0E016F040E026F580E0A
:1052A800036FA50E046F000E056F45EC17F016C3CB
:1052B80001F5000E026F036F046F600E056F040E98
:1052C800066F010E076F98EC17F0040E0401FC6FCF
:1052D800040EFD6F5F0EFE6F040EFF6F6EEC0EF096
:1052E800010EFC6F040EFD6F040EFE6F0AEC0EF04B
:1052F8001DEF30F0D50E0501016FA40E026F000EF0
:10530800036F750E046F030E056F0401DF5105016D
:105318000427D8B0052BDEC406F51FEC14F00052A4
:10532800D8B4D3D10401DE51DF25006E00C0DFF40C
:10533800040EDE6F5F0E0501016F040E026F750E1D
:10534800036F030E046F00500327D8B0042B040E1C
:10535800056FFCEC12F05F0E0401FC6F040EFD6F8C
:1053680084EC16F000C0E0F401C0E1F4DE51DF2760
:10537800030EDE6F040E0501016F040E026FE90EC5
:10538800036FA40E046F000E056F45EC17F0040EB2
:10539800016F040E026F580E036FA50E046F000E06
:1053A800056F40EC14F016C301F5000E026F036F91
:1053B800046F5F0E056F040E066F010E076F98EC01
:1053C80017F0040E0401FC6F040EFD6F5F0EFE6FF4
:1053D800040EFF6F6EEC0EF0310E0501016FA50E85
:1053E800026F000E036F750E046F030E056F040144
:1053F800DF5105010427D8B0052BDEC406F51FECE4
:1054080014F00052D8B45FD1040E016F040E026F7D
:10541800310E036FA50E046F000E056F40EC14F0FB
:105428000401DE51DF25006E00C0DFF4030EDE6FDD
:10543800010E0501016FA50E026F000E036F750EB8
:10544800046F030E056F00500427D8B0052B030E18
:10545800066F1FEC14F0005275E0440E0C6F000E3E
:105468000D6F240E0E6F000E0F6FE0C410F5E1C42F
:1054780011F5EC0E126F040E136FC6EC0AF0005211
:1054880053E1440E0501016F000E026F1B0E036FFE
:10549800000E046FE0C405F5E1C406F5E20E076FDF
:1054A800040E086FF8EC16F0440E0501016F000EAB
:1054B800026F270E036F000E046FE0C405F5E1C408
:1054C80006F5E30E076F040E086FF8EC16F0ECC44F
:1054D80001F5EDC402F5EEC403F5EFC404F55F0E63
:1054E8000501056F040E066F030E076F98EC17F0A1
:1054F800040E0401FC6F040EFD6F5F0EFE6F040EB8
:10550800FF6F6EEC0EF0040EFC6F040EFD6FE2C42C
:10551800FEF4D9EC16F0040EFC6F040EFD6FE3C424
:10552800FEF4D9EC16F00DD0040E0501016F040E3F
:10553800026FB30E036FA40E046F000E056F40ECEC
:1055480014F0C1D00501FD0E016FA40E026F000E0C
:10555800036F750E046F030E056F0401DF5105011B
:105568000427D8B0052BDEC406F51FEC14F0005252
:10557800D8B4A9D00401DE51DF25006E00C0DFF4E5
:10558800060EDE6F5F0E0501016F040E026F750EC9
:10559800036F030E046F00500327D8B0042B060EC8
:1055A800056FFCEC12F05F0E0401FC6F040EFD6F3A
:1055B80099EC14F000C0E8F401C0E9F402C0EAF480
:1055C80003C0EBF4DE51DF25006E00C0DFF4010EEE
:1055D800DE6F750EE96E030EEA6E0050E926D8B04C
:1055E800EA2AEECFE2F4002A00C0DFF4010EDE6FF3
:1055F800750EE96E030EEA6E0050E926D8B0EA2A65
:10560800EECFE3F4440E0501016F000E026F240E85
:10561800036F000E046FE0C405F5E1C406F5ECC4A1
:1056280007F5EDC408F5EEC409F5EFC40AF50B6BF0
:1056380054EC18F000523AE1440E0501016F000ED7
:10564800026F1B0E036F000E046FE0C405F5E1C482
:1056580006F5E2C407F5000E086F096F0A6F0B6BB9
:1056680054EC18F0440E0501016F000E026F270E6E
:10567800036F000E046FE0C405F5E1C406F5E3C44A
:1056880007F5000E086F096F0A6F0B6B54EC18F0E2
:10569800040E0501016F040E026F950E036FA40E30
:1056A800046F000E056F40EC14F00DD00501040ED8
:1056B800016F040E026FB30E036FA40E046F000E89
:1056C800056F40EC14F01DEF30F00501090E016F75
:1056D800A50E026F000E036F750E046F030E056FA3
:1056E8000401DF5105010427D8B0052BDEC406F5F7
:1056F8001FEC14F00052D8B41DEF30F00401DE5155
:10570800DF25006E00C0DFF4030EDE6F2D0E0501ED
:10571800016FA50E026F000E036F750E046F030E66
:10572800056F00500427D8B0052B030E066F1FEC39
:1057380014F00052D8B4AAD00401DE51DF25006E5F
:1057480000C0DFF4750EE96E030EEA6E0050E9261C
:10575800D8B0EA2AEE50310A04E1010E0201C06F06
:1057680002D00201C06BEA0E0501016F010E026F43
:10577800E30E036F010E046F010E056F000E066F36
:10578800C0C207F5000E086F096F0A6F0B6B54EC67
:1057980018F0030E0401FC6F87EC14F0030EFC6F85
:1057A800010EFD6F0201C05306E03D0E0401DA6FE1
:1057B800020EDB6F05D004012E0EDA6F020EDB6FCE
:1057C800DAC4FEF4DBC4FFF423EC13F0040E050185
:1057D800016F040E026FF50E036FA40E046F000E26
:1057E800056F45EC17F0040E016F040E026F090EE9
:1057F800036FA50E046F000E056F40EC14F0040E45
:10580800016F040E026F2D0E036FA50E046F000EBC
:10581800056F40EC14F0040E0401FC6F040EFD6FDC
:10582800300E0201C0250401FE6FD9EC16F05F0EA0
:105838000501016F040E026F580E036FA50E046F69
:10584800000E056F45EC17F016C301F5000E026F48
:10585800036F046F600E056F040E066F010E076F6D
:1058680098EC17F0040E0401FC6F040EFD6F5F0E38
:10587800FE6F040EFF6F6EEC0EF0010EFC6F040E4F
:10588800FD6F040EFE6F0AEC0EF0D3D3050E050172
:10589800016FA50E026F000E036F750E046F030EE5
:1058A800056F0401DF5105010427D8B0052BDEC4BC
:1058B80006F51FEC14F00052D8B4A3D00401DE5151
:1058C800DF25006E00C0DFF4750EE96E030EEA6E88
:1058D8000050E926D8B0EA2AEE50310A03E1010E59
:1058E800736F01D0736B800E0501016F010E026F9B
:1058F800E30E036F010E046F010E056F000E066FB5
:1059080073C407F5000E086F096F0A6F0B6B54EC30
:1059180018F0030E0401FC6F87EC14F0030EFC6F03
:10592800010EFD6F735305E0230EDC6F020EDD6F71
:1059380004D04C0EDC6F020EDD6FDCC4FEF4DDC457
:10594800FFF423EC13F0040E0501016F040E026F3F
:10595800F50E036FA40E046F000E056F45EC17F0EB
:10596800040E016F040E026F090E036FA50E046F7B
:10597800000E056F40EC14F0040E016F040E026F68
:10598800050E036FA50E046F000E056F40EC14F0B2
:10599800040E0401FC6F040EFD6F300E7325FE6FBC
:1059A800D9EC16F05F0E0501016F040E026F580E58
:1059B800036FA50E046F000E056F45EC17F016C3B4
:1059C80001F5000E026F036F046F600E056F040E81
:1059D800066F010E076F98EC17F0040E0401FC6FB8
:1059E800040EFD6F5F0EFE6F040EFF6F6EEC0EF07F
:1059F800010EFC6F040EFD6F040EFE6F0AEC0EF034
:105A080018D3F10E0501016FA40E026F000E036F8B
:105A1800750E046F030E056F0401DF51050104279D
:105A2800D8B0052BDEC406F51FEC14F0005269E06F
