:10000000D1EF4DF000000000FBEF4DF000000000CC
:0C0010000000000000000000DFEF4DF0D9
:10001C00016A080E015C17E2050151BF02D0819AFA
:10002C0001D0818A8188060E0D6E05010D2EFDD73B
:10003C000000513751918198060E0D6E0D2EFED792
:10004C000000012AE6D7938A00008188060E0D6E07
:10005C000D2EFED7000081BA02D0019001D0018094
:0E006C008198939A000E01B0010E006E1200F2
:10007A000501526B938A016A080E015C12E252373B
:10008A0052918188060E0D6E0D2EFED7000081BAA0
:10009A0052818198060E0D6E0D2EFED70000012AA0
:1000AA00EBD7939A51B102D0818A01D0819A00008C
:1000BA008188060E0D6E0D2EFED70000819852C55E
:0400CA0000F0120030
:1000CE00939A819A060E0D6E0D2EFED70000938820
:0E00DE00060E0D6E0D2EFED70000938A120046
:1000EC00938A9388060E0D6E0D2EFED70000939A00
:1000FC00819A060E0D6E0D2EFED7000093988198F6
:02010C001200DF
:10010E004DC500F005014D07005228E049C5E9FF35
:10011E004AC5EAFFEE50000A0CE049C5E9FF4AC5A0
:10012E00EAFF4BC5D9FF4CC5DAFFEE50DE1801E1F0
:10013E000FD049C5E9FF4AC5EAFF4BC5D9FF4CC5EB
:10014E00DAFFDE50EE5C006E016A000E015A08D036
:10015E000501494B4A2B4B4B4C2BD2D7006A016AF7
:02016E0012007D
:100170000450085E0550D8A0053C095E0650D8A082
:10018000063C0A5E0750D8A0073C0B5E0336070EFC
:100190000C6E0334083609360A360B36045003A0B9
:1001A0000ED0085E0550D8A0053C095E0650D8A0C8
:1001B000063C0A5E0750D8A0073C0B5E0DD008260F
:1001C0000550D8B0053C09260650D8B0063C0A2692
:1001D0000750D8B0073C0B2603360C2EDAD7023472
:1001E000083609360A360B36045003A00ED0085ED6
:1001F0000550D8A0053C095E0650D8A0063C0A5E12
:100200000750D8A0073C0B5E0DD008260550D8B08B
:10021000053C09260650D8B0063C0A260750D8B03F
:10022000073C0B260236070E0C6E023408360936E0
:100230000A360B36045002A00ED0085E0550D8A036
:10024000053C095E0650D8A0063C0A5E0750D8A0BF
:10025000073C0B5E0DD008260550D8B0053C09269A
:100260000650D8B0063C0A260750D8B0073C0B26EB
:1002700002360C2EDAD70134083609360A360B3628
:10028000045002A00ED0085E0550D8A0053C095EBF
:100290000650D8A0063C0A5E0750D8A0073C0B5E6B
:1002A0000DD008260550D8B0053C09260650D8B018
:1002B000063C0A260750D8B0073C0B260136070E2D
:1002C0000C6E0134083609360A360B36045001A08C
:1002D0000ED0085E0550D8A0053C095E0650D8A097
:1002E000063C0A5E0750D8A0073C0B5E0DD00826DE
:1002F0000550D8B0053C09260650D8B0063C0A2661
:100300000750D8B0073C0B2601360C2EDAD7003444
:10031000083609360A360B36045001A00ED0085EA6
:100320000550D8A0053C095E0650D8A0063C0A5EE0
:100330000750D8A0073C0B5E0DD008260550D8B05A
:10034000053C09260650D8B0063C0A260750D8B00E
:10035000073C0B260036070E0C6E003408360936B3
:100360000A360B36045000A00ED0085E0550D8A007
:10037000053C095E0650D8A0063C0A5E0750D8A08E
:10038000073C0B5E0DD008260550D8B0053C092669
:100390000650D8B0063C0A260750D8B0073C0B26BA
:1003A00000360C2EDAD700B00ED0045008260550C7
:1003B000D8B0053C09260650D8B0063C0A2607509E
:0803C000D8B0073C0B26120027
:1003C8000B1E0A1E091E081E082AD8B4092AD8B40A
:0803D8000A2AD8B40B2A120016
:1003E00085DEA00E0501516F19DE4AC551F516DEF6
:1003F00049C551F513DE7ADEA10E0501516F0EDEFF
:1004000005014E6B4D05016E026A000E025A800E08
:10041000006E800E0218005C02E101504E5D11E298
:100420004E514B254F6F000E4C21506F010E516FF6
:1004300024DE4FC5E1FF50C5E2FF00C0E6FF4E2BB2
:10044000E1D74E514B254F6F000E4C21506F516B31
:1004500014DE4FC5E1FF50C5E2FF00C0E6FF37DE06
:02046000120088
:10046200050149B102D0809801D0808849B302D0F9
:10047200809401D0808449B502D0809201D08082DC
:1004820049B702D0809001D08080000000008086B1
:0E049200060E0D6E0D2EFED700008096120095
:0804A00049C500F0003A12000A
:1004A8000B6A0A6A096A00500402F4CF09F0F3CF14
:1004B80008F001500502F4CF0BF0F3CF0AF000501A
:1004C8000502F3500926F4500A22E86A0B2201506B
:1004D8000402F3500926F4500A22E86A0B2208C0E5
:1004E80000F009C001F00AC002F00BC003F01200CE
:1004F8008494C70E0D6E0D2EFED700000000050176
:10050800475302E0848401D084940000809648C553
:1005180049F5C2DF00C049F5A0DF48C549F59DDFB0
:020528001200BF
:10052A000450000A12E10550000A0FE10650000AC1
:10053A000CE10750000A09E1FF0E006EFF0E016E82
:10054A00FF0E026E7F0E036E97D00C6A07BE0C2A4E
:10055A000D6A0B6A0A6A096A086A035002100110D6
:10056A000010D8B484D0035007180E6E0EBE0D1EAC
:10057A0007AE0BD0041E051E061E071E042AD8B499
:10058A00052AD8B4062AD8B4072A03AE0BD0001E0F
:10059A00011E021E031E002AD8B4012AD8B4022A58
:1005AA00D8B4032A035007100E6E0EBE1CD0DBDD32
:1005BA000CBE36D00DAE5BD0001E011E021E031EFD
:1005CA00002AD8B4012AD8B4022AD8B4032A081EA9
:1005DA00091E0A1E0B1E082AD8B4092AD8B40A2AE8
:1005EA00D8B40B2A44D007AE15D003BE0DD00350A1
:1005FA000B6E02500A6E0150096E0050086E036AB3
:10060A00026A016A006AD6D7036A026A016A006A44
:10061A00002A000C031E021E011E001E0C8EC7D7E4
:10062A00082AD8B4092AD8B40A2AD8B40B2A0450FA
:10063A00085CD8A4BFD70550095CD8A4BBD706501C
:10064A000A5CD8A4B7D707500B5CD8A4B3D70B6AF7
:10065A000A6A096A086A002AD8B4012AD8B4022A9E
:10066A00D8B4032A03AEA6D70E6A0E88FF0C0E6A08
:0A067A000CA001D0A4DE000F120056
:10068400030E0301446F000E456F306B486B195124
:10069400485D35E244C349F545C34AF5200E0501DA
:1006A4004B6F030E4C6F100E4D6F98DE47C549F526
:1006B40048C54AF5200E4B6F030E4C6F100E4D6F5C
:1006C40024DD0050011001E11AD00F0E030144256E
:1006D4000501496F000E0301452105014A6F494B8D
:1006E4004A2B440E4B6F030E4C6F020E4D6F76DE99
:1006F40003014851010F006E00C048F3C8D703013D
:100704001951485D3FE244C346F345C347F3120E13
:100714004425006E000E4521016E00C046F301C061
:1007240047F300C049F501C04AF51D0E05014B6FA2
:10073400030E4C6F020E4D6F51DE020E030146256F
:100744000501496F000E0301472105014A6F1B0E85
:100754004B6F030E4C6F020E4D6F40DE040E03010F
:1007640046250501496F000E0301472105014A6F23
:100774001A0E4B6F030E4C6F010E4D6F2FDE010EE0
:0C078400006E03D00301206B006A12001D
:10079000220E0C6E086A096A0A6A0B6A0C06D8B443
:1007A0001FD0D8900B320A3209320832033202329B
:1007B00001320032D8A0F2D70C06D8B409D00450C8
:1007C00008260550092206500A2207500B22EAD7B4
:1007D000045008260550092206500A2207500B2211
:0207E000120005
:0A07E200030E0D6E0D2EFED712005F
:1007EC0005013B51010A02E13B6B13D03B51020A5C
:1007FC0003E1400E3B6F0DD03B51030A03E1140E95
:10080C003B6F07D03B51040A03E1540E3B6F01D000
:10081C003B6B3C05006E3B51002600C03BF5008E47
:0E082C0000C03BF5476B00C048F560DE1200CF
:10083A0005013F6B406B3BC549F53CC54AF5200EA7
:10084A004B6F030E4C6F100E4D6F5CDC00500110A5
:10085A000AE03BC547F53CC548F50FDF005203E106
:10086A00010E006ECFD03DC549F53EC54AF5300EA2
:10087A0005014B6F030E4C6F100E4D6F43DC005099
:10088A000110D8B4BED044C346F345C347F3120E91
:10089A0003014425006E000E4521016E00C046F397
:1008AA0001C047F300C049F501C04AF51D0E050114
:1008BA004B6F030E4C6F020E4D6F8DDD020E03015E
:1008CA0046250501496F000E0301472105014A6FBC
:1008DA001B0E4B6F030E4C6F020E4D6F7CDD040E28
:1008EA00030146250501496F000E03014721050151
:1008FA004A6F1A0E4B6F030E4C6F010E4D6F6BDD74
:10090A00050E03014625026E000E4721036E02C042
:10091A0046F303C047F302C03FF503C040F5110E8A
:10092A001A03F3CF00F0F4CF01F0005002240501BE
:10093A003F6F01500320406F0301486B1A51485D15
:10094A0054E246C349F547C34AF5300E05014B6FD9
:10095A00030E4C6F100E4D6F3EDD100E030146253F
:10096A00006E000E4721016E00C046F301C047F336
:10097A0000C049F501C04AF51F0E05014B6F030E71
:10098A004C6F010E4D6F27DD010E03014625006EE7
:10099A00000E4721016E00C046F301C047F33DC572
:1009AA0049F53EC54AF5300E05014B6F030E4C6FF3
:1009BA00100E4D6F87EC00F00050011001E115D0C8
:1009CA001FC300F0000E016E1BC304F01CC305F028
:1009DA0066DD005005013F270150402303014851BD
:1009EA00010F006E00C048F3A9D703011A51485DF0
:1009FA0004E3306B020E006E05D03FC546F340C5D6
:060A0A0047F3006A120030
:100A1000086A080E0C6E003408360450085ED8B020
:0E0A200002D00826D89000360C2EF5D7120012
:100A2E00050141513F25E16E000E41BFFF0E4021F1
:100A3E00E26EE66A41070501800E4119006E800ED6
:100A4E00000A005C41E341513F25426F000E41BF59
:100A5E00FF0E4021436F0A0E046E000E056E066EE9
:100A6E00076E3BC500F03CC501F03DC502F03EC52A
:100A7E0003F054DD08C000F009C001F00AC002F016
:100A8E000BC003F0300E002642C5E1FF43C5E2FF66
:100A9E0000C0E6FF050141070A0E046E000E056E4A
:100AAE00066E076E3BC500F03CC501F03DC502F079
:100ABE003EC503F033DD00C03BF501C03CF502C07E
:100ACE003DF503C03EF5B7D73FC500F040C501F078
:020ADE00120004
:100AE0000FEE83F0EF50EFCF00F0009C00C0EFFF5F
:020AF0001200F2
:100AF2000FEE84F0EF50EFCF00F0009200C0EFFF56
:020B02001200DF
:100B04000501406B05013F51405D40E276EC00F089
:100B1400A00E516F0EEC00F03CC551F50EEC00F048
:100B24003BC551F50EEC00F005013F51405D1EE25E
:100B340040513D25E96E000E3E21EA6EEECF51F59F
:100B44000EEC00F005013B4B3C2B3F0E3B15016EB8
:100B54003CC502F0000E0216000E021802E1000E5F
:100B6400011802E1402B02D0402BDED767EC00F0E5
:100B7400050176EC00F0A00E516F0EEC00F000526F
:0E0B840001E101D0F5D767EC00F0BCD71200FC
:100B920005013B51390806E3300E3B5D03E3010ECC
:080BA200006E01D0006A120090
:100BAA00800E05014619006E800E3E19005C08E1B0
:100BBA003D51455D05E13C51445D02E13B51435DD8
:100BCA0009E23FC53BF540C53CF541C53DF542C587
:100BDA003EF518D0800E3E19006E800E4219005C58
:100BEA0008E141513D5D05E140513C5D02E13F5163
:100BFA003B5D08E243C53BF544C53CF545C53DF5BB
:100C0A0046C53EF53BC500F03CC501F03DC502F0C6
:060C1A003EC503F01200CC
:100C20005FDF959CDEDDDDDD96820201E49184B21A
:100C300004D0E4A101D001D0FAD7D3DDD2DDD1DDDB
:100C4000D0DDCFDDCEDDCDDDCCDD958CCADDC9DDDF
:020C5000120090
:100C52000A0E046E31C500F0DADE00C049F51FDC71
:100C620000C032F50A0E046E31C500F0D0DE08C0B5
:0E0C720000F005013251002600C031F51200DD
:100C800005013151660806E3610E315D03E3010E93
:100C9000006E01D0006A00C032F53151460806E30B
:100CA000410E315D03E3010E006E01D0006A005079
:100CB000321331C53BF56DDF3251001200C032F501
:020CC000120020
:100CC20005013151200A09E031510D0804E3090EF2
:100CD200315D01E302D0006A02D0010E006E120003
:100CE200050131515A0804E3410E315DD8B0318B10
:060CF20031C500F0120004
:100CF8000501346B030E3125E96E000E3221EA6ED0
:100D0800EECF3BF5000E3C6F3D6F3E6F000E3C6F23
:100D18003D6F3E6F070E31253F6F000E3221406F49
:100D280034513F27000E4023010E416F7CDE050140
:100D3800342B33530FE0070E3125006E000E32219D
:100D4800016E34510024E16E000E0120E26E2D0E7A
:100D5800E66E342B020E3125E96E000E3221EA6E62
:100D6800EECF3BF5000E3C6F3D6F3E6F000E3C6FC3
:100D78003D6F3E6F070E31253F6F000E3221406FE9
:100D880034513F27000E4023020E416F4CDE020E05
:100D98000501342733530FE0070E3125006E000E8E
:100DA8003221016E34510024E16E000E0120E26E02
:100DB8003A0EE66E342B010E3125E96E000E322113
:100DC800EA6EEECF3BF5000E3C6F3D6F3E6F000EB6
:100DD8003C6F3D6F3E6F070E31253F6F000E32218D
:100DE800406F34513F27000E4023020E416F1BDE37
:100DF800020E0501342733530FE0070E3125006E2C
:100E0800000E3221016E34510024E16E000E0120E3
:100E1800E26E3A0EE66E342B31C5E9FF32C5EAFFC1
:100E2800EECF3BF5000E3C6F3D6F3E6F000E3C6F02
:100E38003D6F3E6F070E31253F6F000E3221406F28
:100E480034513F27000E4023020E416FECDD020EA5
:100E58000501342733530FE0070E3125006E000ECD
:100E68003221016E34510024E16E000E0120E26E41
:100E7800200EE66E342B040E3125E96E000E322169
:100E8800EA6EEECF3BF5000E3C6F3D6F3E6F000EF5
:100E98003C6F3D6F3E6F070E31253F6F000E3221CC
:100EA800406F34513F27000E4023020E416FBBDDD7
:100EB800020E0501342733530FE0070E3125006E6B
:100EC800000E3221016E34510024E16E000E012023
:100ED800E26E2F0EE66E342B050E3125E96E000EFC
:100EE8003221EA6EEECF3BF5000E3C6F3D6F3E6F50
:100EF800000E3C6F3D6F3E6F070E31253F6F000EB1
:100F08003221406F34513F27000E4023020E416FBB
:100F18008ADD020E0501342733530FE0070E312511
:100F2800006E000E3221016E34510024E16E000E75
:100F38000120E26E2F0EE66E342B060E3125E96E87
:100F4800000E3221EA6EEECF3BF5000E3C6F3D6F8E
:100F58003E6F000E3C6F3D6F3E6F070E31253F6FB1
:100F6800000E3221406F34513F27000E4023020EFD
:100F7800416F59DD020E05013425026E02C034F5B9
:100F8800070E3125006E000E3221016E025000243A
:100F9800E16E000E0120E26EE66A070E3125006E52
:080FA800000E3221016E12005F
:100FB000050131515A0806E3410E315D03E3010E8C
:080FC000006E01D0006A12006E
:100FC800010E0501346F000E356F800E326F000E72
:100FD800336F325133112CE000DCF1EC03F0F1EC0B
:100FE80003F0F1EC03F081DD9692F1EC03F0F1EC03
:100FF80003F032513115006E000E3315016E0050AA
:10100800011002E0958C02D067DD959CF1EC03F0AD
:10101800F1EC03F096820201E49184B204D0E4A1D9
:1010280001D001D0FAD7050133333233339FD1D7FA
:10103800346B356BF1EC03F0F1EC03F056DD96926E
:10104800F1EC03F0F1EC03F0958CF1EC03F0F1EC2A
:1010580003F0F1EC03F0F1EC03F096820201E49165
:1010680084B204D0E4A101D001D0FAD70501346BD1
:10107800356BF1EC03F0F1EC03F083BC3481F1EC57
:1010880003F0F1EC03F0F1EC03F0F1EC03F0F1EC18
:1010980003F0F1EC03F0F1EC03F0F1EC03F0F1EC08
:1010A80003F0F1EC03F0F1EC03F0F1EC03F0F1ECF8
:1010B80003F0F1EC03F0F1EC03F0F1EC03F015DDD3
:0C10C80096920ADD959C34C500F01200E1
:1010D40003016A533AE1B35338E16C6B010E6A6F52
:1010E40031C56EF332C56FF333C570F334C571F394
:1010F40037C56DF30301720EE16E030EE26E6C519F
:10110400E126D8B0E22A6C5105013525E96E000EBE
:101114003621EA6EEECFE6FF03016C510501352559
:10112400E96E000E3621EA6EEE5207E003016C51BF
:10113400010F006E00C06CF301D001D0DBD70301B6
:0E114400F66BF76B010E006E01D0006A120010
:1011520031C53BF532C53CF533C53DF534C53EF5E9
:101162001DEC04F000C03AF5005203E03AC500F06D
:101172003ED00501395103011F5D03E2040E006EEA
:1011820036D0800E05013619006E800E005C02E139
:10119200010E355D28E3365103011C5D04E10501B2
:1011A200355103011B5D1FE3010E0501355D006E24
:1011B200000E3659016E1FC304F0000E056E54EC8A
:1011C20002F000500301462505013B6F0150030167
:1011D200472105013C6F37C53DF538C53EF539C598
:1011E2003FF58FDC03D0030E006E01D0006A1200BF
:1011F2000501336B33513125E96E000E3221EA6E5F
:0E120200EE5202E0332BF6D733C500F0120097
:101210000501336B33513125E96E000E3221EA6E40
:10122000EE50000A17E033513125E96E000E3221ED
:10123000EA6E300EEE5C0AE333513125E96E000EA2
:101240003221EA6EEE50390801E302D0006A09D07B
:10125000332BE0D73351000A03E0010E006E01D0BA
:04126000006A12000E
:10126400958CF1EC03F0F1EC03F09682F1EC03F0D1
:10127400F1EC03F033DC959CF1EC03F0F1EC03F0BA
:0612840036DC9692120018
:10128A0031C53BF532C53CF533C53DF534C53EF5B0
:10129A001DEC04F000C038F5005203E038C500F038
:1012AA0061D00501375103011F5D03E2040E006E90
:1012BA0059D0010E1D25006E000E1E21016E00C0C0
:1012CA001DF301C01EF31DC33BF51EC33CF5000E02
:1012DA0005013D6F3E6F010E3F6F000E406F416F7B
:1012EA00426F1BC343F51CC344F5000E456F466F9E
:1012FA0057DC00C01DF301C01EF30F0E0301442585
:10130A0005013B6F000E0301452105013C6F030EE9
:10131A003B27000E3C231D0E3D6F030E3E6F020E4F
:10132A003F6F82EC05F0010E03011D5D006E000E99
:10133A001E59016E1FC304F0000E056E54EC02F034
:10134A000050462505013B6F015003014721050165
:10135A003C6F35C53DF536C53EF537C53FF582ECE0
:06136A0005F0006A12000C
:101370000501356B366B376B386B346B3351345D2D
:101380003FE234513125E96E000E3221EA6EEE5013
:10139000000A36E035C500F036C501F037C502F069
:1013A00038C503F00A0E046E000E056E066E076E59
:1013B000C8EC03F000C035F501C036F502C037F5C2
:1013C00003C038F534513125E96E000E3221EA6E42
:1013D000300EEE5C046E056A000E055A04500024BF
:1013E000356F05500120366F000E05BEFF0E02203E
:1013F000376F000E05BEFF0E0320386F342BBED7AB
:1014000035C500F036C501F037C502F038C503F028
:021410001200C8
:1014120031C53BF532C53CF533C53DF534C53EF526
:101422001DEC04F000C039F5005203E039C500F0AC
:1014320037D0800E05013619006E800E005C02E185
:10144200010E355D29E3365103011C5D04E10501FE
:10145200355103011B5D20E3010E0501355D006E70
:10146200000E3659016E1FC304F0000E056E54ECD7
:1014720002F00050030146250501496F01500301A6
:10148200472105014A6F37C54BF538C54CF51FC3D7
:101492004DF5F0EC01F003D0030E006E01D0006AAE
:0214A200120036
:1014A4000501336B346B800E356F000E366F35518A
:1014B400361125E0F1EC03F0F1EC03F0958CF1EC3E
:1014C40003F0F1EC03F096820201E49184B204D0BB
:1014D400E4A101D001D0FAD783AC05D00501355180
:1014E4003313365134130501F1EC03F0F1EC03F03E
:1014F40079EC05F0969236333533369FD8D7958CF0
:10150400F1EC03F0F1EC03F03151321103E070EC33
:1015140005F0959CF1EC03F0F1EC03F096820201E6
:10152400E49184B204D0E4A101D001D0FAD7F1EC63
:1015340003F0F1EC03F079EC05F09692F1EC03F092
:10154400F1EC03F070EC05F0959C33C500F012004B
:1015540031C53BF532C53CF533C53DF534C53EF5E3
:101564001DEC04F000C039F5005203E039C500F069
:1015740046D037C5E1FF38C5E2FFE66AE66AE66AA7
:10158400E66A800E05013619006E800E005C02E1E9
:10159400010E355D30E3365103011E5D04E10501A2
:1015A400355103011D5D27E31F51040820E3010E9B
:1015B4000501355D006E000E3659016E1FC304F03F
:1015C400000E056E54EC02F000500301462505019F
:1015D400496F01500301472105014A6F37C54BF597
:1015E40038C54CF51FC34DF5F0EC01F003D0060EE1
:1015F400006E05D003D0030E006E01D0006A120005
:0E160400026A016A006A086A036A000E120098
:1016120031C53BF532C53CF5F6EC03F0010E476FE0
:0A16220033C548F57CEC02F012001D
:10162C0031C502F032C503F002C000F003C001F076
:10163C00024A032A00C0E9FF01C0EAFFEE5201E0B2
:10164C00F3D705013151025C006E32510358016E23
:0A165C00010E005E000E015A12009C
:101666000B820BAE3DEF0BF0036802680168006861
:081676000A360232FF0E1200D9
:10167E000B840BAE4AEF0BF0010E036E026A016A89
:0A168E00006A0A360232FF0E120055
:1016980031C549F550EC02F00F0E00160A0E000293
:1016A800F3CF01F00F0E05013115006E0150002631
:0616B80000C031F5120034
:0816BE000AAE029E000E1200AC
:1016C60023C5E9FF24C5EAFFEECF25F5000E050187
:1016D600266F000E266F000E261902E1200E251930
:1016E60007E0000E261902E1090E251901E003D0D4
:1016F600234B242BE5D7276B286B296B2A6B000E0F
:10170600261902E12D0E251905E1294B2A2B234B1B
:10171600242B08D0000E261902E12B0E251902E112
:10172600234B242B23C5E9FF24C5EAFFEECF25F57D
:10173600000E266F000E266F25C53BF5C9EC05F099
:10174600005219E027C500F028C501F00A0E046E04
:10175600000E056E54EC02F0300E255D026E000E92
:101766002659036E02500024276F03500120286F6C
:10177600234B242BD7D729512A1108E027510008DB
:10178600006E28C501F0000E015604D027C500F0F2
:0617960028C501F012005D
:10179C0025C531F526C532F526DD00500D0A08E1C8
:1017AC0025C531F526C532F52DDD005201E002D0FC
:1017BC00006A06D1030E2325276F000E2421286F03
:1017CC0025C531F526C532F5010E336FCBDD27C5A6
:1017DC00E1FF28C5E2FF00C0E6FF020E2325276FBC
:1017EC00000E2421286F010E2525316F000E2621B5
:1017FC00326F020E336FB6DD27C5E1FF28C5E2FF5D
:10180C0000C0E6FF010E2325276F000E2421286F50
:10181C00030E2525316F000E2621326F020E336F19
:10182C00A1DD27C5E1FF28C5E2FF00C0E6FF23C507
:10183C0027F524C528F5050E2525316F000E262128
:10184C00326F020E336F8EDD27C5E1FF28C5E2FF34
:10185C0000C0E6FF040E2325276F000E2421286FFD
:10186C00070E2525316F000E2621326F020E336FC5
:10187C0079DD27C5E1FF28C5E2FF00C0E6FF050EB4
:10188C002325276F000E2421286F090E2525316F83
:10189C00000E2621326F020E336F64DD27C5E1FF87
:1018AC0028C5E2FF00C0E6FF060E2325276F000EB9
:1018BC002421286F0B0E2525316F000E2621326F47
:1018CC00020E336F4FDD27C5E1FF28C5E2FF00C0D4
:1018DC00E6FFC2DCD00E316FE4EC07F0316BE4ECC8
:1018EC0007F023C5E9FF24C5EAFFEECF31F529EC5B
:1018FC0006F000C031F5E4EC07F0010E2325E96E8B
:10190C00000E2421EA6EEECF31F529EC06F000C072
:10191C0031F5E4EC07F0020E2325E96E000E2421CC
:10192C00EA6EEECF31F529EC06F000C031F5E4ECAF
:10193C0007F0030E2325E96E000E2421EA6EEECF8C
:10194C0031F529EC06F000C031F5E4EC07F0040E9B
:10195C002325E96E000E2421EA6EEECF31F529EC39
:10196C0006F000C031F5E4EC07F0050E2325E96E16
:10197C00000E2421EA6EEECF31F529EC06F000C002
:10198C0031F5E4EC07F0060E2325E96E000E242158
:10199C00EA6EEECF31F529EC06F000C031F5E4EC3F
:1019AC0007F0800E316FE4EC07F010EC06F023C565
:1019BC0031F524C532F5010E0501336F7CEC06F0D0
:0219CC00120007
:1019CE000501256B266B296B2A6B23C5E9FF24C500
:1019DE00EAFFEECF31F561EC06F0005203E0234B47
:1019EE00242BF3D723C5E9FF24C5EAFFEE502D0AB9
:1019FE0005E1254B262B234B242B09D023C5E9FFCC
:101A0E0024C5EAFFEE502B0A02E1234B242B23C5FB
:101A1E0000F024C501F0234B242B00C0E9FF01C0C8
:101A2E00EAFFEECF27F5000E286F000E286F27C5B0
:101A3E0031F540EC06F000522EE027C531F5D8EC1A
:101A4E0007F0005208E027C531F571EC06F000C032
:101A5E0027F5000E286F27C53BF5C9EC05F000529F
:101A6E0005E0300E275F000E285B04D0570E275F6F
:101A7E00000E285B293729912A37293729912A37D1
:101A8E00293729912A37293729912A37275129278A
:101A9E00000E2A23BCD72551261108E02951000833
:101AAE00006E2AC501F0000E015604D029C500F0C3
:061ABE002AC501F0120030
:101AC40023C53BF524C53CF525C53DF526C53EF5A6
:101AD4001DEC04F000C02CF5005203E02CC500F00E
:101AE40092D029C531F52AC532F59EDD0050010F8B
:101AF400016E01C048F3015003011F5D03E2040EAF
:101B0400006E81D005012B5347E003011C511E5D7B
:101B140002E11B511D5D3CE21DC300F01EC301F038
:101B24001FC304F0000E056E54EC02F0005046256D
:101B340005013B6F01500301472105013C6F29C595
:101B44003DF52AC53EF548C33FF582EC05F0010E8C
:101B540003011D25006E000E1E21016E00C01DF341
:101B640001C01EF30F0E442505013B6F000E030157
:101B7400452105013C6F030E3B27000E3C231D0E3F
:101B84003D6F030E3E6F020E3F6F82EC05F003D0F3
:101B9400050E006E38D036D0800E05012819006E6F
:101BA400800E005C02E1010E275D29E32851030148
:101BB4001E5D04E10501275103011D5D20E3010EB3
:101BC4000501275D006E000E2859016E1FC304F045
:101BD400000E056E54EC02F0005003014625050189
:101BE4003B6F01500301472105013C6F29C53DF5B9
:101BF4002AC53EF548C33FF582EC05F003D0030E39
:081C0400006E01D0006A12001D
:101C0C0023C547F524C548F542EC03F0005202E128
:101C1C00006A1AD003011D6B1E6B0F0E44250501C3
:101C2C003B6F000E0301452105013C6F030E3B2762
:101C3C00000E3C231D0E3D6F030E3E6F020E3F6FD8
:0A1C4C0082EC05F0010E006E12009C
:101C5600050123B102D06F9A01D06F8A23B302D057
:101C66006F9C01D06F8C23B502D06F9E01D06F8E12
:101C76006EBA03D06FAA03D011D06FAA0FD06EBC74
:101C860003D06FAC03D00AD06FAC08D06EBE03D0C1
:101C96006FAE03D003D06FAE01D001D0E9D71200EA
:101CA6000B800BAE5FEF0EF0026A0AAEFF0E026EFD
:0C1CB600016E006E0A360232FF0E1200B2
:101CC200086A096A100E0C6E01340836093604508F
:101CD200085E0550D8A0053C095ED8B007D0045074
:101CE20008260550D8B0053C0926D89000360136A2
:061CF2000C2EEAD71200DF
:101CF8000B6A0A6A096A086A0E6A033408360450CD
:101D0800085E0550D8A0053C095E0650D8A0063CE0
:101D18000A5E0750D8A0073C0B5EE86AD8A0010EFF
:101D28000E5E0336070E0C6E0334083609360A3683
:101D38000B360E36045003A012D0085E0550D8A00A
:101D4800053C095E0650D8A0063C0A5E0750D8A09C
:101D5800073C0B5EE86AD8A0010E0E5E11D008267B
:101D68000550D8B0053C09260650D8B0063C0A26CE
:101D78000750D8B0073C0B26E86AD8B0010E0E26EB
:101D880003360C2ED1D70234083609360A360B36FC
:101D98000E36045003A012D0085E0550D8A0053CAA
:101DA800095E0650D8A0063C0A5E0750D8A0073C3A
:101DB8000B5EE86AD8A0010E0E5E11D00826055009
:101DC800D8B0053C09260650D8B0063C0A2607506C
:101DD800D8B0073C0B26E86AD8B0010E0E260236AA
:101DE800070E0C6E0234083609360A360B360E36E4
:101DF800045002A012D0085E0550D8A0053C095E28
:101E08000650D8A0063C0A5E0750D8A0073C0B5ED7
:101E1800E86AD8A0010E0E5E11D008260550D8B089
:101E2800053C09260650D8B0063C0A260750D8B00B
:101E3800073C0B26E86AD8B0010E0E2602360C2E97
:101E4800D1D70134083609360A360B360E36045017
:101E580002A012D0085E0550D8A0053C095E0650C5
:101E6800D8A0063C0A5E0750D8A0073C0B5EE86A7B
:101E7800D8A0010E0E5E11D008260550D8B0053C3A
:101E880009260650D8B0063C0A260750D8B0073CA9
:101E98000B26E86AD8B0010E0E260136070E0C6E26
:101EA8000134083609360A360B360E36045001A0BE
:101EB80012D0085E0550D8A0053C095E0650D8A08F
:101EC800063C0A5E0750D8A0073C0B5EE86AD8A01B
:101ED800010E0E5E11D008260550D8B0053C092623
:101EE8000650D8B0063C0A260750D8B0073C0B2647
:101EF800E86AD8B0010E0E2601360C2ED1D7003470
:101F0800083609360A360B360E36045001A012D0B0
:101F1800085E0550D8A0053C095E0650D8A0063CCE
:101F28000A5E0750D8A0073C0B5EE86AD8A0010EED
:101F38000E5E11D008260550D8B0053C092606507B
:101F4800D8B0063C0A260750D8B0073C0B26E86AEA
:101F5800D8B0010E0E260036070E0C6E0034083677
:101F680009360A360B360E36045000A012D0085E29
:101F78000550D8A0053C095E0650D8A0063C0A5E6C
:101F88000750D8A0073C0B5EE86AD8A0010E0E5E89
:101F980011D008260550D8B0053C09260650D8B0FF
:101FA800063C0A260750D8B0073C0B26E86AD8B08A
:101FB800010E0E2600360C2ED1D700B00ED00450DC
:101FC80008260550D8B0053C09260650D8B0063C6E
:0C1FD8000A260750D8B0073C0B26120068
:081FE4000B6A0B86FF0E1200D0
:0C1FEC0023C5ADFFACB201D0FDD7120040
:0A1FF8009EC4CFFF9DC4CEFF12006F
:102002000501276B23C53BF524C53CF5F6EC03F02F
:1020120027512525E96E000E2621EA6EEE520EE0CA
:10202200010E476F27512525E96E000E2621EA6E23
:0E203200EECF48F57CEC02F0272BEAD7120027
:102040000501256B25512325E96E000E2421EA6E3A
:10205000EE50000A27E025512325E96E000E2421C9
:10206000EA6E610EEE5C1CE325512325E96E000E3D
:102070002421EA6EEE507A0813E325512325016EE0
:10208000000E2421026E01C0E9FF02C0EAFF200E0B
:10209000EE5C006E01C0E1FF02C0E2FF00C0E6FF9F
:0E20A000252BD0D723C500F024C501F0120077
:0E20AE00050123B102D09D9001D09D8012004B
:1020BC0023C531F524C532F516EC0BF0010E005E8C
:1020CC00000E015A00C026F5276B286B296B2A6B72
:1020DC00256B080E255DD8B0D1D025512325E96E8E
:1020EC00000E2421EA6EEE52D8B4C8D02551232517
:1020FC00E96E000E2421EA6E300EEE5C2BE32551C6
:10210C002325E96E000E2421EA6EEE50390822E3F5
:10211C0026C500F00032009E270E016E050E026EE1
:10212C0000500126D8B0022A25512325E96E000E55
:10213C002421EA6E300EEE5C006E01C0E9FF02C095
:10214C00EAFFEE50001201C0E1FF02C0E2FF00C046
:10215C00E6FF6DD025512325E96E000E2421EA6E91
:10216C00610EEE5C2DE325512325E96E000E242132
:10217C00EA6EEE50660824E326C500F00032009E9D
:10218C00270E016E050E026E00500126D8B0022AF1
:10219C0025512325E96E000E2421EA6E610EEE5CBA
:1021AC00006E0A0E002601C0E9FF02C0EAFFEE50E5
:1021BC00001201C0E1FF02C0E2FF00C0E6FF37D011
:1021CC0025512325E96E000E2421EA6E410EEE5CAA
:1021DC002DE325512325E96E000E2421EA6EEE50E5
:1021EC00460824E326C500F00032009E270E016E3F
:1021FC00050E026E00500126D8B0022A2551232567
:10220C00E96E000E2421EA6E410EEE5C006E0A0EA1
:10221C00002601C0E9FF02C0EAFFEE50001201C027
:10222C00E1FF02C0E2FF00C0E6FF01D027D0010EA3
:10223C002615016E0150010A1EE126C500F0003280
:10224C00009E270E2B6F050E2C6F00502B27D8B03D
:10225C002C2B270EE96E050EEA6E0050E926D8B03D
:10226C00EA2AEECF49F550EC02F02BC5E1FF2CC564
:10227C00E2FF00C0E6FF252B26072BD727C500F071
:0E228C0028C501F029C502F02AC503F0120092
:10229A0023C547F524C548F542EC03F0005255E042
:1022AA002BC5E1FF2CC5E2FF010EE66E000EE66EBD
:1022BA002BC5E9FF2CC5EAFFEECF01F0EECF02F005
:1022CA00025003011C5D02E101501B5D3BE323C583
:1022DA0031F524C532F525C533F526C534F52BC5A8
:1022EA00E9FF2CC5EAFFEECF35F5EECF36F52D0E18
:1022FA000501376F050E386FAAEC0AF000520FE19C
:10230A0005012A51301908E129512F1905E12851EF
:10231A002E1902E127512D1902E1006A18D02BC5A6
:10232A00E9FF2CC5EAFFEECF00F0EECF01F0004A3C
:10233A00012A2BC5E1FF2CC5E2FF00C0E6FF01C060
:10234A00E6FFB6D7030E006E02D0010E006E120031
:10235A0032EC09F0D00E0501316FE4EC07F0316B75
:10236A00E4EC07F032EC09F0D10E316FE4EC07F03F
:10237A0023C526F524C527F5010E316F000E326FED
:10238A0052EC0AF026C5E1FF27C5E2FF00C0E6FFCE
:10239A00010E05012325266F000E2421276F010E49
:1023AA00316F000E326F52EC0AF026C5E1FF27C5E5
:1023BA00E2FF00C0E6FF020E05012325266F000E8C
:1023CA002421276F010E316F000E326F52EC0AF092
:1023DA0026C5E1FF27C5E2FF00C0E6FF030E05019F
:1023EA002325266F000E2421276F010E316F000E60
:1023FA00326F52EC0AF026C5E1FF27C5E2FF00C0A2
:10240A00E6FF040E05012325266F000E2421276FFF
:10241A00010E316F000E326F52EC0AF026C5E1FF51
:10242A0027C5E2FF00C0E6FF050E05012325266F3A
:10243A00000E2421276F010E316F000E326F52EC0D
:10244A000AF026C5E1FF27C5E2FF00C0E6FF060E37
:10245A0005012325266F000E2421276F316B326B6D
:10246A0052EC0AF026C5E1FF27C5E2FF00C0E6FFED
:10247A0010EC06F023C526F524C527F523C5E9FF88
:10248A0024C5EAFFEECF00F07F0E00140501316F7C
:10249A004CEC0BF026C5E1FF27C5E2FF00C0E6FFC2
:1024AA00010E2325266F000E2421276F26C5E9FF7A
:1024BA0027C5EAFFEECF31F54CEC0BF026C5E1FF5C
:1024CA0027C5E2FF00C0E6FF020E2325266F000E95
:1024DA002421276F26C5E9FF27C5EAFFEECF31F58C
:1024EA004CEC0BF026C5E1FF27C5E2FF00C0E6FF72
:1024FA00030E2325266F000E2421276F26C5E9FF28
:10250A0027C5EAFFEECF31F54CEC0BF026C5E1FF0B
:10251A0027C5E2FF00C0E6FF040E2325266F000E42
:10252A002421276F26C5E9FF27C5EAFFEECF31F53B
:10253A004CEC0BF026C5E1FF27C5E2FF00C0E6FF21
:10254A00050E2325266F000E2421276F26C5E9FFD5
:10255A0027C5EAFFEECF31F54CEC0BF026C5E1FFBB
:10256A0027C5E2FF00C0E6FF060E2325266F000EF0
:10257A002421276F26C5E9FF27C5EAFFEECF31F5EB
:10258A004CEC0BF026C5E1FF27C5E2FF00C0E6FFD1
:10259A0023C531F524C532F525C533F57CEC06F0A3
:0E25AA00070E2325006E000E2421016E120084
:1025B80023C53BF524C53CF525C53DF526C53EF5A7
:1025C8001DEC04F000C02EF5005203E02EC500F00B
:1025D8008AD01FC348F303011F51040803E2060E03
:1025E800006E81D005012D5347E003011C511E5D8B
:1025F80002E11B511D5D3CE21DC300F01EC301F04A
:102608001FC304F0000E056E54EC02F0005046257E
:1026180005013B6F01500301472105013C6F290E5D
:102628003D6F050E3E6F48C33FF582EC05F0010E85
:1026380003011D25006E000E1E21016E00C01DF352
:1026480001C01EF30F0E442505013B6F000E030168
:10265800452105013C6F030E3B27000E3C231D0E50
:102668003D6F030E3E6F020E3F6F82EC05F003D004
:10267800050E006E38D036D0800E05012819006E80
:10268800800E005C02E1010E275D29E32851030159
:102698001E5D04E10501275103011D5D20E3010EC4
:1026A8000501275D006E000E2859016E1FC304F056
:1026B800000E056E54EC02F000500301462505019A
:1026C8003B6F01500301472105013C6F290E3D6F07
:1026D800050E3E6F48C33FF582EC05F003D0030EAC
:0826E800006E01D0006A12002F
:1026F000026A05012851025C19E202502325F66E98
:10270000000E2421F76E000E2521F86E0900F5CF8A
:1027100001F002502625D96E000E2721DA6E0150F5
:10272000DE1802E0006A04D0022AE3D7010E006E30
:02273000120095
:102732000501256B266B276B286B296B25512325F9
:10274200E96E000E25BFFF0E2421EA6EEE5238E03C
:1027520026C500F027C501F028C502F029C503F0FF
:102762000A0E046E000E056E066E076EC8EC03F0CC
:1027720000C026F501C027F502C028F503C029F5DF
:1027820025512325E96E000E25BFFF0E2421EA6E96
:10279200300EEE5C046E056A000E055A04500024E9
:1027A200266F05500120276F000E05BEFF0E022086
:1027B200286F000E05BEFF0E0320296F252BBED702
:1027C20026C500F027C501F028C502F029C503F08F
:0227D2001200F3
:1027D4000501266B26512325E96E000E2421EA6E9D
:1027E400EE5202E0262BF6D726512325E16E000E89
:1027F4002421E26E25C5E6FF262B26512325E16E12
:0E280400000E2421E26EE66A26C500F01200E6
:102812000501286B28512525F66E000E2621F76E3C
:10282200000E2721F86E0900F5CF00F0005216E0E5
:1028320028512325E16E000E2421E26E2851252520
:10284200F66E000E2621F76E000E2721F86E0900A3
:10285200F5CF00F000C0E6FF282BDCD72851232556
:10286200E16E000E2421E26EE66A28C500F0120035
:10287200016A05012751015C18E201502525E96E24
:10288200000E2621EA6EEE5210E001502325E16E81
:10289200000E2421E26E01502525E96E000E26214C
:1028A200EA6EEECFE6FF012AE4D701502325E16E5E
:0E28B200000E2421E26EE66A01C000F0120062
:1028C00023C53BF524C53CF525C53DF526C53EF59C
:1028D0001DEC04F000C02BF5005203E02BC500F006
:1028E00037D0800E05012819006E800E005C02E1D1
:1028F000010E275D29E3285103011E5D04E1050156
:10290000275103011D5D20E3010E0501275D006EC7
:10291000000E2859016E1FC304F0000E056E54EC22
:1029200002F00050030146250501496F01500301E3
:10293000472105014A6F29C54BF52AC54CF51FC330
:102940004DF5F0EC01F003D0030E006E01D0006AEB
:02295000120073
:102952000501235314E149C331F54AC332F54BC390
:1029620033F54CC334F524C535F525C536F5376B3B
:102972006AEC08F0005203E1010E0501236F050124
:10298200235348E024C531F525C532F516EC0BF08A
:102992000050010F376FB40E316F020E326FA30E6B
:1029A200336F020E346F24C535F525C536F545EC77
:1029B20009F000522FE1B40E0501316F020E326FA1
:1029C200AC0E336F020E346F1DC335F51EC336F5E0
:1029D200260E376F050E386F09EC0AF005012651F5
:1029E200310A03E00301F84BF92BB40E0501316FF4
:1029F200020E326FAC0E336F020E346F1DC335F50B
:102A02001EC336F5C00E376F020E386F010E396FD6
:062A1200A9EC08F012001F
:102A18000501286B296B28512325E96E000E242116
:102A2800EA6EEE5202E0282BF6D729512525F66EDC
:102A3800000E2621F76E000E2721F86E0900F5CF4B
:102A480000F0005217E028512325E16E000E2421E2
:102A5800E26E29512525F66E000E2621F76E000E2E
:102A68002721F86E0900F5CF00F000C0E6FF282BFB
:102A7800292BDBD728512325E16E000E2421E26E95
:082A8800E66A28C500F0120007
:102A90000501276B286B27512325E96E000E2421A1
:102AA000EA6EEE5202E0272BF6D728512525E96E73
:102AB000000E2621EA6EEE5211E027512325E16E29
:102AC000000E2421E26E28512525E96E000E2621F4
:102AD000EA6EEECFE6FF272B282BE7D727512325D9
:102AE000E16E000E2421E26EE66A27C500F01200B6
:102AF000140E0501246F24530AE023C531F524C5C3
:102B000032F5200E336F09EC0BF02407F4D71200D6
:102B10000501256B266B276B286B23C5E9FF24C5B0
:102B2000EAFFEECF25F5FF0E2325E96EFF0E2421E7
:102B3000EA6EEECF26F5FE0E2325016EFF0E242150
:102B4000026E01C0E9FF02C0EAFF030EEE14276F18
:102B500001C0E9FF02C0EAFFEECF00F000BA02D0E8
:102B6000279501D0278501C0E9FF02C0EAFFEECF1B
:102B700000F000BC02D0279701D0278701C0E9FFF1
:102B800002C0EAFFEECF00F000BE02D0279901D0CC
:102B90002789FD0E2325016EFF0E2421026E01C040
:102BA000E9FF02C0EAFFEECF00F000B002D0279BA1
:102BB00001D0278B01C0E9FF02C0EAFFEECF00F091
:102BC00000B202D0279D01D0278D01C0E9FF02C0CD
:102BD000EAFFEECF00F000B402D0279F01D0278F8C
:102BE00001C0E9FF02C0EAFFEECF01F001C028F505
:102BF0002833289F2833289F2833289F25C500F095
:0E2C000026C501F027C502F028C503F012001A
:102C0E0023C5E1FF24C5E2FF25C5E6FFFF0E050142
:102C1E002325E16EFF0E2421E26E26C5E6FFFE0E91
:102C2E002325E16EFF0E2421E26E030E2715006EA2
:102C3E0000C0E6FFFE0E2325E16EFF0E2421E26E9C
:102C4E00E686030E006E005007E0253725912637E5
:102C5E0027372837FF0FF8D7FE0E2325016EFF0EFC
:102C6E002421026EE00E2715006E01C0E9FF02C09E
:102C7E00EAFFEE50001201C0E1FF02C0E2FF00C009
:102C8E00E6FFFD0E2325E16EFF0E2421E26E28C520
:042C9E00E6FF12003B
:102CA20005012A6B29C500F029070052D8B490D03B
:102CB2002A5127252B6F000E28212C6F230EE96E37
:102CC200050EEA6E2951E926D8B0EA2AEECF49F577
:102CD20050EC02F00F0E00162BC5E1FF2CC5E2FFEF
:102CE20000C0E6FF2A512725E96E000E2821EA6E70
:102CF2000A0EEE5C14E22A512725016E000E2821ED
:102D0200026E01C0E9FF02C0EAFF300EEE24006E3F
:102D120001C0E1FF02C0E2FF00C0E6FF13D02A516A
:102D22002725016E000E2821026E01C0E9FF02C0B4
:102D3200EAFF370EEE24006E01C0E1FF02C0E2FF9F
:102D420000C0E6FF2A2B2A512725E16E000E28211A
:102D5200E26E230EE96E050EEA6E2951E926D8B01D
:102D6200EA2A0F0EEE14006E00C0E6FF2A51272554
:102D7200E96E000E2821EA6E0A0EEE5C14E22A5178
:102D82002725016E000E2821026E01C0E9FF02C054
:102D9200EAFF300EEE24006E01C0E1FF02C0E2FF46
:102DA20000C0E6FF13D02A512725016E000E28210C
:102DB200026E01C0E9FF02C0EAFF370EEE24006E88
:102DC20001C0E1FF02C0E2FF00C0E6FF2A2B6AD782
:102DD2002A512725E16E000E2821E26EE66A27C5F8
:082DE20000F028C501F0120009
:062DEA009388938A120099
:102DF0000CB03AEF17F00CA2E2EF17F00E6A000EDB
:102E0000026451EF17F0F00E0214D8A41CEF17F073
:102E1000023A01380F0B02260138F00B016E003820
:102E20000F0B01260038F00B006E08380F0B002640
:102E30000838F00B086E0E84D89002BE35EF17F0FC
:102E400008360036013602360E2A02BE35EF17F07C
:102E500008360036013602360E2A02BE35EF17F06C
:102E600008360036013602360E2A0E500364D6EFBD
:102E700017F0035E0BBC08AEDCEF17F0D880800EB5
:102E800008640030000E002201220222D8A0DCEFEC
:102E900017F0023201320032034AE2EF17F0DCEFA2
:102EA00017F001C002F000C001F008C000F0086A8D
:102EB000000E0E86026488EF17F0F00E0214D8A4FC
:102EC00070EF17F0023A01380F0B02260138F00BB1
:102ED000016E00380F0B01260038F00B006E0E84D7
:102EE000D89002BE35EF17F00036013602360E2AB2
:102EF00002BE35EF17F00036013602360E2A02BE4A
:102F000035EF17F00036013602360E2A35EF17F08E
:102F100001C002F000C001F0006A000E0E960E889B
:102F20000264B5EF17F0F00E0214D8A4A0EF17F06A
:102F3000023A01380F0B02260138F00B016E0E84A5
:102F4000D89002BE35EF17F0013602360E2A02BEC7
:102F500035EF17F0013602360E2A02BE35EF17F0B4
:102F6000013602360E2A35EF17F001C002F0016A71
:102F7000000E0E860264E8EF17F0F00E0214D8A4DB
:102F8000C4EF17F0023A0E84D89002BE35EF17F066
:102F900002360E2A02BE35EF17F002360E2A02BEA6
:102FA00035EF17F002360E2A35EF17F0010E0C6ED2
:102FB0003FEC0BF0ECEF17F0020E0C6E5FEC0BF039
:102FC000ECEF17F0040E0C6E33EC0BF0ECEF17F097
:0A2FD000080E0C6E02EC0BF012006C
:022FDA001200E3
:0E2FDC00050101B102D0F09601D0F08612007E
:102FEA000F0140B71FD0400E05010D6F0F0E0E6F77
:102FFA00440E0F6F0F0E106F450E116F0F0E126FEA
:10300A00460E136F0F0E146F03015751000A04E1A5
:10301A00080E05010A6F03D00501030E0A6F0AC5DF
:10302A0015F54AD00F0130B71FD0300E05010D6FCC
:10303A000F0E0E6F340E0F6F0F0E106F350E116FCD
:10304A000F0E126F360E136F0F0E146F03015751C6
:10305A00000A04E1060E05010B6F03D00501040EF8
:10306A000B6F0BC515F528D00F0120B71FD0200E06
:10307A0005010D6F0F0E0E6F240E0F6F0F0E106FDE
:10308A00250E116F0F0E126F260E136F0F0E146F8F
:10309A0003015751000A04E1040E05010C6F03D025
:1030AA000501050E0C6F0CC515F506D00301575125
:1030BA00000A02E1006A04D103015751000A06E13D
:1030CA00F10E6F16050115516F12A3D00D01F8A567
:1030DA0017D00E0120B714D0200E05010D6F0E0E69
:1030EA000E6F240E0F6F0E0E106F250E116F0E0E3F
:1030FA00126F260E136F0E0E146F120E156F84D0F8
:10310A000D01F8A717D00E0130B714D0300E050103
:10311A000D6F0E0E0E6F340E0F6F0E0E106F350EF2
:10312A00116F0E0E126F360E136F0E0E146F130EF2
:10313A00156F6AD00D01F8A917D00E0140B714D047
:10314A00400E05010D6F0E0E0E6F440E0F6F0E0E20
:10315A00106F450E116F0E0E126F460E136F0E0E84
:10316A00146F140E156F50D00D01F8AB17D00E0165
:10317A0050B714D0500E05010D6F0E0E0E6F540E7F
:10318A000F6F0E0E106F550E116F0E0E126F560E38
:10319A00136F0E0E146F150E156F36D00D01F8ADA4
:1031AA0017D00E0160B714D0600E05010D6F0E0E18
:1031BA000E6F640E0F6F0E0E106F650E116F0E0EEE
:1031CA00126F660E136F0E0E146F160E156F1CD04B
:1031DA000D01F8AF17D00E0170B714D0700E0501AB
:1031EA000D6F0E0E0E6F740E0F6F0E0E106F750EA2
:1031FA00116F0E0E126F760E136F0E0E146F170EDE
:10320A00156F02D0006A5CD00501E00E77161551E1
:10321A0077120DC5E1FF0EC5E2FF08B102D0E690B4
:10322A0001D0E6800DC5E1FF0EC5E2FF08B302D06A
:10323A00E69201D0E6820FC523F510C524F501C533
:10324A0025F502C526F503C527F504C528F5DADCF8
:10325A0011C5E1FF12C5E2FF07C5E6FF11C5E1FF8F
:10326A0012C5E2FF09B102D0E69C01D0E68C156BCB
:10327A000751155D13E2080E155D10E2155113256D
:10328A00E16E000E1421E26E15510525E96E000E5D
:10329A000621EA6EEECFE6FF152BEAD70DC5E1FF50
:1032AA000EC5E2FFE68603015751000A03E1F10E5B
:1032BA006F1604D0E00E7716160E7712010E006E06
:0232CA001200F0
:1032CC000B6A0C6A0A6A086A0350D8B4EEEF19F05C
:1032DC00028E9E0E035E03BE79EF19F0D8B479EF1F
:1032EC0019F0DEEF19F0036C080E035CD8A0ABEFFD
:1032FC0019F0036E083600C008F001C000F002C0DF
:10330C0001F0026A080E035CD8A0ABEF19F0036E53
:10331C00083600C008F001C000F0016A080E035C1A
:10332C00D8A0ABEF19F0036E083600C008F0006AA5
:10333C00080E035CD8A0ABEF19F0036E0836086AD0
:10334C000350D8A4D890B7EF19F00350D8B4B7EF06
:10335C0019F0D8900232013200320832032EAFEF4E
:10336C0019F00BBC08A0C8EF19F0D8A0C8EF19F0E1
:10337C00082AD8B4002AD8B4012AD8B4022A02BE2A
:10338C00F2EF19F00AAEEEEF19F0021E011E001E4C
:10339C00081E082AD8B4002AD8B4012AD8B4022AA4
:1033AC00EEEF19F0026A016A006A086AEEEF19F092
:1033BC000B800BAEF8EF19F0026A0AAEF8EF19F0B9
:1033CC00026E016E006E086E0A360232F8EF19F0CA
:1033DC00000E0C6AF9EF19F0010E0C6E53EC0EF0A6
:1033EC00F9EF19F0FF0E0250036E0150026E0050FF
:0833FC00016E0850006E120082
:1034040060AE31D0600E0501116F0F0E126F650EA4
:103414000D6F0F0E0E6F640E0B6F0F0E0C6F660E9A
:103424000F6F0F0E106F03015751000A03E10501DE
:10343400076B03D00501100E076F07C513F5000EC7
:1034440074BE010E0301586F749E5751000A05E1C2
:10345400000E60B0010E596F05D01F0E6014006E8F
:1034640000C059F351D00F0150AF48D0500E0501A0
:10347400116F0F0E126F650E0D6F0F0E0E6F540E3F
:103484000B6F0F0E0C6F560E0F6F0F0E106F0301A4
:103494005751000A04E10A0E0501086F03D0050123
:1034A400100E086F08C513F503015751010A04E112
:1034B400010E0501096F02D00501096B09511313AF
:1034C400000E74BC010E0301586F749C5751000A1E
:1034D4000EE160A406D0070E0F01501505010A6F16
:1034E40003D00501FF0E0A6F0AC559F306D01F0E5B
:1034F4000F015015006E00C059F306D00301575157
:10350400000A02E1006A66D103015751000A06E18C
:10351400F10E6F16050113516F12F1D00D01F8B5BC
:1035240024D00E0120AF21D0200E0501116F0E0E04
:10353400126F250E0D6F0E0E0E6F240E0B6F0E0EF6
:103544000C6F260E0F6F0E0E106F000E74BE010E60
:103554000301586F749E1F0E0E012015006E00C0EB
:1035640059F3120E0501136FC5D00D01F8B724D01D
:103574000E0130AF21D0300E0501116F0E0E126F07
:10358400350E0D6F0E0E0E6F340E0B6F0E0E0C6F8C
:10359400360E0F6F0E0E106F000E74BE010E030177
:1035A400586F749E1F0E0E013015006E00C059F343
:1035B400130E0501136F9ED00D01F8B924D00E012E
:1035C40040AF21D0400E0501116F0E0E126F450E53
:1035D4000D6F0E0E0E6F440E0B6F0E0E0C6F460E1B
:1035E4000F6F0E0E106F000E74BE010E0301586FA4
:1035F400749E1F0E0E014015006E00C059F3140E88
:103604000501136F77D00D01F8BB24D00E0150AF24
:1036140021D0500E0501116F0E0E126F550E0D6F55
:103624000E0E0E6F540E0B6F0E0E0C6F560E0F6FA8
:103634000E0E106F000E74BE010E0301586F749EBF
:103644001F0E0E015015006E00C059F3150E050132
:10365400136F50D00D01F8BD24D00E0160AF21D0FE
:10366400600E0501116F0E0E126F650E0D6F0E0EBA
:103674000E6F640E0B6F0E0E0C6F660E0F6F0E0E38
:10368400106F000E74BE010E0301586F749E1F0E5E
:103694000E016015006E00C059F3160E0501136F7C
:1036A40029D00D01F8BF24D00E0170AF21D0700EC7
:1036B4000501116F0E0E126F750E0D6F0E0E0E6F4B
:1036C400740E0B6F0E0E0C6F760E0F6F0E0E106FC6
:1036D400000E74BE010E0301586F749E1F0E0E017E
:1036E4007015006E00C059F3170E0501136F02D058
:1036F400006A70D00501E00E7716135177120DC5DC
:10370400E9FF0EC5EAFF05C5E1FF06C5E2FF0F0E9E
:10371400EE14E66E0DC5E9FF0EC5EAFFEECF00F02C
:10372400000E00BC010E0301B26F0BC523F50CC5DE
:1037340024F588EC15F001C5E1FF02C5E2FF00C0E5
:10374400E6FF01C0E6FF02C0E6FF03C0E6FF136B1D
:1037540005C5D9FF06C5DAFFDE50135D13E2080E76
:10376400135D10E213510325E16E000E0421E26E95
:1037740013510F25E96E000E1021EA6EEECFE6FF1D
:10378400132BE6D711C5E1FF12C5E2FFE69E1251E5
:103794000F0A02E1600E111902E1A49009D012513E
:1037A4000F0A02E1500E111902E1A49201D0A49271
:1037B40003015751000A03E1F10E6F1604D0E00E25
:1037C4007716160E7712B25303E1010E006E02D083
:0637D400020E006E12005F
:1037DA009682958C0201E49184B204D0E4A101D0CE
:0637EA0001D0FAD7120025
:1037F000010E0501096FFF0E0A6F01C500F002C539
:1038000001F003C502F004C503F0280E046E000E9B
:10381000056E066E076EC8EC03F000C001F501C02E
:1038200002F502C003F503C004F5010E096F09514A
:103830001008D8A081D00A2B010E086F085110087B
:10384000D8A075D009510803F3CF01F0F4CF02F0EE
:1038500001C004F002C005F00436049005360436B9
:1038600004900536000E05BEFF0E066E076E01C5FC
:1038700000F002C501F003C502F004C503F095ECA9
:1038800002F0800E046E800E0318045C08E1025002
:10389000000805E10150000802E10050FF0844E380
:1038A00001C500F002C501F003C502F004C503F034
:1038B0000332023201320032039E03BC038E033214
:1038C000023201320032039E03BC038E00C001F5B8
:1038D00001C002F502C003F503C004F509C504F0F8
:1038E000000E056E066E076E95EC02F000C001F545
:1038F00001C002F502C003F503C004F508C504F0D9
:10390000000E056E066E076E95EC02F000C001F524
:1039100001C002F502C003F503C004F500C0CBFFEF
:10392000100E0501096F03D00501082B87D7093751
:103930000991093709917BD70AB102D0CA9001D009
:10394000CA800AB302D0CA9201D0CA82080708B15D
:1039500002D0CA9601D0CA8608B302D0CA9801D054
:10396000CA8808B502D0CA9A01D0CA8A08B702D05C
:10397000CA9C01D0CA8CCC6A9E9206B102D09D929C
:1039800001D09D8207B102D09F9201D09F8205B1E4
:0A39900002D0CA9401D0CA841200CC
:10399A00F090050102B102D0F19A01D0F18A03B187
:1039AA0002D0F09C01D0F08C01B102D0F09601D087
:0439BA00F086120081
:1039BE00F292050102B102D0F19C01D0F18C01B15D
:0A39CE0002D0F29801D0F288120036
:1039D8000501026B6EBA02D0029101D002816EBC61
:1039E80002D0029301D002836EBE02D0029501D0AC
:1039F8000285040E236F2BEC0EF001B102D0779CE8
:103A080001D0778C01B302D0779E01D0778E02C5A2
:0C3A180023F52BEC0EF001C557F3120053
:0E3A2400050101B102D0F29801D0F288120023
:063A3200F5EC16F0120095
:103A380001C500F002C501F0280E046E000E056EE7
:103A480054EC02F000C001F501C002F500C001F518
:103A580001C002F5050102330133029F190E036FFD
:103A6800080E035D2FE303C504F0000E056E01C5C3
:103A780000F002C501F061EC0EF008C000F009C0CA
:103A880001F0000E011802E1000E001819E103C54B
:103A980004F0000E056E01C500F002C501F061ECEE
:103AA8000EF000C004F5010E005C0AE30451400862
:103AB80007E3040704C570FF709C709E030702D0DB
:103AC8000307CED7100E046F020E045D4CE30351BA
:103AD800045D46E204C500F00032009E00C004F513
:103AE800000600C004F5718E718C04B102D0719685
:103AF80001D0718604B302D0719801D0718804B5E1
:103B080002D0719A01D0718A729E729C04B102D05F
:103B1800729001D0728004B302D0729201D0728286
:103B280004B502D0729401D072840050010F026E65
:103B380002C000F0003600900050035D046F0407D7
:103B480004B102D0719001D0718004B302D0719297
:103B580001D0718204B502D0719401D0718403D070
:083B6800020E045FB1D7120048
:103B7000230E05010C6F450E0D6F520E0E6F520E87
:103B80000F6F5F0E106F410E116F440E126F440ED7
:103B9000136F520E146F230E156F166B176B1751A0
:103BA0000125E96E000E0221EA6EEE52D8B496D1DC
:103BB00017510125E96E000E0221EA6EEE50020A4D
:103BC000D8A478D0172B066B020E065D1BE21751A6
:103BD0000125E96E000E0221EA6EEE5213E0570E47
:103BE000E16E040EE26E0651E126D8B0E22A1751CA
:103BF0000125E96E000E0221EA6EEECFE6FF172BDB
:103C0000062BE2D7570EE16E040EE26E0651E12656
:103C1000D8B0E22AE66A570E236F040E246F63ECD5
:103C20000BF000C007F5050107C500F007070052BB
:103C300035E0066B020E065D1BE217510125E96EA9
:103C4000000E0221EA6EEE5213E0570EE16E040EF2
:103C5000E26E0651E126D8B0E22A17510125E96E3D
:103C6000000E0221EA6EEECFE6FF172B062BE2D7FD
:103C7000570EE16E040EE26E0651E126D8B0E22A3C
:103C8000E66A570E236F040E246FE7EC0CF000C0B9
:103C900006F500C023F5F6EC0FF0C5D70501175166
:103CA0000125E96E000E0221EA6EEE500A0AD8B430
:103CB000172B13D117510125E96E000E0221EA6E70
:103CC000EE50030A0AE017510125E96E000E0221A9
:103CD000EA6EEE50050A01E0ABD017510125E96EFE
:103CE000000E0221EA6EEECF07F50C0E086F050EEE
:103CF000096F172B066B040E065D1BE21751012599
:103D0000E96E000E0221EA6EEE5213E0570EE16EEC
:103D1000040EE26E0651E126D8B0E22A17510125C1
:103D2000E96E000E0221EA6EEECFE6FF172B062B9E
:103D3000E2D7570EE16E040EE26E0651E126D8B0CE
:103D4000E22AE66A570E236F040E246FE7EC0CF0AC
:103D500000C00AF501C00BF5066B06C500F0000EA9
:103D6000016E026E036E0036009001360236033695
:103D700003510024F66E04510120F76E0551022014
:103D8000F86E0900F5CF00F00900F5CF01F0005002
:103D9000011029E006C505F0062B05C000F0000E55
:103DA000016E026E036E0036009001360236033655
:103DB00003510024F66E04510120F76E05510220D4
:103DC000F86E0900F5CF01F00900F5CF02F00B51B4
:103DD000021802E101500A1905E10AC508F50BC5F0
:103DE00009F501D0BAD70751030A0AE108C531F530
:103DF00009C532F516EC0BF000C023F5F6EC0FF018
:103E00000501066B06510825E96E000E0921EA6ED0
:103E1000EE520DE006510825E96E000E0921EA6E0A
:103E2000EECF23F5F6EC0FF00501062BEBD755D0BE
:103E300017510125E96E000E0221EA6EEE50040AC8
:103E400040E1172B066B020E065D1BE217510125A0
:103E5000E96E000E0221EA6EEE5213E0570EE16E9B
:103E6000040EE26E0651E126D8B0E22A1751012570
:103E7000E96E000E0221EA6EEECFE6FF172B062B4D
:103E8000E2D7570EE16E040EE26E0651E126D8B07D
:103E9000E22AE66A570E236F040E246FE7EC0CF05B
:103EA00000C006F500C023F5F6EC0FF00501175130
:103EB0000125E96E000E0221EA6EEE52D8A4172BFE
:103EC0000CD017510125E96E000E0221EA6EEECFEB
:0E3ED00023F5F6EC0FF00501172B61D612005A
:103EDE0003016B51000A1FE10201D0531BE0D06BAE
:103EEE00010E0301F85F000EF95BB40E0501316F90
:103EFE00020E326FAC0E336F020E346F55C435F5B1
:103F0E0056C436F5640E376F010E386F010E396FD9
:103F1E00A9EC08F013D003016B51030A0FE1020163
:103F2E00D0530AE1010E0501236F720E246F030EAA
:0E3F3E00256FA9EC14F002D00201D06B120026
:103F4C000501076B086B000E085D02E10A0E075DA8
:103F5C000BE207510525E16E08510621E26E200E99
:103F6C00E66E074B082BEFD707510525E16E08517C
:103F7C000621E26EE66A010E075F000E085B075130
:103F8C000525096F085106210A6F0A0E046E000EF2
:103F9C00056E066E076E01C500F002C501F003C583
:103FAC0002F004C503F07CEC0EF008C000F009C070
:103FBC0001F00AC002F00BC003F0300E002609C558
:103FCC00E1FF0AC5E2FF00C0E6FF0A0E046E000E18
:103FDC00056E066E076E01C500F002C501F003C543
:103FEC0002F004C503F07CEC0EF000C001F501C03A
:103FFC0002F502C003F503C004F5000E046E0318AD
:10400C0008E10450021805E10450011802E10050C7
:10401C00000A01E105D0010E075F000E085BAFD767
:02402C00120080
:10402E000501026B0151025D22E2D70EE96E020E0E
:10403E00EA6E0251E926D8B0EA2AEE1C046F0F0E82
:10404E000417D70EE96E020EEA6E0251E926D8B0B9
:10405E00EA2AEECF49F550EC02F000C003F50F0E40
:10406E0003170351041901E002D0022BDBD70251D2
:0E407E00011903E1010E006E01D0006A12006C
:10408C000050086E0150006E0250016E0350026E1B
:10409C00036A0B6A0C6A9E0E036E0A6A020E0C6EA1
:0640AC00F8EC16F0120012
:1040B200010E0201786F776B030E0501236F78EC16
:1040C20015F0030E236F110E246F290E256F020EB9
:1040D200266F01EC10F0066B030E056FF00E236FD6
:1040E200A30E246F000E256FB40E266F030E276FEA
:1040F20006512627D8B0272B030E286F78EC13F031
:104102000052D8B46DD305510625006E00C006F5E5
:10411200060E056F050E236F030E246FB40E256F76
:10412200030E266F00502527D8B0262B060E276FC8
:1041320039EC14F0050E236F030E246F5EEC10F0C1
:1041420000C00BF501C00CF502C00DF503C00EF561
:1041520005510625006E00C006F5030E056F050E1B
:10416200236F030E246F030E0026016A000E012244
:10417200B40E0024256F030E0120266F040E276F54
:1041820039EC14F0050E236F030E246F99EC13F033
:1041920000C007F501C008F5100E236FA40E246FAE
:1041A200000E256FB40E266F030E276F06512627C9
:1041B200D8B0272B05C528F578EC13F00052D8B4F7
:1041C200B0D005510625006E00C006F5040E056F3D
:1041D2000BC50FF50CC510F50DC511F50EC512F581
:1041E200040E002600C006F5010E056FB40EE96E3E
:1041F200030EEA6E0050E926D8B0EA2AEECF09F59E
:10420200002A00C006F5010E056FB40EE96E030E1A
:10421200EA6E0050E926D8B0EA2AEECF0AF53D0E42
:10422200316F010E326FC60E336F010E346F07C548
:1042320035F508C536F5130E376F050E386FAAEC43
:104242000AF00050030A6CE1010E03011D25016E04
:10425200000E1E21026E05010851021802E10150F2
:1042620007195EE13D0E236F010E246FC60E256F06
:10427200010E266FFF0E276FFF0E286F0FC529F55F
:1042820010C52AF511C52BF512C52CF5010E2D6F9F
:10429200DCEC12F0005244E13D0E0501236F010EE9
:1042A200246FC60E256F010E266F07C527F508C5B8
:1042B20028F50FC529F510C52AF511C52BF512C52C
:1042C2002CF52D6BDCEC12F03D0E0501236F010E77
:1042D200246FBD0E256F010E266F07C527F508C591
:1042E20028F509C529F5000E2A6F2B6F2C6F2D6B4F
:1042F200DCEC12F03D0E0501236F010E246FC90E96
:10430200256F010E266F07C527F508C528F50AC5D2
:1043120029F5000E2A6F2B6F2C6F2D6BDCEC12F03F
:104322005DD2140E0501236FA40E246F000E256FBB
:10433200B40E266F030E276F06512627D8B0272BFF
:1043420005C528F578EC13F00052D8B4B0D0055169
:104352000625006E00C006F5040E056F040E002649
:1043620000C006F5060E056F050E236F030E246FBF
:10437200B40E256F030E266F00502527D8B0262BCA
:10438200060E276F39EC14F0050E236F030E246F0F
:104392005EEC10F000C00FF501C010F502C011F57F
:1043A20003C012F505510625006E00C006F5010E88
:1043B200056FB40EE96E030EEA6E0050E926D8B01E
:1043C200EA2AEECF09F5002A00C006F5010E056FB4
:1043D200B40EE96E030EEA6E0050E926D8B0EA2A5E
:1043E200EECF0AF53D0E316F010E326FC60E336FFE
:1043F200010E346F07C535F508C536F5130E376F54
:10440200050E386FAAEC0AF0005250E10501165170
:104412000E1908E115510D1905E114510C1902E1AB
:1044220013510B1943E13D0E236F010E246FC60E8B
:10443200256F010E266F07C527F508C528F50FC59C
:1044420029F510C52AF511C52BF512C52CF52D6BD2
:10445200DCEC12F03D0E0501236F010E246FBD0E40
:10446200256F010E266F07C527F508C528F509C572
:1044720029F5000E2A6F2B6F2C6F2D6BDCEC12F0DE
:104482003D0E0501236F010E246FC90E256F010E2B
:10449200266F07C527F508C528F50AC529F5000EB8
:1044A2002A6F2B6F2C6F2D6BDCEC12F097D1080E5C
:1044B2000501236FA40E246F000E256FB40E266F24
:1044C200030E276F06512627D8B0272B05C528F5DE
:1044D20078EC13F000524EE005510625006E00C044
:1044E20006F5040E056F040E002600C006F5010E47
:1044F200056FB40EE96E030EEA6E0050E926D8B0DD
:10450200EA2AEECF09F53D0E316F010E326FC60E6B
:10451200336F010E346F07C535F508C536F5130E36
:10452200376F050E386FAAEC0AF0005222E105013E
:1045320016510E1908E115510D1905E114510C1906
:1045420002E113510B1915E13D0E236F010E246F89
:10455200BD0E256F010E266F07C527F508C528F584
:1045620009C529F5000E2A6F2B6F2C6F2D6BDCEC21
:1045720012F034D1DC0E0501236FA30E246F000E5E
:10458200256FB40E266F030E276F06512627D8B06B
:10459200272B05C528F578EC13F000524EE00551A3
:1045A2000625006E00C006F5040E056F040E0026F7
:1045B20000C006F5010E056FB40EE96E030EEA6E39
:1045C2000050E926D8B0EA2AEECF0AF53D0E316F47
:1045D200010E326FC60E336F010E346F07C535F50B
:1045E20008C536F5130E376F050E386FAAEC0AF0C0
:1045F200005222E1050116510E1908E115510D195B
:1046020005E114510C1902E113510B1915E13D0E8C
:10461200236F010E246FC90E256F010E266F07C589
:1046220027F508C528F50AC529F5000E2A6F2B6F54
:104632002C6F2D6BDCEC12F0D1D0FC0E0501236F38
:10464200A30E246F000E256FB40E266F030E276F84
:1046520006512627D8B0272B05C528F578EC13F08C
:104662000052D8B4BBD005510627040E056F150EB3
:10467200236F040E246FBC0E256FA30E266F000E4F
:10468200276F09EC14F0180E236F040E246FB40E7A
:10469200256F030E266F06C527F539EC14F03D0E83
:1046A200316F010E326FC60E336F010E346F07C5C4
:1046B20035F508C536F5130E376F050E386FAAECBF
:1046C2000AF00052D8A475D005010E51161908E15E
:1046D2000D51151905E10C51141902E10B51131971
:1046E2005BE13D0E236F010E246FBD0E256F010E9F
:1046F200266F07C527F508C528F5090E296F050E8F
:104702002A6F60EC14F03D0E0501236F010E246F39
:10471200C90E256F010E266F07C527F508C528F5B6
:104722000A0E296F050E2A6F60EC14F0150E0501B2
:10473200236F040E246F09C525F5EAEC13F0150E5C
:10474200236F040E246F0AC525F5EAEC13F0150E4B
:10475200236F040E246F1E0E256FA40E266F000E0B
:10476200276F0CEC15F055C323F5000E246F256F4F
:10477200266F050E276F030E286F010E296F51EC6D
:1047820016F0150E236F040E246F050E256F030E0F
:10479200266F48EC15F00CD0150E236F040E246F13
:1047A200710E256FA30E266F000E276F0CEC15F00D
:1047B2000DD00501150E236F040E246F7A0E256F9E
:1047C200A30E266F000E276F0CEC15F0010E236F5F
:1047D200150E246F040E256FA9EC14F0DAEF34F0F5
:1047E200F80E0501236FA30E246F000E256FB40E81
:1047F200266F030E276F06512627D8B0272B05C533
:1048020028F578EC13F00052D8B4A9D0055106254A
:10481200006E00C006F5030E056F040E236FA40E92
:10482200246F000E256FB40E266F030E276F005003
:104832002627D8B0272B030E286F78EC13F00052EE
:1048420014E005510625006E00C006F5FA0E236F2E
:10485200030E246FB40E256F030E266F005025271A
:10486200D8B0262BCEEC0BF078D0000E236FA40E1E
:10487200246F000E256FB40E266F030E276F0651AC
:104882002627D8B0272B05C528F578EC13F000525F
:1048920064E005510627FA0E236F030E246F010E02
:1048A200256FADEC11F0150E236F040E246FBC0EB4
:1048B200256FA30E266F000E276F09EC14F0150E5C
:1048C200236F040E246FF80E256FA30E266F000EC1
:1048D200276F0CEC15F0150E236F040E246F000EDB
:1048E200256FA40E266F000E276F0CEC15F0150E27
:1048F200236F040E246F010E256F040E266F48EC01
:1049020015F0150E236F040E246F1E0E256FA40ED4
:10491200266F000E276F0CEC15F055C323F5000E21
:10492200246F256F266F050E276F030E286F010E69
:10493200296F51EC16F0150E236F040E246F050E2D
:10494200256F030E266F48EC15F0010E236F150E2E
:10495200246F040E256FA9EC14F0DAEF34F0D80EB0
:104962000501236FA30E246F000E256FB40E266F70
:10497200030E276F06512627D8B0272B05C528F529
:1049820078EC13F00052D8B4D8EF2AF0055106257E
:10499200006E00C006F5060E056F050E236F030EAE
:1049A200246FB40E256F030E266F00502527D8B052
:1049B200262B060E276F39EC14F0050E236F030E1B
:1049C200246F5EEC10F000C00BF501C00CF502C0C4
:1049D2000DF503C00EF505510625006E00C006F563
:1049E200030E056F050E236F030E246F030E0026C0
:1049F200016A000E0122B40E0024256F030E01206D
:104A0200266F040E276F39EC14F0050E236F030E88
:104A1200246F99EC13F000C007F501C008F5100EE1
:104A2200236FA40E246F000E256FB40E266F030EA3
:104A3200276F06512627D8B0272B05C528F578EC15
:104A420013F00052D8B403D105510625006E00C000
:104A520006F5040E056F0BC50FF50CC510F50DC557
:104A620011F50EC512F5040E002600C006F5080E5B
:104A7200056F050E236F030E246FB40E256F030E10
:104A8200266F00502527D8B0262B080E276F39EC49
:104A920014F0050E236F030E246F5EEC10F000C0BD
:104AA20017F501C018F502C019F503C01AF5055132
:104AB2000625006E00C006F5080E056F050E236F71
:104AC200030E246FB40E256F030E266F00502527A8
:104AD200D8B0262B080E276F39EC14F0050E236F81
:104AE200030E246F5EEC10F000C01BF501C01CF534
:104AF20002C01DF503C01EF505510625006E00C05B
:104B020006F5010E056FB40EE96E030EEA6E005053
:104B1200E926D8B0EA2AEECF0AF5740E316F010EFB
:104B2200326F900E336F000E346F07C535F508C52E
:104B320036F5130E376F050E386FAAEC0AF00050E7
:104B4200030AD8A482D0010E03011D25016E000EB6
:104B52001E21026E05010851021802E101500719D7
:104B620074E1740E236F010E246F900E256F000EF8
:104B7200266FFF0E276FFF0E286F0FC529F510C590
:104B82002AF511C52BF512C52CF5010E2D6FDCECA3
:104B920012F000525AE1740E0501236F010E246FC8
:104BA200930E256F000E266F07C527F508C528F559
:104BB20017C529F518C52AF519C52BF51AC52CF5FF
:104BC2002D6BDCEC12F0740E0501236F010E246FC5
:104BD200A40E256F010E266F07C527F508C528F517
:104BE2001BC529F51CC52AF51DC52BF51EC52CF5BF
:104BF2002D6BDCEC12F0740E0501236F010E246F95
:104C02008C0E256F010E266F07C527F508C528F5FE
:104C12000AC529F5000E2A6F2B6F2C6F2D6BDCEC69
:104C220012F0740E0501236F010E246F240E256FFE
:104C3200020E266F07C527F508C528F52D0E296F28
:104C4200020E2A6F2B6B62EC0DF0D6EF2AF0140ED7
:104C52000501236FA40E246F000E256FB40E266F7C
:104C6200030E276F06512627D8B0272B05C528F536
:104C720078EC13F00052D8B405D105510625006E28
:104C820000C006F5040E056F040E002600C006F5EE
:104C9200060E056F050E236F030E246FB40E256FEB
:104CA200030E266F00502527D8B0262B060E276F3D
:104CB20039EC14F0050E236F030E246F5EEC10F036
:104CC20000C00FF501C010F502C011F503C012F5C6
:104CD20005510625006E00C006F5080E056F050E8B
:104CE200236F030E246FB40E256F030E266F005040
:104CF2002527D8B0262B080E276F39EC14F0050EA5
:104D0200236F030E246F5EEC10F000C017F501C094
:104D120018F502C019F503C01AF505510625006EF3
:104D220000C006F5080E056F050E236F030E246FF3
:104D3200B40E256F030E266F00502527D8B0262B00
:104D4200080E276F39EC14F0050E236F030E246F43
:104D52005EEC10F000C01BF501C01CF502C01DF591
:104D620003C01EF505510625006E00C006F5010EB2
:104D7200056FB40EE96E030EEA6E0050E926D8B054
:104D8200EA2AEECF0AF5740E316F010E326F900EE1
:104D9200336F000E346F07C535F508C536F5130EAF
:104DA200376F050E386FAAEC0AF000526AE105016E
:104DB20016510E1908E115510D1905E114510C197E
:104DC20002E113510B195DE1740E236F010E246F82
:104DD200900E256F000E266F07C527F508C528F52A
:104DE2000FC529F510C52AF511C52BF512C52CF5ED
:104DF2002D6BDCEC12F0740E0501236F010E246F93
:104E0200930E256F000E266F07C527F508C528F5F6
:104E120017C529F518C52AF519C52BF51AC52CF59C
:104E22002D6BDCEC12F0740E0501236F010E246F62
:104E3200A40E256F010E266F07C527F508C528F5B4
:104E42001BC529F51CC52AF51DC52BF51EC52CF55C
:104E52002D6BDCEC12F0740E0501236F010E246F32
:104E62008C0E256F010E266F07C527F508C528F59C
:104E72000AC529F5000E2A6F2B6F2C6F2D6BDCEC07
:104E820012F093D3FC0E0501236FA30E246F000EC4
:104E9200256FB40E266F030E276F06512627D8B052
:104EA200272B05C528F578EC13F00052D8B4EFD0C3
:104EB20005510627040E056F150E236F040E246F8D
:104EC200BC0E256FA30E266F000E276F09EC14F09F
:104ED200180E236F040E246FB40E256F030E266F77
:104EE20006C527F539EC14F0740E316F010E326FDE
:104EF200900E336F000E346F07C535F508C536F5D1
:104F0200130E376F050E386FAAEC0AF00052D8A4C0
:104F1200B4D005010E51161908E10D51151905E11C
:104F22000C51141902E10B511319D8A49AD0740E22
:104F3200316F010E326F930E336F000E346F07C55F
:104F420035F508C536F5170E376F050E386FAAEC22
:104F52000AF0740E0501316F010E326FA40E336F29
:104F6200010E346F07C535F508C536F51B0E376FD0
:104F7200050E386FAAEC0AF0740E0501236F010EBC
:104F8200246F8C0E256F010E266F07C527F508C505
:104F920028F50A0E296F050E2A6F60EC14F017C56A
:104FA20023F518C524F519C525F51AC526F5050EEC
:104FB2000501276F030E286F040E296F51EC16F0BE
:104FC200150E236F040E246F050E256F030E266F38
:104FD20048EC15F01BC523F51CC524F51DC525F5A8
:104FE2001EC526F5050E276F030E286F040E296FC6
:104FF20051EC16F0150E236F040E246F050E256F6B
:10500200030E266F48EC15F0150E236F040E246F65
:105012000AC525F5EAEC13F0150E236F040E246F72
:105022001E0E256FA40E266F000E276F0CEC15F0D6
:1050320055C323F5000E246F256F266F050E276FCB
:10504200030E286F010E296F51EC16F0150E236F17
:10505200040E246F050E256F030E266F48EC15F023
:105062000CD0150E236F040E246F710E256FA30E44
:10507200266F000E276F0CEC15F00501010E236F51
:10508200150E246F040E256FA9EC14F08ED2E00EDB
:105092000501236FA30E246F000E256FB40E266F39
:1050A200030E276F06512627D8B0272B05C528F5F2
:1050B20078EC13F0005264E005510625006E00C042
:1050C20006F5040E056F040E002600C006F5080E54
:1050D200056F050E236F030E246FB40E256F030EAA
:1050E200266F00502527D8B0262B080E276F39ECE3
:1050F20014F0050E236F030E246F5EEC10F000C057
:1051020017F501C018F502C019F503C01AF5740E9F
:10511200316F010E326F900E336F000E346F07C580
:1051220035F508C536F5130E376F050E386FAAEC44
:105132000AF0005224E1050116510E1908E1155139
:105142000D1905E114510C1902E113510B1917E164
:10515200740E236F010E246F930E256F000E266FBF
:1051620007C527F508C528F517C529F518C52AF575
:1051720019C52BF51AC52CF52D6BDCEC12F015D2E6
:10518200A40E0501236FA30E246F000E256FB40E2B
:10519200266F030E276F06512627D8B0272B05C589
:1051A20028F578EC13F0005264E005510625006EF4
:1051B20000C006F5040E056F040E002600C006F5B9
:1051C200080E056F050E236F030E246FB40E256FB4
:1051D200030E266F00502527D8B0262B080E276F06
:1051E20039EC14F0050E236F030E246F5EEC10F001
:1051F20000C01BF501C01CF502C01DF503C01EF561
:10520200740E316F010E326F900E336F000E346FD9
:1052120007C535F508C536F5130E376F050E386F1D
:10522200AAEC0AF0005224E1050116510E1908E118
:1052320015510D1905E114510C1902E113510B1905
:1052420017E1740E236F010E246FA40E256F010E59
:10525200266F07C527F508C528F51BC529F51CC506
:105262002AF51DC52BF51EC52CF52D6BDCEC12F0B5
:105272009CD1DC0E0501236FA30E246F000E256F57
:10528200B40E266F030E276F06512627D8B0272BA0
:1052920005C528F578EC13F000524EE005510625BD
:1052A200006E00C006F5040E056F040E002600C055
:1052B20006F5010E056FB40EE96E030EEA6E00509C
:1052C200E926D8B0EA2AEECF0AF5740E316F010E44
:1052D200326F900E336F000E346F07C535F508C577
:1052E20036F5130E376F050E386FAAEC0AF000522E
:1052F20022E1050116510E1908E115510D1905E1BA
:1053020014510C1902E113510B1915E1740E236F9C
:10531200010E246F8C0E256F010E266F07C527F52F
:1053220008C528F50AC529F5000E2A6F2B6F2C6FC8
:105332002D6BDCEC12F039D1E40E0501236FA30EC4
:10534200246F000E256FB40E266F030E276F0651D1
:105352002627D8B0272B05C528F578EC13F0005284
:10536200D8B477D005510625006E00C006F5040EAC
:10537200056F040E002600C006F5010E056FB40E7F
:10538200E96E030EEA6E0050E926D8B0EA2AEECFA3
:105392000AF5002A00C006F50C0E056F050E236FF4
:1053A200030E246FB40E256F030E266F00502527BF
:1053B200D8B0262B0C0E276F39EC14F0740E316F17
:1053C200010E326F900E336F000E346F07C535F544
:1053D20008C536F5130E376F050E386FAAEC0AF0C2
:1053E200005236E1050116510E1908E115510D1949
:1053F20005E114510C1902E113510B1929E1740E44
:10540200236F010E246F8C0E256F010E266F07C5C8
:1054120027F508C528F50AC529F5000E2A6F2B6F56
:105422002C6F2D6BDCEC12F0740E0501236F010E54
:10543200246F240E256F020E266F07C527F508C5B7
:1054420028F5050E296F030E2A6F2B6B62EC0DF007
:10545200ACD0AC0E0501236FA30E246F000E256F96
:10546200B40E266F030E276F06512627D8B0272BBE
:1054720005C528F578EC13F00052D8B489D005514F
:105482000625006E00C006F5040E056F040E002608
:1054920000C006F5010E056FB40EE96E030EEA6E4A
:1054A2000050E926D8B0EA2AEECF0AF5002A00C059
:1054B20006F5080E056F050E236F030E246FB40E5A
:1054C200256F030E266F00502527D8B0262B080E15
:1054D200276F39EC14F0050E236F030E246F5EEC78
:1054E20010F000C01BF501C01CF502C01DF503C081
:1054F2001EF5740E316F010E326F900E336F000E77
:10550200346F07C535F508C536F5130E376F050E2E
:10551200386FAAEC0AF000523AE1050116510E1951
:1055220008E115510D1905E114510C1902E113514D
:105532000B192DE1740E236F010E246F8C0E256F53
:10554200010E266F07C527F508C528F50AC529F5F6
:10555200000E2A6F2B6F2C6F2D6BDCEC12F0740E89
:105562000501236F010E246FA40E256F010E266F15
:1055720007C527F508C528F51BC529F51CC52AF559
:105582001DC52BF51EC52CF52D6BDCEC12F00DD0D4
:10559200150E0501236F040E246F7A0E256FA30EDC
:1055A200266F000E276F0CEC15F0DAEF34F00501D0
:1055B200A80E236FA30E246F000E256FB40E266F64
:1055C200030E276F06512627D8B0272B05C528F5CD
:1055D20078EC13F00052D8B45BD105510625006E69
:1055E20000C006F5060E056F050E236F030E246F2D
:1055F200B40E256F030E266F00502527D8B0262B38
:10560200060E276F39EC14F0050E236F030E246F7C
:105612005EEC10F000C00BF501C00CF502C00DF5F8
:1056220003C00EF505510625006E00C006F5030EF7
:10563200056F050E236F030E246F030E0026016A09
:10564200000E0122B40E0024256F030E0120266FE6
:10565200040E276F39EC14F0050E236F030E246F2E
:1056620099EC13F000C007F501C008F5100E236F86
:10567200A40E246F000E256FB40E266F030E276F43
:1056820006512627D8B0272B05C528F578EC13F04C
:10569200005262E005510627040E056F0BC50FF597
:1056A2000CC510F50DC511F50EC512F55C0E316F66
:1056B200010E326FEB0E336F000E346F07C535F5F6
:1056C20008C536F5130E376F050E386FAAEC0AF0CF
:1056D2000050030A40E1010E03011D25016E000E78
:1056E2001E21026E05010851021802E1015007193C
:1056F20032E15C0E236F010E246FEB0E256F000E5C
:10570200266FFF0E276FFF0E286F0FC529F510C5F4
:105712002AF511C52BF512C52CF5010E2D6FDCEC07
:1057220012F0005218E15C0E0501236F010E246F86
:10573200EB0E256F000E266F07C527F508C528F565
:105742000FC529F510C52AF511C52BF512C52CF583
:105752002D6BDCEC12F09AD0FC0E0501236FA30E28
:10576200246F000E256FB40E266F030E276F0651AD
:105772002627D8B0272B05C528F578EC13F0005260
:10578200D8B484D005510627040E056F150E236F79
:10579200040E246FBC0E256FA30E266F000E276F1A
:1057A20009EC14F0180E236F040E246FB40E256F4B
:1057B200030E266F06C527F539EC14F05C0E316F27
:1057C200010E326FEB0E336F000E346F07C535F5E5
:1057D20008C536F5130E376F050E386FAAEC0AF0BE
:1057E20000523FE105010E51161908E10D5115193C
:1057F20005E10C51141902E10B51131925E1150EA3
:10580200236F040E246F1E0E256FA40E266F000E4A
:10581200276F0CEC15F055C323F5000E246F256F8E
:10582200266F050E276F030E286F010E296F51ECAC
:1058320016F0150E236F040E246F050E256F030E4E
:10584200266F48EC15F00CD0150E236F040E246F52
:10585200710E256FA30E266F000E276F0CEC15F04C
:105862000DD00501150E236F040E246F7A0E256FDD
:10587200A30E266F000E276F0CEC15F0010E236F9E
:10588200150E246F040E256FA9EC14F0DAEF34F034
:10589200A00E0501236FA30E246F000E256FB40E18
:1058A200266F030E276F06512627D8B0272B05C572
:1058B20028F578EC13F00052D8B41DD20551062712
:1058C200030E056F150E236F040E246FBC0E256F99
:1058D200A30E266F000E276F09EC14F0150E236F2E
:1058E200040E246FA00E256FA30E266F000E276FE5
:1058F2000CEC15F0940E236FA30E246F000E256F8F
:10590200B40E266F030E276F06512627D8B0272B19
:1059120005C528F578EC13F000524DE00551062537
:10592200006E00C006F5B40E236F030E246F005004
:105932002327D8B0242B06EC0EF000522EE0150ED1
:105942000501236F040E246F940E256FA30E266F9C
:10595200000E276F0CEC15F0050E236F030E246F5B
:10596200B40E256F030E266F06512527D8B0262BBD
:10597200030E276F39EC14F0050E236F030E246F0C
:1059820020EC10F0150E236F040E246F050E256F08
:10599200030E266F48EC15F00DD00501150E236F8E
:1059A200040E246F710E256FA30E266F000E276F53
:1059B2000CEC15F072D1980E236FA30E246F000E1B
:1059C200256FB40E266F030E276F06512627D8B017
:1059D200272B05C528F578EC13F00052D8B499D0DE
:1059E20005510625006E00C006F5B40E476F030E82
:1059F200486F00504727D8B0482B42EC03F00052C2
:105A02007AE0150E0501236F040E246F980E256FA0
:105A1200A30E266F000E276F0CEC15F0050E236FF8
