:10000000A0EF4DF000000000CEEF4DF0000000002A
:0C0010000000000000000000B2EF4DF006
:10001C000501A76B938A016A080E015C12E2A737EF
:10002C00A79181880000000000000000000081BA48
:10003C00A781819800000000000000000000012A48
:10004C00EBD7939AA6B102D0818A01D0819A000095
:10005C008188000000000000000000008198A7C506
:04006C0000F012008E
:10007000016A080E015C16E20501A6BF02D0819A52
:1000800001D0818A8188000000000000000000008B
:10009000A637A69181980000000000000000000033
:1000A000012AE7D7938A0000818800000000000041
:1000B0000000000081BA02D0019001D00180819837
:0C00C000939A000E01B0010E006E1200B9
:1000CC00938A938800000000000000000000939ABF
:1000DC00819A0000000000000000000093988198B5
:0200EC00120000
:1000EE00939A819A0000000000000000000093889F
:0E00FE0000000000000000000000938A1200C5
:10010C000450085E0550D8A0053C095E0650D8A0E6
:10011C00063C0A5E0750D8A0073C0B5E0336070E60
:10012C000C6E0334083609360A360B36045003A01D
:10013C000ED0085E0550D8A0053C095E0650D8A02C
:10014C00063C0A5E0750D8A0073C0B5E0DD0082673
:10015C000550D8B0053C09260650D8B0063C0A26F6
:10016C000750D8B0073C0B2603360C2EDAD70234D6
:10017C00083609360A360B36045003A00ED0085E3A
:10018C000550D8A0053C095E0650D8A0063C0A5E76
:10019C000750D8A0073C0B5E0DD008260550D8B0F0
:1001AC00053C09260650D8B0063C0A260750D8B0A4
:1001BC00073C0B260236070E0C6E02340836093645
:1001CC000A360B36045002A00ED0085E0550D8A09B
:1001DC00053C095E0650D8A0063C0A5E0750D8A024
:1001EC00073C0B5E0DD008260550D8B0053C0926FF
:1001FC000650D8B0063C0A260750D8B0073C0B2650
:10020C0002360C2EDAD70134083609360A360B368C
:10021C00045002A00ED0085E0550D8A0053C095E23
:10022C000650D8A0063C0A5E0750D8A0073C0B5ECF
:10023C000DD008260550D8B0053C09260650D8B07C
:10024C00063C0A260750D8B0073C0B260136070E91
:10025C000C6E0134083609360A360B36045001A0F0
:10026C000ED0085E0550D8A0053C095E0650D8A0FB
:10027C00063C0A5E0750D8A0073C0B5E0DD0082642
:10028C000550D8B0053C09260650D8B0063C0A26C5
:10029C000750D8B0073C0B2601360C2EDAD70034A9
:1002AC00083609360A360B36045001A00ED0085E0B
:1002BC000550D8A0053C095E0650D8A0063C0A5E45
:1002CC000750D8A0073C0B5E0DD008260550D8B0BF
:1002DC00053C09260650D8B0063C0A260750D8B073
:1002EC00073C0B260036070E0C6E00340836093618
:1002FC000A360B36045000A00ED0085E0550D8A06C
:10030C00053C095E0650D8A0063C0A5E0750D8A0F2
:10031C00073C0B5E0DD008260550D8B0053C0926CD
:10032C000650D8B0063C0A260750D8B0073C0B261E
:10033C0000360C2EDAD700B00ED00450082605502B
:10034C00D8B0053C09260650D8B0063C0A26075002
:08035C00D8B0073C0B2612008B
:10036400B3DEA00E0501A66F81DE9FC5A6F57EDE75
:100374009EC5A6F57BDEA8DEA10E0501A66F76DE7E
:100384000501A36BA205016E026A000E025A800EDB
:10039400006E800E0218005C02E10150A35D11E2C0
:1003A400A351A025A46F000EA121A56F010EA66F75
:1003B40033DEA4C5E1FFA5C5E2FF00C0E6FFA32B21
:1003C400E1D7A351A025A46F000EA121A56FA66BB0
:1003D40023DEA4C5E1FFA5C5E2FF00C0E6FF85DE7C
:0203E400120005
:1003E600A2C500F00501A207005228E09EC5E9FF5C
:1003F6009FC5EAFFEE50000A0CE09EC5E9FF9FC5C7
:10040600EAFFA0C5D9FFA1C5DAFFEE50DE1801E16B
:100416000FD09EC5E9FF9FC5EAFFA0C5D9FFA1C5BC
:10042600DAFFDE50EE5C006E016A000E015A08D05B
:1004360005019E4B9F2BA04BA12BD2D7006A016AC8
:020446001200A2
:100448000B1E0A1E091E081E082AD8B4092AD8B489
:080458000A2AD8B40B2A120095
:10046000120E0C6EDA0E0D6E0D2EFED70C2EFCD772
:040470000000120076
:10047400030E0301B66F000EB76FA26BBA6B8B51FC
:10048400BA5D35E2B6C39EF5B7C39FF5920E05017A
:10049400A06F030EA16F100EA26F62DF9CC59EF5C4
:1004A4009DC59FF5920EA06F030EA16F100EA26F53
:1004B40098DF0050011001E11AD00F0E0301B62598
:1004C40005019E6F000E0301B72105019F6F9E4B2E
:1004D4009F2BB60EA06F030EA16F020EA26F40DF1A
:1004E4000301BA51010F006E00C0BAF3C8D703016B
:1004F4008B51BA5D3FE2B6C3B8F3B7C3B9F3120E7A
:10050400B625006E000EB721016E00C0B8F301C01D
:10051400B9F300C09EF501C09FF58F0E0501A06FD1
:10052400030EA16F020EA26F1BDF020E0301B8259A
:1005340005019E6F000E0301B92105019F6F8D0E09
:10054400A06F030EA16F020EA26F0ADF040E030157
:10055400B82505019E6F000E0301B92105019F6FA7
:100564008C0EA06F030EA16F010EA26FF9DE010EB7
:0C057400006E03D00301926B006A1200BD
:100580000B6A0A6A096A00500402F4CF09F0F3CF3B
:1005900008F001500502F4CF0BF0F3CF0AF0005041
:1005A0000502F3500926F4500A22E86A0B22015092
:1005B0000402F3500926F4500A22E86A0B2208C00C
:1005C00000F009C001F00AC002F00BC003F01200F5
:0605D00000000000120013
:1005D6000450000A12E10550000A0FE10650000A15
:1005E6000CE10750000A09E1FF0E006EFF0E016ED6
:1005F600FF0E026E7F0E036E97D00C6A07BE0C2AA2
:100606000D6A0B6A0A6A096A086A03500210011029
:100616000010D8B484D0035007180E6E0EBE0D1EFF
:1006260007AE0BD0041E051E061E071E042AD8B4EC
:10063600052AD8B4062AD8B4072A03AE0BD0001E62
:10064600011E021E031E002AD8B4012AD8B4022AAB
:10065600D8B4032A035007100E6E0EBE1CD053DD0D
:100666000CBE36D00DAE5BD0001E011E021E031E50
:10067600002AD8B4012AD8B4022AD8B4032A081EFC
:10068600091E0A1E0B1E082AD8B4092AD8B40A2A3B
:10069600D8B40B2A44D007AE15D003BE0DD00350F4
:1006A6000B6E02500A6E0150096E0050086E036A06
:1006B600026A016A006AD6D7036A026A016A006A98
:1006C600002A000C031E021E011E001E0C8EC7D738
:1006D600082AD8B4092AD8B40A2AD8B40B2A04504E
:1006E600085CD8A4BFD70550095CD8A4BBD7065070
:1006F6000A5CD8A4B7D707500B5CD8A4B3D70B6A4B
:100706000A6A096A086A002AD8B4012AD8B4022AF1
:10071600D8B4032A03AEA6D70E6A0E88FF0C0E6A5B
:0A0726000CA001D08EDE000F1200BF
:0C073000290E0D6E0D2EFED700001200E9
:10073C000FEE83F0EF50EFCF00F0009C00C0EFFF06
:02074C00120099
:10074E000FEE84F0EF50EFCF00F0009200C0EFFFFD
:02075E00120087
:10076000800E05019B19006E800E9319005C08E154
:1007700092519A5D05E19151995D02E19051985D28
:1007800009E294C590F595C591F596C592F597C582
:1007900093F518D0800E9319006E800E9719005CA7
:1007A00008E19651925D05E19551915D02E1945108
:1007B000905D08E298C590F599C591F59AC592F5B6
:1007C0009BC593F590C500F091C501F092C502F06C
:0607D00093C503F01200C6
:1007D6000501956B05019451955D37E274DCA00E19
:1007E600A66F43DC91C5A6F540DC90C5A6F53DDCB9
:1007F60005019451955D1DE295519225E96E000E15
:100806009321EA6EEECFA6F530DC0501904B912BD5
:100816003F0E9015016E91C502F0000E0216000EF5
:10082600021802E1000E011802E1952B02D0952B69
:10083600DFD75ADC050147DCA00EA66F16DC005296
:0C08460001E101D0F7D750DCC5D712004B
:10085200220E0C6E086A096A0A6A0B6A0C06D8B480
:100862001FD0D8900B320A320932083203320232D8
:1008720001320032D8A0F2D70C06D8B409D0045005
:1008820008260550092206500A2207500B22EAD7F1
:10089200045008260550092206500A2207500B224E
:0208A200120042
:1008A400050196519425E16E000E96BFFF0E952129
:1008B400E26EE66A96070501800E9619006E800EB8
:1008C400000A005C41E396519425976F000E96BF91
:1008D400FF0E9521986F0A0E046E000E056E066ECB
:1008E400076E90C500F091C501F092C502F093C562
:1008F40003F06FDE08C000F009C001F00AC002F086
:100904000BC003F0300E002697C5E1FF98C5E2FF47
:1009140000C0E6FF050196070A0E046E000E056E80
:10092400066E076E90C500F091C501F092C502F005
:1009340093C503F04EDE00C090F501C091F502C0EE
:1009440092F503C093F5B7D794C500F095C501F0AF
:0209540012008F
:100956000501946B956B90C59EF591C59FF5920E1A
:10096600A06F030EA16F100EA26F3ADD00500110AA
:100976000AE090C59CF591C59DF579DD005203E12D
:10098600010E006ED3D092C59EF593C59FF5A20EBB
:100996000501A06F030EA16F100EA26F21DD00509E
:1009A6000110D8B4C2D0B6C3B8F3B7C3B9F3120EA8
:1009B6000301B625006E000EB721016E00C0B8F324
:1009C60001C0B9F300C09EF501C09FF58F0E050169
:1009D600A06F030EA16F020EA26FC1DC020E03010F
:1009E600B82505019E6F000E0301B92105019F6F11
:1009F6008D0EA06F030EA16F020EA26FB0DC040E67
:100A06000301B82505019E6F000E0301B9210501FA
:100A16009F6F8C0EA06F030EA16F010EA26F9FDC5D
:100A2600050E0301B8250501966F000E0301B921D5
:100A36000501976F96C5B8F397C5B9F396C594F5B2
:100A460097C595F58CC300F0000E016E110E046E6D
:100A5600000E056E92DD00509625946F0150972189
:100A6600956F0301BA6B8C51BA5D53E2B8C39EF51C
:100A7600B9C39FF5A20E0501A06F030EA16F100E5C
:100A8600A26F6DDC100E0301B825006E000EB921B1
:100A9600016E00C0B8F301C0B9F300C09EF501C0F5
:100AA6009FF5910E0501A06F030EA16F010EA26FB7
:100AB60056DC010E0301B825006E000EB921016E49
:100AC60000C0B8F301C0B9F392C59EF593C59FF572
:100AD600A20E0501A06F030EA16F100EA26F80DC9F
:100AE6000050011001E115D091C300F0000E016E17
:100AF6008DC304F08EC305F040DD00500501942738
:100B0600015095230301BA51010F006E00C0BAF3DC
:100B1600AAD703018C51BA5D04E3A26B020E006EE4
:0E0B260005D094C5B8F395C5B9F3006A120066
:100B3400086A080E0C6E003408360450085ED8B0FB
:0E0B440002D00826D89000360C2EF5D71200ED
:100B5200050190BF02D0809001D0808090BD02D06C
:100B6200809201D0808290BB02D0809401D0808498
:100B720090B902D0809801D080880301BCB102D024
:100B8200848401D08494808622DD8096050190B70A
:100B920002D0809001D0808090B502D0809201D0A6
:100BA200808290B302D0809401D0808490B102D030
:100BB200809801D080880301BCB102D0848401D026
:100BC2008494808604DD8096BCA102D048DC01D0EA
:040BD200AEDD120082
:080BD60090C500F0003A120086
:100BDE00958CF7DCF6DC9682F4DCF3DCA8DD959CD4
:0A0BEE00F0DCEFDCADDD96921200A2
:080BF8000AAE029E000E12007D
:100C00000B840BAE0BEF06F0010E036E026A016A55
:0A0C1000006A0A360232FF0E1200DD
:100C1A00010E0501896F000E8A6F800E876F000E24
:100C2A00886F8751881125E0CEDCCDDCCCDCCBDCAB
:100C3A0089DD9692C8DCC7DC87518615006E000EE6
:100C4A008815016E0050011002E0958C02D071DD0A
:100C5A00959CB9DCB8DC96820301BC9384B204D0BB
:100C6A00BCA301D001D0FAD7050188338733889F06
:100C7A00D8D7896B8A6BA7DCA6DC64DD9692A3DCE5
:100C8A00A2DC958CA0DC9FDC9EDC9DDC96820301B5
:100C9A00BC9384B204D0BCA301D001D0FAD7050119
:100CAA00896B8A6B90DC8FDC83BC89818CDC8BDC62
:100CBA008ADC89DC88DC87DC86DC85DC84DC83DC16
:100CCA0082DC81DC80DC7FDC7EDC7DDC3BDD9692B5
:0A0CDA0030DD959C89C500F0120082
:100CE4000A0E046E86C500F023DF00C090F571DFA4
:100CF40000C087F50A0E046E86C500F019DF08C02F
:0E0D040000F005018751002600C086F51200A0
:100D120086C590F587C591F588C592F589C593F585
:100D220019DE00C08DF5005203E08DC500F05FD0E2
:100D320005018C510301915D03E2040E006E57D050
:100D4200010E8F25006E000E9021016E00C08FF300
:100D520001C090F38FC390F590C391F5000E050189
:100D6200926F936F010E946F000E956F966F976F4F
:100D72008DC398F58EC399F5000E9A6F9B6FEFDCC9
:100D820000C08FF301C090F30F0E0301B6250501D9
:100D9200906F000E0301B7210501916F030E90279A
:100DA200000E91238F0E926F030E936F020E946FBB
:100DB20011DD010E03018F5D006E000E9059016E70
:100DC20091C304F0000E056EC0EC02F00050B8258D
:100DD2000501906F01500301B9210501916F8AC588
:100DE20092F58BC593F58CC594F5F4DC006A12007C
:100DF20010D0800E0501866F1AD0C00E866F17D0F4
:100E0200940E866F14D0D40E866F11D0800E866F2A
:100E12000ED005018651010AECE08651020AEDE08E
:100E22008651030AEDE08651040AEDE0EFD787050B
:100E3200006E8651002600C086F50301BC8100C009
:100E420090F586DEBC9188C590F582DEBC811200E9
:0E0E5200026A016A006A086A036A000E120052
:0E0E60000301BC9186C590F574DEBC811200C2
:100E6E0086C502F087C503F002C000F003C001F092
:100E7E00024A032A00C0E9FF01C0EAFFEE5201E078
:100E8E00F3D705018651025C006E87510358016E3F
:0A0E9E00010E005E000E015A120062
:100EA8000301E0533CE10401295339E10301E26BFA
:100EB800010EE06F86C5E4F387C5E5F388C5E6F360
:100EC80089C5E7F38CC5E3F30301E80EE16E030E71
:100ED800E26EE251E126D8B0E22AE25105018A2504
:100EE800E96E000E8B21EA6EEECFE6FF0301E251B8
:100EF80005018A25E96E000E8B21EA6EEE5207E0A5
:100F08000301E251010F006E00C0E2F301D001D0ED
:100F1800DBD704016C6B6D6B010E006E01D0006AAB
:020F28001200B5
:100F2A000501886B88518625E96E000E8721EA6ED5
:0E0F3A00EE5202E0882BF6D788C500F01200B8
:100F48000501886B88518625E96E000E8721EA6EB7
:100F5800EE50000A17E088518625E96E000E8721B9
:100F6800EA6E300EEE5C0AE388518625E96E000EC3
:100F78008721EA6EEE50390801E302D0006A09D0F1
:100F8800882BE0D78851000A03E0010E006E01D0DB
:040F9800006A1200D9
:100F9C0005018A6B8B6B8C6B8D6B896B8851895DB2
:100FAC003EE289518625E96E000E8721EA6EEE50ED
:100FBC00000A35E08AC500F08BC501F08CC502F043
:100FCC008DC503F00A0E046E000E056E066E076EDC
:100FDC003ADC00C08AF501C08BF502C08CF503C069
:100FEC008DF589518625E96E000E8721EA6E300E4B
:100FFC00EE5C046E056A000E055A045000248A6FDC
:10100C00055001208B6F000E05BEFF0E02208C6F69
:10101C00000E05BEFF0E03208D6F892BBFD78AC52E
:10102C0000F08BC501F08CC502F08DC503F01200E9
:10103C000B820BAE28EF08F00368026801680068A9
:08104C000A360232FF0E120009
:1010540086C590F587C591F588C592F589C593F540
:1010640078DC00C08EF5005203E08EC500F037D066
:10107400800E05018B19006E800E005C02E1010EEA
:101084008A5D29E38B5103018E5D04E105018A51D8
:1010940003018D5D20E3010E05018A5D006E000EE3
:1010A4008B59016E91C304F0000E056EC0EC02F082
:1010B40000500301B82505019E6F01500301B921B9
:1010C40005019F6F8CC5A0F58DC5A1F591C3A2F54F
:1010D400B2EC01F003D0030E006E01D0006A1200DE
:1010E40086C590F587C591F588C592F589C593F5B0
:1010F40030DC00C08FF5005203E08FC500F03FD014
:1011040005018E510301915D03E2040E006E37D098
:10111400800E05018B19006E800E005C02E1010E49
:101124008A5D29E38B5103018E5D04E105018A5137
:1011340003018D5D20E3010E05018A5D006E000E42
:101144008B59016E91C304F0000E056EC0EC02F0E1
:1011540000500301B8250501906F01500301B92126
:101164000501916F8CC592F58DC593F58EC594F5E7
:10117400EBEC03F003D0030E006E01D0006A120002
:101184000501886B896B800E8A6F000E8B6F8A5104
:101194008B1125E0E8EC02F0E8EC02F0958CE8EC29
:1011A40002F0E8EC02F096820301BC9384B204D00E
:1011B400BCA301D001D0FAD783AC05D005018A5174
:1011C40088138B5189130501E8EC02F0E8EC02F076
:1011D400A7EC03F096928B338A338B9FD8D7958CE8
:1011E400E8EC02F0E8EC02F08651871103E09EEC93
:1011F40003F0959CE8EC02F0E8EC02F0968203011F
:10120400BC9384B204D0BCA301D001D0FAD7E8ECDB
:1012140002F0E8EC02F0A7EC03F09692E8EC02F09E
:10122400E8EC02F09EEC03F0959C88C500F01200F7
:1012340086C590F5CEDC0F0E00160A0E0002F3CF21
:1012440001F00F0E05018615006E0150002600C046
:0412540086F5120009
:1012580086C590F587C591F588C592F589C593F53A
:10126800ABEC04F000C08EF5005203E08EC500F030
:1012780046D08CC5E1FF8DC5E2FFE66AE66AE66AFC
:10128800E66A800E05018B19006E800E005C02E193
:10129800010E8A5D30E38B510301905D04E1050185
:1012A8008A5103018F5D27E39151040820E3010E61
:1012B80005018A5D006E000E8B59016E91C304F022
:1012C800000E056EC0EC02F000500301B8250501C0
:1012D8009E6F01500301B92105019F6F8CC5A0F5D0
:1012E8008DC5A1F591C3A2F5B2EC01F003D0060EAD
:1012F800006E05D003D0030E006E01D0006A120004
:101308000501896B030E8625E96E000E8721EA6EBA
:10131800EECF90F5000E916F926F936F000E916F64
:10132800926F936F070E8625946F000E8721956F35
:1013380089519427000E9523010E966F52EC04F004
:101348000501892B88530FE0070E8625006E000ED5
:101358008721016E89510024E16E000E0120E26EA2
:101368002D0EE66E892B020E8625E96E000E87216A
:10137800EA6EEECF90F5000E916F926F936F000EAC
:10138800916F926F936F070E8625946F000E8721D9
:10139800956F89519427000E9523020E966F52EC93
:1013A80004F0020E0501892788530FE0070E8625F1
:1013B800006E000E8721016E89510024E16E000E37
:1013C8000120E26E3A0EE66E892B010E8625E96E43
:1013D800000E8721EA6EEECF90F5000E916F926FA6
:1013E800936F000E916F926F936F070E8625946F1F
:1013F800000E8721956F89519427000E9523020EC0
:10140800966F52EC04F0020E0501892788530FE00D
:10141800070E8625006E000E8721016E8951002473
:10142800E16E000E0120E26E3A0EE66E892B86C54B
:10143800E9FF87C5EAFFEECF90F5000E916F926F36
:10144800936F000E916F926F936F070E8625946FBE
:10145800000E8721956F89519427000E9523020E5F
:10146800966F52EC04F0020E0501892788530FE0AD
:10147800070E8625006E000E8721016E8951002413
:10148800E16E000E0120E26E200EE66E892B040E3E
:101498008625E96E000E8721EA6EEECF90F5000EE4
:1014A800916F926F936F000E916F926F936F070E0B
:1014B8008625946F000E8721956F89519427000E19
:1014C8009523020E966F52EC04F0020E050189274F
:1014D80088530FE0070E8625006E000E8721016EE7
:1014E80089510024E16E000E0120E26E2F0EE66E97
:1014F800892B050E8625E96E000E8721EA6EEECF50
:1015080090F5000E916F926F936F000E916F926F2E
:10151800936F070E8625946F000E8721956F89516A
:101528009427000E9523020E966F52EC04F0020EDB
:101538000501892788530FE0070E8625006E000EE7
:101548008721016E89510024E16E000E0120E26EB0
:101558002F0EE66E892B060E8625E96E000E872172
:10156800EA6EEECF90F5000E916F926F936F000EBA
:10157800916F926F936F070E8625946F000E8721E7
:10158800956F89519427000E9523020E966F52ECA1
:1015980004F0020E05018925026E02C089F5070EC6
:1015A8008625006E000E8721016E02500024E16E30
:1015B800000E0120E26EE66A070E8625006E000E18
:0615C8008721016E1200F4
:1015CE009EEC03F0959CE8EC02F0E8EC02F09682BB
:1015DE000301BC9384B204D0BCA301D001D0FAD7CE
:1015EE00E8EC02F0E8EC02F0E8EC02F0E8EC02F0D5
:1015FE00E8EC02F0E8EC02F0E8EC02F0E8EC02F0C5
:0C160E00958CE8EC02F0E8EC02F0120011
:10161A0078C59CF579C59DF53AEC02F0005254E084
:10162A0080C5E1FF81C5E2FF010EE66E000EE66E9F
:10163A0080C5E9FF81C5EAFFEECF01F0EECF02F0E7
:10164A00025003018E5D02E101508D5D3AE378C5D7
:10165A0086F579C587F57AC588F57BC589F580C58C
:10166A00E9FF81C5EAFFEECF8AF5EECF8BF5820E50
:10167A0005018C6F050E8D6FEADD00520FE1050141
:10168A007F51851908E17E51841905E17D5183193D
:10169A0002E17C51821902E1006A18D080C5E9FF93
:1016AA0081C5EAFFEECF00F0EECF01F0004A012A31
:1016BA0080C5E1FF81C5E2FF00C0E6FF01C0E6FF89
:0E16CA00B7D7030E006E02D0010E006E1200A4
:0816D8000B6A0B86FF0E1200E5
:1016E0007AC586F57BC587F520DC00500D0A08E138
:1016F0007AC586F57BC587F527DC005201E002D06C
:10170000006A08D1030E78257C6F000E79217D6F69
:101710007AC586F57BC587F5010E886F3FDC7CC5F1
:10172000E1FF7DC5E2FF00C0E6FF020E78257C6F79
:10173000000E79217D6F010E7A25866F000E7B21C8
:10174000876F020E886F2ADC7CC5E1FF7DC5E2FF52
:1017500000C0E6FF010E78257C6F000E79217D6FB9
:10176000030E7A25866F000E7B21876F020E886F2D
:1017700015DC7CC5E1FF7DC5E2FF00C0E6FF78C552
:101780007CF579C57DF5050E7A25866F000E7B21E7
:10179000876F020E886F02DC7CC5E1FF7DC5E2FF2A
:1017A00000C0E6FF040E78257C6F000E79217D6F66
:1017B000070E7A25866F000E7B21876F020E886FD9
:1017C000CEEC07F07CC5E1FF7DC5E2FF00C0E6FF7F
:1017D000050E78257C6F000E79217D6F090E7A2524
:1017E000866F000E7B21876F020E886FCEEC07F0AC
:1017F0007CC5E1FF7DC5E2FF00C0E6FF060E78254F
:101800007C6F000E79217D6F0B0E7A25866F000E9E
:101810007B21876F020E886FCEEC07F07CC5E1FF5D
:101820007DC5E2FF00C0E6FFEFEC05F0D00E866F4D
:101830000DEC06F0866B0DEC06F078C5E9FF79C576
:10184000EAFFEECF86F572EC06F000C086F50DECEF
:1018500006F0010E7825E96E000E7921EA6EEECFD2
:1018600086F572EC06F000C086F50DEC06F0020E6F
:101870007825E96E000E7921EA6EEECF86F572ECDE
:1018800006F000C086F50DEC06F0030E7825E96E33
:10189000000E7921EA6EEECF86F572EC06F000C0FC
:1018A00086F50DEC06F0040E7825E96E000E792120
:1018B000EA6EEECF86F572EC06F000C086F50DEC10
:1018C00006F0050E7825E96E000E7921EA6EEECF5E
:1018D00086F572EC06F000C086F50DEC06F0060EFB
:1018E0007825E96E000E7921EA6EEECF86F572EC6E
:1018F00006F000C086F50DEC06F0800E866F0DEC4C
:1019000006F065DE78C586F579C587F5010E050117
:06191000886FFADC1200F2
:1019160078C590F579C591F57AC592F57BC593F5AD
:10192600ABEC04F000C081F5005203E081C500F085
:1019360093D07EC586F57FC587F537EC07F0005056
:10194600010F016E01C0BAF301500301915D03E27C
:10195600040E006E81D00501805347E003018E51CD
:10196600905D02E18D518F5D3CE28FC300F090C324
:1019760001F091C304F0000E056EC0EC02F00050B9
:10198600B8250501906F01500301B9210501916F3A
:101996007EC592F57FC593F5BAC394F5EBEC03F0DB
:1019A600010E03018F25006E000E9021016E00C00E
:1019B6008FF301C090F30F0EB6250501906F000E50
:1019C6000301B7210501916F030E9027000E9123A5
:1019D6008F0E926F030E936F020E946FEBEC03F073
:1019E60003D0050E006E38D036D0800E05017D1965
:1019F600006E800E005C02E1010E7C5D29E37D51E4
:101A06000301905D04E105017C5103018F5D20E334
:101A1600010E05017C5D006E000E7D59016E91C3BD
:101A260004F0000E056EC0EC02F000500301B8256C
:101A36000501906F01500301B9210501916F7EC523
:101A460092F57FC593F5BAC394F5EBEC03F003D09A
:0A1A5600030E006E01D0006A1200BA
:0A1A60003EC3CFFF3DC3CEFF1200CE
:101A6A00016A05017C51015C18E201507A25E96E90
:101A7A00000E7B21EA6EEE5210E001507825E16EED
:101A8A00000E7921E26E01507A25E96E000E7B2163
:101A9A00EA6EEECFE6FF012AE4D701507825E16E1F
:0E1AAA00000E7921E26EE66A01C000F0120023
:101AB80005017A6B7B6B7C6B7D6B7E6B7A5178252D
:101AC800E96E000E7ABFFF0E7921EA6EEE5238E019
:101AD8007BC500F07CC501F07DC502F07EC503F032
:101AE8000A0E046E000E056E066E076E29EC04F0F1
:101AF80000C07BF501C07CF502C07DF503C07EF512
:101B08007A517825E96E000E7ABFFF0E7921EA6EC8
:101B1800300EEE5C046E056A000E055A045000246F
:101B28007B6F055001207C6F000E05BEFF0E022062
:101B38007D6F000E05BEFF0E03207E6F7A2BBED789
:101B48007BC500F07CC501F07DC502F07EC503F0C1
:021B5800120079
:101B5A0005017F6B7EC500F07E070052D8B490D095
:101B6A007F517C25806F000E7D21816F780EE96E92
:101B7A00050EEA6E7E51E926D8B0EA2AEECF90F534
:101B8A00EBEC05F00F0E001680C5E1FF81C5E2FF00
:101B9A0000C0E6FF7F517C25E96E000E7D21EA6ECA
:101BAA000A0EEE5C14E27F517C25016E000E7D2147
:101BBA00026E01C0E9FF02C0EAFF300EEE24006E99
:101BCA0001C0E1FF02C0E2FF00C0E6FF13D07F516F
:101BDA007C25016E000E7D21026E01C0E9FF02C064
:101BEA00EAFF370EEE24006E01C0E1FF02C0E2FFF9
:101BFA0000C0E6FF7F2B7F517C25E16E000E7D2120
:101C0A00E26E780EE96E050EEA6E7E51E926D8B0CC
:101C1A00EA2A0F0EEE14006E00C0E6FF7F517C2503
:101C2A00E96E000E7D21EA6E0A0EEE5C14E27F5127
:101C3A007C25016E000E7D21026E01C0E9FF02C003
:101C4A00EAFF300EEE24006E01C0E1FF02C0E2FF9F
:101C5A0000C0E6FF13D07F517C25016E000E7D2166
:101C6A00026E01C0E9FF02C0EAFF370EEE24006EE1
:101C7A0001C0E1FF02C0E2FF00C0E6FF7F2B6AD786
:101C8A007F517C25E16E000E7D21E26EE66A7CC5FD
:081C9A0000F07DC501F012000D
:101CA20078C586F579C587F537EC07F0010E005E39
:101CB200000E015A00C07BF57C6B7D6B7E6B7F6BE7
:101CC2007A6B080E7A5DD8B0D1D07A517825E96E58
:101CD200000E7921EA6EEE52D8B4C8D07A51782536
:101CE200E96E000E7921EA6E300EEE5C2BE37A513A
:101CF2007825E96E000E7921EA6EEE50390822E36A
:101D02007BC500F00032009E7C0E016E050E026E55
:101D120000500126D8B0022A7A517825E96E000EC9
:101D22007921EA6E300EEE5C006E01C0E9FF02C05E
:101D3200EAFFEE50001201C0E1FF02C0E2FF00C064
:101D4200E6FF6DD07A517825E96E000E7921EA6EB0
:101D5200610EEE5C2DE37A517825E96E000E792151
:101D6200EA6EEE50660824E37BC500F00032009E66
:101D72007C0E016E050E026E00500126D8B0022ABA
:101D82007A517825E96E000E7921EA6E610EEE5CD9
:101D9200006E0A0E002601C0E9FF02C0EAFFEE5003
:101DA200001201C0E1FF02C0E2FF00C0E6FF37D02F
:101DB2007A517825E96E000E7921EA6E410EEE5CC9
:101DC2002DE37A517825E96E000E7921EA6EEE5004
:101DD200460824E37BC500F00032009E7C0E016EB3
:101DE200050E026E00500126D8B0022A7A517825DB
:101DF200E96E000E7921EA6E410EEE5C006E0A0E6B
:101E0200002601C0E9FF02C0EAFFEE50001201C045
:101E1200E1FF02C0E2FF00C0E6FF01D027D0010EC1
:101E22007B15016E0150010A1EE17BC500F00032F4
:101E3200009E7C0E806F050E816F00508027D8B007
:101E4200812B7C0EE96E050EEA6E0050E926D8B0B1
:101E5200EA2AEECF90F5EBEC05F080C5E1FF81C5F3
:101E6200E2FF00C0E6FF7A2B7B072BD77CC500F090
:0E1E72007DC501F07EC502F07FC503F01200B1
:101E800005017D6B7E6B7D517825E96E000E792111
:101E9000EA6EEE5202E07D2BF6D77E517A25F66E81
:101EA000000E7B21F76E000E7C21F86E0900F5CF45
:101EB00000F0005217E07D517825E16E000E792187
:101EC000E26E7E517A25F66E000E7B21F76E000ED3
:101ED0007C21F86E0900F5CF00F000C0E6FF7D2BF5
:101EE0007E2BDBD77D517825E16E000E7921E26EE5
:081EF000E66A7DC500F0120056
:101EF80078C59CF579C59DF53AEC02F0005202E1EF
:101F0800006A1AD003018F6B906B0F0EB62505017E
:101F1800906F000E0301B7210501916F030E902702
:101F2800000E91238F0E926F030E936F020E946F23
:0A1F3800EBEC03F0010E006E120046
:101F4200140E0501796F79530BE078C586F579C5D2
:101F520087F5200E886FF9EC06F005017907F3D7B3
:021F620012006B
:101F6400086A096A100E0C6E0134083609360450EA
:101F7400085E0550D8A0053C095ED8B007D00450CF
:101F840008260550D8B0053C0926D89000360136FD
:061F94000C2EEAD712003A
:101F9A000501785314E1BFC386F5C0C387F5C1C3F1
:101FAA0088F5C2C389F579C58AF57AC58BF58C6B34
:101FBA0054EC07F0005203E1010E0501786F0501A8
:101FCA00785348E079C586F57AC587F537EC07F086
:101FDA000050010F8C6F6D0E866F020E876F5C0EBC
:101FEA00886F020E896F79C58AF57AC58BF589ECF7
:101FFA0006F000522FE16D0E0501866F020E876F03
:10200A00650E886F020E896F8FC38AF590C38BF5B0
:10201A007B0E8C6F050E8D6F2AEC08F005017B5143
:10202A00310A03E00301BD4BBE2B6D0E0501866F1D
:10203A00020E876F650E886F020E896F8FC38AF54D
:10204A0090C38BF5900E8C6F020E8D6F010E8E6F02
:06205A0072EC08F0120018
:1020600005017A6B7B6B7C6B7D6B78C5E9FF79C56D
:10207000EAFFEECF7AF5FF0E7825E96EFF0E7921A3
:10208000EA6EEECF7BF5FE0E7825016EFF0E79210C
:10209000026E01C0E9FF02C0EAFF030EEE147C6F7E
:1020A00001C0E9FF02C0EAFFEECF00F000BA02D0A3
:1020B0007C9501D07C8501C0E9FF02C0EAFFEECF2C
:1020C00000F000BC02D07C9701D07C8701C0E9FF02
:1020D00002C0EAFFEECF00F000BE02D07C9901D032
:1020E0007C89FD0E7825016EFF0E7921026E01C0FC
:1020F000E9FF02C0EAFFEECF00F000B002D07C9B07
:1021000001D07C8B01C0E9FF02C0EAFFEECF00F0F6
:1021100000B202D07C9D01D07C8D01C0E9FF02C0DD
:10212000EAFFEECF00F000B402D07C9F01D07C8F9C
:1021300001C0E9FF02C0EAFFEECF01F001C07DF56A
:102140007D337D9F7D337D9F7D337D9F7AC500F0FC
:0E2150007BC501F07CC502F07DC503F01200D6
:10215E0078C5E1FF79C5E2FF7AC5E6FFFF0E0501FE
:10216E007825E16EFF0E7921E26E7BC5E6FFFE0E4D
:10217E007825E16EFF0E7921E26E030E7C15006E5E
:10218E0000C0E6FFFE0E7825E16EFF0E7921E26EAD
:10219E00E686030E006E005007E07A377A917B37A1
:1021AE007C377D37FF0FF8D7FE0E7825016EFF0EB8
:1021BE007921026EE00E7C15006E01C0E9FF02C0AF
:1021CE00EAFFEE50001201C0E1FF02C0E2FF00C0C4
:1021DE00E6FFFD0E7825E16EFF0E7921E26E7DC5DC
:0421EE00E6FF1200F6
:1021F200EFEC05F0D00E0501866F0DEC06F0866B54
:102202000DEC06F0EFEC05F0D10E866F0DEC06F04A
:1022120078C57BF579C57CF5010E866F000E876F58
:10222200C2EC08F07BC5E1FF7CC5E2FF00C0E6FF1F
:10223200010E050178257B6F000E79217C6F010E5E
:10224200866F000E876FC2EC08F07BC5E1FF7CC58C
:10225200E2FF00C0E6FF020E050178257B6F000E4B
:1022620079217C6F010E866F000E876FC2EC08F039
:102272007BC5E1FF7CC5E2FF00C0E6FF030E05015E
:1022820078257B6F000E79217C6F010E866F000E20
:10229200876FC2EC08F07BC5E1FF7CC5E2FF00C09E
:1022A200E6FF040E050178257B6F000E79217C6F15
:1022B200010E866F000E876FC2EC08F07BC5E1FF4E
:1022C2007CC5E2FF00C0E6FF050E050178257B6FA5
:1022D200000E79217C6F010E866F000E876FC2ECB3
:1022E20008F07BC5E1FF7CC5E2FF00C0E6FF060EF9
:1022F200050178257B6F000E79217C6F866B876BD9
:10230200C2EC08F07BC5E1FF7CC5E2FF00C0E6FF3E
:10231200E7EC0AF078C57BF579C57CF578C5E9FF6D
:1023220079C5EAFFEECF00F07F0E00140501866F3B
:102332001AEC09F07BC5E1FF7CC5E2FF00C0E6FFB5
:10234200010E78257B6F000E79217C6F7BC5E9FF3A
:102352007CC5EAFFEECF86F51AEC09F07BC5E1FFFA
:102362007CC5E2FF00C0E6FF020E78257B6F000EFF
:1023720079217C6F7BC5E9FF7CC5EAFFEECF86F54C
:102382001AEC09F07BC5E1FF7CC5E2FF00C0E6FF65
:10239200030E78257B6F000E79217C6F7BC5E9FFE8
:1023A2007CC5EAFFEECF86F51AEC09F07BC5E1FFAA
:1023B2007CC5E2FF00C0E6FF040E78257B6F000EAD
:1023C20079217C6F7BC5E9FF7CC5EAFFEECF86F5FC
:1023D2001AEC09F07BC5E1FF7CC5E2FF00C0E6FF15
:1023E200050E78257B6F000E79217C6F7BC5E9FF96
:1023F2007CC5EAFFEECF86F51AEC09F07BC5E1FF5A
:102402007CC5E2FF00C0E6FF060E78257B6F000E5A
:1024120079217C6F7BC5E9FF7CC5EAFFEECF86F5AB
:102422001AEC09F07BC5E1FF7CC5E2FF00C0E6FFC4
:1024320078C586F579C587F57AC588F584EC09F003
:0E244200070E7825006E000E7921016E120043
:1024500005017A6B7A517825E96E000E7921EA6ED2
:10246000EE50000A27E07A517825E96E000E7921B6
:10247000EA6E610EEE5C1CE37A517825E96E000E7F
:102480007921EA6EEE507A0813E37A517825016ECD
:10249000000E7921026E01C0E9FF02C0EAFF200EA2
:1024A000EE5C006E01C0E1FF02C0E2FF00C0E6FF8B
:0E24B0007A2BD0D778C500F079C501F0120064
:0E24BE00050178B102D09D9001D09D801200E2
:1024CC0010D0800E0501786F1AD0C00E786F17D01F
:1024DC00940E786F14D0D40E786F11D0800E786F64
:1024EC000ED005017851010AECE07851020AEDE0BA
:1024FC007851030AEDE07851040AEDE0EFD7790545
:10250C00006E7851002600C078F500C090F5A9EC5B
:10251C0005F0BC9105017C6B7C517A25E96E000EAF
:10252C007B21EA6EEE520DE07C517A25E96E000EAD
:10253C007B21EA6EEECF86F530EC07F005017C2BA3
:08254C00EBD70301BC81120072
:102554000B6A0A6A096A086A0E6A03340836045068
:10256400085E0550D8A0053C095E0650D8A0063C7C
:102574000A5E0750D8A0073C0B5EE86AD8A0010E9B
:102584000E5E0336070E0C6E0334083609360A361F
:102594000B360E36045003A012D0085E0550D8A0A6
:1025A400053C095E0650D8A0063C0A5E0750D8A038
:1025B400073C0B5EE86AD8A0010E0E5E11D0082617
:1025C4000550D8B0053C09260650D8B0063C0A266A
:1025D4000750D8B0073C0B26E86AD8B0010E0E2687
:1025E40003360C2ED1D70234083609360A360B3698
:1025F4000E36045003A012D0085E0550D8A0053C46
:10260400095E0650D8A0063C0A5E0750D8A0073CD5
:102614000B5EE86AD8A0010E0E5E11D008260550A4
:10262400D8B0053C09260650D8B0063C0A26075007
:10263400D8B0073C0B26E86AD8B0010E0E26023645
:10264400070E0C6E0234083609360A360B360E367F
:10265400045002A012D0085E0550D8A0053C095EC3
:102664000650D8A0063C0A5E0750D8A0073C0B5E73
:10267400E86AD8A0010E0E5E11D008260550D8B025
:10268400053C09260650D8B0063C0A260750D8B0A7
:10269400073C0B26E86AD8B0010E0E2602360C2E33
:1026A400D1D70134083609360A360B360E360450B3
:1026B40002A012D0085E0550D8A0053C095E065061
:1026C400D8A0063C0A5E0750D8A0073C0B5EE86A17
:1026D400D8A0010E0E5E11D008260550D8B0053CD6
:1026E40009260650D8B0063C0A260750D8B0073C45
:1026F4000B26E86AD8B0010E0E260136070E0C6EC2
:102704000134083609360A360B360E36045001A059
:1027140012D0085E0550D8A0053C095E0650D8A02A
:10272400063C0A5E0750D8A0073C0B5EE86AD8A0B6
:10273400010E0E5E11D008260550D8B0053C0926BE
:102744000650D8B0063C0A260750D8B0073C0B26E2
:10275400E86AD8B0010E0E2601360C2ED1D700340B
:10276400083609360A360B360E36045001A012D04C
:10277400085E0550D8A0053C095E0650D8A0063C6A
:102784000A5E0750D8A0073C0B5EE86AD8A0010E89
:102794000E5E11D008260550D8B0053C0926065017
:1027A400D8B0063C0A260750D8B0073C0B26E86A86
:1027B400D8B0010E0E260036070E0C6E0034083613
:1027C40009360A360B360E36045000A012D0085EC5
:1027D4000550D8A0053C095E0650D8A0063C0A5E08
:1027E4000750D8A0073C0B5EE86AD8A0010E0E5E25
:1027F40011D008260550D8B0053C09260650D8B09B
:10280400063C0A260750D8B0073C0B26E86AD8B025
:10281400010E0E2600360C2ED1D700B00ED0045077
:1028240008260550D8B0053C09260650D8B0063C09
:0C2834000A260750D8B0073C0B26120003
:1028400078C590F579C591F57AC592F57BC593F574
:10285000ABEC04F000C083F5005203E083C500F048
:102860008AD091C3BAF303019151040803E2060E22
:10287000006E81D00501825347E003018E51905DC7
:1028800002E18D518F5D3CE28FC300F090C301F0F7
:1028900091C304F0000E056EC0EC02F00050B825A4
:1028A0000501906F01500301B9210501916F7E0E62
:1028B000926F050E936FBAC394F5EBEC03F0010E23
:1028C00003018F25006E000E9021016E00C08FF372
:1028D00001C090F30F0EB6250501906F000E0301A5
:1028E000B7210501916F030E9027000E91238F0EE3
:1028F000926F030E936F020E946FEBEC03F003D014
:10290000050E006E38D036D0800E05017D19006EA0
:10291000800E005C02E1010E7C5D29E37D51030124
:10292000905D04E105017C5103018F5D20E3010E00
:1029300005017C5D006E000E7D59016E91C304F0AF
:10294000000E056EC0EC02F000500301B825050131
:10295000906F01500301B9210501916F7E0E926FB6
:10296000050E936FBAC394F5EBEC03F003D0030E9E
:08297000006E01D0006A1200A4
:1029780005017D6B7D517A25F66E000E7B21F76E81
:10298800000E7C21F86E0900F5CF00F0005216E029
:102998007D517825E16E000E7921E26E7D517A2510
:1029A800F66E000E7B21F76E000E7C21F86E090092
:1029B800F5CF00F000C0E6FF7D2BDCD77D517825F0
:1029C800E16E000E7921E26EE66A7DC500F0120024
:0629D8009388938A1200AF
:1029DE0005017B6B7B517825E96E000E7921EA6E3D
:1029EE00EE5202E07B2BF6D77B517825E16E000E7E
:1029FE007921E26E7AC5E6FF7B2B7B517825E16E5D
:0E2A0E00000E7921E26EE66A7BC500F0120030
:102A1C0078C590F579C591F57AC592F57BC593F596
:102A2C00ABEC04F000C080F5005203E080C500F070
:102A3C0037D0800E05017D19006E800E005C02E11E
:102A4C00010E7C5D29E37D510301905D04E10501DC
:102A5C007C5103018F5D20E3010E05017C5D006E4E
:102A6C00000E7D59016E91C304F0000E056EC0EC92
:102A7C0002F000500301B82505019E6F01500301BF
:102A8C00B92105019F6F7EC5A0F57FC5A1F591C346
:102A9C00A2F5B2EC01F003D0030E006E01D0006A77
:022AAC00120016
:102AAE000CB099EF15F00CA241EF16F00E6A000E65
:102ABE000264B0EF15F0F00E0214D8A47BEF15F0FF
:102ACE00023A01380F0B02260138F00B016E003866
:102ADE000F0B01260038F00B006E08380F0B002686
:102AEE000838F00B086E0E84D89002BE94EF15F0E5
:102AFE0008360036013602360E2A02BE94EF15F065
:102B0E0008360036013602360E2A02BE94EF15F054
:102B1E0008360036013602360E2A0E50036435EFA3
:102B2E0016F0035E0BBC08AE3BEF16F0D880800E9D
:102B3E0008640030000E002201220222D8A03BEFD2
:102B4E0016F0023201320032034A41EF16F03BEF2B
:102B5E0016F001C002F000C001F008C000F0086AD3
:102B6E00000E0E860264E7EF15F0F00E0214D8A4E4
:102B7E00CFEF15F0023A01380F0B02260138F00B99
:102B8E00016E00380F0B01260038F00B006E0E841C
:102B9E00D89002BE94EF15F00036013602360E2A9A
:102BAE0002BE94EF15F00036013602360E2A02BE32
:102BBE0094EF15F00036013602360E2A94EF15F01A
:102BCE0001C002F000C001F0006A000E0E960E88E1
:102BDE00026414EF16F0F00E0214D8A4FFEF15F0F5
:102BEE00023A01380F0B02260138F00B016E0E84EB
:102BFE00D89002BE94EF15F0013602360E2A02BEB0
:102C0E0094EF15F0013602360E2A02BE94EF15F03F
:102C1E00013602360E2A94EF15F001C002F0016A59
:102C2E00000E0E86026447EF16F0F00E0214D8A4C2
:102C3E0023EF16F0023A0E84D89002BE94EF15F0F0
:102C4E0002360E2A02BE94EF15F002360E2A02BE8E
:102C5E0094EF15F002360E2A94EF15F0010E0C6E5D
:102C6E0000EC06F04BEF16F0020E0C6EFCEC05F0CD
:102C7E004BEF16F0040E0C6E1EEC08F04BEF16F038
:0A2C8E00080E0C6E29EC07F012008E
:102C980005017C6B7D6B7C517825E96E000E7921EE
:102CA800EA6EEE5202E07C2BF6D77D517A25E96E6A
:102CB800000E7B21EA6EEE5211E07C517825E16E20
:102CC800000E7921E26E7D517A25E96E000E7B2196
:102CD800EA6EEECFE6FF7C2B7D2BE7D77C5178257B
:102CE800E16E000E7921E26EE66A7CC500F0120002
:102CF800026A05017D51025C19E202507825F66EE0
:102D0800000E7921F76E000E7A21F86E0900F5CFD2
:102D180001F002507B25D96E000E7C21DA6E01503D
:102D2800DE1802E0006A04D0022AE3D7010E006E22
:022D3800120087
:102D3A000B800BAEA9EF16F0026A0AAEFF0E026E06
:0C2D4A00016E006E0A360232FF0E12000D
:102D5600050178B102D06F9A01D06F8A78B302D09C
:102D66006F9C01D06F8C78B502D06F9E01D06F8EAC
:102D76006EBA03D06FAA03D011D06FAA0FD06EBC63
:102D860003D06FAC03D00AD06FAC08D06EBE03D0B0
:102D96006FAE03D003D06FAE01D001D0E9D71200D9
:102DA6000501586B58515625E96E000E5721EA6EFB
:102DB600EE5210E058515425E16E000E5521E26E98
:102DC60058515625E96E000E5721EA6EEECFE6FF02
:102DD600582BE8D758515425E16E000E5521E26E66
:082DE600E66A58C500F0120076
:102DEE0060AE31D0600E0501646F0F0E656F650E1B
:102DFE00606F0F0E616F640E5E6F0F0E5F6F660E6B
:102E0E00626F0F0E636F0301CD51000A03E10501DE
:102E1E005A6B03D00501100E5A6F5AC566F5000E97
:102E2E0074BE010E0301CE6F749ECD51000A05E1F2
:102E3E00000E60B0010ECF6F05D01F0E6014006E35
:102E4E0000C0CFF351D00F0150AF48D0500E050146
:102E5E00646F0F0E656F650E606F0F0E616F540E0F
:102E6E005E6F0F0E5F6F560E626F0F0E636F030174
:102E7E00CD51000A04E10A0E05015B6F03D0050176
:102E8E00100E5B6F5BC566F50301CD51010A04E1BF
:102E9E00010E05015C6F02D005015C6B5C5166137F
:102EAE00000E74BC010E0301CE6F749CCD51000A4E
:102EBE000EE160A406D0070E0F01501505015D6FDF
:102ECE0003D00501FF0E5D6F5DC5CFF306D01F0E5B
:102EDE000F015015006E00C0CFF306D00301CD5187
:102EEE00000A02E1006A67D10301CD51000A06E132
:102EFE00F10E6F16050166516F12F1D00D01F8B586
:102F0E0024D00E0120AF21D0200E0501646F0E0ECD
:102F1E00656F250E606F0E0E616F240E5E6F0E0EC6
:102F2E005F6F260E626F0E0E636F000E74BE010E83
:102F3E000301CE6F749E1F0E0E012015006E00C091
:102F4E00CFF3120E0501666FC5D00D01F8B724D070
:102F5E000E0130AF21D0300E0501646F0E0E656F7D
:102F6E00350E606F0E0E616F340E5E6F0E0E5F6F5C
:102F7E00360E626F0E0E636F000E74BE010E0301ED
:102F8E00CE6F749E1F0E0E013015006E00C0CFF373
:102F9E00130E0501666F9ED00D01F8B924D00E01F7
:102FAE0040AF21D0400E0501646F0E0E656F450EC9
:102FBE00606F0E0E616F440E5E6F0E0E5F6F460EEB
:102FCE00626F0E0E636F000E74BE010E0301CE6FA4
:102FDE00749E1F0E0E014015006E00C0CFF3140E2E
:102FEE000501666F77D00D01F8BB24D00E0150AFEE
:102FFE0021D0500E0501646F0E0E656F550E606F79
:10300E000E0E616F540E5E6F0E0E5F6F560E626F78
:10301E000E0E636F000E74BE010E0301CE6F749E12
:10302E001F0E0E015015006E00C0CFF3150E0501D8
:10303E00666F50D00D01F8BD24D00E0160AF21D0C7
:10304E00600E0501646F0E0E656F650E606F0E0EDD
:10305E00616F640E5E6F0E0E5F6F660E626F0E0E08
:10306E00636F000E74BE010E0301CE6F749E1F0EB1
:10307E000E016015006E00C0CFF3160E0501666FCF
:10308E0029D00D01F8BF24D00E0170AF21D0700EE3
:10309E000501646F0E0E656F750E606F0E0E616F1B
:1030AE00740E5E6F0E0E5F6F760E626F0E0E636F96
:1030BE00000E74BE010E0301CE6F749E1F0E0E0124
:1030CE007015006E00C0CFF3170E0501666F02D0AB
:1030DE00006A71D00501E00E77166651771260C551
:1030EE00E9FF61C5EAFF58C5E1FF59C5E2FF0F0EC2
:1030FE00EE14E66E60C5E9FF61C5EAFFEECF00F0A3
:10310E00000E00BC010E0401286F5EC578F55FC588
:10311E0079F530EC10F054C5E1FF55C5E2FF00C063
:10312E00E6FF01C0E6FF02C0E6FF03C0E6FF666BE6
:10313E0058C5D9FF59C5DAFFDE50665D13E2080E99
:10314E00665D10E266515625E16E000E5721E26E65
:10315E0066516225E96E000E6321EA6EEECFE6FF40
:10316E00662BE6D764C5E1FF65C5E2FFE69E6551B5
:10317E000F0A02E1600E641902E1A49009D06551B4
:10318E000F0A02E1500E641902E1A49201D0A4923A
:10319E000301CD51000A03E1F10E6F1604D0E00ECB
:1031AE007716160E77120401285303E1010E006EF6
:0831BE0002D0020E006E1200A7
:1031C6000B6A0C6A0A6A086A0350D8B46BEF19F0E6
:1031D600028E9E0E035E03BEF6EF18F0D8B4F6EF2D
:1031E60018F05BEF19F0036C080E035CD8A028EF0B
:1031F60019F0036E083600C008F001C000F002C0E6
:1032060001F0026A080E035CD8A028EF19F0036EDD
:10321600083600C008F001C000F0016A080E035C21
:10322600D8A028EF19F0036E083600C008F0006A2F
:10323600080E035CD8A028EF19F0036E0836086A5A
:103246000350D8A4D89034EF19F00350D8B434EF13
:1032560019F0D8900232013200320832032E2CEFD8
:1032660019F00BBC08A045EF19F0D8A045EF19F0EE
:10327600082AD8B4002AD8B4012AD8B4022A02BE31
:103286006FEF19F00AAE6BEF19F0021E011E001E59
:10329600081E082AD8B4002AD8B4012AD8B4022AAB
:1032A6006BEF19F0026A016A006A086A6BEF19F09F
:1032B6000B800BAE74EF19F0026A0AAE74EF19F0C8
:1032C600026E016E006E086E0A36023274EF19F055
:1032D600000E0C6A75EF19F0010E0C6E2BDD75EF02
:1032E60019F0FF0E0250036E0150026E0050016E7F
:0632F6000850006E1200FA
:1032FC00800E05015F19006E800E5719005C08E105
:10330C0056515E5D05E155515D5D02E154515C5DC8
:10331C0009E25CC554F55DC555F55EC556F55FC54E
:10332C0057F518D0800E5719006E800E5B19005C93
:10333C0008E15A51565D05E15951555D02E158516C
:10334C00545D08E258C554F559C555F55AC556F59E
:10335C005BC557F554C500F055C501F056C502F0D4
:06336C0057C503F012003A
:103372000F0140B71FD0400E0501606F0F0E616F45
:10338200440E626F0F0E636F450E646F0F0E656F12
:10339200460E666F0F0E676F0301CD51000A04E1FE
:1033A200080E05015D6F03D00501030E5D6F5DC55B
:1033B20068F54AD00F0130B71FD0300E0501606F9B
:1033C2000F0E616F340E626F0F0E636F350E646FF6
:1033D2000F0E656F360E666F0F0E676F0301CD51CC
:1033E200000A04E1060E05015E6F03D00501040E1A
:1033F2005E6F5EC568F528D00F0120B71FD0200E82
:103402000501606F0F0E616F240E626F0F0E636F06
:10341200250E646F0F0E656F260E666F0F0E676FB7
:103422000301CD51000A04E1040E05015F6F03D0D0
:103432000501050E5F6F5FC568F506D00301CD512A
:10344200000A02E1006A05D10301CD51000A06E13A
:10345200F10E6F16050168516F12A3D00D01F8A588
:1034620017D00E0120B714D0200E0501606F0E0E8A
:10347200616F240E626F0E0E636F250E646F0E0E67
:10348200656F260E666F0E0E676F120E686F84D020
:103492000D01F8A717D00E0130B714D0300E050178
:1034A200606F0E0E616F340E626F0E0E636F350E1B
:1034B200646F0E0E656F360E666F0E0E676F130E1B
:1034C200686F6AD00D01F8A917D00E0140B714D069
:1034D200400E0501606F0E0E616F440E626F0E0E9C
:1034E200636F450E646F0E0E656F460E666F0E0EAD
:1034F200676F140E686F50D00D01F8AB17D00E0134
:1035020050B714D0500E0501606F0E0E616F540E4D
:10351200626F0E0E636F550E646F0E0E656F560E60
:10352200666F0E0E676F150E686F36D00D01F8AD1F
:1035320017D00E0160B714D0600E0501606F0E0E39
:10354200616F640E626F0E0E636F650E646F0E0E16
:10355200656F660E666F0E0E676F160E686F1CD073
:103562000D01F8AF17D00E0170B714D0700E05011F
:10357200606F0E0E616F740E626F0E0E636F750ECA
:10358200646F0E0E656F760E666F0E0E676F170E06
:10359200686F02D0006A5DD00501E00E77166851AF
:1035A200771260C5E1FF61C5E2FF5BB102D0E69030
:1035B20001D0E68060C5E1FF61C5E2FF5BB302D0E6
:1035C200E69201D0E68262C578F563C579F554C505
:1035D2007AF555C57BF556C57CF557C57DF5AFEC3B
:1035E20010F064C5E1FF65C5E2FF5AC5E6FF64C598
:1035F200E1FF65C5E2FF5CB102D0E69C01D0E68C3A
:10360200686B5A51685D13E2080E685D10E26851FA
:103612006625E16E000E6721E26E68515825E96E5B
:10362200000E5921EA6EEECFE6FF682BEAD760C59D
:10363200E1FF61C5E2FFE6860301CD51000A03E125
:10364200F10E6F1604D0E00E7716160E7712010EE9
:04365200006E1200F4
:02365600120060
:103658000501556B6EBA02D0559101D055816EBCEB
:1036680002D0559301D055836EBE02D0559501D036
:103678005585040E786FABEC16F054B102D0779CE8
:1036880001D0778C54B302D0779E01D0778E55C580
:0C36980078F5ABEC16F054C5CDF3120031
:1036A4009682958C0301BC9384B204D0BCA301D050
:0636B40001D0FAD712005C
:1036BA00016A05015851015C13E201505425E96E73
:1036CA00000E5521EA6E01505625D96E000E57217B
:1036DA00DA6EEE50DE1802E0006A04D0012AE9D759
:0636EA00010E006E12004B
:1036F00054C500F055C501F00A0E046E000E056EAB
:10370000C0EC02F000C054F501C055F500C054F5FE
:1037100001C055F5050155335433559F190E566FA9
:10372000080E565D2FE356C504F0000E056E54C515
:1037300000F055C501F0B2EC0FF008C000F009C070
:1037400001F0000E011802E1000E001819E156C543
:1037500004F0000E056E54C500F055C501F0B2EC42
:103760000FF000C057F5010E005C0AE35751400806
:1037700007E3570757C570FF709C709E560702D02D
:103780005607CED7100E576F020E575D4CE35651B9
:10379000575D46E257C500F00032009E00C057F565
:1037A000000600C057F5718E718C57B102D071962A
:1037B00001D0718657B302D0719801D0718857B586
:1037C00002D0719A01D0718A729E729C57B102D058
:1037D000729001D0728057B302D0729201D072827F
:1037E00057B502D0729401D072840050010F026E5E
:1037F00002C000F0003600900050565D576F57072A
:1038000057B102D0719001D0718057B302D071923C
:1038100001D0718257B502D0719401D0718403D068
:08382000020E575FB1D7120040
:0E382800050154B102D0F09601D0F0861200D6
:0E383600050154B102D0F29801D0F2881200C0
:103844000501566B56515425E96E000E5521EA6E5A
:10385400EE52D8B4B5D056515425E96E000E552118
:10386400EA6EEE50300A09E156515425E16E000E1D
:103874005521E26E310EE66EA1D056515425E96E03
:10388400000E5521EA6EEE50310A09E156515425D5
:10389400E16E000E5521E26E390EE66E8FD0565160
:1038A4005425E96E000E5521EA6EEE50320A09E104
:1038B40056515425E16E000E5521E26E300EE66E2F
:1038C4007DD056515425E96E000E5521EA6EEE5016
:1038D400330A09E156515425E16E000E5521E26E7A
:1038E400380EE66E6BD056515425E96E000E552104
:1038F400EA6EEE50340A09E156515425E16E000E89
:103904005521E26E360EE66E59D056515425E96EB5
:10391400000E5521EA6EEE50350A09E15651542540
:10392400E16E000E5521E26E370EE66E47D0565119
:103934005425E96E000E5521EA6EEE50360A09E16F
:1039440056515425E16E000E5521E26E350EE66E99
:1039540035D056515425E96E000E5521EA6EEE50CD
:10396400370A09E156515425E16E000E5521E26EE5
:10397400340EE66E23D056515425E96E000E5521BF
:10398400EA6EEE50380A09E156515425E16E000EF4
:103994005521E26E320EE66E11D056515425E96E71
:1039A400000E5521EA6EEE50390A08E156515425AD
:1039B400E16E000E5521E26E330EE66E562B42D7B1
:0239C4001200EF
:1039C6000501586B58515425E96E000E5521EA6ED3
:1039D60058515625D96E000E5721DA6EEE50DE1874
:1039E60002E0006A18D058515425E96E000E5521A0
:1039F600EA6EEE50000A0AE058515625E96E000EAE
:103A06005721EA6EEE50000A01E001D002D0582B91
:083A1600D9D7010E006E120069
:103A1E000301E151000A1DE149521AE0496A010E03
:103A2E00BD5F000EBE5B6D0E0501866F020E876FC9
:103A3E00650E886F020E896F41C38AF542C38BF5FE
:103A4E00450E8C6F010E8D6F010E8E6F72EC08F0AD
:103A5E0011D00301E151030A0DE149520AE1010EB1
:103A6E000501786FE80E796F030E7A6FCDEC0FF0CB
:063A7E0001D0496A1200AC
:103A8400F292050155B102D0F19C01D0F18C54B1F0
:0A3A940002D0F29801D0F28812006F
:103A9E0005015A6B5B6B000E5B5D02E10A0E5A5D0F
:103AAE000BE25A515825E16E5B515921E26E200E00
:103ABE00E66E5A4B5B2BEFD75A515825E16E5B5190
:103ACE005921E26EE66A010E5A5F000E5B5B5A5197
:103ADE0058255C6F5B5159215D6F0A0E046E000E06
:103AEE00056E066E076E54C500F055C501F056C53D
:103AFE0002F057C503F0AAEC12F008C000F009C09E
:103B0E0001F00AC002F00BC003F0300E00265CC5B7
:103B1E00E1FF5DC5E2FF00C0E6FF0A0E046E000E77
:103B2E00056E066E076E54C500F055C501F056C5FC
:103B3E0002F057C503F0AAEC12F000C054F501C014
:103B4E0055F502C056F503C057F5000E046E031866
:103B5E0008E10450021805E10450011802E100507A
:103B6E00000A01E105D0010E5A5F000E5B5BAFD774
:023B7E00120033
:103B80000501566BFF0E576FFF0E586FFF0E596FF2
:103B9000FF0E5A6F54C586F555C587F595EC07F0AD
:103BA0000050060A3AE1576B586B596B5A6B5651E5
:103BB0005425E96E000E5521EA6EEE50000A2DE004
:103BC00057C500F058C501F059C502F05AC503F0B9
:103BD0003C0E046E000E056E066E076E29EC04F0B6
:103BE00000C057F501C058F502C059F503C05AF599
:103BF00056515425866F000E5521876F020E886F2F
:103C0000CEEC07F00050572701505823025059239B
:103C100003505A23020E5627CAD757C500F058C57D
:0C3C200001F059C502F05AC503F0120073
:063C2C00ECEC14F01200A4
:103C32000501556B5451555D22E2340EE96E030EB7
:103C4200EA6E5551E926D8B0EA2AEE1C576F0F0EDC
:103C52005717340EE96E030EEA6E5551E926D8B0B5
:103C6200EA2AEECF90F5EBEC05F000C056F50F0E08
:103C720056175651571901E002D0552BDBD7555133
:0E3C8200541903E1010E006E01D0006A120019
:103C9000010E05015C6FFF0E5D6F54C500F055C548
:103CA00001F056C502F057C503F00A0E046E000E6F
:103CB000056E066E076E29EC04F000C054F501C0D5
:103CC00055F502C056F503C057F5010E5C6F5C5107
:103CD0001008D8A07AD05D2B010E5B6F5B511008E5
:103CE0006FE35C515B03F3CF01F0F4CF02F001C04E
:103CF00004F002C005F00436049005360436049042
:103D00000536000E05BEFF0E066E076E54C500F0A8
:103D100055C501F056C502F057C503F0EBEC02F0B3
:103D2000800E046E800E0318045C08E10250000847
:103D300005E10150000802E10050FF083EE3040ED7
:103D4000046E000E056E066E076E54C500F055C574
:103D500001F056C502F057C503F0EBEC02F000C0CD
:103D600054F501C055F502C056F503C057F55CC5C2
:103D700004F0000E056E066E076EEBEC02F000C05C
:103D800054F501C055F502C056F503C057F55BC5A3
:103D900004F0000E056E066E076EEBEC02F000C03C
:103DA00054F501C055F502C056F503C057F500C0E3
:103DB000CBFF100E05015C6F03D005015B2B8ED786
:103DC0005C375C915C375C9182D75DB102D0CA9060
:103DD00001D0CA805DB302D0CA9201D0CA825B070B
:103DE0005BB102D0CA9601D0CA865BB302D0CA9832
:103DF00001D0CA885BB502D0CA9A01D0CA8A5BB723
:103E000002D0CA9C01D0CA8CCC6A9E9259B102D011
:103E10009D9201D09D825AB102D09F9201D09F8283
:0C3E200058B102D0CA9401D0CA8412002C
:103E2C000450000A12E10550000A0FE10650000A86
:103E3C000CE10750000A09E1FF0E006EFF0E016E47
:103E4C007F0E026EFF0E036EA8D0086A096A075037
:103E5C00D8B4C1EF1FF00350D8B4C6EF1FF0025016
:103E6C0006180A6E028E068E0E6A02C008F001C099
:103E7C000CF000C00DF004500D5E0550D8A0053CB0
:103E8C000C5E0650D8A0063C085E086A0C6A0D6AE7
:103E9C00D8A058EF1FF0D89002320132003208320D
:103EAC00010E0E6E0750035ED8A065EF1FF07E0E5C
:103EBC000E240326D8B0CBEF1FF06BEF1FF07E0E55
:103ECC000E240326D8A0D0EF1FF0180E0B6E0D3663
:103EDC000C3608360036013602360E360450005EBB
:103EEC000550D8A0053C015E0650D8A0063C025EE9
:103EFC0006340E120EA086EF1FF00D8091EF1FF00E
:103F0C00045000260550D8B0053C01260650D8B008
:103F1C00062802260D900B2E6DEF1FF0B7EF1FF049
:103F2C00D8900036013602360E360450005E05502D
:103F3C00D8A0053C015E0650D8A0063C025E0634B3
:103F4C000E10010B0D26D8B00C2AD8B4082AD8A410
:103F5C00B7EF1FF008320C320D32032AD8B4CBEF76
:103F6C001FF00AAE089E0850026E0C50016E0D50E8
:103F7C00006ED3EF1FF0010E6CEC0BF0D3EF1FF0C3
:103F8C00020E29EC07F0D3EF1FF0040E1EEC08F024
:0C3F9C00D3EF1FF0080E00EC06F012003E
:103FA800010E0301106F0F6B030E0501786FA1EC72
:103FB8000FF0030E786F110E796F210E7A6F000ED5
:103FC8007B6F66EC12F00501576B030E566F5A0EA5
:103FD800786F9F0E796F000E7A6F2A0E7B6F040E32
:103FE8007C6F57517B27D8B07C2B030E7D6F7CEC00
:103FF80016F00052D8B46DD356515725006E00C044
:1040080057F5060E566F120E786F050E796F2A0E49
:104018007A6F040E7B6F00507A27D8B07B2B060E80
:104028007C6F35EC0DF0120E786F050E796F51EC40
:104038000EF000C05CF501C05DF502C05EF503C07E
:104048005FF556515725006E00C057F5030E566FA1
:10405800120E786F050E796F030E0026016A000EA6
:1040680001222A0E00247A6F040E01207B6F040EB1
:104078007C6F35EC0DF0120E786F050E796F5CECE5
:104088000DF000C058F501C059F54E0E786F9F0E1F
:10409800796F000E7A6F2A0E7B6F040E7C6F575172
:1040A8007B27D8B07C2B56C57DF57CEC16F00052EA
:1040B800D8B4B0D056515725006E00C057F5040E3D
:1040C800566F5CC560F55DC561F55EC562F55FC597
:1040D80063F5040E002600C057F5010E566F2A0E30
:1040E800E96E040EEA6E0050E926D8B0EA2AEECF4F
:1040F8005AF5002A00C057F5010E566F2A0EE96ED0
:10410800040EEA6E0050E926D8B0EA2AEECF5BF535
:10411800EE0E866F020E876FFA0E886F020E896F99
:1041280058C58AF559C58BF5640E8C6F050E8D6FD1
:104138002CEC09F00050030A6CE1010E03018F25F5
:10414800016E000E9021026E05015951021802E11C
:10415800015058195EE1EE0E786F020E796FFA0E73
:104168007A6F020E7B6FFF0E7C6FFF0E7D6F60C54E
:104178007EF561C57FF562C580F563C581F5010EE1
:10418800826F20EC14F0005244E1EE0E0501786FC6
:10419800020E796FFA0E7A6F020E7B6F58C57CF5A6
:1041A80059C57DF560C57EF561C57FF562C580F5A9
:1041B80063C581F5826B20EC14F0EE0E0501786F73
:1041C800020E796FE40E7A6F020E7B6F58C57CF58C
:1041D80059C57DF55AC57EF5000E7F6F806F816FDA
:1041E800826B20EC14F0EE0E0501786F020E796FE9
:1041F800CB0E7A6F020E7B6F58C57CF559C57DF5DD
:104208005BC57EF5000E7F6F806F816F826B20EC3F
:1042180014F05DD27A0E0501786F9F0E796F000E4B
:104228007A6F2A0E7B6F040E7C6F57517B27D8B0AC
:104238007C2B56C57DF57CEC16F00052D8B4B0D076
:1042480056515725006E00C057F5040E566F040EE0
:10425800002600C057F5060E566F120E786F050E31
:10426800796F2A0E7A6F040E7B6F00507A27D8B0C8
:104278007B2B060E7C6F35EC0DF0120E786F050E59
:10428800796F51EC0EF000C060F501C061F502C015
:1042980062F503C063F556515725006E00C057F507
:1042A800010E566F2A0EE96E040EEA6E0050E926DA
:1042B800D8B0EA2AEECF5AF5002A00C057F5010E09
:1042C800566F2A0EE96E040EEA6E0050E926D8B041
:1042D800EA2AEECF5BF5EE0E866F020E876FFA0EB6
:1042E800886F020E896F58C58AF559C58BF5640E1B
:1042F8008C6F050E8D6F2CEC09F0005250E1050112
:1043080067515F1908E166515E1905E165515D194C
:1043180002E164515C1943E1EE0E786F020E796F89
:10432800FA0E7A6F020E7B6F58C57CF559C57DF57C
:1043380060C57EF561C57FF562C580F563C581F509
:10434800826B20EC14F0EE0E0501786F020E796F87
:10435800E40E7A6F020E7B6F58C57CF559C57DF562
:104368005AC57EF5000E7F6F806F816F826B20ECDF
:1043780014F0EE0E0501786F020E796FCB0E7A6F8E
:10438800020E7B6F58C57CF559C57DF55BC57EF57A
:10439800000E7F6F806F816F826B20EC14F097D1D5
:1043A800760E0501786F9F0E796F000E7A6F2A0ED0
:1043B8007B6F040E7C6F57517B27D8B07C2B56C57A
:1043C8007DF57CEC16F000524EE056515725006EF4
:1043D80000C057F5040E566F040E002600C057F5AE
:1043E800010E566F2A0EE96E040EEA6E0050E92699
:1043F800D8B0EA2AEECF5AF5EE0E866F020E876F16
:10440800FA0E886F020E896F58C58AF559C58BF563
:10441800640E8C6F050E8D6F2CEC09F0005222E1B2
:10442800050167515F1908E166515E1905E165519B
:104438005D1902E164515C1915E1EE0E786F020E08
:10444800796FE40E7A6F020E7B6F58C57CF559C5FB
:104458007DF55AC57EF5000E7F6F806F816F826B88
:1044680020EC14F034D1560E0501786F9F0E796F49
:10447800000E7A6F2A0E7B6F040E7C6F57517B27D4
:10448800D8B07C2B56C57DF57CEC16F000524EE07A
:1044980056515725006E00C057F5040E566F040E8E
:1044A800002600C057F5010E566F2A0EE96E040E5D
:1044B800EA6E0050E926D8B0EA2AEECF5BF5EE0E98
:1044C800866F020E876FFA0E886F020E896F58C5C5
:1044D8008AF559C58BF5640E8C6F050E8D6F2CEC23
:1044E80009F0005222E1050167515F1908E16651A0
:1044F8005E1905E165515D1902E164515C1915E128
:10450800EE0E786F020E796FCB0E7A6F020E7B6F0C
:1045180058C57CF559C57DF55BC57EF5000E7F6FE6
:10452800806F816F826B20EC14F0D1D0820E050170
:10453800786F9F0E796F000E7A6F2A0E7B6F040ECC
:104548007C6F57517B27D8B07C2B56C57DF57CEC0A
:1045580016F00052D8B4BBD056515727040E566FE8
:10456800D20E786F040E796F0E0E7A6F9F0E7B6FE6
:10457800000E7C6FBCEC14F0D50E786F040E796FCA
:104588002A0E7A6F040E7B6F57C57CF535EC0DF05B
:10459800EE0E866F020E876FFA0E886F020E896F15
:1045A80058C58AF559C58BF5640E8C6F050E8D6F4D
:1045B8002CEC09F00052D8A475D005015F51671999
:1045C80008E15E51661905E15D51651902E15C512A
:1045D80064195BE1EE0E786F020E796FE40E7A6F64
:1045E800020E7B6F58C57CF559C57DF55A0E7E6F56
:1045F800050E7F6F0EEC15F0EE0E0501786F020EBA
:10460800796FCB0E7A6F020E7B6F58C57CF559C552
:104618007DF55B0E7E6F050E7F6F0EEC15F0D20EEA
:104628000501786F040E796F5AC57AF5EFEC14F02E
:10463800D20E786F040E796F5BC57AF5EFEC14F043
:10464800D20E786F040E796F860E7A6F9F0E7B6F8D
:10465800000E7C6F40EC0FF0CBC378F5000E796F3D
:104668007A6F7B6F120E7C6F050E7D6F010E7E6F69
:10467800ADEC0DF0D20E786F040E796F120E7A6FD2
:10468800050E7B6F4CEC16F00CD0D20E786F040E32
:10469800796FE50E7A6F9E0E7B6F000E7C6F40EC93
:1046A8000FF00DD00501D20E786F040E796FF60E5B
:1046B8007A6F9E0E7B6F000E7C6F40EC0FF0010E40
:1046C800786FD20E796F040E7A6FCDEC0FF0F6EF9B
:1046D80033F0660E0501786F9F0E796F000E7A6FC2
:1046E8002A0E7B6F040E7C6F57517B27D8B07C2B2A
:1046F80056C57DF57CEC16F00052D8B4A9D05651B9
:104708005725006E00C057F5030E566F720E786F6E
:104718009F0E796F000E7A6F2A0E7B6F040E7C6FE6
:1047280000507B27D8B07C2B030E7D6F7CEC16F0F5
:10473800005214E056515725006E00C057F5770E09
:10474800786F040E796F2A0E7A6F040E7B6F005013
:104758007A27D8B07B2B70EC0BF078D06E0E786F80
:104768009F0E796F000E7A6F2A0E7B6F040E7C6F96
:1047780057517B27D8B07C2B56C57DF57CEC16F0BD
:10478800005264E056515727770E786F040E796F00
:10479800010E7A6FF9EC10F0D20E786F040E796F73
:1047A8000E0E7A6F9F0E7B6F000E7C6FBCEC14F0C0
:1047B800D20E786F040E796F660E7A6F9F0E7B6F3C
:1047C800000E7C6F40EC0FF0D20E786F040E796FFC
:1047D8006E0E7A6F9F0E7B6F000E7C6F40EC0FF0B1
:1047E800D20E786F040E796F7E0E7A6F040E7B6F8F
:1047F8004CEC16F0D20E786F040E796F860E7A6F35
:104808009F0E7B6F000E7C6F40EC0FF0CBC378F5EA
:10481800000E796F7A6F7B6F120E7C6F050E7D6FBD
:10482800010E7E6FADEC0DF0D20E786F040E796F2D
:10483800120E7A6F050E7B6F4CEC16F0010E786F36
:10484800D20E796F040E7A6FCDEC0FF0F6EF33F0DD
:10485800620E0501786F9F0E796F000E7A6F2A0E2F
:104868007B6F040E7C6F57517B27D8B07C2B56C5C5
:104878007DF57CEC16F00052D8B454EF2AF056516E
:104888005725006E00C057F5060E566F120E786F4A
:10489800050E796F2A0E7A6F040E7B6F00507A2707
:1048A800D8B07B2B060E7C6F35EC0DF0120E786FAE
:1048B800050E796F51EC0EF000C05CF501C05DF596
:1048C80002C05EF503C05FF556515725006E00C063
:1048D80057F5030E566F120E786F050E796F030E9B
:1048E8000026016A000E01222A0E00247A6F040EA7
:1048F80001207B6F040E7C6F35EC0DF0120E786F83
:10490800050E796F5CEC0DF000C058F501C059F543
:104918004E0E786F9F0E796F000E7A6F2A0E7B6F9E
:10492800040E7C6F57517B27D8B07C2B56C57DF57C
:104938007CEC16F00052D8B403D156515725006EBE
:1049480000C057F5040E566F5CC560F55DC561F58E
:104958005EC562F55FC563F5040E002600C057F515
:10496800080E566F120E786F050E796F2A0E7A6F41
:10497800040E7B6F00507A27D8B07B2B080E7C6F13
:1049880035EC0DF0120E786F050E796F51EC0EF0C4
:1049980000C068F501C069F502C06AF503C06BF58F
:1049A80056515725006E00C057F5080E566F120E67
:1049B800786F050E796F2A0E7A6F040E7B6F0050A0
:1049C8007A27D8B07B2B080E7C6F35EC0DF0120ED1
:1049D800786F050E796F51EC0EF000C070F501C0CC
:1049E80071F502C072F503C073F556515725006E74
:1049F80000C057F5010E566F2A0EE96E040EEA6ED6
:104A08000050E926D8B0EA2AEECF5BF59A0E866FF9
:104A1800020E876F690E886F000E896F58C58AF578
:104A280059C58BF5640E8C6F050E8D6F2CEC09F053
:104A38000050030AD8A482D0010E03018F25016E0D
:104A4800000E9021026E05015951021802E1015031
:104A5800581974E19A0E786F020E796F690E7A6FA1
:104A6800000E7B6FFF0E7C6FFF0E7D6F60C57EF5BD
:104A780061C57FF562C580F563C581F5010E826F5A
:104A880020EC14F000525AE19A0E0501786F020EDC
:104A9800796F870E7A6F000E7B6F58C57CF559C504
:104AA8007DF568C57EF569C57FF56AC580F56BC576
:104AB80081F5826B20EC14F09A0E0501786F020ED6
:104AC800796FA20E7A6F020E7B6F58C57CF559C5B7
:104AD8007DF570C57EF571C57FF572C580F573C526
:104AE80081F5826B20EC14F09A0E0501786F020EA6
:104AF800796F920E7A6F020E7B6F58C57CF559C597
:104B08007DF55BC57EF5000E7F6F806F816F826BD0
:104B180020EC14F09A0E0501786F020E796F190EC9
:104B28007A6F030E7B6F58C57CF559C57DF5850EE8
:104B38007E6F020E7F6F806B8BEC0CF052EF2AF0C9
:104B48007A0E0501786F9F0E796F000E7A6F2A0E24
:104B58007B6F040E7C6F57517B27D8B07C2B56C5D2
:104B68007DF57CEC16F00052D8B405D15651572586
:104B7800006E00C057F5040E566F040E002600C0E4
:104B880057F5060E566F120E786F050E796F2A0EBE
:104B98007A6F040E7B6F00507A27D8B07B2B060EF5
:104BA8007C6F35EC0DF0120E786F050E796F51ECB5
:104BB8000EF000C060F501C061F502C062F503C0E7
:104BC80063F556515725006E00C057F5080E566F0D
:104BD800120E786F050E796F2A0E7A6F040E7B6FAE
:104BE80000507A27D8B07B2B080E7C6F35EC0DF07F
:104BF800120E786F050E796F51EC0EF000C068F553
:104C080001C069F502C06AF503C06BF55651572516
:104C1800006E00C057F5080E566F120E786F050E1D
:104C2800796F2A0E7A6F040E7B6F00507A27D8B0FE
:104C38007B2B080E7C6F35EC0DF0120E786F050E8D
:104C4800796F51EC0EF000C070F501C071F502C02B
:104C580072F503C073F556515725006E00C057F51D
:104C6800010E566F2A0EE96E040EEA6E0050E92610
:104C7800D8B0EA2AEECF5BF59A0E866F020E876FE0
:104C8800690E886F000E896F58C58AF559C58BF56E
:104C9800640E8C6F050E8D6F2CEC09F000526AE1E2
:104CA800050167515F1908E166515E1905E1655113
:104CB8005D1902E164515C195DE19A0E786F020E8C
:104CC800796F690E7A6F000E7B6F58C57CF559C5F0
:104CD8007DF560C57EF561C57FF562C580F563C564
:104CE80081F5826B20EC14F09A0E0501786F020EA4
:104CF800796F870E7A6F000E7B6F58C57CF559C5A2
:104D08007DF568C57EF569C57FF56AC580F56BC513
:104D180081F5826B20EC14F09A0E0501786F020E73
:104D2800796FA20E7A6F020E7B6F58C57CF559C554
:104D38007DF570C57EF571C57FF572C580F573C5C3
:104D480081F5826B20EC14F09A0E0501786F020E43
:104D5800796F920E7A6F020E7B6F58C57CF559C534
:104D68007DF55BC57EF5000E7F6F806F816F826B6E
:104D780020EC14F093D3820E0501786F9F0E796FA3
:104D8800000E7A6F2A0E7B6F040E7C6F57517B27BB
:104D9800D8B07C2B56C57DF57CEC16F00052D8B403
:104DA800EFD056515727040E566FD20E786F040E67
:104DB800796F0E0E7A6F9F0E7B6F000E7C6FBCECC6
:104DC80014F0D50E786F040E796F2A0E7A6F040EE0
:104DD8007B6F57C57CF535EC0DF09A0E866F020E89
:104DE800876F690E886F000E896F58C58AF559C597
:104DF8008BF5640E8C6F050E8D6F2CEC09F000524C
:104E0800D8A4B4D005015F51671908E15E5166194D
:104E180005E15D51651902E15C516419D8A49AD085
:104E28009A0E866F020E876F870E886F000E896F45
:104E380058C58AF559C58BF5680E8C6F050E8D6FB0
:104E48002CEC09F09A0E0501866F020E876FA20EF0
:104E5800886F020E896F58C58AF559C58BF5700E93
:104E68008C6F050E8D6F2CEC09F09A0E0501786F8A
:104E7800020E796F920E7A6F020E7B6F58C57CF521
:104E880059C57DF55B0E7E6F050E7F6F0EEC15F034
:104E980068C578F569C579F56AC57AF56BC57BF596
:104EA800120E05017C6F050E7D6F040E7E6FADEC52
:104EB8000DF0D20E786F040E796F120E7A6F050E10
:104EC8007B6F4CEC16F070C578F571C579F572C535
:104ED8007AF573C57BF5120E7C6F050E7D6F040E97
:104EE8007E6FADEC0DF0D20E786F040E796F120E56
:104EF8007A6F050E7B6F4CEC16F0D20E786F040EAD
:104F0800796F5BC57AF5EFEC14F0D20E786F040E6A
:104F1800796F860E7A6F9F0E7B6F000E7C6F40EC68
:104F28000FF0CBC378F5000E796F7A6F7B6F120E96
:104F38007C6F050E7D6F010E7E6FADEC0DF0D20E0D
:104F4800786F040E796F120E7A6F050E7B6F4CEC3A
:104F580016F00CD0D20E786F040E796FE50E7A6FCA
:104F68009E0E7B6F000E7C6F40EC0FF00501010E6A
:104F7800786FD20E796F040E7A6FCDEC0FF08ED267
:104F88004A0E0501786F9F0E796F000E7A6F2A0E10
:104F98007B6F040E7C6F57517B27D8B07C2B56C58E
:104FA8007DF57CEC16F0005264E056515725006EF2
:104FB80000C057F5040E566F040E002600C057F5C2
:104FC800080E566F120E786F050E796F2A0E7A6FDB
:104FD800040E7B6F00507A27D8B07B2B080E7C6FAD
:104FE80035EC0DF0120E786F050E796F51EC0EF05E
:104FF80000C068F501C069F502C06AF503C06BF529
:105008009A0E866F020E876F690E886F000E896F81
:1050180058C58AF559C58BF5640E8C6F050E8D6FD2
:105028002CEC09F0005224E1050167515F1908E1F1
:1050380066515E1905E165515D1902E164515C191B
:1050480017E19A0E786F020E796F870E7A6F000E4D
:105058007B6F58C57CF559C57DF568C57EF569C572
:105068007FF56AC580F56BC581F5826B20EC14F07D
:1050780015D21A0E0501786F9F0E796F000E7A6FA0
:105088002A0E7B6F040E7C6F57517B27D8B07C2B80
:1050980056C57DF57CEC16F0005264E05651572554
:1050A800006E00C057F5040E566F040E002600C0AF
:1050B80057F5080E566F120E786F050E796F2A0E87
:1050C8007A6F040E7B6F00507A27D8B07B2B080EBE
:1050D8007C6F35EC0DF0120E786F050E796F51EC80
:1050E8000EF000C070F501C071F502C072F503C082
:1050F80073F59A0E866F020E876F690E886F000E21
:10510800896F58C58AF559C58BF5640E8C6F050EE5
:105118008D6F2CEC09F0005224E1050167515F19ED
:1051280008E166515E1905E165515D1902E16451B6
:105138005C1917E19A0E786F020E796FA20E7A6FDA
:10514800020E7B6F58C57CF559C57DF570C57EF597
:1051580071C57FF572C580F573C581F5826B20EC4A
:1051680014F09CD1560E0501786F9F0E796F000ED2
:105178007A6F2A0E7B6F040E7C6F57517B27D8B04D
:105188007C2B56C57DF57CEC16F000524EE056514E
:105198005725006E00C057F5040E566F040E002602
:1051A80000C057F5010E566F2A0EE96E040EEA6E1E
:1051B8000050E926D8B0EA2AEECF5BF59A0E866F42
:1051C800020E876F690E886F000E896F58C58AF5C1
:1051D80059C58BF5640E8C6F050E8D6F2CEC09F09C
:1051E800005222E1050167515F1908E166515E1915
:1051F80005E165515D1902E164515C1915E19A0EEA
:10520800786F020E796F920E7A6F020E7B6F58C517
:105218007CF559C57DF55BC57EF5000E7F6F806F07
:10522800816F826B20EC14F039D1160E0501786F6E
:105238009F0E796F000E7A6F2A0E7B6F040E7C6FBB
:1052480057517B27D8B07C2B56C57DF57CEC16F0E2
:105258000052D8B477D056515725006E00C057F584
:10526800040E566F040E002600C057F5010E566F47
:105278002A0EE96E040EEA6E0050E926D8B0EA2A32
:10528800EECF5BF5002A00C057F50C0E566F120ED4
:10529800786F050E796F2A0E7A6F040E7B6F0050B7
:1052A8007A27D8B07B2B0C0E7C6F35EC0DF09A0E5C
:1052B800866F020E876F690E886F000E896F58C55A
:1052C8008AF559C58BF5640E8C6F050E8D6F2CEC25
:1052D80009F0005236E1050167515F1908E166518E
:1052E8005E1905E165515D1902E164515C1929E116
:1052F8009A0E786F020E796F920E7A6F020E7B6F9C
:1053080058C57CF559C57DF55BC57EF5000E7F6FE8
:10531800806F816F826B20EC14F09A0E0501786F14
:10532800020E796F190E7A6F030E7B6F58C57CF5E4
:1053380059C57DF5120E7E6F050E7F6F806B8BEC65
:105348000CF0ACD05E0E0501786F9F0E796F000EE1
:105358007A6F2A0E7B6F040E7C6F57517B27D8B06B
:105368007C2B56C57DF57CEC16F00052D8B489D05C
:1053780056515725006E00C057F5040E566F040E9F
:10538800002600C057F5010E566F2A0EE96E040E6E
:10539800EA6E0050E926D8B0EA2AEECF5BF5002A7B
:1053A80000C057F5080E566F120E786F050E796F0C
:1053B8002A0E7A6F040E7B6F00507A27D8B07B2BA9
:1053C800080E7C6F35EC0DF0120E786F050E796FB4
:1053D80051EC0EF000C070F501C071F502C072F515
:1053E80003C073F59A0E866F020E876F690E886F79
:1053F800000E896F58C58AF559C58BF5640E8C6FF8
:10540800050E8D6F2CEC09F000523AE10501675149
:105418005F1908E166515E1905E165515D1902E100
:1054280064515C192DE19A0E786F020E796F920E15
:105438007A6F020E7B6F58C57CF559C57DF55BC543
:105448007EF5000E7F6F806F816F826B20EC14F009
:105458009A0E0501786F020E796FA20E7A6F020E0E
:105468007B6F58C57CF559C57DF570C57EF571C54E
:105478007FF572C580F573C581F5826B20EC14F059
:105488000DD0D20E0501786F040E796FF60E7A6F83
:105498009E0E7B6F000E7C6F40EC0FF0F6EF33F042
:1054A80005016A0E786F9F0E796F000E7A6F2A0ECB
:1054B8007B6F040E7C6F57517B27D8B07C2B56C569
:1054C8007DF57CEC16F00052D8B45BD156515725C7
:1054D800006E00C057F5060E566F120E786F050E57
:1054E800796F2A0E7A6F040E7B6F00507A27D8B036
:1054F8007B2B060E7C6F35EC0DF0120E786F050EC7
:10550800796F51EC0EF000C05CF501C05DF502C08A
:105518005EF503C05FF556515725006E00C057F57C
:10552800030E566F120E786F050E796F030E002664
:10553800016A000E01222A0E00247A6F040E01204F
:105548007B6F040E7C6F35EC0DF0120E786F050E34
:10555800796F5CEC0DF000C058F501C059F54E0E9E
:10556800786F9F0E796F000E7A6F2A0E7B6F040E8C
:105578007C6F57517B27D8B07C2B56C57DF57CECCA
:1055880016F0005262E056515727040E566F5CC55C
:1055980060F55DC561F55EC562F55FC563F5FD0E35
:1055A800866F020E876F0C0E886F030E896F58C5C1
:1055B8008AF559C58BF5640E8C6F050E8D6F2CEC32
:1055C80009F00050030A40E1010E03018F25016E26
:1055D800000E9021026E05015951021802E1015096
:1055E800581932E1FD0E786F020E796F0C0E7A6F42
:1055F800030E7B6FFF0E7C6FFF0E7D6F60C57EF51F
:1056080061C57FF562C580F563C581F5010E826FBE
:1056180020EC14F0005218E1FD0E0501786F020E1F
:10562800796F0C0E7A6F030E7B6F58C57CF559C5E0
:105638007DF560C57EF561C57FF562C580F563C5FA
:1056480081F5826B20EC14F09AD0820E0501786FF8
:105658009F0E796F000E7A6F2A0E7B6F040E7C6F97
:1056680057517B27D8B07C2B56C57DF57CEC16F0BE
:105678000052D8B484D056515727040E566FD20E14
:10568800786F040E796F0E0E7A6F9F0E7B6F000E87
:105698007C6FBCEC14F0D50E786F040E796F2A0E6F
:1056A8007A6F040E7B6F57C57CF535EC0DF0FD0E57
:1056B800866F020E876F0C0E886F030E896F58C5B0
:1056C8008AF559C58BF5640E8C6F050E8D6F2CEC21
:1056D80009F000523FE105015F51671908E15E5189
:1056E800661905E15D51651902E15C51641925E10E
:1056F800D20E786F040E796F860E7A6F9F0E7B6FCD
:10570800000E7C6F40EC0FF0CBC378F5000E796F7C
:105718007A6F7B6F120E7C6F050E7D6F010E7E6FA8
:10572800ADEC0DF0D20E786F040E796F120E7A6F11
:10573800050E7B6F4CEC16F00CD0D20E786F040E71
:10574800796FE50E7A6F9E0E7B6F000E7C6F40ECD2
:105758000FF00DD00501D20E786F040E796FF60E9A
:105768007A6F9E0E7B6F000E7C6F40EC0FF0010E7F
:10577800786FD20E796F040E7A6FCDEC0FF0F6EFDA
:1057880033F0220E0501786F9F0E796F000E7A6F45
:105798002A0E7B6F040E7C6F57517B27D8B07C2B69
:1057A80056C57DF57CEC16F00052D8B41DD2565182
:1057B8005727030E566FD20E786F040E796F0E0EB0
:1057C8007A6F9F0E7B6F000E7C6FBCEC14F0D20ECC
:1057D800786F040E796F220E7A6F9F0E7B6F000E22
:1057E8007C6F40EC0FF01E0E786F9F0E796F000EE5
:1057F8007A6F2A0E7B6F040E7C6F57517B27D8B0C7
:105808007C2B56C57DF57CEC16F000524DE05651C8
:105818005725006E00C057F52A0E786F040E796F71
:1058280000507827D8B0792B7CEC0FF000522EE08E
:10583800D20E0501786F040E796F1E0E7A6F9F0ED7
:105848007B6F000E7C6F40EC0FF0120E786F050E28
:10585800796F2A0E7A6F040E7B6F57517A27D8B06A
:105868007B2B030E7C6F35EC0DF0120E786F050E56
:10587800796F28EC12F0D20E786F040E796F120E41
:105888007A6F050E7B6F4CEC16F00DD00501D20E29
:10589800786F040E796FE50E7A6F9E0E7B6F000E9F
:1058A8007C6F40EC0FF072D1120E786F9F0E796FFB
:1058B800000E7A6F2A0E7B6F040E7C6F57517B2780
:1058C800D8B07C2B56C57DF57CEC16F00052D8B4C8
:1058D80099D056515725006E00C057F52A0E9C6F77
:1058E800040E9D6F00509C27D8B09D2B3AEC02F017
:1058F80000527AE0D20E0501786F040E796F120E0D
:105908007A6F9F0E7B6F000E7C6F40EC0FF0120ECB
:10591800786F050E796F2A0E7A6F040E7B6F5751D8
:105928007A27D8B07B2B030E7C6F35EC0DF0120E66
:10593800786F050E796F28EC12F0D20E786F040E8E
:10594800796F120E7A6F050E7B6F4CEC16F0D20E43
:10595800786F040E796F060E7A6F9F0E7B6F000EBC
:105968007C6F40EC0FF08FC390F590C391F5000E5B
:10597800926F936F120E946F050E956F040E966FCB
:1059880052EC04F0D20E0501786F040E796F120EF6
:105998007A6F050E7B6F4CEC16F0D20E786F040E02
:1059A800796F0A0E7A6F9F0E7B6F000E7C6F40EC4A
:1059B8000FF08DC390F58EC391F5000E926F936F23
:1059C800120E946F050E956F040E966F52EC04F04C
:1059D800D20E0501786F040E796F120E7A6F050EDC
:1059E8007B6F4CEC16F00DD00501D20E786F040ECB
:1059F800796FE50E7A6F9E0E7B6F000E7C6F40EC20
:105A08000FF0C4D0560E786F9F0E796F000E7A6F24
:105A18002A0E7B6F040E7C6F57517B27D8B07C2BE6
