:100000000EEF00F00000000030EF00F000000000F4
:0C001000000000000000000026EF00F0DF
:10001C00F0EF96F024EF82F0D2EF84F020EF94F022
:10002C00C2EF96F0E8EF96F0FDEF92F086EF91F0CC
:10003C009CEF93F018EF94F011EF94F09FEF81F098
:10004C0009EF97F011EF82F0E9EF81F09CEF84F06B
:0C005C0086EF84F002EF97F081EF84F053
:020000040001F9
:102DE000C5EC9CF010EC00F073EC59F01ADD20DD1E
:102DF00027DDC8DFA1DC01DC1CEC00F012EC00F0E8
:042E0000F3D7FFD72E
:10044800400ED36E0F0EC16E070EB46E9580958266
:100458009494929A969095849586959E809A849085
:1004680083948396839E82940801FE6BFF6BCFEC86
:100478007AF000C066F7D0B203D0D082D086D0849C
:10048800500E09011B6FC30E1C6F000E1D6F1E6FEF
:10049800010E1F6F206B216BAFEC6EF0500E1B6FBF
:1004A800C30E1C6F000E1D6F1E6F010E1F6F010E15
:1004B800206F216BD2EC6DF0800E1B6F250E1C6F28
:1004C800000E1D6F000E1E6F62EC70F0ACEC6EF04B
:1004D800D7EC70F00C0E0801FE6FC7EC70F0010E3F
:1004E8000801FE6FC7EC70F0FF0E0801FE6FFF0EEB
:1004F800FF6F87EC6EF0FDEC72F0010E0801FE6FE5
:1005080068EC6EF04AC01BF94BC01CF94CC01DF9D1
:100518004DC01EF946C01FF947C020F948C021F94F
:1005280049C022F90901236B040E246F44EC6FF0D3
:100538000801FE6B68EC6EF0010EFE6FFF6B28EC95
:100548007AF0370E0A01476F000E486F27EC1BF050
:10055800010E0901326F010E336F510E346F370EE1
:10056800356F010E366F7DEC6CF0D9EC7AF04E0EDB
:1005780009011B6F000E1C6F5C0E1D6F000E1E6FB5
:10058800010E1F6F4BEC7AF0580E0A01476F000EF0
:10059800486F540E496F000E4A6F270E4B6F000EBE
:1005A8004C6FA1EC1CF0DBEC79F0010E0901326F05
:1005B800010E336FF20E346F340E356F010E366F45
:1005C8007DEC6CF064EC78F00B0E0A01476F070EB7
:1005D800486F010E496FFAEC21F0140E0801EC6F18
:1005E800000EED6FD70E09011B6F010E1C6FEE0E8A
:1005F8001D6F010E1E6F310E1F6F000E206F216FD1
:10060800226F99DE00C0BBF701C0BCF7FF0E0901DD
:100618001B6F010E1C6FEE0E1D6F010E1E6F310E4B
:100628001F6F000E206F216F226F85DE00C0BDF79F
:1006380001C0BEF7F40E0A01556F370E566F010E52
:10064800576F7FEC0FF0BDC755FABEC756FAA70E15
:10065800576F070E586FC7EC11F0A70E476F070EBC
:10066800486F27EC1BF0FF0E556F370E566F010EC3
:10067800576F7FEC0FF0BBC755FABCC756FAA70EE9
:10068800576F070E586FC7EC11F0A70E476F070E8C
:10069800486F27EC1BF0210E556F000E566F1B0E8E
:1006A800576F000E586F010E596F000E5A6F560E95
:1006B8005B6F020E5C6F32EC15F0320E0A01476F69
:1006C800000E486F2B0E496F000E4A6F010E4B6FDC
:1006D800000E4C6F5A0E4D6F020E4E6F40EC1EF01E
:1006E800600E0A01476F000E486F2B0E496F000E0F
:1006F8004A6F010E4B6F000E4C6FF00E4D6F080ED7
:100708004E6F40EC1EF0010E0801AD6FA10E0A01FC
:10071800736F000E746F40EC05F0005243E0C6C7DB
:10072800AEF80801F56BAE51F55D33E2AF0EE16E40
:10073800080EE26EF551E126D8B0E22AE66AC30E49
:10074800E16E080EE26EF551E126D8B0E22A010EFC
:10075800E66EA10E0A01476F000E486F9C0E496FA6
:10076800000E4A6F0801F551010F0A014B6F4C6BDF
:10077800000E4C23D70E4D6F080E4E6F0801F55131
:100788000A014D27D8B04E2B40EC1EF00801F52B7E
:10079800CAD7D70EE16E080EE26EF551E126D8B041
:1007A800E22AE66AAEC863FA000E0A01646F656F52
:1007B800666FA70E676F070E686F030E696FE4EC2C
:1007C8000EF0430E0A01556F380E566F010E576F23
:1007D8007FEC0FF0A70E476F070E486F27EC1BF052
:1007E800D08EF28CF28EF90E09011B6F000E1C6F71
:1007F800F7C01DF9F8C01EF9F5C01FF9F6C020F9B9
:10080800F20E216F070E226FEBEC7BF0D9EC7BF038
:1008180000C0A5F8250E0701F225E96E000EF321A8
:10082800EA6EEE50030A010ED8A4000EBF6F4B0EFD
:100838000A01556F380E566F010E576F2DEC18F0E0
:100848000801A55305E0960EF16F000EF26F04D073
:10085800A70EF16F000EF26FF1C847FAF2C848FA16
:1008680027EC1BF00701BF5306E0C30E0801F36F26
:10087800000EF46F05D00801BB0EF36F000EF46F85
:10088800F3C847FAF4C848FA27EC1BF0100E0B6EB1
:10089800390E0C6E0D0E0D6E0D2EFED70C2EFCD7DC
:1008A8000B2EFAD700000000010E0901326FBEECD2
:1008B8005EF0010E326F060E336F730E346F380E12
:1008C800356F010E366F7DEC6CF0260E0A01476F0E
:1008D800070E486FB40E496F000E4A6F9AEC20F06D
:1008E800010E476F260E486F070E496FD70E4A6FE5
:0A08F800080E4B6F25EC1FF01200F4
:1009A400F10E0801FE6F020EFF6F70EC71F0005241
:1009B40053E0010E0101916F906B3B5304E13A53F4
:1009C40002E1010E3B6F010E0901326FBEEC5EF0D5
:1009D400010E326F010E336F8B0E346F380E356F8C
:1009E400010E366F7DEC6CF0F1C232F9F2C233F9CC
:1009F400F3C234F9F4C235F9A70E366F070E376F18
:100A04003DEC5EF0010E1B6F060E1C6FA70E1D6FF2
:100A1400070E1E6F4BEC74F0AE0E0A01556F380EC4
:100A2400566F010E576F7FEC0FF0F1C232F9F2C22C
:100A340033F9F3C234F9F4C235F9A70E0901366F5C
:100A4400070E376F3DEC5EF0A70E0A01476F070EE5
:100A5400486F27EC1BF0ACD0F50E0801FE6F020EB8
:100A6400FF6FE9EC78F000525DE0010E0101916F37
:100A7400906B3B5304E13A5302E1010E3A6F010ECD
:100A84000901326FBEEC5EF0010E326F010E336F5E
:100A9400A70E346F380E356F010E366F7DEC6CF097
:100AA400F5C263FAF6C264FA000E0201F6BFFF0E45
:100AB4000A01656F666FA70E676F070E686F040EF5
:100AC400696FE4EC0EF0010E09011B6F060E1C6F3A
:100AD400A70E1D6F070E1E6F4BEC74F0C80E0A01B3
:100AE400556F380E566F010E576F7FEC0FF0F5C23D
:100AF40032F9F6C233F9000E0201F6BFFF0E090106
:100B0400346F356FA70E366F070E376F3DEC5EF00E
:100B1400A70E0A01476F070E486F27EC1BF001016F
:100B24003C6B46D0160E0801FE6F090EFF6FF3EC06
:100B34007AF000521FE0010E0901326FBEEC5EF044
:100B4400010E326F010E336FA00E346F380E356F05
:100B5400010E366F7DEC6CF0010E1B6F060E1C6FE0
:100B6400160E1D6F090E1E6F4BEC74F0010E010181
:100B74003C6F1ED001013C531BE00601FF51000AEB
:100B840017E101013C6B010E0901326FBEEC5EF00E
:100B9400010E326F010E336FE70E346F360E356F70
:100BA400010E366F7DEC6CF0010E0101916F906BBC
:100BB40001013B53D8B4A5D0CE0E0A01476F010EF4
:100BC400486FCB0E496F010E4A6FF1C24BFAF2C265
:100BD4004CFAF3C24DFAF4C24EFAEF0E4F6F020E06
:100BE400506F3AEC20F00052D8A48BD00101CA6BAC
:100BF400010ED66F808A8480F5EC21F0010E0A0183
:100C0400476F3AEC23F00101C96B8384030E090199
:100C1400326FBEEC5EF0030E326F010E336F700E56
:100C2400346F340E356F010E366F7DEC6CF00101BC
:100C34003B6B670E0A01476F070E486FED0E496F55
:100C4400380E4A6F010E4B6F85EC1BF0F1C247FA68
:100C5400F2C248FAF3C249FAF4C24AFAA70E4B6F39
:100C6400070E4C6F030E4D6F83EC1AF0670E476F3F
:100C7400070E486FA70E496F070E4A6F53EC1AF020
:100C84000B0E476F070E486F496BFAEC21F0670EA5
:100C9400476F070E486F130E496F070E4A6F53ECE8
:100CA4001AF0670E556F070E566F810E576F390E87
:100CB400586F010E596F4DEC14F066C747FA000ED9
:100CC400486F496F4A6FA70E4B6F070E4C6F010EAA
:100CD4004D6F83EC1AF0670E476F070E486FA70E2F
:100CE400496F070E4A6F53EC1AF0010E476F670EF7
:100CF400486F070E496FD70E4A6F080E4B6F25ECED
:100D04001FF001013B53D8B4B0EF8BF03B6B0B0EDB
:100D14000A01476F070E486F496BFAEC21F0670E22
:100D2400476F070E486F1D0E496F390E4A6F010E4B
:100D34004B6F85EC1BF0670E556F070E566F6D0EEB
:100D4400576F390E586F010E596F4DEC14F0F1C204
:100D540047FAF2C248FAF3C249FAF4C24AFAA70EB1
:100D64004B6F070E4C6F030E4D6F83EC1AF0670E3A
:100D7400476F070E486FA70E496F070E4A6F53EC73
:100D84001AF0670E476F070E486F130E496F070E70
:100D94004A6F53EC1AF0F80E476F080E486FD80EDE
:100DA400496F380E4A6F010E4B6F85EC1BF0BD0E78
:100DB400476F010E486FBA0E496F010E4A6FF1C2B8
:100DC4004BFAF2C24CFAF3C24DFAF4C24EFAEF0EE9
:100DD4004F6F020E506F3AEC20F00052D8A461D14C
:100DE400500E07016A6F450E6B6F4E0E6C6FBD0E91
:100DF4000A01476F010E486FB10E496F010E4A6F29
:100E0400EFC24BFAF0C24CFAF60E4D6F080E4E6F5D
:100E140040EC1EF0BD0E0A01476F010E486F340E00
:100E2400496F020E4A6FEFC24BFAF0C24CFAF70E4A
:100E34004D6F080E4E6F40EC1EF00801F651560A35
:100E4400D8A472D0F751490A08E0F7512D0A05E0F9
:100E5400F05303E0035301E067D00101CA6B010EB4
:100E6400D66F808A8480F5EC21F0010E0A01476F69
:100E74003AEC23F00101C96B8384410E0801F86F39
:100E8400035306E0F05304E0F7512D0A01E002D0C9
:100E94002D0EFA6F035303E0F05301E003D02D0E3F
:100EA400F16F02D04F0EF16FF1C8F7F8BD0E0A01D1
:100EB400476F010E486F340E496F020E4A6FEFC23E
:100EC4004BFAF0C24CFAF1C84DFA000E4E6F4F6F58
:100ED400506F516B89EC1EF0020E0901326FBEECAB
:100EE4005EF0020E326F010E336F8E0E346F350ECC
:100EF400356F010E366F7DEC6CF0070E0A01556FED
:100F0400330E566F010E576F2DEC18F0F7C847FAE1
:100F14007CEC23F0860E0A01556F390E566F010ED4
:100F2400576F2DEC18F047D00801F6514E0A20E116
:100F3400560EF96F020E0901326FBEEC5EF0020E1E
:100F4400326F010E336F960E346F340E356F010E0F
:100F5400366F7DEC6CF0830E0A01556F340E566FBC
:100F6400010E576F2DEC18F00101C96B838623D055
:100F74000801F7514F0A1FE1500EFA6F020E0901E2
:100F8400326FBEEC5EF0020E326F010E336F2E0E26
:100F9400346F360E356F010E366F7DEC6CF0520EE9
:100FA4000A01556F310E566F010E576F2DEC18F074
:100FB4000101C96B8386670E0A01476F070E486FEC
:100FC400F80E496F080E4A6F53EC1AF0260E476F5D
:100FD400070E486F310E496F390E4A6F010E4B6F81
:100FE40085EC1BF0F1C247FAF2C248FAF3C249FA9F
:100FF400F4C24AFAA70E4B6F070E4C6F030E4D6FE7
:1010040083EC1AF0260E476F070E486FA70E496F40
:10101400070E4A6F53EC1AF0260E556F070E566FE3
:10102400450E576F390E586F010E596F4DEC14F081
:10103400EFC263FAF0C264FA000E0201F0BFFF0EC1
:101044000A01656F666FA70E676F070E686F040E5F
:10105400696FE4EC0EF0260E0A01476F070E486F25
:10106400A70E496F070E4A6F53EC1AF0F7C8A7F79B
:101074000701A86B260E0A01476F070E486FA70EDB
:10108400496F070E4A6F53EC1AF0476B260E486FF0
:10109400070E496FD70E4A6F080E4B6F25EC1FF0F1
:1010A4002AD31F0E0A01476F020E486FBA0E496F0A
:1010B400010E4A6FF1C24BFAF2C24CFAF3C24DFA76
:1010C400F4C24EFAEF0E4F6F020E506F3AEC20F05E
:1010D4000052D8A4E5D2500E07016A6F520E6B6F0E
:1010E400450E6C6F1F0E0A01476F020E486F0C0EFF
:1010F400496F020E4A6FEFC24BFAF0C24CFAF70E78
:101104004D6F080E4E6F40EC1EF01F0E0A01556F16
:10111400020E566F140E576F020E586FEFC259FA33
:10112400F0C25AFA010E5B6F090E5C6F32EC15F0D7
:101134001F0E0A01476F020E486F1A0E496F020E06
:101144004A6FEFC24BFAF0C24CFA090E4D6F090E0A
:101154004E6F40EC1EF00801F751490A08E0F751C0
:101164002D0A05E0F05303E0035301E0AFD1010180
:10117400CA6B010ED66F808A8480F5EC21F0010ED3
:101184000A01476F3AEC23F0410E0801F86F03534C
:1011940006E0F05304E0F7512D0A01E002D02D0ED1
:1011A400FA6F035303E0F05301E003D02D0EF26F06
:1011B40002D04F0EF26FF2C8F7F81F0E0A01476F04
:1011C400020E486F0C0E496F020E4A6FEFC24BFAC3
:1011D400F0C24CFAF2C84DFA000E4E6F4F6F506FCA
:1011E400516B89EC1EF00B0E0A01476F070E486F16
:1011F400496BFAEC21F0A70E476F070E486F130EE8
:10120400496F070E4A6F060E4B6FCEEC21F0A70E06
:101214000901326F070E336F22EC6CF000C005F940
:1012240001C006F902C007F903C008F9A70E0A01B4
:10123400476F070E486F090E496F090E4A6F060E75
:101244004B6FCEEC21F0A70E0901326F070E336FFE
:1012540022EC6CF005C904F006C905F007C906F0D4
:1012640008C907F00050045E0150055A0250065A9E
:101274000350075A04C005F905C006F906C007F96A
:1012840007C008F904C047FA05C048FA06C049FA7D
:1012940007C04AFA0A014B6B4C6B4D6B4E6B3F0E09
:1012A4004F6F420E506F0F0E516F000E526F41EC94
:1012B40023F001C904F002C905F003C906F004C90A
:1012C40007F00050045E0150055A0250065A0350BC
:1012D400075A04C001F905C002F906C003F907C0A2
:1012E40004F904C000F005C001F006C002F007C014
:1012F40003F0100E046E0E0E056E000E066E076EE1
:101304006BEC04F000C001F901C002F902C003F95A
:1013140003C004F9100E046E0E0E056E000E066E68
:10132400076E44EC0FF000C001F901C002F902C0DD
:1013340003F903C004F91F0E0A01476F020E486F38
:10134400140E496F020E4A6FEFC24BFAF0C24CFA08
:1013540000C04DFA01C04EFA02C04FFA03C050FA61
:10136400516B89EC1EF0020E0901326FBEEC5EF087
:10137400030E326FBEEC5EF0020E326F010E336F5D
:101384004E0E346F360E356F010E366F7DEC6CF0F9
:10139400030E1B6F010E1C6F270E1D6F020E1E6FB6
:1013A4004BEC74F0100E046E0E0E056E000E066EFD
:1013B400076E01C900F002C901F003C902F004C9B3
:1013C40003F06BEC04F000C047FAA70E0A01486F63
:1013D400070E496F49EC1BF0030E09011B6F0D0E3C
:1013E4001C6FA70E1D6F070E1E6F4BEC74F0A90E39
:1013F4000A01556F340E566F010E576F2DEC18F01D
:10140400F7C847FA7CEC23F0880E0A01556F390EB1
:10141400566F010E576F2DEC18F0D80E556F330E22
:10142400566F010E576F7FEC0FF0090E476F090ED0
:10143400486F27EC1BF0BC0E556F340E566F010E2F
:10144400576F7FEC0FF0120E476F070E486F27ECB3
:101454001BF09C0E556F330E566F010E576F7FECC9
:101464000FF005C932F906C933F907C934F908C9B7
:1014740035F9A70E0901366F070E376F3DEC5EF0A4
:10148400A70E0A01476F070E486F27EC1BF0160ED4
:10149400556F350E566F010E576F7FEC0FF001C973
:1014A40032F902C933F903C934F904C935F9A70E6D
:1014B4000901366F070E376F3DEC5EF0A70E0A0187
:1014C400476F070E486F27EC1BF04ED0800E006E5E
:1014D400800E09010419005C08E10351000805E1CC
:1014E4000251000802E1015100081EE3530E0801F5
:1014F400F96F020E0901326FBEEC5EF0020E326F1C
:10150400010E336F1E0E346F360E356F010E366FBB
:101514007DEC6CF00E0E0A01556F360E566F010EFF
:10152400576F2DEC18F020D00801F7514F0A1CE139
:10153400500EFA6F020E0901326FBEEC5EF0020E1D
:10154400326F010E336F3E0E346F360E356F010E5F
:10155400366F7DEC6CF0610E0A01556F320E566FDA
:10156400010E576F2DEC18F00A01670E476F070E36
:10157400486FF80E496F080E4A6F53EC1AF0260EA6
:10158400476F070E486F4D0E496F390E4A6F010EB3
:101594004B6F85EC1BF0F1C247FAF2C248FAF3C272
:1015A40049FAF4C24AFAA70E4B6F070E4C6F030EAA
:1015B4004D6F83EC1AF0260E476F070E486FA70E87
:1015C400496F070E4A6F53EC1AF00801F851410AAB
:1015D4000EE1260E0A01556F070E566F390E576F2E
:1015E400390E586F010E596F4DEC14F00DD00A01ED
:1015F400260E556F070E566F450E576F390E586FEE
:10160400010E596F4DEC14F0EFC263FAF0C264FAA4
:10161400000E0201F0BFFF0E0A01656F666FA70E90
:10162400676F070E686F040E696FE4EC0EF0260E08
:101634000A01476F070E486FA70E496F070E4A6FDE
:1016440053EC1AF0260E476F070E486FF7C849FA95
:101654001BEC20F001C947FA02C948FA03C949FA48
:1016640004C94AFAA70E4B6F070E4C6F040E4D6F58
:1016740083EC1AF0260E476F070E486FA70E496FCA
:10168400070E4A6F53EC1AF0476B260E486F070E8D
:10169400496FD70E4A6F080E4B6F25EC1FF02BD005
:1016A400020E0901326FBEEC5EF0020E326F010EC3
:1016B400336FB00E346F330E356F010E366F7DEC21
:1016C4006CF01D0E0A01556F330E566F010E576FE5
:1016D4002DEC18F0440E0801FB6F670E0A01476FEA
:1016E400070E486FF80E496F080E4A6F53EC1AF054
:1016F4000101C96B8386670E0A01556F070E566F89
:10170400810E576F390E586F010E596F4DEC14F05E
:1017140066C747FA000E486F496F4A6FA70E4B6FB2
:10172400070E4C6F010E4D6F83EC1AF0670E476F76
:10173400070E486FA70E496F070E4A6F53EC1AF055
:10174400010E476F6A0E486F070E496FD70E4A6F36
:10175400080E4B6F25EC1FF085EF91F001013A5311
:10176400D8B485EF91F03A6B0B0E0A01476F070E60
:10177400486F496BFAEC21F0670E476F070E486F0C
:101784001D0E496F390E4A6F010E4B6F85EC1BF02D
:10179400670E556F070E566F3D0E576F390E586F13
:1017A400010E596F4DEC14F0F5C263FAF6C264FAF7
:1017B400000E0201F6BFFF0E0A01656F666FA70EE9
:1017C400676F070E686F040E696FE4EC0EF0670E26
:1017D4000A01476F070E486FA70E496F070E4A6F3D
:1017E40053EC1AF0670E476F070E486F130E496FDC
:1017F400070E4A6F53EC1AF0F80E476F080E486F45
:10180400D80E496F380E4A6F010E4B6F85EC1BF0F2
:101814001F0E476F020E486F4B0E496F020E4A6F40
:10182400F5C24BFAF6C24CFA000E0201F6BFFF0EE7
:101834000A014D6F4E6FEF0E4F6F020E506F3AEC70
:1018440020F00052D8A4F1D21F0E0A01476F020EF5
:10185400486F0C0E496F020E4A6FEFC24BFAF0C28A
:101864004CFAF70E4D6F080E4E6F40EC1EF01F0E33
:101874000A01556F020E566F140E576F020E586F01
:10188400EFC259FAF0C25AFA010E5B6F090E5C6F8F
:1018940032EC15F01F0E0A01556F020E566F480EFA
:1018A400576F020E586FEFC259FAF0C25AFAF10E8E
:1018B4005B6F020E5C6F32EC15F0800E09010419A7
:1018C400006E800E005C08E1000E035D05E10E0E63
:1018D400025D02E1100E015DD8A0BDD10801F751EF
:1018E400490A08E0F7512D0A05E0F05303E00353D9
:1018F40001E0B1D10101CA6B010ED66F808A8480E8
:10190400F5EC21F0010E0A01476F3AEC23F0410E89
:101914000801F86F035306E0F05304E0F7512D0A71
:1019240001E002D02D0EFA6F035303E0F05301E0FF
:1019340003D02D0EF36F02D04F0EF36FF3C8F7F8F8
:101944001F0E0A01476F020E486F0C0E496F020EFC
:101954004A6FEFC24BFAF0C24CFAF3C84DFA000ECC
:101964004E6F4F6F506F516B89EC1EF00B0E0A01D6
:10197400476F070E486F496BFAEC21F0A70E476FCB
:10198400070E486F130E496F070E4A6F060E4B6F12
:10199400CEEC21F0A70E0901326F070E336F22EC53
:1019A4006CF000C005F901C006F902C007F903C0D4
:1019B40008F9A70E0A01476F070E486F090E496F11
:1019C400090E4A6F060E4B6FCEEC21F0A70E0901EB
:1019D400326F070E336F22EC6CF005C904F006C9B0
:1019E40005F007C906F008C907F00050045E01506D
:1019F400055A0250065A0350075A04C005F905C097
:101A040006F906C007F907C008F904C047FA05C07B
:101A140048FA06C049FA07C04AFA0A014B6B4C6BF4
:101A24004D6B4E6B3F0E4F6F420E506F0F0E516F4A
:101A3400000E526F41EC23F001C904F002C905F015
:101A440003C906F004C907F00050045E0150055AAA
:101A54000250065A0350075A04C001F905C002F99E
:101A640006C003F907C004F904C000F005C001F082
:101A740006C002F007C003F0100E046E0E0E056ED1
:101A8400000E066E076E6BEC04F000C001F901C095
:101A940002F902C003F903C004F9100E046E0E0E1D
:101AA400056E000E066E076E44EC0FF000C001F9DF
:101AB40001C002F902C003F903C004F91F0E0A01B0
:101AC400476F020E486F140E496F020E4A6FEFC241
:101AD4004BFAF0C24CFA00C04DFA01C04EFA02C0F3
:101AE4004FFA03C050FA516B89EC1EF0020E090143
:101AF400326FBEEC5EF0030E326FBEEC5EF0020E8F
:101B0400326F010E336F6E0E346F360E356F010E69
:101B1400366F7DEC6CF0030E326F010E336F2B0EBB
:101B2400346F370E356F010E366F7DEC6CF0100E8E
:101B3400046E0E0E056E000E066E076E01C900F0EF
:101B440002C901F003C902F004C903F06BEC04F00C
:101B540000C047FAA70E0A01486F070E496F49EC07
:101B64001BF0030E09011B6F0D0E1C6FA70E1D6FDA
:101B7400070E1E6F4BEC74F0AE0E0A01556F310E5A
:101B8400566F010E576F2DEC18F0F7C847FA7CEC2E
:101B940023F0870E0A01556F390E566F010E576FE9
:101BA4002DEC18F0370E556F340E566F010E576F2B
:101BB4007FEC0FF0090E476F090E486F27EC1BF0FE
:101BC400040E556F350E566F010E576F7FEC0FF0F4
:101BD400120E476F070E486F27EC1BF0740E556FFB
:101BE400330E566F010E576F7FEC0FF005C932F9B3
:101BF40006C933F907C934F908C935F9A70E09012B
:101C0400366F070E376F3DEC5EF0A70E0A01476F83
:101C1400070E486F27EC1BF0E00E556F340E566F1D
:101C2400010E576F7FEC0FF001C932F902C933F985
:101C340003C934F904C935F9A70E0901366F070E33
:101C4400376F3DEC5EF0A70E0A01476F070E486F31
:101C540027EC1BF04ED0800E09010419006E800E93
:101C6400005C08E1000E035D05E10E0E025D02E179
:101C7400100E015D1EE2530E0801F96F020E0901F8
:101C8400326FBEEC5EF0020E326F010E336FF50E52
:101C9400346F360E356F010E366F7DEC6CF05E0ED0
:101CA4000A01556F360E566F010E576F2DEC18F062
:101CB40020D00801F7514F0A1CE1500EFA6F020EB2
:101CC4000901326FBEEC5EF0020E326F010E336F0B
:101CD400FE0E346F350E356F010E366F7DEC6CF0F1
:101CE400790E0A01556F320E566F010E576F2DECA7
:101CF40018F00A01670E476F070E486FF80E496F18
:101D0400080E4A6F53EC1AF0260E476F070E486F01
:101D14004D0E496F390E4A6F010E4B6F85EC1BF067
:101D2400F1C247FAF2C248FAF3C249FAF4C24AFAD3
:101D3400A70E4B6F070E4C6F030E4D6F83EC1AF01A
:101D4400260E476F070E486FA70E496F070E4A6F9E
:101D540053EC1AF00801F851410A0EE1260E0A016B
:101D6400556F070E566F390E576F390E586F010EA7
:101D7400596F4DEC14F00DD00A01260E556F070E65
:101D8400566F450E576F390E586F010E596F4DEC53
:101D940014F0EFC263FAF0C264FA000E0201F0BF5D
:101DA400FF0E0A01656F666FA70E676F070E686FF7
:101DB400040E696FE4EC0EF0260E0A01476F070E5D
:101DC400486FA70E496F070E4A6F53EC1AF0260EA0
:101DD400476F070E486FF7C849FA1BEC20F001C99A
:101DE40047FA02C948FA03C949FA04C94AFAA70ECC
:101DF4004B6F070E4C6F040E4D6F83EC1AF0260EDA
:101E0400476F070E486FA70E496F070E4A6F53ECD2
:101E14001AF0476B260E486F070E496FD70E4A6FAC
:101E2400080E4B6F25EC1FF03DD24F0E0A01476F91
:101E3400020E486F440E496F020E4A6FF5C24BFA08
:101E4400F6C24CFA000E0201F6BFFF0E0A014D6FF6
:101E54004E6FEF0E4F6F020E506FB9EC23F000522D
:101E6400D8A4F5D14B0E07016A6F450E6B6F590E5E
:101E74006C6F4F0E0A01556F020E566F3C0E576F72
:101E8400020E586FEFC259FAF0C25AFAF70E5B6F9E
:101E9400080E5C6F8AEC15F04F0E0A01556F020EA6
:101EA400566FE10E576F000E586FEFC259FAF0C229
:101EB4005AFA090E5B6F090E5C6F8AEC15F0090182
:101EC400156B0B0E0A01476F070E486F496BFAEC4E
:101ED40021F06C0E556F350E566F010E576F7FEC67
:101EE4000FF0090E476F090E486F27EC1BF0AB0E7D
:101EF400556F360E566F010E576F7FEC0FF0130EB1
:101F0400476F070E486F27EC1BF0A70E476F070EAD
:101F1400486F130E496F070E4A6F060E4B6FCEECD7
:101F240021F0A70E0901326F070E336F22EC6CF01B
:101F340000C005F901C006F902C007F903C008F999
:101F4400A70E0A01476F070E486F090E496F090E65
:101F54004A6F060E4B6FCEEC21F0A70E0901326FCB
:101F6400070E336F22EC6CF005C904F006C905F0C6
:101F740007C906F008C907F00050045E0150055A6D
:101F84000250065A0350075A04C005F905C006F961
:101F940006C007F907C008F904C047FA05C048FAA3
:101FA40006C049FA07C04AFA0A014B6B4C6B4D6BE9
:101FB4004E6B8E0E4F6F030E506F000E516F526FAB
:101FC40041EC23F000C005F901C006F902C007F98D
:101FD40003C008F9A70E476F070E486F130E496F29
:101FE400070E4A6F9AEC20F0AD0E0901326F070E0E
:101FF400336F0F0E346F090E356F020E366FD2EC4D
:1020040061F00052010ED8A4000E0801FD6FAF0E5E
:102014000901326F070E336F110E346F090E356FDD
:10202400020E366FD2EC61F00052010ED8A4000EFD
:10203400016E01500801FD13B10E0901326F070E44
:10204400336F130E346F090E356F020E366FD2ECF8
:1020540061F00052010ED8A4000E016E0150080177
:10206400FD13F751310A6EE1800E09010819006E63
:10207400800E005C08E1000E075D05E1030E065DBD
:1020840002E18E0E055D5EE20801FD535BE1010194
:10209400CA6B010ED66F808A8480F5EC21F0010EA4
:1020A4000A01476F3AEC23F00101C96B8384410EA6
:1020B4000801F86F4F0E0A01556F020E566F3C0E61
:1020C400576F020E586FEFC259FAF0C25AFADF0E78
:1020D4005B6F000E5C6F010E5D6FE1EC14F0020E9D
:1020E4000901326FBEEC5EF0020E326F010E336FE7
:1020F400380E346F370E356F010E366F7DEC6CF091
:10210400F00E0A01556F300E566F010E576F7FECBB
:102114000FF0F5C232F9F6C233F9000E0201F6BF30
:10212400FF0E0901346F356FA70E366F070E376F38
:102134003DEC5EF0A70E0A01476F070E486F27ECCF
:102144001BF079D00801F751300A38E1500EFA6FCC
:10215400020E0901326FBEEC5EF0020E326F010E08
:10216400336F280E346F350E356F010E366F7DECEC
:102174006CF0240E0A01556F340E566F010E576F22
:102184007FEC0FF0F5C232F9F6C233F9000E02010A
:10219400F6BFFF0E0901346F356FA70E366F070EB9
:1021A400376F3DEC5EF0A70E0A01476F070E486FCC
:1021B40027EC1BF00101C96B83863DD00801FD5358
:1021C40011E1800E09010819006E800E005C08E11F
:1021D400000E075D05E1030E065D02E18E0E055D4E
:1021E40001E229D0540E0801F96F020E0901326F81
:1021F400BEEC5EF0020E326F010E336F030E346FCD
:10220400370E356F010E366F7DEC6CF00801FD530F
:1022140005E0CD0EF46F000EF56F04D0E60EF46FFA
:10222400000EF56FF4C847FAF5C848FA27EC1BF01E
:102234000101C96B8386670E0A01476F070E486F59
:10224400F80E496F080E4A6F53EC1AF02BD0020EA9
:102254000901326FBEEC5EF0020E326F010E336F75
:10226400CE0E346F350E356F010E366F7DEC6CF08B
:102274007E0E0A01556F360E566F010E576F2DEC08
:1022840018F0440E0801FB6F670E0A01476F070E32
:10229400486FF80E496F080E4A6F53EC1AF00101AB
:1022A400C96B8386670E0A01556F070E566F810E40
:1022B400576F390E586F010E596F4DEC14F066C705
:1022C40047FA000E486F496F4A6FA70E4B6F070E0F
:1022D4004C6F010E4D6F83EC1AF0670E476F070EBB
:1022E400486FA70E496F070E4A6F53EC1AF0010EA0
:1022F400476F6A0E486F070E496FD70E4A6F080E74
:082304004B6F25EC1FF01200E5
:1028400002010B53D8B49DD20B6B0801A94BAA2BE4
:10285000A74BA82BEE4BEF2B010EEC25006E000EC4
:10286000ED21016E00C0ECF801C0EDF8AB4BAC2BD4
:10287000A62B0701F52BF2C7FEF8F3C7FFF8C9EC4A
:1028800078F000C0F4F7D9EC7BF0A55100181AE0FD
:10289000D9EC7BF000C0A5F800520AE0330E0A0123
:1028A000556F330E566F010E576F7FEC0FF00AD045
:1028B0000A01300E556F320E566F010E576F7FECC6
:1028C0000FF0FF00250E0701F225E96E000EF3213F
:1028D000EA6EEE50030A010ED8A4000E016EBF513D
:1028E000011828E0250EF225E96E000EF321EA6EAC
:1028F000EE50030A010ED8A4000E006E00C0BFF710
:1029000000520FE00A0E0A01556F380E566F010E85
:10291000576F7FEC0FF00801AB6BAC6B02010A6BD9
:1029200009D0BD0E0A01556F370E566F010E576F55
:102930007FEC0FF00801A55307E00701BF5304E047
:1029400008010353D8A482740101525108010319EC
:1029500075E0D80E0A01556F360E566F010E576F8F
:102960007FEC0FF00801035305E09F0EF16F010E9D
:10297000F26F04D0920EF16F010EF26FF1C847FAB8
:10298000F2C848FA27EC1BF003C852F1260E476F35
:10299000070E486F1E0E496F380E4A6F010E4B6FBF
:1029A00085EC1BF0260E556F070E566FE90E576F1C
:1029B000380E586F010E596F4DEC14F002C847FAEB
:1029C000000E486F496F4A6FA70E4B6F070E4C6F92
:1029D000010E4D6F83EC1AF0260E476F070E486FFD
:1029E000A70E496F070E4A6F53EC1AF0260E556F6B
:1029F000070E566F0801035307E0920EF36F380E6F
:102A0000F46F010EF56F06D07B0EF36F380EF46F86
:102A1000010EF56FF3C857FAF4C858FAF5C859FA19
:102A20004DEC14F0010E476F260E486F070E496FEC
:102A3000D70E4A6F080E4B6F25EC1FF0800E080171
:102A4000ED19006E800E000A005C02E1140EEC5DD0
:102A5000D8A0ECD0EC6BED6BF96BAE51F95DD8B052
:102A6000B8D0AF0EE96E080EEA6EF951E926D8B07B
:102A7000EA2AC30ED96E080EDA6EF951D926D8B0FB
:102A8000DA2AEE50DE18D8B498D0260E0A01476F25
:102A9000070E486F1E0E496F380E4A6F010E4B6FBE
:102AA00085EC1BF0260E556F070E566FE90E576F1B
:102AB000380E586F010E596F4DEC14F0D70EE96EB9
:102AC000080EEA6E0801F951E926D8B0EA2AEECFDD
:102AD00047FA000E0A01486F496F4A6F000E486FAF
:102AE000496F4A6FA70E4B6F070E4C6F010E4D6F6B
:102AF00083EC1AF0260E476F070E486FA70E496F3A
:102B0000070E4A6F53EC1AF0260E556F070E566FDC
:102B1000C30EE96E080EEA6E0801F951E926D8B035
:102B2000EA2AEE5207E0920EF66F380EF76F010EAA
:102B3000F86F06D07B0EF66F380EF76F010EF86F48
:102B4000F6C857FAF7C858FAF8C859FA4DEC14F015
:102B5000010E476F260E486F070E496FD70E4A6F5A
:102B6000080E4B6F25EC1FF0AF0EE16E080EE26E03
:102B70000801F951E126D8B0E22AC30EE96E080E29
:102B8000EA6EF951E926D8B0EA2AEECFE6FFAD5356
:102B900014E0AD6B260E0A01476F070E486F830ED7
:102BA000496F380E4A6F010E4B6F85EC1BF0260EF5
:102BB000476F070E486F27EC1BF0C30EE16E080E3F
:102BC000E26E0801F951E126D8B0E22AE66AF92B53
:102BD00044D7F96BAE51F95D0FE2AF0EE96E080E06
:102BE000EA6EF951E926D8B0EA2AEECF00F0005299
:102BF00001E102D0F92BEED7F951AE1917E1AD532F
:102C000015E1010EAD6F260E0A01476F070E486FE2
:102C10006B0E496F380E4A6F010E4B6F85EC1BF03F
:102C2000260E476F070E486F27EC1BF00101B053CB
:102C30000BE10701002B050E005D06E3006BF4536A
:102C400003E0010E0101B06F0701BF5332E0800EB7
:102C50000801AC19006E800E000A005C02E11E0E35
:102C6000AB5D27E3AB6BAC6B02010A5320E1490E6D
:102C70000A01556F330E566F010E576F2DEC18F089
:102C8000260E476F070E486FA90E496F010E4A6F57
:102C90009AEC20F0010E476F260E486F070E496F21
:102CA000D70E4A6F080E4B6F25EC1FF0FF00020194
:102CB0000A6B0B0E0A01476F070E486F010E496F32
:102CC000FAEC21F0A70E476F070E486F140E496FFC
:102CD000070E4A6F080E4B6FCEEC21F0040E09016F
:102CE0001B6F020E1C6FA70E1D6F070E1E6F4BECA5
:102CF00074F0A70E0A01476F070E486F1D0E496F4B
:102D0000070E4A6F080E4B6FCEEC21F0040E09013E
:102D10001B6F0C0E1C6FA70E1D6F070E1E6F4BEC6A
:102D200074F0010191532DE0902B050E905D29E385
:102D3000916B906B010E0901326FBEEC5EF0020EDA
:102D4000326FBEEC5EF0030E326FBEEC5EF0040E2E
:102D5000326FBEEC5EF0010E326F060E336F530E13
:102D6000346F380E356F010E366F7DEC6CF083A832
:102D700008D0010E476F120E486F420E496F81EC6A
:042D80005BF01200F2
:102D84000701BF531EE00801A5531BE00701F453DC
:102D940018E101015C5305E1010E5C6F0801A96BA8
:102DA400AA6B0801000EAA5D02E1050EA95D08E305
:102DB400A96BAA6BF2C7FEF8F3C7FFF86EEC78F0C4
:0C2DC40004D001015C53D8A45C6B120029
:102DD0000900F5CFE6FF0006FBE10106F9E112006C
:1025FA000001CB53D8B49AD00701BD51BE1101E1F5
:10260A0095D0BF53D8B492D00801A553D8B48ED070
:10261A000701F453D8B48AD00001CA53D8A486D08B
:10262A000101B053D8B482D0FF0E0A01556F010ED2
:10263A00566FEE0E576F010E586F9DC259FA9EC221
:10264A005AFAF10E5B6F080E5C6F8AEC15F00052B5
:10265A004FE1C10E0A01556F320E566F010E576FC8
:10266A002DEC18F00801F151310A42E1260E0A0157
:10267A00476F070E486F1D0E496F390E4A6F010EDC
:10268A004B6F85EC1BF0260E556F070E566F1EEC2E
:10269A0018F0260E5B6F070E5C6F00505B27D8B0F0
:1026AA005C2BFF0E556F010E566FF60E576F010E1B
:1026BA00586F9DC259FA9EC25AFA8AEC15F0260E34
:1026CA0002019F6F070EA06F010E0001CA6FF2C7C9
:1026DA00BFF9F3C7C0F992EC24F0F2C7FEF8F3C7CA
:1026EA00FFF86EEC78F00101B06B0701006B1ED0A9
:1026FA0002019D4B9E2B9DC263FA9EC264FA000E94
:10270A000A01656F666F010E676F000E686F696F69
:10271A006A6FC4C76BFAC5C76CFA000E6D6F6E6F2D
:0E272A00D1EC06F000C09DF201C09EF212003C
:10230C000001CB53D8B472D1CB6B000E0701BC19B2
:10231C0002E1000EBB1904E00801035301E001D0F7
:10232C0065D108016053D8A461D11753D8A45ED1EC
:10233C000001CC53D8A45AD1D70E0A01556F010E07
:10234C00566FEE0E576F010E586FE7C259FAE8C27E
:10235C005AFAF10E5B6F080E5C6F8AEC15F00052A6
:10236C00D8A424D1A90E0A01556F320E566F010E56
:10237C00576F2DEC18F00801F151310AD8A416D181
:10238C00D70E0A01556F010E566FE40E576F010EF2
:10239C00586FE7C259FAE8C25AFA260E5B6F070E5D
:1023AC005C6F8AEC15F0260E0A01556F070E566FFE
:1023BC001EEC18F000C0F3F80050000AD8B4C0D0DE
:1023CC000801F307260EE96E070EEA6EF351E926B3
:1023DC00D8B0EA2AEECFF2F8F46BAE51F45D5EE2BF
:1023EC00D70ED96E080EDA6EF451D926D8B0DA2A87
:1023FC00F251DE1850E1AF0EE96E080EEA6EF451A0
:10240C00E926D8B0EA2AEECF00F0005244E1260EBD
:10241C00E16E070EE26EF351E126D8B0E22AE66ACD
:10242C00260E0A01556F070E566F1EEC18F0005061
:10243C00010F5D6FD70E556F010E566FE40E576F7F
:10244C00010E586FE7C259FAE8C25AFA260E5B6FB2
:10245C00070E5C6FE1EC14F05D0E0A01556F370E40
:10246C00566F010E576F7FEC0FF0F2C863FA000E37
:10247C00646F656F666FA70E676F070E686F020E4D
:10248C00696FE4EC0EF0A70E0A01476F070E486F58
:10249C0027EC1BF0ABD00801F42B9FD79E0E0A0142
:1024AC00556F350E566F010E576F7FEC0FF0F2C85B
:1024BC0063FA000E646F656F666FA70E676F070E89
:1024CC00686F020E696FE4EC0EF0A70E0A01476FFD
:1024DC00070E486F27EC1BF0D70E556F010E566F89
:1024EC00F60E576F010E586FE7C259FAE8C25AFA46
:1024FC00260E5B6F070E5C6F8AEC15F00801F2512B
:10250C000701F62509011B6F000E0701F7210901D0
:10251C001C6F000E0701F82109011D6F000E070149
:10252C00F92109011E6F260E1F6F070E206F216BFC
:10253C009CEC79F0005200E0010E0001CC6F56D0FB
:10254C00300E0801F16FD70E0A01556F010E566F50
:10255C00EE0E576F010E586FE7C259FAE8C25AFADD
:10256C00F10E5B6F080E5C6F010E5D6FE1EC14F009
:10257C00010E0701BB5F000EBC5B1E0E0A01556FFE
:10258C00370E566F010E576F7FEC0FF0BBC755FA25
:10259C00BCC756FAA70E576F070E586FC7EC11F051
:1025AC00A70E476F070E486F27EC1BF00201E74B95
:1025BC00E82BE7C263FAE8C264FA000EE8BFFF0E2C
:1025CC000A01656F666F010E676F000E686F696FA9
:1025DC006A6FC4C76BFAC5C76CFA000E6D6F6E6F6D
:0E25EC00D1EC06F000C0E7F201C0E8F21200E8
:102738000801A553D8B470D0250E0701F225E96E1B
:10274800000EF321EA6EEE50030A61E001015B53CB
:1027580019E05B6B0801A76BA86BEE6BEF6BF90ECA
:1027680009011B6F000E1C6FF7C01DF9F8C01EF998
:10277800F5C01FF9F6C020F9F20E216F070E226F7F
:10278800EBEC7BF0000E0801A85D02E1050EA75DE9
:1027980021E3A76BA86B0001F54BF62BF5C063FA94
:1027A800F6C064FA000E0A01656F666F7B0E676FEC
:1027B800000E686F000E696F6A6F7F0E6B6F000EF8
:1027C8006C6F000E6D6F6E6FD1EC06F000C0F5F007
:1027D80001C0F6F0000E0801EF5D02E1030EEE5DA8
:1027E80015E3EE6BEF6BF90E09011B6F000E1C6F02
:1027F800F7C01DF9F8C01EF9F5C01FF9F6C020F999
:10280800F20E216F070E226FEBEC7BF005D0010171
:0A2818005B5302E1010E5B6F12003A
:102830000201C25304E06FEC74F00201C26B12009B
:0E2822000FEC72F022EC73F070EC6EF012000E
:10033E000801FE6BFF6B0901236B246B256B266B8B
:10034E001BC973FA1CC974FA40EC05F0005235E073
:10035E00010E0701F16F000EC55D02E1F151C45DA2
:10036E002CE31BC955FA1CC956FA1DC957FA1EC9EA
:10037E0058FAF1C759FA000E0A015A6F230E5B6F35
:10038E00090E5C6F8AEC15F0005210E10901225142
:10039E00261908E12151251905E12051241902E100
:1003AE001F51231903E10801FE4BFF2B0701F151E9
:1003BE00010F006E00C0F1F7CED7FEC800F0FFC8E7
:0403CE0001F0120028
:102E120000C019F001C018F0156ED8CF16F0E0CF3F
:102E220017F028EC00F02AEC00F02CEC00F02EEC6D
:102E320000F01750E06E1650D86E153A153819C0CA
:082E420000F018C001F01000BF
:100422009EA010D09DA00ED001015A2B140E5A5D31
:1004320004E35A6B809A84909D90C1C7CFFFC0C7D6
:06044200CEFF9E901200A7
:1003D2009EA225D09DA223D0050E0201E927000E80
:1003E200EA23130EEA5D02E1880EE95D17E3E96B89
:1003F200EA6B0601FF5312E0FF511A0A05E0FF51B2
:10040200200A02E0006A02D0010E006E005206E1EC
:10041200FF6B0701036B046B056B066B9E92120068
:10093800A1A233D0A0A231D0320E0801A325006EA7
:10094800000EA421016E00C0A3F801C0A4F80101A3
:10095800C92B0001CB8183A405D0140E0101C95D08
:10096800D8B0839483A605D00101060EC95DD8B01E
:1009780083960101592B140E595D0AE3596B020144
:100988000B81010E01017E27000E7F238023812326
:0C0998009CC2B3FF9BC2B2FFA1921200F0
:10090C00A3A405D0A4A403D008010381A494A3A696
:10091C0005D0A4A603D008010381A496A3A805D0F2
:0C092C00A4A803D008010381A4981200C5
:0E2E040000C01AF032EC00F01AC000F011000D
:0A09020056EC71F03BEC71F01200AE
:020000040000FA
:0E006800ACB202D00000FCD78BCAADFF120074
:100076008BCAC9FFC7B002D00000FCD7C9CF00F0B9
:02008600120066
:10008800F250026EF29E0500FF6A0150FE6E0050AB
:08009800FD6E02BEF28E1200A3
:1000A0009E9685CAC9FF73C186FA74C187FA75C165
:1000B00088FA76C189FAC7A422D00101735174115C
:1000C000751176111BE00A0186518711881189117B
:1000D0000EE1D5C6E1FFD6C6E2FF040EE66ED3C63A
:1000E00000F0D4C601F0D0DF010E006E3BD0010E4F
:1000F0000A01865F000E875B885B895BDCD773C172
:1001000086FA74C187FA75C188FA76C189FA9EB6F3
:1001100022D0010173517411751176111BE00A018F
:1001200086518711881189110EE1D5C6E1FFD6C627
:10013000E2FF040EE66ED3C600F0D4C601F0A4DFE1
:10014000010E006E0FD0010E0A01865F000E875B64
:10015000885B895BDCD7C5BC02D0006A03D0C5844C
:06016000020E006E120009
:1001660073C187FA74C188FA75C189FA76C18AFAA9
:100176009E96C5869EB620D00101735174117511E5
:10018600761119E00A018751881189118A110CE14B
:10019600D5C6E1FFD6C6E2FF030EE66ED3C600F073
:1001A600D4C601F06EDF08D0010E0A01875F000E8B
:1001B600885B895B8A5BDED70A01C9CF86FA8551DF
:1001C600000A02E1C58A01D0C59A9E96C58873C108
:1001D60087FA74C188FA75C189FA76C18AFA9EB619
:1001E60020D00101735174117511761119E00A01BD
:1001F6008751881189118A110CE1D5C6E1FFD6C64F
:10020600E2FF030EE66ED3C600F0D4C601F039DF76
:1002160008D0010E0A01875F000E885B895B8A5B46
:08022600DED786CA00F01200C9
:10022E0085CAC9FFC7B002D00000FCD7C9CF00F005
:02023E001200AC
:100240000A01836B938A016A080E015C12E283370C
:1002500083918188060E0D6E0D2EFED7000081BAA7
:1002600083818198060E0D6E0D2EFED70000012AA7
:10027000EBD7939A82B102D0818A01D0819A000093
:100280008188060E0D6E0D2EFED70000819883CA60
:0402900000F0120068
:10029400939A819A060E0D6E0D2EFED70000938858
:0E02A400060E0D6E0D2EFED70000938A12007E
:1002B2008292400E0A018211006ED1C6E1FFD2C6BF
:1002C200E2FF00C0E6FFCFC600F0D0C601F0DBDEE1
:1002D200D1C6E1FFD2C6E2FF83CAE6FFCFC600F075
:1002E200D0C601F0D0DED1C6E1FFD2C6E2FF84CA99
:1002F200E6FFCFC600F0D0C601F0C5DE8282120052
:10030200938A9388060E0D6E0D2EFED70000939AE7
:10031200819A060E0D6E0D2EFED7000093988198DD
:020322001200C7
:10032400016A080E015C17E20A0182BF02D0819AB9
:1003340001D0818A8188060E0D6E0A010D2EFDD72B
:100344000000823782918198060E0D6E0D2EFED725
:100354000000012AE6D7938A00008188060E0D6EFC
:100364000D2EFED7000081BA02D0019001D0018089
:0E0374008198939A000E01B0010E006E1200E7
:100382008292D1C6E1FFD2C6E2FF7A0EE66ECFC6F6
:1003920000F0D0C601F077DED1C6E1FFD2C6E2FF9F
:1003A2007ACAE6FFCFC600F0D0C601F06CDE8282C8
:0203B200120037
:1003B4000A01826B7ACA83FA7BCA84FA78DF829252
:1003C400D1C6E1FFD2C6E2FF3A0EE66ECFC600F018
:1003D400D0C601F057DED1C6E1FFD2C6E2FFE66A1D
:0E03E400CFC600F0D0C601F04DDE82821200BE
:1003F2008292800E0A017A11006ED1C6E1FFD2C646
:10040200E2FF00C0E6FFCFC600F0D0C601F03BDE3F
:10041200D1C6E1FFD2C6E2FF7BCAE6FFCFC600F03B
:0A042200D0C601F030DE8282120025
:10042C00020E0A01826F7ACA83FA7BCA84FA3BDF16
:10043C008292D1C6E1FFD2C6E2FF7A0EE66ECFC63B
:10044C0000F0D0C601F01ADED1C6E1FFD2C6E2FF41
:10045C007CCAE6FFCFC600F0D0C601F00FDE828268
:02046C0012007C
:10046E008292D1C6E1FFD2C6E2FF7ACAE6FFCFC6BC
:10047E0000F0D0C601F001DED1C6E1FFD2C6E2FF28
:10048E00E66ACFC600F0D0C601F0F7DD8282120018
:10049E000450085E0550D8A0053C095E0650D8A051
:1004AE00063C0A5E0750D8A0073C0B5E0336070ECB
:1004BE000C6E0334083609360A360B36045003A088
:1004CE000ED0085E0550D8A0053C095E0650D8A097
:1004DE00063C0A5E0750D8A0073C0B5E0DD00826DE
:1004EE000550D8B0053C09260650D8B0063C0A2661
:1004FE000750D8B0073C0B2603360C2EDAD7023441
:10050E00083609360A360B36045003A00ED0085EA4
:10051E000550D8A0053C095E0650D8A0063C0A5EE0
:10052E000750D8A0073C0B5E0DD008260550D8B05A
:10053E00053C09260650D8B0063C0A260750D8B00E
:10054E00073C0B260236070E0C6E023408360936AF
:10055E000A360B36045002A00ED0085E0550D8A005
:10056E00053C095E0650D8A0063C0A5E0750D8A08E
:10057E00073C0B5E0DD008260550D8B0053C092669
:10058E000650D8B0063C0A260750D8B0073C0B26BA
:10059E0002360C2EDAD70134083609360A360B36F7
:1005AE00045002A00ED0085E0550D8A0053C095E8E
:1005BE000650D8A0063C0A5E0750D8A0073C0B5E3A
:1005CE000DD008260550D8B0053C09260650D8B0E7
:1005DE00063C0A260750D8B0073C0B260136070EFC
:1005EE000C6E0134083609360A360B36045001A05B
:1005FE000ED0085E0550D8A0053C095E0650D8A066
:10060E00063C0A5E0750D8A0073C0B5E0DD00826AC
:10061E000550D8B0053C09260650D8B0063C0A262F
:10062E000750D8B0073C0B2601360C2EDAD7003413
:10063E00083609360A360B36045001A00ED0085E75
:10064E000550D8A0053C095E0650D8A0063C0A5EAF
:10065E000750D8A0073C0B5E0DD008260550D8B029
:10066E00053C09260650D8B0063C0A260750D8B0DD
:10067E00073C0B260036070E0C6E00340836093682
:10068E000A360B36045000A00ED0085E0550D8A0D6
:10069E00053C095E0650D8A0063C0A5E0750D8A05D
:1006AE00073C0B5E0DD008260550D8B0053C092638
:1006BE000650D8B0063C0A260750D8B0073C0B2689
:1006CE0000360C2EDAD700B00ED004500826055096
:1006DE00D8B0053C09260650D8B0063C0A2607506D
:0806EE00D8B0073C0B261200F6
:1006F6007ECA00F00A017E07005228E07ACAE9FFA6
:100706007BCAEAFFEE50000A0CE07ACAE9FF7BCA10
:10071600EAFF7CCAD9FF7DCADAFFEE50DE1801E196
:100726000FD07ACAE9FF7BCAEAFF7CCAD9FF7DCA25
:10073600DAFFDE50EE5C006E016A000E015A08D048
:100746000A017A4B7B2B7C4B7D2BD2D7006A016A40
:0207560012008F
:10075800D4DDA00E0A01826FE1DD7BCA82FADEDDFC
:100768007ACA82FADBDDC9DDA10E0A01826FD6DD05
:100778000A017F6B7E05016E026A000E025A800E26
:10078800006E800E0218005C02E101507F5D11E2EC
:100798007F517C25806F000E7D21816F010E826F55
:1007A8004BDD80CAE1FF81CAE2FF00C0E6FF7F2B74
:1007B800E1D77F517C25806F000E7D21816F826B90
:1007C8003BDD80CAE1FF81CAE2FF00C0E6FF5EDDD3
:0207D80012000D
:1007DA008292A00E0A017A11006ED1C6E1FFD2C63A
:1007EA00E2FF00C0E6FFCFC600F0D0C601F047DC4A
:1007FA00D1C6E1FFD2C6E2FF7BCAE6FFCFC600F050
:0A080A00D0C601F03CDC828212002F
:100814000B1E0A1E091E081E082AD8B4092AD8B4B9
:080824000A2AD8B40B2A1200C5
:10082C008292D1C6E1FFD2C6E2FF7A0EE66ECFC647
:10083C0000F0D0C601F022DC75CA00F076CA01F0D7
:10084C00010E0A01755F000E765B0050011013E07B
:10085C00D1C6E1FFD2C6E2FF73CAE9FF74CAEAFF50
:10086C00EECFE6FFCFC600F0D0C601F007DC0A01E0
:0A087C00734B742BE1D78282120047
:100886000A0175517325776F76517421786F010EC1
:10089600775F000E785B100E826F73CA83FA74CA94
:1008A60084FA04DD120E0A01826F77CA83FA78CAC7
:1008B60084FAFCDC1F0E0A017A6F300E7B6F96DD20
:1008C6001F0E0A017A6FD0DD00AA01D0F9D71200F7
:1008D6000450000A12E10550000A0FE10650000A12
:1008E6000CE10750000A09E1FF0E006EFF0E016ED3
:1008F600FF0E026E7F0E036E97D00C6A07BE0C2A9F
:100906000D6A0B6A0A6A096A086A03500210011026
:100916000010D8B484D0035007180E6E0EBE0D1EFC
:1009260007AE0BD0041E051E061E071E042AD8B4E9
:10093600052AD8B4062AD8B4072A03AE0BD0001E5F
:10094600011E021E031E002AD8B4012AD8B4022AA8
:10095600D8B4032A035007100E6E0EBE1CD09CDDC1
:100966000CBE36D00DAE5BD0001E011E021E031E4D
:10097600002AD8B4012AD8B4022AD8B4032A081EF9
:10098600091E0A1E0B1E082AD8B4092AD8B40A2A38
:10099600D8B40B2A44D007AE15D003BE0DD00350F1
:1009A6000B6E02500A6E0150096E0050086E036A03
:1009B600026A016A006AD6D7036A026A016A006A95
:1009C600002A000C031E021E011E001E0C8EC7D735
:1009D600082AD8B4092AD8B40A2AD8B40B2A04504B
:1009E600085CD8A4BFD70550095CD8A4BBD706506D
:1009F6000A5CD8A4B7D707500B5CD8A4B3D70B6A48
:100A06000A6A096A086A002AD8B4012AD8B4022AEE
:100A1600D8B4032A03AEA6D70E6A0E88FF0C0E6A58
:0A0A26000CA001D0F4DE000F120056
:100A30000B6A0A6A096A00500402F4CF09F0F3CF86
:100A400008F001500502F4CF0BF0F3CF0AF000508C
:100A50000502F3500926F4500A22E86A0B220150DD
:100A60000402F3500926F4500A22E86A0B2208C057
:100A700000F009C001F00AC002F00BC003F0120040
:100A8000030E0701ED6F000EEE6FD96BF16BC251D3
:100A9000F15D35E2EDC77AFAEEC77BFAC90E0A01BD
:100AA0007C6F070E7D6F100E7E6F56DE73CA7AFA6A
:100AB00074CA7BFAC90E7C6F070E7D6F100E7E6FB5
:100AC0001ADE0050011001E11AD00F0E0701ED25CA
:100AD0000A017A6F000E0701EE210A017B6F7A4B43
:100AE0007B2BED0E7C6F070E7D6F020E7E6F34DE6A
:100AF0000701F151010F006E00C0F1F7C8D70701DF
:100B0000C251F15D3FE2EDC7EFF7EEC7F0F7120E0D
:100B1000ED25006E000EEE21016E00C0EFF701C062
:100B2000F0F700C07AFA01C07BFAC60E0A017C6FAA
:100B3000070E7D6F020E7E6F0FDE020E0701EF259E
:100B40000A017A6F000E0701F0210A017B6FC40EC3
:100B50007C6F070E7D6F020E7E6FFEDD040E0701B7
:100B6000EF250A017A6F000E0701F0210A017B6F61
:100B7000C30E7C6F070E7D6F010E7E6FEDDD010EE3
:0C0B8000006E03D00701C96B006A120070
:100B8C00AE0E0A017A6F190E7B6F7C6B49DCAE0ED0
:100B9C000A017325006E190E7421016E00C073FAE0
:100BAC0001C074FA060E826F00C083FA01C084FA89
:100BBC0059EC01F01F0E0A017A6F800E7B6F13DC6B
:100BCC001F0E0A017A6F800E7B6F01DE0601CE517B
:100BDC00050A04E0CE51070A01E006D01C0E0A01FA
:100BEC007A6F0A0E7B6FF3DD1F0E0A017A6F080E07
:100BFC007B6FF9EC01F00601CE51050A04E0CE51F1
:100C0C00070A01E086D00A01786B796B1C0E7A6FAB
:100C1C0028DC0A0E001600520AE10A01784B792BE7
:100C2C00030E795D02E1E80E785D01E2EFD70A016F
:100C3C001C0E7A6F16DC00B208D0030E0A01795D27
:100C4C0002E1E80E785D01E263D00A011F0E7A6FB3
:100C5C00080E7B6FBCDD040E0A0173257A6F000E43
:100C6C0074217B6FDAEC01F000C077FA0A01756B26
:100C7C00100E755D4DE21C0E7A6F37EC02F000A27F
:100C8C0043D00A0177AB40D01F0E7A6F800E7B6F7A
:100C9C00F9EC01F01F0E0A017A6F800E7B6F97DD65
:100CAC001C0E0A017A6F0A0E7B6F91DD1F0E0A0172
:100CBC007A6F080E7B6FF9EC01F00A01786B796B97
:100CCC001C0E7A6F37EC02F00A0E001600520AE185
:100CDC000A01784B792B030E795D02E1E80E785D01
:100CEC0001E2EED70A011F0E7A6F080E7B6F6FDDE3
:100CFC00040E0A0173257A6F000E74217B6FDAECF7
:100D0C0001F000C077FA01D003D00A01752BB0D7DF
:100D1C0008D00A011F0E7A6F37EC02F000A601D042
:100D2C00F8D71D0E0A017A6F37EC02F0060E00168A
:100D3C00005203E00A01766B03D00A01010E766FB4
:060D4C0076CA00F012005F
:100D520073CA7AFA74CA7BFA75CA7CFA16EC02F084
:0A0D620076CA7AFAC1EC01F0120023
:100D6C00086A096A100E0C6E0134083609360450F4
:100D7C00085E0550D8A0053C095ED8B007D00450D9
:100D8C0008260550D8B0053C0926D8900036013607
:060D9C000C2EEAD7120044
:100DA200800E0A016E19006E800E6619005C08E161
:100DB20065516D5D05E164516C5D02E163516B5DEE
:100DC20009E267CA63FA68CA64FA69CA65FA6ACA52
:100DD20066FA18D0800E6619006E800E6A19005CE1
:100DE20008E16951655D05E16851645D02E16751A1
:100DF200635D08E26BCA63FA6CCA64FA6DCA65FA8B
:100E02006ECA66FA63CA00F064CA01F065CA02F0EB
:060E120066CA03F01200A5
:100E18000A01676B686B63CA7AFA64CA7BFAC90EFF
:100E28007C6F070E7D6F100E7E6F61DC0050011025
:100E38000AE063CA73FA64CA74FA1EDE005203E158
:100E4800010E006ED5D065CA7AFA66CA7BFAD90E49
:100E58000A017C6F070E7D6F100E7E6F48DC005014
:100E68000110D8B4C4D0EDC7EFF7EEC7F0F7120EF3
:100E78000701ED25006E000EEE21016E00C0EFF7B0
:100E880001C0F0F700C07AFA01C07BFAC60E0A0169
:100E98007C6F070E7D6F020E7E6F5ADC020E070113
:100EA800EF250A017A6F000E0701F0210A017B6F16
:100EB800C40E7C6F070E7D6F020E7E6F49DC040E38
:100EC8000701EF250A017A6F000E0701F0210A01D8
:100ED8007B6FC30E7C6F070E7D6F010E7E6F38DC53
:100EE800050E0701EF250A01696F000E0701F021C1
:100EF8000A016A6F69CAEFF76ACAF0F769CA67FA3E
:100F08006ACA68FAC3C700F0000E016E110E046EBB
:100F1800000E056E89DD00506925676F01506A2152
:100F2800686F0701F16BC351F15D55E2EFC77AFABB
:100F3800F0C77BFAD90E0A017C6F070E7D6F100E81
:100F48007E6F06DC100E0701EF25006E000EF02103
:100F5800016E00C0EFF701C0F0F700C07AFA01C0D7
:100F68007BFAC80E0A017C6F070E7D6F010E7E6F3B
:100F7800ACEC03F0010E0701EF25006E000EF02126
:100F8800016E00C0EFF701C0F0F765CA7AFA66CAC9
:100F98007BFAD90E0A017C6F070E7D6F100E7E6FEB
:100FA8007BEC03F00050011001E115D0C8C700F038
:100FB800000E016EC4C704F0C5C705F035DD00504A
:100FC8000A016727015068230701F151010F006EDC
:100FD80000C0F1F7A8D70701C351F15D04E3D96B4D
:100FE800020E006E05D067CAEFF768CAF0F7006A0C
:020FF8001200E5
:100FFA000A01676B050E675D0AE267516525E16EB6
:10100A00000E6621E26E200EE66E672BF3D767515B
:10101A006525E16E000E6621E26EE66A6707675192
:10102A006525686F000E6621696F0A0E046E000E50
:10103A00056E63CA00F064CA01F093DE08C000F0CE
:10104A0009C001F0300E002668CAE1FF69CAE2FF52
:10105A0000C0E6FF0A0E046E000E056E63CA00F0B9
:10106A0064CA01F07EDE00C063FA01C064FA000EB1
:10107A00011802E1000E001801E102D06707CFD77C
:02108A00120052
:10108C000A01686B0A016751685D40E281EC01F06E
:10109C00A00E826F92EC01F064CA82FA92EC01F01D
:1010AC0063CA82FA92EC01F00A016751685D1EE294
:1010BC0068516525E96E000E6621EA6EEECF82FA64
:1010CC0092EC01F00A01634B642B3F0E6315016E29
:1010DC0064CA02F0000E0216000E021802E1000EA5
:1010EC00011802E1682B02D0682BDED74AEC01F024
:1010FC000A0181EC01F0A00E826F92EC01F000521B
:0E110C0001E101D0F5D74AEC01F0BCD712008A
:10111A008292D1C6E1FFD2C6E2FF7A0EE66ECFC650
:10112A0000F0D0C601F044EC00F0D1C6E1FFD2C60F
:10113A00E2FF64CAE6FFCFC600F0D0C601F044EC75
:10114A0000F0D1C6E1FFD2C6E2FF63CAE6FFCFC60E
:0E115A0000F0D0C601F044EC00F082821200DA
:10116800020E0A01826F63CA83FA64CA84FA59ECD0
:1011780001F08292D1C6E1FFD2C6E2FF7A0EE66E96
:10118800CFC600F0D0C601F044EC00F00A01675168
:10119800681118E0D1C6E1FFD2C6E2FF65CAE9FFCF
:1011A80066CAEAFFEECFE6FFCFC600F0D0C601F070
:1011B80044EC00F00A01654B662B010E675F000ED8
:0811C800685BE4D7828212008B
:1011D00065CA04F066CA05F063CA02F064CA03F087
:1011E00067CA00F068CA01F0010E0A01675F000ECD
:1011F000685B005001100FE004C0E9FF05C0EAFF82
:1012000002C0E1FF03C0E2FFEECFE6FF024A032A7D
:10121000044A052AE5D763CA00F064CA01F0120047
:101220000A01706B010E655F000E665B69530DE08D
:101230006651190802E16551AD0807E2702BAD0E49
:10124000655D6E6F190E66596F6F705305E0AD0ED8
:101250006A6F190E6B6F04D065CA6AFA66CA6BFAB8
:1012600064516B1902E16A5163190FE163CA7AFA9A
:1012700064CA7BFADAEC01F000C07CFA67CA7AFA39
:1012800068CA7BFA16EC02F03CD0100E0A01826F9D
:1012900063CA83FA64CA84FA59EC01F0120E0A0197
:1012A000826F705305E0AD0E6C6F190E6D6F04D038
:1012B00065CA6CFA66CA6DFA6CCA83FA6DCA84FA9A
:1012C00059EC01F0140E0A01826F67CA83FA68CAEA
:1012D00084FA59EC01F01F0E0A017A6F100E7B6F31
:1012E000EDEC03F01F0E0A017A6F200E7B6FF9EC14
:1012F00001F01F0E0A017A6F37EC02F000AA01D04C
:10130000F8D70A0170531AE06351655D006E6451AD
:101310006659016E6E51005E6F51015A004A012AF2
:101320000050672701506823010E6E5D656F000E47
:0E1330006F59666F636B646B706B87D712002A
:08133E0063CA00F0003A12003E
:10134600086A080E0C6E003408360450085ED8B0E1
:0E13560002D00826D89000360C2EF5D71200D3
:10136400020E0A016315016E0150000A05E01C0E0D
:10137400676F000E686F04D0140E676F000E686FFD
:10138400500E6F6F706B330E006E000E016E64CAE8
:1013940004F0000E056E18EC05F0CF0E0026050EC5
:1013A40001222E0E0024E96E000E0120EA6EEECF1B
:1013B40001F0EECF02F0000E006E0250005C02E17C
:1013C4000150000802E2080E706F010E6315016EF1
:1013D4000150000AD8A47081100E6315016E0150EB
:1013E400000AD8A47089020E6315016E0150000A28
:1013F40003E0700E6F6F7083040E6315016E01506D
:10140400000AD8A47085AF0E7A6F190E7B6F330E65
:10141400006E000E016E64CA04F0000E056E18EC36
:1014240005F0CF0E0026050E0122040E0024E96EFD
:10143400000E0120EA6EEECF7CFA16EC02F0330EB9
:10144400006E000E016E64CA04F0000E056E18EC06
:1014540005F0CF0E00240A01736F050E0120746F8E
:10146400040E7327000E7423734B742B050E756FD3
:10147400000E766F16EC04F0B90E736F050E746FE0
:10148400060E756F000E766F16EC04F0080E7A6F78
:10149400C1EC01F00A017A6BC1EC01F0450E0A01BE
:1014A4007A6FC1EC01F00A017A6BC1EC01F0330EE2
:1014B400006E000E016E64CA04F0000E056E18EC96
:1014C40005F0CF0E0026050E01222E0E0024D96E43
:1014D400000E0120DA6EDE500A016725696FDE50C6
:1014E40068216A6F140E6927000E6A236ACA7AFAA1
:1014F400C1EC01F069CA7AFAC1EC01F0330E006E56
:10150400000E016E64CA04F0000E056E18EC05F0BE
:10151400CF0E0026050E0122200E0026000E012209
:10152400010E0024E96E000E0120EA6EEECF7AFA75
:10153400C1EC01F0330E006E000E016E64CA04F0BB
:10154400000E056E18EC05F0CF0E0026050E0122E4
:10155400200E00240A01716F000E0120726F71CAFF
:10156400E9FF72CAEAFFEECF7AFAC1EC01F071CA60
:10157400E9FF72CAEAFF010EEE24006E000EEE20AF
:10158400016E71CAE1FF72CAE2FF00C0E6FF01C04A
:10159400E6FF400E0A017A6FC1EC01F00A017A6B92
:1015A400C1EC01F0800E0A017A6FC1EC01F0060E65
:1015B4000A017A6FC1EC01F00A017A6BC1EC01F007
:1015C4000A017A6BC1EC01F0B50E0A01736F050EC6
:1015D400746F040E756F000E766F16EC04F0330E04
:1015E400006E000E016E64CA04F0000E056E18EC65
:1015F40005F0CF0E0024736F050E0120746F040EE6
:10160400756F000E766F16EC04F0BD0E736F190E35
:10161400746F140E756F000E766F43EC04F0160EA3
:101624000A017A6F37EC02F000C071FA170E0A0152
:101634007A6F37EC02F000C075FAC70E0A01736FB7
:10164400190E746F71CA76FAA9EC06F0D10E0A016C
:101654007A6F190E7B6F330E006E000E016E64CA32
:1016640004F0000E056E18EC05F0CF0E0026050EF2
:1016740001220C0E0026000E0122010E0024E96E48
:10168400000E0120EA6EEECF7CFA16EC02F0330E67
:10169400006E000E016E64CA04F0000E056E18ECB4
:1016A40005F0CF0E0026050E01220C0E0024E96E73
:1016B400000E0120EA6EEECF7AFAC1EC01F0330E8F
:1016C400006E000E016E64CA04F0000E056E18EC84
:1016D40005F0CF0E0026050E01220A0E0026000E8C
:1016E4000122010E0024E96E000E0120EA6EEECF05
:1016F4007AFAC1EC01F0330E006E000E016E64CA7A
:1017040004F0000E056E18EC05F0CF0E0026050E51
:1017140001220A0E0024E96E000E0120EA6EEECFCB
:101724007AFAC1EC01F0330E006E000E016E64CA49
:1017340004F0000E056E18EC05F0CF0E0026050E21
:101744000122160E0026000E0122030E0024E96E6B
:10175400000E0120EA6EEECF7AFAC1EC01F0330EEE
:10176400006E000E016E64CA04F0000E056E18ECE3
:1017740005F0CF0E0026050E0122160E0026000EDF
:101784000122020E0024E96E000E0120EA6EEECF63
:101794007AFAC1EC01F0330E006E000E016E64CAD9
:1017A40004F0000E056E18EC05F0CF0E0026050EB1
:1017B4000122160E0026000E0122010E0024E96EFD
:1017C400000E0120EA6EEECF7AFAC1EC01F0330E7E
:1017D400006E000E016E64CA04F0000E056E18EC73
:1017E40005F0CF0E0026050E0122160E0024E96E28
:1017F400000E0120EA6EEECF7AFAC1EC01F0330E4E
:10180400006E000E016E64CA04F0000E056E18EC42
:1018140005F0CF0E0026050E01221A0E0026000E3A
:101824000122030E0024E96E000E0120EA6EEECFC1
:101834007AFAC1EC01F0330E006E000E016E64CA38
:1018440004F0000E056E18EC05F0CF0E0026050E10
:1018540001221A0E0026000E0122020E0024E96E57
:10186400000E0120EA6EEECF7AFAC1EC01F0330EDD
:10187400006E000E016E64CA04F0000E056E18ECD2
:1018840005F0CF0E0026050E01221A0E0026000ECA
:101894000122010E0024E96E000E0120EA6EEECF53
:1018A4007AFAC1EC01F0330E006E000E016E64CAC8
:1018B40004F0000E056E18EC05F0CF0E0026050EA0
:1018C40001221A0E0024E96E000E0120EA6EEECF0A
:1018D4007AFAC1EC01F06FCA7AFAC1EC01F070CA6D
:1018E4007AFAC1EC01F0330E006E000E016E64CA88
:1018F40004F0000E056E18EC05F0CF0E0026050E60
:101904000122120E0026000E0122010E0024E96EAF
:10191400000E0120EA6EEECF7AFAC1EC01F0330E2C
:10192400006E000E016E64CA04F0000E056E18EC21
:1019340005F0CF0E0026050E0122120E0024E96EDA
:10194400000E0120EA6EEECF7AFAC1EC01F00A0132
:101954007A6BC1EC01F00A017A6BC1EC01F00A0167
:101964007A6BC1EC01F00A017A6BC1EC01F0020E52
:101974000A016315016E0150000A51E0020E7A6FEC
:10198400C1EC01F0040E0A017A6FC1EC01F0330ED0
:10199400006E000E016E64CA04F0000E056E18ECB1
:1019A40005F0CF0E0026050E0122140E0026000EAF
:1019B4000122010E0024E96E000E0120EA6EEECF32
:1019C4007AFAC1EC01F0330E006E000E016E64CAA7
:1019D40004F0000E056E18EC05F0CF0E0026050E7F
:1019E4000122140E0024E96E000E0120EA6EEECFEF
:1019F4007AFAC1EC01F0010E0A017A6FC1EC01F030
:101A0400010E0A017A6FC1EC01F0040E0A017A6F2B
:101A1400C1EC01F0020E0A017A6FC1EC01F0330E41
:101A2400006E000E016E64CA04F0000E056E18EC20
:101A340005F0CF0E0026050E01222E0E0024E96EBD
:101A4400000E0120EA6EEECF01F0EECF02F0000EA0
:101A5400006E0250005C02E10150000861E20A01DC
:101A64006D6B6E6B330E006E000E016E64CA04F073
:101A7400000E056E18EC05F0CF0E0026050E0122AF
:101A84002E0E0024D96E000E0120DA6EDECF01F096
:101A9400DECF02F002506E5D02E101506D5D40E266
:101AA400330E006E000E016E64CA04F0000E056E63
:101AB40018EC05F0CF0E0024046E050E0120056E0F
:101AC400260E0424E96E000E0520EA6E6D51EE2404
:101AD400026E6E51EE20036E800E006E000E016EDB
:101AE400010E005E000E015A00500216015003164A
:101AF400310E0424E96E000E0520EA6EEECF00F0EC
:101B0400EECF01F002500024E96E03500120EA6E8A
:101B1400EECF7AFAC1EC01F00A016D4B6E2BA2D71D
:101B24000A01D10E6725716F190E6821726F330E89
:101B3400006E000E016E64CA04F0000E056E18EC0F
:101B440005F0CF0E0026050E01222E0E0024026E93
:101B5400000E0120036E02C0D9FF03C0DAFFDE507D
:101B64007125006EDE507221016E00C065FA01C05D
:101B740066FA02C0E9FF03C0EAFF010EEE146B6FC0
:101B8400EECF6CFA000E6C1700C07AFA01C07BFA33
:101B94007C6B16EC02F00A016B516525736F6C5176
:101BA4006621746FB5C575FAB6C576FAA9EC06F068
:101BB4000A016B516525736F6C516621746F020EB7
:101BC4007327000E7423B7C575FAB8C576FAA9EC65
:101BD40006F00A016B516525736F6C516621746FB1
:101BE400040E7327000E7423330E006E000E016E74
:101BF40064CA04F0000E056E18EC05F0CF0E002642
:101C0400050E012200C0E9FF01C0EAFFEECF75FA1C
:101C1400010E0024E96E000E0120EA6EEECF76FA82
:101C2400A9EC06F00A016B516525736F6C516621AE
:101C3400746F060E7327000E7423330E006E000EAD
:101C4400016E64CA04F0000E056E18EC05F0CF0EA8
:101C54000026050E0122020E0024E96E000E01206A
:101C6400EA6EEECF75FA030E0024E96E000E012031
:101C7400EA6EEECF76FAA9EC06F0080E0A016525A5
:101C8400736F000E6621746F6B5173276C5174234C
:101C9400756B060E766FA9EC06F00A0E0A0165252F
:101CA400736F000E6621746F6B5173276C5174232C
:101CB400330E006E000E016E64CA04F0000E056E51
:101CC40018EC05F0CF0E0026050E01222E0E00247E
:101CD400E96E000E0120EA6EEECF05F0EECF06F0BD
:101CE40005506725036E06506821046E04C000F099
:101CF400016A00C075FA05506725766FA9EC06F0F5
:101D0400D10E0A01736F190E746F330E006E000E3C
:101D1400016E64CA04F0000E056E18EC05F0CF0ED7
:101D24000026050E01222E0E0024D96E000E01207D
:101D3400DA6EDE506725756FDE506821766F0C0E03
:101D44007527000E76236B5175276C51762343EC6F
:101D540004F0160E0A017A6F37EC02F000C071FA33
:101D6400170E0A017A6F37EC02F000C075FAE10E23
:101D74000A01736F190E746F71CA76FAA9EC06F032
:101D8400220E0A016725736F000E6821746F330EEB
:101D9400006E000E016E64CA04F0000E056E18ECAD
:101DA40005F0CF0E0026050E01222E0E0024D96E5A
:101DB400000E0120DA6EDE507327DE507423C6EC69
:041DC40005F0120014
:101DC8000A0169516725E16E000E69BFFF0E68219F
:101DD800E26EE66A69070A01800E6919006E800ED4
:101DE800000A005C43E3695167256A6F000E69BF0A
:101DF800FF0E68216B6F0A0E046E000E056E066EEC
:101E0800076E63CA00F064CA01F065CA02F066CAC8
:101E180003F06BEC04F008C000F009C001F00AC040
:101E280002F00BC003F0300E00266ACAE1FF6BCA4D
:101E3800E2FF00C0E6FF0A0169070A0E046E000E01
:101E4800056E066E076E63CA00F064CA01F065CAC3
:101E580002F066CA03F06BEC04F000C063FA01C03C
:101E680064FA02C065FA03C066FAB5D767CA00F01B
:061E780068CA01F012002F
:0A1E7E00030E0D6E0D2EFED71200AC
:101E8800220E0C6E086A096A0A6A0B6A0C06D8B434
:101E98001FD0D8900B320A3209320832033202328C
:101EA80001320032D8A0F2D70C06D8B409D00450B9
:101EB80008260550092206500A2207500B22EAD7A5
:101EC800045008260550092206500A2207500B2202
:021ED8001200F6
:101EDA000FEE84F0EF50EFCF00F0009200C0EFFF5A
:021EEA001200E4
:101EEC000FEE83F0EF50EFCF00F0009C00C0EFFF3F
:021EFC001200D2
:101EFE000A01586B58515525F66E000E5621F76E95
:101F0E00000E5721F86E0900F5CF00F0005211E0D7
:101F1E0058515525F66E000E5621F76E000E5721BC
:101F2E00F86E0900F5CFADFF582BACB201D0FDD73E
:041F3E00E1D71200D5
:101F420055CA02F056CA03F002C000F003C001F005
:101F5200024A032A00C0E9FF01C0EAFFEE5201E093
:101F6200F3D70A015551025C006E56510358016EB7
:0A1F7200010E005E000E015A12007D
:101F7C000A015651020AD8B497D0330E006E000EE7
:101F8C00016E57CA04F0000E056E18EC05F0CF0E6A
:101F9C000024066E050E0120076E2C0E0624E96E39
:101FAC00000E0720EA6E010EEE24026E000EEE20EB
:101FBC00036E800E006E000E016E010E005E000EB0
:101FCC00015A00500214046E03500114056E04C033
:101FDC0058FA05C059FA280E0624D96E000E0720AF
:101FEC00DA6EDECF01F0DECF02F00550021802E10E
:101FFC000150041819E1330E006E000E016E57CA21
:10200C0004F0000E056E18EC05F0CF0E0026050E40
:10201C000122300E0024E16E000E0120E26E010E52
:10202C00E66E020E006EACD1330E006E000E016E29
:10203C0057CA04F0000E056E18EC05F0CF0E002404
:10204C00026E050E0120036E310E0224006E000E8E
:10205C000320016E2C0E0224D96E000E0320DA6EC2
:10206C0000C0E9FF01C0EAFFDE50EE24E16EDE5055
:10207C00EE20E26E55CAE6FF330E006E000E016EC6
:10208C0057CA04F0000E056E18EC05F0CF0E0026B2
:10209C00050E01222C0E0024E16E000E0120E26ED2
:1020AC0058CAE6FF59CAE6FF56510008D8B066D1A7
:1020BC00330E006E000E016E57CA04F0000E056E52
:1020CC0018EC05F0CF0E0026050E01222C0E002474
:1020DC00E96E000E0120EA6EEECF03F0EECF04F0B5
:1020EC002A0E0024D96E000E0120DA6EDECF01F02C
:1020FC00DECF02F00250045C02E10150035C25E2E9
:10210C00330E006E000E016E57CA04F0000E056E01
:10211C0018EC05F0CF0E0026050E01222C0E002423
:10212C00E96E000E0120EA6E800EEE24586F000E50
:10213C00EE20596F2A0E0024D96E000E0120DA6EA3
:10214C00DE50585FDE50595B20D0330E006E000E0F
:10215C00016E57CA04F0000E056E18EC05F0CF0E98
:10216C000026050E01222C0E0024E96E000E012023
:10217C00EA6E2A0E0024D96E000E0120DA6EDE50B3
:10218C00EE5C586FDE50EE58596F330E006E000E39
:10219C00016E57CA04F0000E056E18EC05F0CF0E58
:1021AC000026050E0122100E0024D96E000E01200F
:1021BC00DA6EDECF01F0DECF02F05951025C02E1A3
:1021CC005851015C18E2330E006E000E016E57CAB6
:1021DC0004F0000E056E18EC05F0CF0E0026050E6F
:1021EC000122100E0024E96E000E0120EA6EEECFE3
:1021FC0058FAEECF59FA330E006E000E016E57CA24
:10220C0004F0000E056E18EC05F0CF0E0026050E3E
:10221C0001222E0E0024E16E000E0120E26E58CA3F
:10222C00E6FF59CAE6FF330E006E000E016E57CA68
:10223C0004F0000E056E18EC05F0CF0E0026050E0E
:10224C000122260E0024E16E000E0120E26E2A0E01
:10225C000024E96E000E0120EA6EEECFE6FFEECF11
:10226C00E6FF330E006E000E016E57CA04F0000E2E
:10227C00056E18EC05F0CF0E0026050E01222A0E75
:10228C000024046E000E0120056E04C0E9FF05C099
:10229C00EAFF5851EE24026E5951EE20036E800E67
:1022AC00006E000E016E010E005E000E015A02500F
:1022BC0000160350011604C0E1FF05C0E2FF00C088
:1022CC00E6FF01C0E6FF330E006E000E016E57CA2A
:1022DC0004F0000E056E18EC05F0CF0E0026050E6E
:1022EC0001222A0E0024E96E000E0120EA6EEECFC8
:1022FC0003F0EECF04F02C0E0024D96E000E01205A
:10230C00DA6EDECF01F0DECF02F00450021802E1EB
:10231C000150031816E0330E006E000E016E57CA02
:10232C0004F0000E056E18EC05F0CF0E0026050E1D
:10233C000122300E0024E16E000E0120E26E010E2F
:10234C00E66E330E006E000E016E57CA04F0000EDE
:10235C00056E18EC05F0CF0E0026050E01221F0E9F
:10236C000024E16E000E0120E26E030EE66E100EEC
:10237C00636F57CA64FAB2EC09F002D0030E006E18
:02238C0012003D
:10238E000A015B6B5C6B55CA5DFA56CA5EFA800E2B
:10239E005619006E800E005C02E1000E555D0BE2D8
:1023AE00010E5B6F000E5C6F555100085D6F56CAD3
:1023BE005EFA000E5E575DCA63FA5ECA64FA57CAC9
:1023CE0065FA58CA66FAFDEC07F0060E596F000E54
:1023DE005A6F000E006E5A51005C02E1595100080E
:1023EE0019E259515725E16E5A515821E26E010EEC
:1023FE00595D006E000E5A59016E00505725E96E58
:10240E0001505821EA6EEECFE6FF010E595F000E25
:10241E005A5BDFD757CAE1FF58CAE2FF200EE66EBD
:10242E005B515C111AE0596B5A6B59515725E96E85
:10243E005A515821EA6EEE50200A03E1594B5A2B9D
:10244E00F4D7010E595F000E5A5B59515725E16EB4
:0C245E005A515821E26E2D0EE66E12005D
:10246A0040DD959C07DD06DD96820301039184B267
:10247A0004D003A101D001D0FAD7FCDCFBDCFADCE2
:10248A00F9DCF8DCF7DCF6DCF5DC958CF3DCF2DC65
:02249A0012002E
:10249C000A01586B030E5525E96E000E5621EA6EA3
:1024AC00EECF63FA000E646F656F666F000E646F9B
:1024BC00656F666F070E5525676F000E5621686FA6
:1024CC0058516727000E6823010E696F77DC0A01EB
:1024DC00582B57530FE0070E5525006E000E562152
:1024EC00016E58510024E16E000E0120E26E2D0E9B
:1024FC00E66E582B020E5525E96E000E5621EA6E3B
:10250C00EECF63FA000E646F656F666F000E646F3A
:10251C00656F666F070E5525676F000E5621686F45
:10252C0058516727000E6823020E696F47DC020EB4
:10253C000A01582757530FE0070E5525006E000E61
:10254C005621016E58510024E16E000E0120E26EFE
:10255C003A0EE66E582B010E5525E96E000E5621EB
:10256C00EA6EEECF63FA000E646F656F666F000E55
:10257C00646F656F666F070E5525676F000E5621E9
:10258C00686F58516727000E6823020E696F16DCBE
:10259C00020E0A01582757530FE0070E5525006EFF
:1025AC00000E5621016E58510024E16E000E0120E0
:1025BC00E26E3A0EE66E582B55CAE9FF56CAEAFF90
:1025CC00EECF63FA000E646F656F666F000E646F7A
:1025DC00656F666F070E5525676F000E5621686F85
:1025EC0058516727000E6823020E696FE4EC0EF059
:1025FC00020E0A01582757530FE0070E5525006E9F
:10260C00000E5621016E58510024E16E000E01207F
:10261C00E26E200EE66E582B040E5525E96E000E68
:10262C005621EA6EEECF63FA000E646F656F666F2B
:10263C00000E646F656F666F070E5525676F000E91
:10264C005621686F58516727000E6823020E696F78
:10265C00E4EC0EF0020E0A01582757530FE0070E58
:10266C005525006E000E5621016E58510024E16E66
:10267C00000E0120E26E2F0EE66E582B050E55252E
:10268C00E96E000E5621EA6EEECF63FA000E646F0F
:10269C00656F666F000E646F656F666F070E55256C
:1026AC00676F000E5621686F58516727000E68231C
:1026BC00020E696FE4EC0EF0020E0A015827575314
:1026CC000FE0070E5525006E000E5621016E585175
:1026DC000024E16E000E0120E26E2F0EE66E582BE8
:1026EC00060E5525E96E000E5621EA6EEECF63FA02
:1026FC00000E646F656F666F000E646F656F666FBA
:10270C00070E5525676F000E5621686F58516727C5
:10271C00000E6823020E696FE4EC0EF0020E0A0143
:10272C005825026E02C058FA070E5525006E000E91
:10273C005621016E02500024E16E000E0120E26E63
:10274C00E66A070E5525006E000E5621016E12002A
:10275C000A01576B57515525E96E000E5621EA6E4A
:10276C00EE520DE057515525E96E000E5621EA6EDA
:10277C00EECFADFF572BACB201D0FDD7EBD712008B
:10278C0055CA63FA9FEC09F00F0E00160A0E0002F0
:10279C00F3CF01F00F0E0A015515006E0150002603
:0627AC0000C055FA120006
:1027B20055CA63FA56CA64FA57CA65FA58CA66FA1B
:1027C2000CEC07F000C05CFA005203E05CCA00F0B7
:1027D20062D00A015B510701C85D03E2040E006E7C
:1027E2005AD0010EC625006E000EC721016E00C030
:1027F200C6F701C0C7F7C6C763FAC7C764FA000EB7
:102802000A01656F666F010E676F000E686F696F70
:102812006A6FC4C76BFAC5C76CFA000E6D6F6E6F34
:10282200D1EC06F000C0C6F701C0C7F70F0E0701D2
:10283200ED250A01636F000E0701EE210A01646FA4
:10284200030E6327000E6423C60E656F070E666FC4
:10285200020E676F46EC08F0010E0701C65D006EBE
:10286200000EC759016EC8C704F0000E056E18ECC1
:1028720005F00050EF250A01636F01500701F021B6
:102882000A01646F59CA65FA5ACA66FA5BCA67FADC
:0828920046EC08F0006A120098
:10289A000A015A6B5B6B5A515525E96E000E562197
:1028AA00EA6EEE5202E05A2BF6D75B515725F66EC6
:1028BA00000E5821F76E000E5921F86E0900F5CF67
:1028CA0000F0005217E05A515525E16E000E5621CC
:1028DA00E26E5B515725F66E000E5821F76E000E18
:1028EA005921F86E0900F5CF00F000C0E6FF5A2B17
:1028FA005B2BDBD75A515525E16E000E5621E26E4D
:08290A00E66A5ACA00F012004F
:102912000A01576B586B800E596F000E5A6F59514E
:102922005A1125E03FEC0FF03FEC0FF0958C3FEC95
:102932000FF03FEC0FF096820301039184B204D0B2
:1029420003A101D001D0FAD783AC05D00A015951B5
:1029520057135A5158130A013FEC0FF03FEC0FF096
:102962006DEC0FF096925A3359335A9FD8D7958C03
:102972003FEC0FF03FEC0FF05551561103E076ECAF
:102982000FF0959C3FEC0FF03FEC0FF096820301A5
:10299200039184B204D003A101D001D0FAD73FEC55
:1029A2000FF03FEC0FF06DEC0FF096923FEC0FF052
:1029B2003FEC0FF076EC0FF0959C57CA00F0120036
:1029C20055CA63FA56CA64FA57CA65FA58CA66FA09
:1029D2000CEC07F000C05EFA005203E05ECA00F0A1
:1029E2003FD00A015D510701C85D03E2040E006E8B
:1029F20037D0800E0A015A19006E800E005C02E187
:102A0200010E595D29E35A510701C55D04E10A012E
:102A120059510701C45D20E3010E0A01595D006EA0
:102A2200000E5A59016EC8C704F0000E056E18EC6C
:102A320005F000500701EF250A01636F01500701FD
:102A4200F0210A01646F5BCA65FA5CCA66FA5DCA64
:102A520067FA46EC08F003D0030E006E01D0006A5C
:022A6200120060
:102A640055CA63FA56CA64FA57CA65FA58CA66FA66
:102A74000CEC07F000C05DFA005203E05DCA00F000
:102A840046D05BCAE1FF5CCAE2FFE66AE66AE66A30
:102A9400E66A800E0A015A19006E800E005C02E19B
:102AA400010E595D30E35A510701C75D04E10A0183
:102AB40059510701C65D27E3C851040820E3010EFC
:102AC4000A01595D006E000E5A59016EC8C704F020
:102AD400000E056E18EC05F000500701EF250A0101
:102AE4007A6F01500701F0210A017B6F5BCA7CFAFF
:102AF4005CCA7DFAC8C77EFAACEC03F003D0060EBC
:102B0400006E05D003D0030E006E01D0006A1200DF
:102B140055CA63FA56CA64FA57CA65FA58CA66FAB5
:102B24000CEC07F000C05DFA005203E05DCA00F04F
:102B340037D0800E0A015A19006E800E005C02E143
:102B4400010E595D29E35A510701C55D04E10A01EB
:102B540059510701C45D20E3010E0A01595D006E5D
:102B6400000E5A59016EC8C704F0000E056E18EC29
:102B740005F000500701EF250A017A6F01500701A3
:102B8400F0210A017B6F5BCA7CFA5CCA7DFAC8C774
:102B94007EFAACEC03F003D0030E006E01D0006AA1
:022BA40012001D
:102BA6000A01576B57515525E96E000E5621EA6EFC
:102BB600EE50000A17E057515525E96E000E5621D2
:102BC600EA6E300EEE5C0AE357515525E96E000EAB
:102BD6005621EA6EEE50390801E302D0006A09D0A8
:102BE600572BE0D75751000A03E0010E006E01D0C3
:042BF600006A12005F
:102BFA008292D1C6E1FFD2C6E2FF3A0EE66ECFC696
:102C0A0000F0D0C601F044EC00F0D1C6E1FFD2C614
:102C1A00E2FFE66ACFC600F0D0C601F044EC00F04D
:042C2A008282120090
:102C2E000A015851FF0A02E1FF0E571907E0826BA5
:102C3E0057CA83FA58CA84FA59EC01F08292D1C667
:102C4E00E1FFD2C6E2FF3A0EE66ECFC600F0D0C666
:102C5E0001F044EC00F059CA00F05ACA01F0010E1E
:102C6E000A01595F000E5A5B0050011015E0D1C6E3
:102C7E00E1FFD2C6E2FFE66ACFC600F0D0C601F091
:102C8E0044EC00F055CAE1FF56CAE2FF00C0E6FF71
:0C2C9E000A01554B562BDFD78282120032
:102CAA00AF0E0A01636F190E646F55CA65FA56CAE8
:102CBA0066FA060E676F000E686FB4EC08F0B90E7C
:102CCA00736F050E746F060E756F000E766F16EC35
:102CDA0004F0000E636F080E646F8DEC08F01C0E92
:102CEA000A015D25606F000E5E21616F000E636F41
:102CFA00450E646F8DEC08F060CA63FA61CA64FA23
:102D0A008DEC08F004C363FA05C364FA8DEC08F08D
:102D1A000301044B052B0A01636B646B8DEC08F00D
:102D2A00110E0A01636F800E646F8DEC08F00A01C0
:102D3A00636B646B8DEC08F0B50E0A01736F050EB8
:102D4A00746F040E756F000E766F16EC04F057CA96
:102D5A0073FA58CA74FA040E756F000E766F16EC81
:102D6A0004F0080E5D25606F000E5E21616F59CA7E
:102D7A0063FA5ACA64FA8DEC08F05BCA63FA5CCA51
:102D8A0064FA8DEC08F060CA63FA61CA64FA8DECE1
:102D9A0008F00A01636B646B8DEC08F0BD0E0A0142
:102DAA00736F190E746F140E756F000E766F43EC05
:102DBA0004F0160E0A017A6F37EC02F000C062FACC
:102DCA00170E0A017A6F37EC02F000C075FAC70EC7
:102DDA000A01736F190E746F62CA76FAA9EC06F0CB
:102DEA00010E0A0160155F6FD90E5D257A6F190E03
:102DFA005E217B6F7C6B16EC02F0C90E0A01636FD1
:102E0A00190E646FD10E656F190E666FD90E5D25A6
:102E1A00676F190E5E21686F5F516727000E68237E
:102E2A00696B10EC09F0D90E5D25736F190E5E21DE
:102E3A00746F5F517327000E7423080E7327000EF8
:102E4A007423756B110E766FA9EC06F061CA7AFAD3
:102E5A00C1EC01F060CA7AFAC1EC01F0D10E0A01A4
:102E6A00736F190E746F0C0E6025756F000E612159
:102E7A00766F5F517527000E762343EC04F0160E29
:102E8A000A017A6F37EC02F000C062FA170E0A01E3
:102E9A007A6F37EC02F000C075FAD70E0A01736F29
:102EAA00190E746F62CA76FAA9EC06F02A0E0A01A4
:102EBA005D25736F000E5E21746FC6EC05F0000E7F
:042ECA00016E120083
:102ECE00958C3FEC0FF03FEC0FF096823FEC0FF03D
:102EDE003FEC0FF076EC0FF0959C3FEC0FF03FECD3
:0A2EEE000FF06DEC0FF09692120049
:102EF8000A01596B5A6B5B6B5C6B586B5751585D89
:102F08003FE258515525E96E000E5621EA6EEE5003
:102F1800000A36E059CA00F05ACA01F05BCA02F04A
