:10000000BFEF17F000000000DFEF17F00000000066
:0C0010000000000000000000C5EF17F029
:10001C00016A080E015C16E20301F4BF02D0819A5A
:10002C0001D0818A818800000000000000000000DF
:10003C00F437F491819800000000000000000000EB
:10004C00012AE7D7938A0000818800000000000095
:10005C000000000081BA02D0019001D0018081988B
:0C006C00939A000E01B0010E006E12000D
:100078000301F56B938A016A080E015C12E2F537F9
:10008800F59181880000000000000000000081BA9E
:10009800F581819800000000000000000000012A9E
:1000A800EBD7939AF4B102D0818A01D0819A0000EB
:1000B8008188000000000000000000008198F5C35E
:0400C80000F0120032
:1000CC00939A819A000000000000000000009388C1
:0E00DC0000000000000000000000938A1200E7
:1000EA00938A938800000000000000000000939AA1
:1000FA00819A000000000000000000009398819897
:02010A001200E1
:08010C00ECC300F0003A120000
:10011400F0C300F00301F007005228E0ECC3E9FF4C
:10012400EDC3EAFFEE50000A0CE0ECC3E9FFEDC3B7
:10013400EAFFEEC3D9FFEFC3DAFFEE50DE1801E1A8
:100144000FD0ECC3E9FFEDC3EAFFEEC3D9FFEFC361
:10015400DAFFDE50EE5C006E016A000E015A08D030
:100164000301EC4BED2BEE4BEF2BD2D7006A016A67
:02017400120077
:10017600B9DFA00E0301F46F4EDFEDC3F4F34BDFDE
:10018600ECC3F4F348DFAEDFA10E0301F46F43DFE7
:100196000301F16BF005016E026A000E025A800E31
:1001A600006E800E0218005C02E10150F15D11E262
:1001B600F151EE25F26F000EEF21F36F010EF46F91
:1001C60058DFF2C3E1FFF3C3E2FF00C0E6FFF12B05
:1001D600E1D7F151EE25F26F000EEF21F36FF46BCC
:1001E60048DFF2C3E1FFF3C3E2FF00C0E6FF6BDFC7
:0201F6001200F5
:1001F8000301ECB102D0809801D08088ECB302D022
:10020800809401D08084ECB502D0809201D08082A5
:10021800ECB702D0809001D080800000000080867A
:0E0228000000000000000000000080961200A0
:100236000B840BAE26EF01F0010E036E026A016A13
:0A024600006A0A360232FF0E1200B1
:080250000AAE029E000E12002E
:10025800086A096A100E0C6E013408360936045013
:10026800085E0550D8A0053C095ED8B007D00450F8
:1002780008260550D8B0053C0926D8900036013626
:060288000C2EEAD7120063
:10028E008494310E0D6E0D2EFED70000000003017A
:10029E00EA5302E0848401D0849400008096EBC37C
:1002AE00ECF32DDF00C0ECF3A0DFEBC3ECF39DDF2E
:0202BE0012002C
:1002C000030E0301BE6F000EBF6FAA6BC26B93518A
:1002D000C25D30E2BEC3ECF3BFC3EDF39A0EEE6F26
:1002E000030EEF6F100EF06F46DFEAC3ECF3EBC3C3
:1002F000EDF39A0EEE6F030EEF6F100EF06F0ADF44
:100300000050011001E116D00F0E0301BE25EC6F65
:10031000000EBF21ED6FEC4BED2BBE0EEE6F030E0A
:10032000EF6F020EF06F27DFC251010F006E00C0A9
:10033000C2F3CDD703019351C25D36E2BEC3C0F311
:10034000BFC3C1F3120EBE25006E000EBF21016EA9
:1003500000C0C0F301C0C1F300C0ECF301C0EDF375
:10036000970EEE6F030EEF6F020EF06F04DF020EBA
:10037000C025EC6F000EC121ED6F950EEE6F030EE0
:10038000EF6F020EF06FF7DE040EC025EC6F000E6B
:10039000C121ED6F940EEE6F030EEF6F010EF06F43
:0E03A000EADE010E006E02D09A6B006A1200B7
:0E03AE00026A016A006A086A036A000E120001
:1003BC000B6A0A6A096A00500402F4CF09F0F3CF01
:1003CC0008F001500502F4CF0BF0F3CF0AF0005007
:1003DC000502F3500926F4500A22E86A0B22015058
:1003EC000402F3500926F4500A22E86A0B2208C0D2
:1003FC0000F009C001F00AC002F00BC003F01200BB
:10040C000B820BAE10EF02F0036802680168006803
:08041C000A360232FF0E120045
:100424000301DE51390806E3300EDE5D03E3010EFD
:08043400006E01D0006A120005
:10043C000B800BAE2AEF02F0026A0AAEFF0E026EC0
:0C044C00016E006E0A360232FF0E120034
:060458009388938A120054
:10045E000B6A0A6A096A086A0E6A0334083604507F
:10046E00085E0550D8A0053C095E0650D8A0063C93
:10047E000A5E0750D8A0073C0B5EE86AD8A0010EB2
:10048E000E5E0336070E0C6E0334083609360A3636
:10049E000B360E36045003A012D0085E0550D8A0BD
:1004AE00053C095E0650D8A0063C0A5E0750D8A04F
:1004BE00073C0B5EE86AD8A0010E0E5E11D008262E
:1004CE000550D8B0053C09260650D8B0063C0A2681
:1004DE000750D8B0073C0B26E86AD8B0010E0E269E
:1004EE0003360C2ED1D70234083609360A360B36AF
:1004FE000E36045003A012D0085E0550D8A0053C5D
:10050E00095E0650D8A0063C0A5E0750D8A0073CEC
:10051E000B5EE86AD8A0010E0E5E11D008260550BB
:10052E00D8B0053C09260650D8B0063C0A2607501E
:10053E00D8B0073C0B26E86AD8B0010E0E2602365C
:10054E00070E0C6E0234083609360A360B360E3696
:10055E00045002A012D0085E0550D8A0053C095EDA
:10056E000650D8A0063C0A5E0750D8A0073C0B5E8A
:10057E00E86AD8A0010E0E5E11D008260550D8B03C
:10058E00053C09260650D8B0063C0A260750D8B0BE
:10059E00073C0B26E86AD8B0010E0E2602360C2E4A
:1005AE00D1D70134083609360A360B360E360450CA
:1005BE0002A012D0085E0550D8A0053C095E065078
:1005CE00D8A0063C0A5E0750D8A0073C0B5EE86A2E
:1005DE00D8A0010E0E5E11D008260550D8B0053CED
:1005EE0009260650D8B0063C0A260750D8B0073C5C
:1005FE000B26E86AD8B0010E0E260136070E0C6ED9
:10060E000134083609360A360B360E36045001A070
:10061E0012D0085E0550D8A0053C095E0650D8A041
:10062E00063C0A5E0750D8A0073C0B5EE86AD8A0CD
:10063E00010E0E5E11D008260550D8B0053C0926D5
:10064E000650D8B0063C0A260750D8B0073C0B26F9
:10065E00E86AD8B0010E0E2601360C2ED1D7003422
:10066E00083609360A360B360E36045001A012D063
:10067E00085E0550D8A0053C095E0650D8A0063C81
:10068E000A5E0750D8A0073C0B5EE86AD8A0010EA0
:10069E000E5E11D008260550D8B0053C092606502E
:1006AE00D8B0063C0A260750D8B0073C0B26E86A9D
:1006BE00D8B0010E0E260036070E0C6E003408362A
:1006CE0009360A360B360E36045000A012D0085EDC
:1006DE000550D8A0053C095E0650D8A0063C0A5E1F
:1006EE000750D8A0073C0B5EE86AD8A0010E0E5E3C
:1006FE0011D008260550D8B0053C09260650D8B0B2
:10070E00063C0A260750D8B0073C0B26E86AD8B03C
:10071E00010E0E2600360C2ED1D700B00ED004508E
:10072E0008260550D8B0053C09260650D8B0063C20
:0C073E000A260750D8B0073C0B2612001A
:10074A000301DE51010A02E1DE6B13D0DE51020A17
:10075A0003E1400EDE6F0DD0DE51030A03E1140EF1
:10076A00DE6F07D0DE51040A03E1540EDE6F01D0BA
:10077A00DE6BDF05006EDE51002600C0DEF3008E60
:0E078A0000C0DEF3EA6B00C0EBF37CDD120072
:080798000B6A0B86FF0E120034
:1007A0000CB012EF04F00CA2B8EF04F00E6A000EC9
:1007B000026429EF04F0F00E0214D8A4F4EF03F061
:1007C000023A01380F0B02260138F00B016E003897
:1007D0000F0B01260038F00B006E08380F0B0026B7
:1007E0000838F00B086E0E84D89002BE0DEF04F0AE
:1007F00008360036013602360E2A02BE0DEF04F02E
:1008000008360036013602360E2A02BE0DEF04F01D
:1008100008360036013602360E2A0E500364AEEF5B
:1008200004F0035E0BBC08AEB3EF04F0D880800E7A
:1008300008640030000E002201220222D8A0B3EF8B
:1008400004F0023201320032034AB8EF04F0B3EF91
:1008500004F001C002F000C001F008C000F0086A16
:10086000000E0E86026460EF04F0F00E0214D8A4AD
:1008700048EF04F0023A01380F0B02260138F00B62
:10088000016E00380F0B01260038F00B006E0E844D
:10089000D89002BE0DEF04F00036013602360E2A63
:1008A00002BE0DEF04F00036013602360E2A02BEFB
:1008B0000DEF04F00036013602360E2A0DEF04F07B
:1008C00001C002F000C001F0006A000E0E960E8812
:1008D00002648DEF04F0F00E0214D8A478EF04F057
:1008E000023A01380F0B02260138F00B016E0E841C
:1008F000D89002BE0DEF04F0013602360E2A02BE79
:100900000DEF04F0013602360E2A02BE0DEF04F0A0
:10091000013602360E2A0DEF04F001C002F0016A22
:10092000000E0E860264BDEF04F0F00E0214D8A48F
:100930009CEF04F0023A0E84D89002BE0DEF04F052
:1009400002360E2A02BE0DEF04F002360E2A02BE57
:100950000DEF04F002360E2A0DEF04F0010E0C6EBE
:100960006ADCC0EF04F0020E0C6E72DCC0EF04F023
:10097000040E0C6E4BDDC0EF04F0080E0C6E17DD9C
:02098000120063
:100982000301E26BE36BDEC3ECF3DFC3EDF39A0E1C
:10099200EE6F030EEF6F100EF06F8AEC00F0005056
:1009A20001100AE0DEC3EAF3DFC3EBF388DC005296
:1009B20003E1010E006EC3D00301E0C3ECF3E1C317
:1009C200EDF3AA0EEE6F030EEF6F100EF06F8AECCE
:1009D20000F000500110D8B4B1D0BEC3C0F3BFC301
:1009E200C1F3120E0301BE25006E000EBF21016E7F
:1009F20000C0C0F301C0C1F300C0ECF301C0EDF3CD
:100A0200970EEE6F030EEF6F020EF06FBBEC00F06D
:100A1200020EC025EC6F000EC121ED6F950EEE6F38
:100A2200030EEF6F020EF06FBBEC00F0040EC02558
:100A3200EC6F000EC121ED6F940EEE6F030EEF6F9F
:100A4200010EF06FBBEC00F0050EC025026E000E29
:100A5200C121036E02C0C0F303C0C1F302C0E2F3BE
:100A620003C0E3F3110E9403F3CF00F0F4CF01F0CF
:100A720000500224E26F01500320E36FC26B9451D5
:100A8200C25D50E2C0C3ECF3C1C3EDF3AA0EEE6F38
:100A9200030EEF6F100EF06FBBEC00F0100EC025CE
:100AA200006E000EC121016E00C0C0F301C0C1F38F
:100AB20000C0ECF301C0EDF3990EEE6F030EEF6F81
:100AC200010EF06FBBEC00F0010EC025006E000EAF
:100AD200C121016E00C0C0F301C0C1F3E0C3ECF359
:100AE200E1C3EDF3AA0EEE6F030EEF6F100EF06F7F
:100AF2008AEC00F00050011001E114D099C300F01B
:100B0200000E016E95C304F096C305F056DC00504A
:100B12000301E2270150E323C251010F006E00C01E
:100B2200C2F3ADD703019451C25D04E3AA6B020E76
:100B3200006E05D0E2C3C0F3E3C3C1F3006A120042
:100B42000301E26B050EE25D0AE2E251E025E16E8D
:100B5200000EE121E26E200EE66EE22BF3D7E251A7
:100B6200E025E16E000EE121E26EE66AE207E25163
:100B7200E025E36F000EE121E46F0A0E046E000E21
:100B8200056EDEC300F0DFC301F02CEC01F008C0FB
:100B920000F009C001F0300E0026E3C3E1FFE4C318
:100BA200E2FF00C0E6FF0A0E046E000E056EDEC311
:100BB20000F0DFC301F02CEC01F000C0DEF301C055
:100BC200DFF3000E011802E1000E001801E102D06D
:060BD200E207CDD712007E
:100BD8000301E36B0301E251E35D40E275EC00F0D1
:100BE800A00EF46F0EEC00F0DFC3F4F30EEC00F08F
:100BF800DEC3F4F30EEC00F00301E251E35D1EE204
:100C0800E351E025E96E000EE121EA6EEECFF4F340
:100C18000EEC00F00301DE4BDF2B3F0EDE15016EFC
:100C2800DFC302F0000E0216000E021802E1000EE9
:100C3800011802E1E32B02D0E32BDED766EC00F0CB
:100C4800030175EC00F0A00EF46F0EEC00F00052FA
:0E0C580001E101D0F5D766EC00F0BCD7120028
:100C6600800E0301E919006E800EE119005C08E1AF
:100C7600E051E85D05E1DF51E75D02E1DE51E65D49
:100C860009E2E2C3DEF3E3C3DFF3E4C3E0F3E5C363
:100C9600E1F318D0800EE119006E800EE519005CB4
:100CA60008E1E451E05D05E1E351DF5D02E1E25177
:100CB600DE5D08E2E6C3DEF3E7C3DFF3E8C3E0F395
:100CC600E9C3E1F3DEC300F0DFC301F0E0C302F0E5
:060CD600E1C303F012006F
:100CDC00D4C3DEF3D5C3DFF332DD010EEA6FD6C326
:080CEC00EBF347EC01F01200EC
:100CF4000301DA6BDB6B000EDB5D02E10A0EDA5DE9
:100D04000BE2DA51D825E16EDB51D921E26E200ED7
:100D1400E66EDA4BDB2BEFD7DA51D825E16EDB51E7
:100D2400D921E26EE66A010EDA5F000EDB5BDA516E
:100D3400D825DC6FDB51D921DD6F0A0E046E000E5D
:100D4400056E066E076ED4C300F0D5C301F0D6C39A
:100D540002F0D7C303F02FEC02F008C000F009C082
:100D640001F00AC002F00BC003F0300E0026DCC311
:100D7400E1FFDDC3E2FF00C0E6FF0A0E046E000ED1
:100D8400056E066E076ED4C300F0D5C301F0D6C35A
:100D940002F0D7C303F02FEC02F000C0D4F301C07B
:100DA400D5F302C0D6F303C0D7F3000E046E0318C4
:100DB40008E10450021805E10450011802E1005052
:100DC400000A01E105D0010EDA5F000EDB5BAFD74C
:020DD40012000B
:100DD6000301D76BD751D425F66E000ED521F76ED9
:100DE600000ED621F86E0900F5CF00F0005211E092
:100DF600D751D425F66E000ED521F76E000ED621FA
:100E0600F86E0900F5CFADFFD72BACB201D0FDD7F8
:100E1600E1D70D0EAD6EACB201D0FDD70A0EAD6EA8
:080E2600ACB201D0FDD71200AF
:100E2E00D4C3DEF3D5C3DFF3D6C3E0F3D7C3E1F308
:100E3E00A1DD00C0DCF3005203E0DCC300F02FD0D4
:100E4E00800E0301D919006E800E005C02E1010EC6
:100E5E00D85D21E3D951965D02E1D851955D1BE332
:100E6E00010ED85D006E000ED959016E99C304F0C3
:100E7E00000E056EDEEC01F00050C025EC6F015047
:100E8E00C121ED6FDAC3EEF3DBC3EFF399C3F0F3D9
:100E9E00BBEC00F003D0030E006E01D0006A12000E
:100EAE000301D96BDA6BD951D425E96E000ED52129
:100EBE00EA6EEE5202E0D92BF6D7DA51D625F66E4F
:100ECE00000ED721F76E000ED821F86E0900F5CF6F
:100EDE0000F0005217E0D951D425E16E000ED52155
:100EEE00E26EDA51D625F66E000ED721F76E000EA1
:100EFE00D821F86E0900F5CF00F000C0E6FFD92B1F
:100F0E00DA2BDBD7D951D425E16E000ED521E26E56
:080F1E00E66AD9C300F01200DD
:100F2600D4C3DEF3D5C3DFF3D6C3E0F3D7C3E1F30F
:100F360025DD00C0DBF3005203E0DBC300F056D032
:100F46000301DA51995D03E2040E006E4FD0010EE3
:100F56009725006E000E9821016E00C097F301C020
:100F660098F397C3DEF398C3DFF3000EE06FE16FEB
:100F7600010EE26F000EE36FE46FE56F95C3E6F3D3
:100F860096C3E7F3000EE86FE96F6ADE00C097F3D9
:100F960001C098F30F0EBE25DE6F000EBF21DF6F76
:100FA600030EDE27000EDF23970EE06F030EE16FC0
:100FB600020EE26F0EDE010E0301975D006E000E5B
:100FC6009859016E99C304F0000E056EDEEC01F02F
:100FD6000050C025DE6F0150C121DF6FD8C3E0F39A
:0E0FE600D9C3E1F3DAC3E2F3F4DD006A1200CE
:100FF4000301DA6BDB6BD4C3DCF3D5C3DDF3800E02
:10100400D519006E800E005C02E1000ED45D0BE287
:10101400010EDA6F000EDB6FD4510008DC6FD5C30C
:10102400DDF3000EDD57DCC3DEF3DDC3DFF3D6C32F
:10103400E0F3D7C3E1F383DD060ED86F000ED96F5A
:10104400000E006ED951005C02E1D851000819E28B
:10105400D851D625E16ED951D721E26E010ED85D63
:10106400006E000ED959016E0050D625E96E01506C
:10107400D721EA6EEECFE6FF010ED85F000ED95BF2
:10108400DFD7D6C3E1FFD7C3E2FF200EE66EDA5105
:10109400DB111AE0D86BD96BD851D625E96ED9513A
:1010A400D721EA6EEE50200A03E1D84BD92BF4D7AE
:1010B400010ED85F000ED95BD851D625E16ED95107
:0A10C400D721E26E2D0EE66E120039
:1010CE00220E0C6E086A096A0A6A0B6A0C06D8B4FC
:1010DE001FD0D8900B320A32093208320332023254
:1010EE0001320032D8A0F2D70C06D8B409D0045081
:1010FE0008260550092206500A2207500B22EAD76D
:10110E00045008260550092206500A2207500B22C9
:02111E001200BD
:101120000B6A0C6A0A6A086A0350D8B418EF09F00F
:10113000028E9E0E035E03BEA3EF08F0D8B4A3EFA9
:1011400008F008EF09F0036C080E035CD8A0D5EF97
:1011500008F0036E083600C008F001C000F002C0BD
:1011600001F0026A080E035CD8A0D5EF08F0036E08
:10117000083600C008F001C000F0016A080E035CE8
:10118000D8A0D5EF08F0036E083600C008F0006A5A
:10119000080E035CD8A0D5EF08F0036E0836086A85
:1011A0000350D8A4D890E1EF08F00350D8B4E1EF91
:1011B00008F0D8900232013200320832032ED9EF03
:1011C00008F00BBC08A0F2EF08F0D8A0F2EF08F08E
:1011D000082AD8B4002AD8B4012AD8B4022A02BEF8
:1011E0001CEF09F00AAE18EF09F0021E011E001EE6
:1011F000081E082AD8B4002AD8B4012AD8B4022A72
:1012000018EF09F0026A016A006A086A18EF09F02B
:101210000B800BAE22EF09F0026A0AAE22EF09F052
:10122000026E016E006E086E0A36023222EF09F07D
:10123000000E0C6A23EF09F0010E0C6E1EEC02F09A
:1012400023EF09F0FF0E0250036E0150026E0050B2
:08125000016E0850006E12004F
:10125800D4C302F0D5C303F002C000F003C001F00C
:10126800024A032A00C0E9FF01C0EAFFEE5201E08A
:10127800F3D70301D451025C006ED5510358016EB7
:0A128800010E005E000E015A120074
:101292009682958C0101F89184B204D0F8A101D014
:0612A20001D0FAD7120092
:1012A8000050086E0150006E0250016E0350026E2D
:1012B800036A0B6A0C6A9E0E036E0A6A020E0C6EB3
:0612C800D0EC03F012005F
:1012CE00D4C3DEF3D5C3DFF3D6C3E0F3D7C3E1F364
:1012DE00C1EC04F000C0DDF3005203E0DDC300F00A
:1012EE0034D00301DC51995D03E2040E006E2DD063
:1012FE00800ED919006E800E005C02E1010ED85DE1
:10130E0020E3D951965D02E1D851955D1AE3010EA5
:10131E00D85D006E000ED959016E99C304F0000E0F
:10132E00056EDEEC01F00050C025DE6F0150C121CC
:10133E00DF6FDAC3E0F3DBC3E1F3DCC3E2F345DCDA
:0C134E0003D0030E006E01D0006A1200F4
:10135A000301D76BD751D425F66E000ED521F76E4F
:10136A00000ED621F86E0900F5CF00F0005211E008
:10137A00D751D425F66E000ED521F76E000ED62170
:10138A00F86E0900F5CFADFFD72BACB201D0FDD76F
:04139A00E1D7120085
:10139E000301D66BD651D425E96E000ED521EA6E27
:0E13AE00EE5202E0D62BF6D7D6C300F01200A6
:1013BC000301D66BD651D425E96E000ED521EA6E09
:1013CC00EE520DE0D651D425E96E000ED521EA6E11
:1013DC00EECFADFFD62BACB201D0FDD7EBD71200C0
:1013EC00D4C3E9FFD5C3EAFFEECFD6F3000E030159
:1013FC00D76F000ED76F000ED71902E1200ED61949
:10140C0007E0000ED71902E1090ED61901E003D04E
:10141C00D44BD52BE5D7D86BD96BDA6BDB6B000EC5
:10142C00D71902E12D0ED61905E1DA4BDB2BD44B83
:10143C00D52B08D0000ED71902E12B0ED61902E1DC
:10144C00D44BD52BD4C3E9FFD5C3EAFFEECFD6F3EB
:10145C00000ED76F000ED76FD6C3DEF312EC02F07E
:10146C00005219E0D8C300F0D9C301F00A0E046E83
:10147C00000E056EDEEC01F0300ED65D026E000E35
:10148C00D759036E02500024D86F03500120D96F36
:10149C00D44BD52BD7D7DA51DB1108E0D851000843
:1014AC00006ED9C301F0000E015604D0D8C300F071
:0614BC00D9C301F012008B
:1014C2000450000A12E10550000A0FE10650000A1A
:1014D2000CE10750000A09E1FF0E006EFF0E016EDB
:1014E2007F0E026EFF0E036EA8D0086A096A0750CB
:1014F200D8B40CEF0BF00350D8B411EF0BF002503C
:1015020006180A6E028E068E0E6A02C008F001C02C
:101512000CF000C00DF004500D5E0550D8A0053C43
:101522000C5E0650D8A0063C085E086A0C6A0D6A7A
:10153200D8A0A3EF0AF0D89002320132003208326A
:10154200010E0E6E0750035ED8A0B0EF0AF07E0EB9
:101552000E240326D8B016EF0BF0B6EF0AF07E0E7B
:101562000E240326D8A01BEF0BF0180E0B6E0D36BF
:101572000C3608360036013602360E360450005E4E
:101582000550D8A0053C015E0650D8A0063C025E7C
:1015920006340E120EA0D1EF0AF00D80DCEF0AF035
:1015A200045000260550D8B0053C01260650D8B09C
:1015B200062802260D900B2EB8EF0AF002EF0BF070
:1015C200D8900036013602360E360450005E0550C1
:1015D200D8A0053C015E0650D8A0063C025E063447
:1015E2000E10010B0D26D8B00C2AD8B4082AD8A4A4
:1015F20002EF0BF008320C320D32032AD8B416EF88
:101602000BF00AAE089E0850026E0C50016E0D508F
:10161200006E1EEF0BF0010ECCEC03F01EEF0BF090
:10162200020ED7EC01F01EEF0BF0040E06EC02F0F6
:0C1632001EEF0BF0080E1BEC01F0120084
:06163E002CEC02F012008A
:10164400C3C300F0C4C301F0C5C302F0C6C303F0B2
:101654000A0E046E000E056E066E076E36DD00C0BF
:10166400C3F301C0C4F302C0C5F303C0C6F300C092
:10167400C3F301C0C4F302C0C5F303C0C6F303013E
:10168400C633C533C433C333C69FC6BDC68FC63342
:10169400C533C433C333C69FC6BDC68FCA6B030EDE
:1016A400CA5D1AE2800EC619006E800E000A005C44
:1016B40008E1010EC55D05E1000EC45D02E1000E06
:1016C400C35D01E209D0C633C533C433C333C69FF7
:1016D400C6BDC68FCA2BE3D7000E006E000E016E86
:1016E400010E026E000E036EC351005EC451015A16
:1016F400C551025AC651035A00C0C3F301C0C4F312
:1017040002C0C5F303C0C6F300C02EF301C02FF31B
:10171400CD90CD8ECAB102D0CD9801D0CD88CAB3B8
:1017240002D0CD9A01D0CD8ACD96CD94CD922FC33F
:10173400CFFF2EC3CEFF9E90C8B102D09D9001D0A2
:101744009D80C9B102D09F9001D09F80C7B102D0C3
:08175400CD9001D0CD80120000
:10175C000301C86BC3C3DEF3C4C3DFF3A5EC03F012
:10176C00C851C525F66E000EC621F76E000EC721B6
:10177C00F86E0900F5CF00F0005212E0010EEA6F8E
:10178C00C851C525F66E000EC621F76E000EC72196
:10179C00F86E0900F5CFEBF347EC01F0C82BE0D75E
:0217AC00120029
:1017AE00A69CC4C3AAFFC3C3A9FFA69EA680A8CFAA
:0417BE0000F0120025
:1017C200C3C300F0C4C301F0C5C302F0C6C303F033
:1017D2000A0E046E000E056E066E076E77DC00C000
:1017E200C3F301C0C4F302C0C5F303C0C6F300C013
:1017F200C3F301C0C4F302C0C5F303C0C6F30301BF
:10180200C633C533C433C333C69FC6BDC68FC633C2
:10181200C533C433C333C69FC6BDC68FCA6B030E5E
:10182200CA5D1AE2800EC619006E800E000A005CC4
:1018320008E1010EC55D05E1000EC45D02E1000E86
:10184200C35D01E209D0C633C533C433C333C69F77
:10185200C6BDC68FCA2BE3D7000E006E000E016E06
:10186200010E026E000E036EC351005EC451015A96
:10187200C551025AC651035A00C0C3F301C0C4F392
:1018820002C0C5F303C0C6F300C090F301C091F3D8
:10189200B190B18EB186B18CCAB102D0B19801D0EB
:1018A200B188CAB302D0B19A01D0B18AB194B192CF
:1018B20091C3B3FF90C3B2FFA192C8B102D0A0926C
:1018C20001D0A082C9B102D0A29201D0A282C7B136
:0A18D20002D0B19001D0B1801200E5
:1018DC000301C353D8B486D092530CE1C4C3D4F3E0
:1018EC00C5C3D5F3140ED66F330ED76F000ED86F59
:1018FC0057EC07F0C4C3D4F3C5C3D5F3A7DC005031
:10190C00010FDA6FD90ED46F010ED56FEC0ED66FB6
:10191C00010ED76FC4C3D8F3C5C3D9F393EC07F04A
:10192C00D90E0301D46F010ED56FE40ED66F010EE4
:10193C00D76F97C3D8F398C3D9F3C80EDA6F030ED9
:10194C00DB6F17EC07F00301C851310A02E08C4B36
:10195C008D2BD90ED46F010ED56FE40ED66F010E00
:10196C00D76F97C3D8F398C3D9F3CD0EDA6F010EA6
:10197C00DB6F010EDC6FA5DC0A0E0301D46F330E96
:10198C00D56F000ED66FE3DC97C3D4F398C3D5F3B1
:10199C00780ED66F030ED76FFAEC07F0780ED46F73
:1019AC00030ED56F05DD030ED46F330ED56F000E0D
:1019BC00D66FCDDC8CC3D4F38DC3D5F3780ED66F34
:1019CC00030ED76FFAEC07F0780ED46F030ED56FB9
:1019DC00EFDCA10ED46F320ED56F000ED66FEBEC90
:1019EC0006F05BD0C4C3D4F3C5C3D5F3D2DC00502E
:1019FC00010FDA6FC20ED46F010ED56FEC0ED66FDD
:101A0C00010ED76FC4C3D8F3C5C3D9F393EC07F059
:101A1C00C20E0301D46F010ED56FE40ED66F010E0A
:101A2C00D76F97C3D8F398C3D9F3C80EDA6F030EE8
:101A3C00DB6F17EC07F00301C851310A02E08E4B43
:101A4C008F2BC20ED46F010ED56FE40ED66F010E24
:101A5C00D76F97C3D8F398C3D9F3D70EDA6F010EAB
:101A6C00DB6F010EDC6F2DDCC6C3D4F3C7C3D5F31B
:101A7C0090DC0050010FDC6FC20ED46F010ED56FDD
:101A8C00CF0ED66F010ED76F97C3D8F398C3D9F387
:0C1A9C00C6C3DAF3C7C3DBF314DC12008E
:101AA800F2A213D0F2A811D00301752B71377191EE
:101AB800723773377437766B776B7551200804E289
:0C1AC800940E766F110E776FF2921200F0
:101AD400F0A014D0F0A612D00301752B71377191C8
:101AE4007237733774377181766B776B7551200851
:0E1AF40004E2940E766F110E776FF0901200E0
:101B02000301C56BC551C325E96E000EC421EA6EFF
:101B1200EE520DE0C551C325E96E000EC421EA6EF6
:101B2200EECFADFFC52BACB201D0FDD7EBD70D0E7A
:101B3200AD6EACB201D0FDD70A0EAD6EACB201D023
:041B4200FDD71200B9
:101B46000301D26BD36BC3C3D4F3C4C3D5F32CEC5C
:101B560009F0800E026E800E0118025C02E1005050
:101B66000F0803E2010E006EFDD1C3C3EAF3C4C33E
:101B7600EBF360EC01F00052D8A4F0D1D06BC26B4D
:101B8600100EC96F000ECA6F120EC96F000ECA6F13
:101B9600140EC96F000ECA6F160EC96F000ECA6FFB
:101BA600170EC96F000ECA6FD16BC251C525E96EFB
:101BB600000EC621EA6EEE5262E0D12BC2C301F0DE
:101BC600C251010F006E00C0C2F30150C525E96E77
:101BD600000EC621EA6EEE50260A50E1D1511008D9
:101BE60003E2020E006EBED1D16B100EC927000EA5
:101BF600CA23C94BCA2BCF6BC251C525E96E000E4D
:101C0600C621EA6EEE500A0A1FE0C251C525E96EEA
:101C1600000EC621EA6EEE5217E0CB0EE16E030E01
:101C2600E26ECF51E126D8B0E22AC251C525E96E4F
:101C3600000EC621EA6EEECFE6FFCF2BC251010F92
:101C4600006E00C0C2F3D8D7D02BCB0EE16E030EC8
:101C5600E26ECF51E126D8B0E22AE66ACB0ED46F07
:101C6600030ED56FF6EC09F0C7C304F0C8C305F040
:101C7600DEEC01F00050C9270150CA2396D7C9519E
:101C8600BC25016ECA51BD21026EBB51025C02E148
:101C9600BA51015CD8B05ED1D16BBC51C927BD51D8
:101CA600CA23C3C3D4F3C4C3D5F32CEC09F0005044
:101CB600010FE26FBCC3DEF3BDC3DFF3C3C3E0F3C2
:101CC600C4C3E1F3ECEC05F0100E0301BC25006E75
:101CD600000EBD21016E00C0BCF301C0BDF300C003
:101CE600DEF301C0DFF3C90EE06F030EE16F020EF3
:101CF600E26FECEC05F0020E0301BC25006E000E4F
:101D0600BD21016E00C0BCF301C0BDF3976B986B9B
:101D1600BCC3DEF3BDC3DFF3970EE06F030EE16FC6
:101D2600020EE26FECEC05F0020E0301BC25006E1C
:101D3600000EBD21016E00C0BCF301C0BDF300C0A2
:101D4600DEF301C0DFF3C70EE06F030EE16F020E94
:101D5600E26FECEC05F0020E0301BC25006E000EEE
:101D6600BD21016E00C0BCF301C0BDF300C0DEF3AF
:101D760001C0DFF3D00EE06F030EE16F010EE26FDC
:101D8600ECEC05F0010E0301BC25006E000EBD2132
:101D9600016E00C0BCF301C0BDF3C26BBCC3C9F386
:101DA600BDC3CAF3C251C525E96E000EC621EA6E4F
:101DB600EE52D8B4A8D0C9C3DEF3CAC3DFF3C2510A
:101DC600C525E06F000EC621E16F010EE26FECEC57
:101DD60005F00301C94BCA2BC251010F006E00C0AA
:101DE600C2F3C251C525E96E000EC621EA6EEE5059
:101DF600260AD8A487D0C251010F006E00C0C2F3D4
:101E0600C9C3DEF3CAC3DFF3D10EE06F030EE16F81
:101E1600010EE26FECEC05F00301C94BCA2B100E64
:101E2600BC25006E000EBD21016E00C0BCF301C0D2
:101E3600BDF3CF6BC251C525E96E000EC621EA6E11
:101E4600EE5226E0CB0EE16E030EE26ECF51E12696
:101E5600D8B0E22AC251C525E96E000EC621EA6E47
:101E6600EECFE6FFCF2BC251010F006E00C0C2F3CA
:101E7600C251C525E96E000EC621EA6EEE500A0A69
:101E860006E1C251010F006E00C0C2F301D0D2D7E5
:101E9600CB0EE16E030EE26ECF51E126D8B0E22AF8
:101EA600E66ACB0ED46F030ED56FF6EC09F000C0D0
:101EB600D0F3BCC3DEF3BDC3DFF3D00EE06F030E79
:101EC600E16F010EE26FECEC05F0010E0301BC259B
:101ED600006E000EBD21016E00C0BCF301C0BDF353
:101EE600D0C300F0000E016EC7C304F0C8C305F0EE
:101EF600DEEC01F00050D2270150D323BCC3C9F356
:101F0600BDC3CAF34FD7D251BC25006ED351BD21F4
:101F1600016E00C0BCF301C0BDF39351010F006E0A
:101F260000C093F3DE6BDF6B930EE06F030EE16F81
:101F3600010EE26FECEC05F0010E0301DE6F000E00
:101F4600DF6FBC0EE06F030EE16F020EE26FECEC8A
:101F560005F003D0030E006E05D003D0040E006E0C
:061F660001D0006A120028
:101F6C000301936B030EBC6F000EBD6FDE6BDF6B5A
:101F7C00930EE06F030EE16F010EE26FECEC05F0D7
:101F8C00010E0301DE6F000EDF6FBC0EE06F030E5F
:0C1F9C00E16F020EE26FECEC05F01200A9
:101FA800AC9EAC9CAC8AAC98AC96AC84AC90AB9C28
:101FB800AB9AAB88AB96AB8EB898B886B892B89007
:101FC800C3C300F0C4C301F0C5C302F0C6C303F025
:101FD8000332023201320032039E00C0C3F301C053
:101FE800C4F302C0C5F303C0C6F354EC09F000C043
:101FF80004F001C005F002C006F003C007F0800E2F
:10200800006E960E016E180E026E940E036E61EC51
:102018000AF090EC08F000C0C3F301C0C4F302C09A
:10202800C5F303C0C6F3010E00240301C36F000EFD
:102038000120C46F000E0220C56F000E0320C66F7A
:10204800C633C533C433C333C69F010EC35F000E06
:10205800C45BC55BC65BC3C3AFFFC4C3B0FF949C7E
:0A206800948EACB201D0FDD7120037
:10207200C3C3DEF3C4C3DFF3C5C3E0F3C6C3E1F3F6
:10208200C1EC04F000C0CCF3005203E0CCC300F07A
:1020920082D0C9C3D4F3CAC3D5F32CEC09F00050E3
:1020A200010F016E01C0C2F30150995D03E2040EFB
:1020B200006E71D0CB5340E09651985D02E195518C
:1020C200975D36E297C300F098C301F099C304F01C
:1020D200000E056EDEEC01F00050C025DE6F0150EF
:1020E200C121DF6FC9C3E0F3CAC3E1F3C2C3E2F3A4
:1020F200ECEC05F0010E03019725006E000E98210D
:10210200016E00C097F301C098F30F0EBE25DE6F7B
:10211200000EBF21DF6F030EDE27000EDF23970EB6
:10212200E06F030EE16F020EE26FECEC05F003D0FC
:10213200050E006E30D02ED0800E0301C819006E3D
:10214200800E005C02E1010EC75D21E3C851985D7B
:1021520002E1C751975D1BE3010EC75D006E000EE1
:10216200C859016E99C304F0000E056EDEEC01F051
:102172000050C025DE6F0150C121DF6FC9C3E0F3FB
:10218200CAC3E1F3C2C3E2F3ECEC05F003D0030EE1
:08219200006E01D0006A12008A
:10219A000301C76BC751C525E96E000EC621EA6E59
:1021AA00EE5210E0C751C325E16E000EC421E26E63
:1021BA00C751C525E96E000EC621EA6EEECFE6FFCD
:1021CA00C72BE8D7C751C325E16E000EC421E26EC2
:0821DA00E66AC7C300F0120021
:1021E200C3C3DEF3C4C3DFF3C5C3E0F3C6C3E1F385
:1021F200C1EC04F000C0CEF3005203E0CEC300F005
:102202007AD099C3C2F303019951040803E2060E7E
:10221200006E71D0CD5340E09651985D02E1955128
:10222200975D36E297C300F098C301F099C304F0BA
:10223200000E056EDEEC01F00050C025DE6F01508D
:10224200C121DF6FC90EE06F030EE16FC2C3E2F37B
:10225200ECEC05F0010E03019725006E000E9821AB
:10226200016E00C097F301C098F30F0EBE25DE6F1A
:10227200000EBF21DF6F030EDE27000EDF23970E55
:10228200E06F030EE16F020EE26FECEC05F003D09B
:10229200050E006E30D02ED0800E0301C819006EDC
:1022A200800E005C02E1010EC75D21E3C851985D1A
:1022B20002E1C751975D1BE3010EC75D006E000E80
:1022C200C859016E99C304F0000E056EDEEC01F0F0
:1022D2000050C025DE6F0150C121DF6FC90EE06FD3
:1022E200030EE16FC2C3E2F3ECEC05F003D0030E80
:0822F200006E01D0006A120029
:1022FA0002011C6BC5C319F21A6B1B6B0301C4B133
:10230A0002D09F9A01D09F8A9E9AC3B102D09D9A09
:06231A0001D09D8A1200B3
:0623200049EC09F0120077
:102326000301CB6BCC6BC3C3CDF3C4C3CEF3C5C320
:10233600CFF3C6C3D0F3800EC619006E800E005CC4
:1023460008E1000EC55D05E1000EC45D02E1000E68
:10235600C35D10E2010ECB6F000ECC6FCD6BCE6B62
:10236600CF6BD06BC351CD5FC451CE5BC551CF5B34
:10237600C651D05BCDC3D4F3CEC3D5F3CFC3D6F30A
:10238600D0C3D7F3C7C3D8F3C8C3D9F37AEC06F0E2
:102396000B0EC96F000ECA6F000E006ECA51005CAC
:1023A60002E1C951000819E2C951C725E16ECA51B7
:1023B600C821E26E010EC95D006E000ECA59016E9B
:1023C6000050C725E96E0150C821EA6EEECFE6FF40
:1023D600010EC95F000ECA5BDFD7C7C3E1FFC8C3E2
:1023E600E2FF200EE66ECB51CC111AE0C96BCA6B28
:1023F600C951C725E96ECA51C821EA6EEE50200AB6
:1024060003E1C94BCA2BF4D7010EC95F000ECA5BA4
:10241600C951C725E16ECA51C821E26E2D0EE66E7E
:022426001200A2
:10242800140E0301C46FC4530AE0C3C3D4F3C4C376
:10243800D5F3200ED66F6EEC06F0C407F4D7120061
:10244800929892949292929096949296849480966E
:10245800310E0C6EB20E0D6E0D2EFED70C2EFCD763
:1024680000000301C36B030EC35D0FE2030EEC6FA4
:10247800FCEC00F0110E0C6E3A0E0D6E0D2EFED710
:102488000C2EFCD70000C32BEED7020EEC6FFCEC31
:1024980000F0EA6B280EEB6F47EC01F0110E0C6EA2
:1024A8003A0E0D6E0D2EFED70C2EFCD70000EA6BEF
:1024B8000C0EEB6F47EC01F0110E0C6E3A0E0D6E20
:1024C8000D2EFED70C2EFCD70000EA6B010EEB6F29
:1024D80047EC01F0110E0C6E3A0E0D6E0D2EFED764
:1024E8000C2EFCD70000EA6B060EEB6F47EC01F0F0
:1024F800110E0C6E3A0E0D6E0D2EFED70C2EFCD75B
:0425080000001200BD
:10250C000301946B956B966B976B986B9A6BAA6B9C
:10251C00C3C3BAF3C4C3BBF31FEC0BF0EC6BED6B92
:10252C00930EEE6F030EEF6F010EF06FBBEC00F02D
:10253C00010EEC6F000EED6FBC0EEE6F030EEF6F25
:0A254C00020EF06FBBEC00F012006D
:102556000301EA6BC3C3EBF347EC01F0070E0C6E05
:0E2566007D0E0D6E0D2EFED70C2EFCD7120032
:10257400A1A22DD0A0A22BD0C80E0201EC25006E82
:10258400000EED21016E00C0ECF201C0EDF201017C
:102594001A2B258183A404D0050E1A5DD8B0839428
:1025A40083A604D0020E1A5DD8B08396222B050EA2
:1025B400225D08E3226B2481010E2627000E2723C7
:1025C4002823292391C3B3FF90C3B2FFA192120021
:1025D400A3A405D0A4A403D002014C81A494A3A66F
:1025E40005D0A4A603D002014C81A496A3A805D0CB
:0C25F400A4A803D002014C81A49812009E
:0A26000054EC0DF06AEC0DF012002E
:10260A009DAA3DD09EAA3BD002011AB135D0F90E3F
:10261A00E16E010EE26E1C51E126D8B0E22AAECF7D
:10262A00E6FFAE5019190DE11A81F90EE16E010E9D
:10263A00E26E1C51E126D8B0E22AE66A1C6B9E9A29
:10264A001ED01C51010F006E00C01CF21F0E1C157B
:10265A00006E00C01CF2005203E1010E016E01D0AF
:10266A00016A006A1BB1002A0150001200B002D0B0
:10267A001B9101D01B8102D0FF0EAE169E9A12004A
:10268A000900F5CFE6FF0006FBE10106F9E11200B9
:10269A00400ED36E0F0EC16E070EB46E95809588EC
:1026AA009494929A969095849586959E809A849011
:1026BA0083948396839E82940301C36BC46BD7EC85
:1026CA000BF000C0F7F1D0B203D0D082D086D0840C
:1026DA00400EC36F0D0EC46F030EC56F000EC66F9A
:1026EA00010EC76FC86BC96B22EC0BF0400EC36FAB
:1026FA000D0EC46F030EC56F000EC66F010EC76FB5
:10270A00010EC86FC96BE1EC0BF0800EC36F250E8A
:10271A00C46F000EC56F000EC66F41DC010EC36F99
:10272A00010EC46F0D0EC56FE3DDF5DD88DE0C0EFC
:10273A00C36F0CDF010EC36F09DFFF0EC36FFF0EFD
:10274A00C46FDFDEFE0EC36F000EC46F81EC0DF0A6
:10275A007F0E0B6ED40E0C6E310E0D6E0D2EFED743
:10276A000C2EFCD70B2EFAD700000000B6EC0FF0A7
:10277A00F40E0301C36F000EC46F770EC56F000E0F
:10278A00C66F800EC76F0C0EC86FA3EC0DF05A0E01
:10279A000301D46F320ED56F000ED66FADEC09F07F
:1027AA00BCC3C3F3BDC3C4F3000EC56FC66F780EB6
:1027BA00C76F030EC86FB2DD780EC36F030EC46F06
:1027CA0081EC0DF06D0EC36F000EC46F8C0EC56FD9
:1027DA00000EC66F800EC76F0C0EC86FA3EC0DF00B
:1027EA00FB0E0301D46F310ED56F000ED66FADEC20
:1027FA0009F0BCC3C3F3BDC3C4F3000EC56FC66FF3
:10280A00780EC76F030EC86F89DD780EC36F030E8B
:10281A00C46F81EC0DF0800EC36F000EC46F260EDC
:10282A00C56F000EC66FE80EC76F030EC86FA3EC24
:10283A000DF0BF0E0301D46F310ED56F000ED66FA7
:10284A00ADEC09F0BCC3C3F3BDC3C4F3000EC56F3E
:10285A00C66F780EC76F030EC86F60DD780EC36F40
:10286A00030EC46F81EC0DF01E0EC36F000EC46F11
:10287A00480EC56F000EC66F640EC76F000EC86F94
:10288A00A3EC0DF0B20E0301D46F320ED56F000E19
:10289A00D66FADEC09F0BCC3C3F3BDC3C4F3000EDD
:1028AA00C56FC66F780EC76F030EC86F37DD780E17
:1028BA00C36F030EC46F81EC0DF0400EC36F000EA0
:1028CA00C46FED0EC56F000EC66F050EC76F000E02
:1028DA00C86FA3EC0DF0C20E0301D46F320ED56F90
:1028EA00000ED66FADEC09F0BCC3C3F3BDC3C4F38D
:1028FA00000EC56FC66F780EC76F030EC86F0EDD68
:10290A00780EC36F030EC46F81EC0DF0C20EC36F55
:10291A00010EC46FCC0EC56F000EC66F640EC76F72
:10292A00000EC86FA3EC0DF00101F56BF66B800E7B
:10293A00F619006E800E005C02E1640EF55D15E288
:10294A00C20E0301D46F010ED56FE40ED66F010ECD
:10295A00D76FF20ED86F000ED96F010EDA6F93ECB3
:10296A0007F00101F54BF62BE2D7D30E0301D46F22
:10297A00310ED56F000ED66FADEC09F0BCC3C3F3B0
:10298A00BDC3C4F3000EC56FC66F780EC76F030EC2
:10299A00C86FC4DC780EC36F030EC46F81EC0DF0F0
:1029AA00D90EC36F010EC46F970EC56F000EC66FA6
:1029BA00640EC76F000EC86FA3EC0DF00101F56B32
:1029CA00F66B800EF619006E800E005C02E1640E52
:1029DA00F55D15E2D90E0301D46F010ED56FE40E31
:1029EA00D66F010ED76F950ED86F000ED96F010EF4
:1029FA00DA6F93EC07F00101F54BF62BE2D7E70EFD
:102A0A000301D46F310ED56F000ED66FADEC09F00D
:102A1A00BCC3C3F3BDC3C4F3000EC56FC66F780E43
:102A2A00C76F030EC86F7ADC780EC36F030EC46FCC
:102A3A0081EC0DF0C50EC36F000EC46FAD0EC56FED
:102A4A00000EC66F320EC76F000EC86FA3EC0DF0F2
:102A5A00010E0101F56F000EF66F800E006E800EFA
:102A6A00F619005C02E1F55132081BE3C50E0301B9
:102A7A00C36F000EC46FE40EC56F010EC66FF5C1B9
:102A8A00C7F3F6C1C8F3300EC96F000ECA6FCB6F19
:102A9A00CC6F010ECD6FF1EC10F00101F54BF62B66
:102AAA00DCD77F0E0301D46F320ED56F000ED66FBE
:102ABA00ADEC09F0BCC3C3F3BDC3C4F3000EC56FCC
:102ACA00C66F780EC76F030EC86F28DC780EC36F07
:102ADA00030EC46F81EC0DF0120EC36F010EC46FAA
:102AEA00640EC56F010EC66F320EC76F000EC86F37
:102AFA00A3EC0DF0010E0101F56F000EF66F800ECA
:102B0A00006E800EF619005C02E1F551320819E3F5
:102B1A00120E0301C36F010EC46F5F0EC56F010E63
:102B2A00C66FF5C1C7F3F6C1C8F3770EC96F010EB8
:102B3A00CA6F010ECB6F39EC10F00101F54BF62B81
:102B4A00DED7900E0301D46F320ED56F000ED66F0A
:102B5A00ADEC09F0BCC3C3F3BDC3C4F3000EC56F2B
:102B6A00C66F780EC76F030EC86F93EC11F0780E1C
:102B7A00C36F030EC46F81EC0DF06D0EC36F010EAF
:102B8A00C46F370EC56F010EC66F320EC76F000EC7
:102B9A00C86FA3EC0DF0010E0101F56F000EF66F80
:102BAA00800E006E800EF619005C02E1F5513208C3
:102BBA001BE36D0E0301C36F010EC46FE40EC56FF4
:102BCA00010EC66FF5C1C7F3F6C1C8F3300EC96F5F
:102BDA00000ECA6FCB6FCC6F010ECD6FF1EC10F007
:102BEA000101F54BF62BDCD7210E0301D46F320E0F
:102BFA00D56F000ED66FADEC09F0BCC3C3F3BDC3ED
:102C0A00C4F3000EC56FC66F780EC76F030EC86F88
:102C1A0093EC11F0780EC36F030EC46F81EC0DF0C4
:102C2A00310EC36F010EC46F570EC56F010EC66F0A
:102C3A00010EC76F000EC86FA3EC0DF0310E030131
:102C4A00C36F010EC46F510EC56F010EC66FFF0E22
:102C5A00C76FFF0EC86FC96BCA6BCB6BCC6B010E0B
:102C6A00CD6FF1EC10F0E00E0301D46F320ED56F88
:102C7A00000ED66FADEC09F0BCC3C3F3BDC3C4F3F9
:102C8A00000EC56FC66F780EC76F030EC86F93EC40
:102C9A0011F0780EC36F030EC46F81EC0DF0AC0E09
:102CAA00C36F010EC46FA30EC56F010EC66F010E6E
:102CBA00C76F000EC86FA3EC0DF0AC0E0301C36F13
:102CCA00010EC46FBB0EC56F010EC66FFF0EC76F34
:102CDA00FF0EC86FC96BCA6BCB6BCC6B010ECD6F85
:102CEA00F1EC10F06D0E0301D46F320ED56F000EA9
:102CFA00D66FADEC09F0BCC3C3F3BDC3C4F3000E79
:102D0A00C56FC66F780EC76F030EC86F93EC11F0CC
:102D1A00780EC36F030EC46F81EC0DF0B60EC36F4D
:102D2A00010EC46F870EC56F010EC66F010EC76F05
:102D3A00000EC86FA3EC0DF0B60E0301C36F010EAF
:102D4A00C46FBB0EC56F010EC66FFF0EC76FFF0EB5
:102D5A00C86FC96BCA6BCB6BCC6B010ECD6FF1EC34
:102D6A0010F0EE0E0301D46F320ED56F000ED66F3F
:102D7A00ADEC09F0BCC3C3F3BDC3C4F3000EC56F09
:102D8A00C66F780EC76F030EC86F93EC11F0780EFA
:102D9A00C36F030EC46F81EC0DF0780EC36F010E82
:102DAA00C46F960EC56F010EC66F010EC76F000E77
:102DBA00C86FA3EC0DF0780E0301C36F010EC46F48
:102DCA00780EC56F010EC66FFF0EC76FFF0EC86F74
:102DDA00840EC96F030ECA6F000ECB6FCC6F010E43
:102DEA00CD6FF1EC10F00E0E0301D46F320ED56FD9
:102DFA00000ED66FADEC09F0BCC3C3F3BDC3C4F378
:102E0A00000EC56FC66F780EC76F030EC86F93ECBE
:102E1A0011F0780EC36F030EC46F81EC0DF0900EA3
:102E2A00C36F010EC46F2A0EC56F010EC66F140E52
:102E3A00C76F000EC86FA3EC0DF0D20E0301D46F5A
:102E4A00320ED56F000ED66FADEC09F0BCC3C3F3DA
:102E5A00BDC3C4F3000EC56FC66F780EC76F030EED
:102E6A00C86F93EC11F0780EC36F030EC46F81EC38
:102E7A000DF0808A84808384470ED46F320ED56F1A
:102E8A00000ED66FEBEC06F0020EC36F010EC46F94
:102E9A00340EC56F320EC66F000EC76FAEEC0BF064
:102EAA00FFD703010D2EFDD70C2EFBD70B2EF9D71A
:102EBA0000000000010EC36F14EC12F0010EC36F84
:102ECA00060EC46FFB0EC56F320EC66F000EC76FBB
:102EDA00AEEC0BF0EE0EC36F020EC46F1B0EC56F85
:102EEA00010EC66FCDEC10F0010EC36FEE0EC46F6B
:102EFA00020EC56F5A0EC66F030EC76F6EEC0CF04A
:022F0A001200B3
:102F0C009EA223D09DA221D0050E03017627000E90
:102F1C007723130E775D02E1880E765D15E3766BF1
:102F2C00776B755311E075511A0A05E07551200A3B
:102F3C0002E0006A02D0010E006E005205E1756BD2
:0C2F4C00716B726B736B746B9E921200C1
:102F58009EA010D09DA00ED00101232B050E235D4D
:102F680004E3236B809A84909D902FC3CFFF2EC3D8
:062F7800CEFF9E90120046
:0C2F7E008BEC19F04DEC13F0FFD7FFD7DF
:102F8A0000C019F001C018F0156ED8CF16F0E0CFC6
:102F9A0017F0DDDFB6DFBAEC12F0EAEC12F01750E8
:102FAA00E06E1650D86E153A153819C000F018C0E0
:042FBA0001F0100012
:102FBE0000C01BF001C01AF0E1CF1CF0E2CF1DF0F3
:102FCE0000EC13F005EC13F01BC000F01AC001F07A
:0A2FDE001CC0E1FF1DC0E2FF11005E
:1033160010EE1EF0D70E006E020E016EE80EF66E6F
:0E3326002F0EF76E000EF86E45EC13F012003D
:082FE8005072657061676F0013
:102FF000696426340A766967656E63696126310AF9
:0A3000006573746174757326310066
:08300A00536F706F72746500D2
:10301200696426340A6E697026340A6573746174B1
:10302200757326310A646174652631330A73616CE3
:05303200646F2634006C
:0A3037005469636B6574455850003E
:093041007469636B6574263100AB
:0C304A0050656E73696F6E61646F7300F7
:093056007469636B657426310096
:02305F0030003F
:10306100726567697374726F2634300A65737461AF
:06307100747573263100A6
:103077006E697026340A646174652631330A657394
:083087007461747573263100B9
:07308F004B65794E697000EA
:10309600726567697374726F2634300A6D6F647572
:1030A6006C6F732632310A657374617475732631D9
:0130B6000019
:0530B7006964263400ED
:0230BC003000E2
:0A30BE005469636B657454505600AA
:1030C800496E696369616E646F207461626C6173D3
:0430D8002E2E2E006A
:0830DC004B6579446174650045
:0130E40000EB
:0730E500494E49525354000B
:0130EC0000E3
:0130ED0000E2
:0130EE0000E1
:0130EF0000E0
:0430F00000000000DC
:0730F4006E616D65263100DD
:0630FB00466F6C696F00D6
:10310100666F6C696F26340A646174652631330A0F
:0A3111006573746174757326310054
:06311B00746F74616C008A
:08312100746F74616C26340028
:05312900646174650003
:09312E00646174652631330A0066
:0A3137004B6579466F6C696F7300F9
:01314100008D
:0F31420074696D65546F6C6572616E63696100CD
:0931510065737461646F2631009E
:06315A004E6F646F73006C
:0D316000746F6C6572616E636961263200E8
:09316D0065737461646F26310082
:0A31760053696E63726F6E696100A9
:053180004375706F00B3
:0731850065737461646F00C3
:0B318C004576656E746F7343414E0082
:02319700310005
:083199006D6F64756C6F73002B
:0231A1003100FB
:0B31A3004576656E746F735443500056
:0831AE00657374617475730010
:0931B600726567697374726F00A1
:1031BF005461626C612070656E73696F6E61646FCC
:0431CF00733A20002F
:1031D3005461626C61206576656E746F7320636100
:0431E3006E3A200020
:1031E7005461626C61206576656E746F7320544319
:0431F700503A20002A
:1031FB005461626C61207469636B6574204558502F
:03320B003A200066
:10320E005461626C6120746F6C6572616E6369618A
:03321E003A200053
:103221005461626C61206B657920666F6C696F73A4
:033231003A200040
:103234004D454D4F5249412050524F4752414D4107
:0332440044410002
:103247004D454D4F5249412050524F4752414D41F4
:03325700444100EF
:10325A005461626C61207469636B657420545056C2
:03326A003A200007
:10326D005461626C612073796E63726F6E69613A3D
:02327D0020002F
:10327F005461626C61206B6579206E6970733A20BE
:01328F00003E
:103290005461626C61206B657920646174653A20C9
:0132A000002D
:1032A1002C205265676973747261646F20544350B6
:0132B100001C
:1032B2005461626C61207072657061676F3A2000C0
:1032C2005461626C6120736F706F7274653A200092
:0E32D2005461626C61206E6F646F733A20006D
:0E32E0005461626C6120666F6C696F3A200069
:0D32EE005461626C61206375706F3A2000BE
:0832FB005450562056616C008E
:073303002C2046543A200083
:05330A0046523A2000CC
:03330F000D0A00A4
:02331200560063
:023314002C008B
:020000040030CA
:0D000100020E1EFF8281FF00803FE03F40A5
:00000001FF
