:10000000DBEF79F00000000009EF7AF0000000005B
:0C0010000000000000000000EDEF79F09F
:0E001C00ACB202D00000FCD7FCCBADFF12004E
:10002A00FCCBC9FFC7B002D00000FCD7C9CF00F093
:02003A001200B2
:10003C00F250026EF29E0500FF6A0150FE6E0050F7
:08004C00FD6E02BEF28E1200EF
:10005400F6CBC9FFC7B002D00000FCD7C9CF00F06F
:02006400120088
:100066009E96F6CBC9FF88C1F7FB89C1F8FB8AC10A
:10007600F9FB8BC1FAFBC7A422D001018851891173
:100086008A118B111BE00B01F751F811F911FA11C6
:100096000EE18FC4E1FF90C4E2FF040EE66E8DC44C
:1000A60000F08EC401F0C7DF010E006E3BD0010EDA
:1000B6000B01F75F000EF85BF95BFA5BDCD788C1D2
:1000C600F7FB89C1F8FB8AC1F9FB8BC1FAFB9EB627
:1000D60022D00101885189118A118B111BE00B0175
:1000E600F751F811F911FA110EE18FC4E1FF90C42E
:1000F600E2FF040EE66E8DC400F08EC401F09BDFB5
:10010600010E006E0FD0010E0B01F75F000EF85BBB
:10011600F95BFA5BDCD7C5BC02D0006A03D0C584A4
:06012600020E006E120043
:10012C0088C1F8FB89C1F9FB8AC1FAFB8BC1FBFBC7
:10013C009E96C5869EB620D00101885189118A11E0
:10014C008B1119E00B01F851F911FA11FB110CE1AB
:10015C008FC4E1FF90C4E2FF030EE66E8DC400F085
:10016C008EC401F065DF08D0010E0B01F85F000EA4
:10017C00F95BFA5BFB5BDED70B01C9CFF7FBF651E2
:10018C00000A02E1C58A01D0C59A9E96C58888C12D
:10019C00F8FB89C1F9FB8AC1FAFB8BC1FBFB9EB64C
:1001AC0020D00101885189118A118B1119E00B01A2
:1001BC00F851F911FA11FB110CE18FC4E1FF90C455
:1001CC00E2FF030EE66E8DC400F08EC401F030DF4A
:1001DC0008D0010E0B01F85F000EF95BFA5BFB5BBC
:0801EC00DED7F7CB00F0120092
:1001F400016A080E015C16E20B01F3BF02D0819A7A
:1002040001D0818A81880000000000000000000005
:10021400F337F39181980000000000000000000013
:10022400012AE7D7938A00008188000000000000BB
:100234000000000081BA02D0019001D001808198B1
:0C024400939A000E01B0010E006E120033
:100250008292400E0B01F311006E93C4E1FF94C42F
:10026000E2FF00C0E6FF91C400F092C401F0E6DEB8
:1002700093C4E1FF94C4E2FFF4CBE6FF91C400F025
:1002800092C401F0DBDE93C4E1FF94C4E2FFF5CB3E
:10029000E6FF91C400F092C401F0D0DE8282120029
:1002A000938A938800000000000000000000939AE9
:1002B000819A0000000000000000000093988198DF
:0202C00012002A
:1002C2000B01F46B938A016A080E015C12E2F437A7
:1002D200F49181880000000000000000000081BA53
:1002E200F481819800000000000000000000012A53
:1002F200EBD7939AF3B102D0818A01D0819A0000A0
:100302008188000000000000000000008198F4CB0A
:0403120000F01200E5
:10031600939A819A00000000000000000000938874
:0E03260000000000000000000000938A12009A
:100334000B01F36BEBCBF4FBECCBF5FB87DF829289
:1003440093C4E1FF94C4E2FF3A0EE66E91C400F058
:1003540092C401F071DE93C4E1FF94C4E2FFE66A43
:0E03640091C400F092C401F067DE82821200A4
:10037200829293C4E1FF94C4E2FF7A0EE66E91C4C6
:1003820000F092C401F059DE93C4E1FF94C4E2FF8D
:10039200EBCBE6FF91C400F092C401F04EDE828204
:0203A200120047
:1003A4008292A00E0B01EB11006E93C4E1FF94C482
:1003B400E2FF00C0E6FF91C400F092C401F03CDE0D
:1003C40093C4E1FF94C4E2FFECCBE6FF91C400F0D8
:0A03D40092C401F031DE82821200B3
:1003DE000450085E0550D8A0053C095E0650D8A012
:1003EE00063C0A5E0750D8A0073C0B5E0336070E8C
:1003FE000C6E0334083609360A360B36045003A049
:10040E000ED0085E0550D8A0053C095E0650D8A057
:10041E00063C0A5E0750D8A0073C0B5E0DD008269E
:10042E000550D8B0053C09260650D8B0063C0A2621
:10043E000750D8B0073C0B2603360C2EDAD7023401
:10044E00083609360A360B36045003A00ED0085E65
:10045E000550D8A0053C095E0650D8A0063C0A5EA1
:10046E000750D8A0073C0B5E0DD008260550D8B01B
:10047E00053C09260650D8B0063C0A260750D8B0CF
:10048E00073C0B260236070E0C6E02340836093670
:10049E000A360B36045002A00ED0085E0550D8A0C6
:1004AE00053C095E0650D8A0063C0A5E0750D8A04F
:1004BE00073C0B5E0DD008260550D8B0053C09262A
:1004CE000650D8B0063C0A260750D8B0073C0B267B
:1004DE0002360C2EDAD70134083609360A360B36B8
:1004EE00045002A00ED0085E0550D8A0053C095E4F
:1004FE000650D8A0063C0A5E0750D8A0073C0B5EFB
:10050E000DD008260550D8B0053C09260650D8B0A7
:10051E00063C0A260750D8B0073C0B260136070EBC
:10052E000C6E0134083609360A360B36045001A01B
:10053E000ED0085E0550D8A0053C095E0650D8A026
:10054E00063C0A5E0750D8A0073C0B5E0DD008266D
:10055E000550D8B0053C09260650D8B0063C0A26F0
:10056E000750D8B0073C0B2601360C2EDAD70034D4
:10057E00083609360A360B36045001A00ED0085E36
:10058E000550D8A0053C095E0650D8A0063C0A5E70
:10059E000750D8A0073C0B5E0DD008260550D8B0EA
:1005AE00053C09260650D8B0063C0A260750D8B09E
:1005BE00073C0B260036070E0C6E00340836093643
:1005CE000A360B36045000A00ED0085E0550D8A097
:1005DE00053C095E0650D8A0063C0A5E0750D8A01E
:1005EE00073C0B5E0DD008260550D8B0053C0926F9
:1005FE000650D8B0063C0A260750D8B0073C0B264A
:10060E0000360C2EDAD700B00ED004500826055056
:10061E00D8B0053C09260650D8B0063C0A2607502D
:08062E00D8B0073C0B261200B6
:10063600EFCB00F00B01EF07005228E0EBCBE9FF10
:10064600ECCBEAFFEE50000A0CE0EBCBE9FFECCB7B
:10065600EAFFEDCBD9FFEECBDAFFEE50DE1801E173
:100666000FD0EBCBE9FFECCBEAFFEDCBD9FFEECB1E
:10067600DAFFDE50EE5C006E016A000E015A08D009
:100686000B01EB4BEC2BED4BEE2BD2D7006A016A3C
:02069600120050
:1006980003DEA00E0B01F36FA9DDECCBF3FBA6DDA7
:1006A800EBCBF3FBA3DDF8DDA10E0B01F36F9EDDB1
:1006B8000B01F06BEF05016E026A000E025A800E04
:1006C800006E800E0218005C02E10150F05D11E23C
:1006D800F051ED25F16F000EEE21F26F010EF36F70
:1006E800ECDDF1CBE1FFF2CBE2FF00C0E6FFF02B3F
:1006F800E1D7F051ED25F16F000EEE21F26FF36BAB
:10070800DCDDF1CBE1FFF2CBE2FF00C0E6FFFFDD6D
:020718001200CD
:10071A000B1E0A1E091E081E082AD8B4092AD8B4B4
:08072A000A2AD8B40B2A1200C0
:10073200020E0B01F36FEBCBF4FBECCBF5FB87DD89
:10074200829293C4E1FF94C4E2FF7A0EE66E91C4F2
:1007520000F092C401F071DC93C4E1FF94C4E2FFA3
:10076200EDCBE6FF91C400F092C401F066DC828218
:02077200120073
:10077400829293C4E1FF94C4E2FFEBCBE6FF91C401
:1007840000F092C401F058DC93C4E1FF94C4E2FF8A
:10079400E66A91C400F092C401F04EDC8282120039
:1007A4008292800E0B01EB11006E93C4E1FF94C49E
:1007B400E2FF00C0E6FF91C400F092C401F03CDC0B
:1007C40093C4E1FF94C4E2FFECCBE6FF91C400F0D4
:0A07D40092C401F031DC82821200B1
:1007DE000B01E651E425E86FE751E521E96F010EC3
:1007EE00E85F000EE95B100EF36FE4CBF4FBE5CB94
:1007FE00F5FB27DD120E0B01F36FE8CBF4FBE9CB13
:10080E00F5FB1FDD1F0E0B01EB6F300EEC6FC3DF20
:10081E001F0E0B01EB6FA7DF00AA01D0F9D7120054
:10082E00829293C4E1FF94C4E2FF7A0EE66E91C405
:10083E0000F092C401F01EEC00F0E6CB00F0E7CB26
:10084E0001F0010E0B01E65F000EE75B0050011098
:10085E0014E093C4E1FF94C4E2FFE4CBE9FFE5CBDF
:10086E00EAFFEECFE6FF91C400F092C401F01EEC59
:0E087E0000F00B01E44BE52BE0D78282120064
:10088C00AE0E0B01EB6F190EEC6FED6B4CDFAE0E79
:10089C000B01E425006E190EE521016E00C0E4FB8E
:1008AC0001C0E5FB060EF36F00C0F4FB01C0F5FBC5
:1008BC00C9DC1F0E0B01EB6F800EEC6F6DDF1F0E92
:1008CC000B01EB6F800EEC6F67DD04019551050A8F
:1008DC0004E09551070A01E006D01C0E0B01EB6FEA
:1008EC000A0EEC6F59DD1F0E0B01EB6F080EEC6F4F
:1008FC0053DF04019551050A04E09551070A01E004
:10090C0080D00B01E96BEA6B1C0EEB6F2DDF0A0E2E
:10091C00001600520AE10B01E94BEA2B030EEA5DCB
:10092C0002E1E80EE95D01E2EFD70B011C0EEB6F63
:10093C001BDF00B208D0030E0B01EA5D02E1E80EEA
:10094C00E95D01E25DD00B011F0EEB6F080EEC6F41
:10095C0023DD040E0B01E425EB6F000EE521EC6F9B
:10096C00E3DC00C0E8FB0B01E66B100EE65D48E231
:10097C001C0EEB6FF9DE00A23FD00B01E8AB3CD0B4
:10098C001F0EEB6F800EEC6F07DF1F0E0B01EB6F72
:10099C00800EEC6F01DD1C0E0B01EB6F0A0EEC6F81
:1009AC00FBDC1F0E0B01EB6F080EEC6FF5DE0B0181
:1009BC00E96BEA6B1C0EEB6FD7DE0A0E00160052C9
:1009CC000AE10B01E94BEA2B030EEA5D02E1E80EAA
:1009DC00E95D01E2EFD70B011F0EEB6F080EEC6F18
:1009EC00DBDC040E0B01E425EB6F000EE521EC6F54
:1009FC009BDC00C0E8FB01D003D00B01E62BB5D784
:100A0C0007D00B011F0EEB6FAFDE00A601D0F9D79C
:100A1C001D0E0B01EB6FA8DE060E0016005203E054
:100A2C000B01E76B03D00B01010EE76FE7CB00F076
:020A3C001200A6
:100A3E00E4CBEBFBE5CBECFBE6CBEDFB73DEE7CBE0
:060A4E00EBFB90DC12003E
:100A54000450000A12E10550000A0FE10650000A92
:100A64000CE10750000A09E1FF0E006EFF0E016E53
:100A7400FF0E026E7F0E036E97D00C6A07BE0C2A1F
:100A84000D6A0B6A0A6A096A086A035002100110A7
:100A94000010D8B484D0035007180E6E0EBE0D1E7D
:100AA40007AE0BD0041E051E061E071E042AD8B46A
:100AB400052AD8B4062AD8B4072A03AE0BD0001EE0
:100AC400011E021E031E002AD8B4012AD8B4022A29
:100AD400D8B4032A035007100E6E0EBE1CD07DDC62
:100AE4000CBE36D00DAE5BD0001E011E021E031ECE
:100AF400002AD8B4012AD8B4022AD8B4032A081E7A
:100B0400091E0A1E0B1E082AD8B4092AD8B40A2AB8
:100B1400D8B40B2A44D007AE15D003BE0DD0035071
:100B24000B6E02500A6E0150096E0050086E036A83
:100B3400026A016A006AD6D7036A026A016A006A15
:100B4400002A000C031E021E011E001E0C8EC7D7B5
:100B5400082AD8B4092AD8B40A2AD8B40B2A0450CB
:100B6400085CD8A4BFD70550095CD8A4BBD70650ED
:100B74000A5CD8A4B7D707500B5CD8A4B3D70B6AC8
:100B84000A6A096A086A002AD8B4012AD8B4022A6F
:100B9400D8B4032A03AEA6D70E6A0E88FF0C0E6AD9
:0A0BA4000CA001D0B8DD000F120014
:100BAE00086A096A100E0C6E0134083609360450B4
:100BBE00085E0550D8A0053C095ED8B007D0045099
:100BCE0008260550D8B0053C0926D89000360136C7
:060BDE000C2EEAD7120004
:100BE400030E0901786F000E796F646B7C6B4D51B5
:100BF4007C5D35E278C9EBFB79C9ECFB540E0B0143
:100C0400ED6F090EEE6F100EEF6F44DDE4CBEBFBDE
:100C1400E5CBECFB540EED6F090EEE6F100EEF6F8B
:100C240008DD0050011001E11AD00F0E09017825EA
:100C34000B01EB6F000E090179210B01EC6FEB4BFB
:100C4400EC2B780EED6F090EEE6F020EEF6F22DDC6
:100C540009017C51010F006E00C07CF9C8D709015D
:100C64004D517C5D3FE278C97AF979C97BF9120E5E
:100C74007825006E000E7921016E00C07AF901C05A
:100C84007BF900C0EBFB01C0ECFB510E0B01ED6FD7
:100C9400090EEE6F020EEF6FFDDC020E09017A25DC
:100CA4000B01EB6F000E09017B210B01EC6F4F0E62
:100CB400ED6F090EEE6F020EEF6FECDC040E09010E
:100CC4007A250B01EB6F000E09017B210B01EC6F00
:100CD4004E0EED6F090EEE6F010EEF6FDBDC010EB1
:0C0CE400006E03D00901546B006A12007E
:100CF0000B6A0A6A096A00500402F4CF09F0F3CFC4
:100D000008F001500502F4CF0BF0F3CF0AF00050C9
:100D10000502F3500926F4500A22E86A0B2201501A
:100D20000402F3500926F4500A22E86A0B2208C094
:100D300000F009C001F00AC002F00BC003F012007D
:100D40000FEE83F0EF50EFCF00F0009C00C0EFFFFC
:020D500012008F
:100D52000FEE84F0EF50EFCF00F0009200C0EFFFF3
:020D620012007D
:100D6400829293C4E1FF94C4E2FF7A0EE66E91C4CA
:100D740000F092C401F01EEC00F093C4E1FF94C4AF
:100D8400E2FFD5CBE6FF91C400F092C401F01EEC63
:100D940000F093C4E1FF94C4E2FFD4CBE6FF91C416
:0E0DA40000F092C401F01EEC00F082821200FA
:100DB200220E0C6E086A096A0A6A0B6A0C06D8B41B
:100DC2001FD0D8900B320A32093208320332023273
:100DD20001320032D8A0F2D70C06D8B409D00450A0
:100DE20008260550092206500A2207500B22EAD78C
:100DF200045008260550092206500A2207500B22E9
:020E02001200DC
:060E0400000000001200D6
:100E0A000B01E16B010ED65F000ED75BDA530DE0E2
:100E1A00D751190802E1D651AD0807E2E12BAD0E10
:100E2A00D65DDF6F190ED759E06FE15305E0AD0EBD
:100E3A00DB6F190EDC6F04D0D6CBDBFBD7CBDCFB28
:100E4A00D551DC1902E1DB51D4190EE1D4CBEBFB0D
:100E5A00D5CBECFB9AEC01F000C0EDFBD8CBEBFB59
:100E6A00D9CBECFB61DC3AD0100E0B01F36FD4CB7B
:100E7A00F4FBD5CBF5FB28EC01F0120E0B01F36F56
:100E8A00E15305E0AD0EDD6F190EDE6F04D0D6CB4F
:100E9A00DDFBD7CBDEFBDDCBF4FBDECBF5FB28ECB1
:100EAA0001F0140E0B01F36FD8CBF4FBD9CBF5FB91
:100EBA0028EC01F01F0E0B01EB6F100EEC6FD2EC59
:100ECA0001F01F0E0B01EB6F200EEC6F66DC1F0E9C
:100EDA000B01EB6F4ADC00AA01D0F9D70B01E153F1
:100EEA001AE0D451D65D006ED551D759016EDF5143
:100EFA00005EE051015A004A012A0050D8270150E9
:100F0A00D923010EDF5DD66F000EE059D76FD46B7F
:080F1A00D56BE16B8AD71200D0
:100F2200086A080E0C6E003408360450085ED8B009
:0E0F320002D00826D89000360C2EF5D71200FB
:080F4000D4CB00F0003A1200CE
:100F48000B01DA51D825E16E000EDABFFF0ED92168
:100F5800E26EE66ADA070B01800EDA19006E800E7F
:100F6800000A005C41E3DA51D825DB6F000EDABFD6
:100F7800FF0ED921DC6F0A0E046E000E056E066E98
:100F8800076ED4CB00F0D5CB01F0D6CB02F0D7CB8F
:100F980003F05CDD08C000F009C001F00AC002F0EF
:100FA8000BC003F0300E0026DBCBE1FFDCCBE2FF09
:100FB80000C0E6FF0B01DA070A0E046E000E056E8C
:100FC800066E076ED4CB00F0D5CB01F0D6CB02F07D
:100FD800D7CB03F03BDD00C0D4FB01C0D5FB02C07A
:100FE800D6FB03C0D7FBB7D7D8CB00F0D9CB01F0DD
:020FF8001200E5
:100FFA00020E0B01F36FD4CBF4FBD5CBF5FB28EC37
:10100A0001F0829293C4E1FF94C4E2FF7A0EE66E85
:10101A0091C400F092C401F01EEC00F00B01D8510B
:10102A00D91118E093C4E1FF94C4E2FFD6CBE9FFDB
:10103A00D7CBEAFFEECFE6FF91C400F092C401F0ED
:10104A001EEC00F00B01D64BD72B010ED85F000E19
:08105A00D95BE4D78282120089
:10106200020E0B01D415016E0150000A05E01C0EA0
:10107200D86F000ED96F04D0140ED86F000ED96F3E
:10108200500EE06FE16B330E006E000E016ED5CB99
:1010920004F0000E056E2BDE860E0026090E0122DC
:1010A2002E0E0024E96E000E0120EA6EEECF01F052
:1010B200EECF02F0000E006E0250005C02E1015021
:1010C200000802E2080EE16F010ED415016E015014
:1010D200000AD8A4E181100ED415016E0150000A55
:1010E200D8A4E189020ED415016E0150000A03E072
:1010F200700EE06FE183040ED415016E0150000AF8
:10110200D8A4E185AF0EEB6F190EEC6F330E006EB3
:10111200000E016ED5CB04F0000E056EE8DD860EE2
:101122000026090E0122040E0024E96E000E0120A1
:10113200EA6EEECFEDFB99EC03F0330E006E000E7B
:10114200016ED5CB04F0000E056ED1DD860E0024B3
:101152000B01E46F090E0120E56F040EE427000E77
:10116200E523E44BE52B050EE66F000EE76F17EC67
:1011720004F0490EE46F070EE56F060EE66F000EEF
:10118200E76F17EC04F0080EEB6FB9EC01F00B01FE
:10119200EB6BB9EC01F0450E0B01EB6FB9EC01F012
:1011A2000B01EB6BB9EC01F0330E006E000E016E19
:1011B200D5CB04F0000E056E9ADD860E0026090ED0
:1011C20001222E0E0024D96E000E0120DA6EDE50AE
:1011D2000B01D825DA6FDE50D921DB6F140EDA2726
:1011E200000EDB23DBCBEBFBB9EC01F0DACBEBFB44
:1011F200B9EC01F0330E006E000E016ED5CB04F097
:10120200000E056E74DD860E0026090E0122200EE8
:101212000026000E0122010E0024E96E000E0120BC
:10122200EA6EEECFEBFBB9EC01F0330E006E000E6E
:10123200016ED5CB04F0000E056E59DD860E002638
:10124200090E0122200E00240B01E26F000E012084
:10125200E36FE2CBE9FFE3CBEAFFEECFEBFBB9ECC6
:1012620001F0E2CBE9FFE3CBEAFF010EEE24006ED0
:10127200000EEE20016EE2CBE1FFE3CBE2FF00C005
:10128200E6FF01C0E6FF400E0B01EB6FB9EC01F087
:101292000B01EB6BB9EC01F0800E0B01EB6FB9ECBB
:1012A20001F0060E0B01EB6FB9EC01F00B01EB6BD9
:1012B200B9EC01F00B01EB6BB9EC01F04F0E0B0135
:1012C200E46F070EE56F040EE66F000EE76F17EC92
:1012D20004F0330E006E000E016ED5CB04F0000E4A
:1012E200056E05DD860E0024E46F090E0120E56F10
:1012F200040EE66F000EE76F17EC04F0BD0EE46F0C
:10130200190EE56F140EE66F000EE76FEFEC03F0B7
:10131200160E0B01EB6FBAEC03F000C0E2FB170EE6
:101322000B01EB6FBAEC03F000C0E6FBC70E0B013A
:10133200E46F190EE56FE2CBE7FB1FEC05F0D10E6F
:101342000B01EB6F190EEC6F330E006E000E016E87
:10135200D5CB04F0000E056ECADC860E0026090EFF
:1013620001220C0E0026000E0122010E0024E96E5D
:10137200000E0120EA6EEECFEDFB99EC03F0330E86
:10138200006E000E016ED5CB04F0000E056EAFDCD0
:10139200860E0026090E01220C0E0024E96E000EB4
:1013A2000120EA6EEECFEBFBB9EC01F0330E006EDA
:1013B200000E016ED5CB04F0000E056E98DC860E91
:1013C2000026090E01220A0E0026000E0122010E3D
:1013D2000024E96E000E0120EA6EEECFEBFBB9ECC1
:1013E20001F0330E006E000E016ED5CB04F0000E3C
:1013F200056E7DDC860E0026090E01220A0E0024EF
:10140200E96E000E0120EA6EEECFEBFBB9EC01F0C3
:10141200330E006E000E016ED5CB04F0000E056E89
:1014220066DC860E0026090E0122160E0026000E2C
:101432000122030E0024E96E000E0120EA6EEECFB7
:10144200EBFBB9EC01F0330E006E000E016ED5CB52
:1014520004F0000E056E4BDC860E0026090E0122FA
:10146200160E0026000E0122020E0024E96E000E66
:101472000120EA6EEECFEBFBB9EC01F0330E006E09
:10148200000E016ED5CB04F0000E056E30DC860E28
:101492000026090E0122160E0026000E0122010E60
:1014A2000024E96E000E0120EA6EEECFEBFBB9ECF0
:1014B20001F0330E006E000E016ED5CB04F0000E6B
:1014C200056E15DC860E0026090E0122160E00247A
:1014D200E96E000E0120EA6EEECFEBFBB9EC01F0F3
:1014E200330E006E000E016ED5CB04F0000E056EB9
:1014F20078EC06F0860E0026090E01221A0E00264E
:10150200000E0122030E0024E96E000E0120EA6E95
:10151200EECFEBFBB9EC01F0330E006E000E016E64
:10152200D5CB04F0000E056E78EC06F0860E002690
:10153200090E01221A0E0026000E0122020E0024BC
:10154200E96E000E0120EA6EEECFEBFBB9EC01F082
:10155200330E006E000E016ED5CB04F0000E056E48
:1015620078EC06F0860E0026090E01221A0E0026DD
:10157200000E0122010E0024E96E000E0120EA6E27
:10158200EECFEBFBB9EC01F0330E006E000E016EF4
:10159200D5CB04F0000E056E78EC06F0860E002620
:1015A200090E01221A0E0024E96E000E0120EA6ED5
:1015B200EECFEBFBB9EC01F0E0CBEBFBB9EC01F0C9
:1015C200E1CBEBFBB9EC01F0330E006E000E016EC5
:1015D200D5CB04F0000E056E78EC06F0860E0026E0
:1015E200090E0122120E0026000E0122010E002415
:1015F200E96E000E0120EA6EEECFEBFBB9EC01F0D2
:10160200330E006E000E016ED5CB04F0000E056E97
:1016120078EC06F0860E0026090E0122120E002436
:10162200E96E000E0120EA6EEECFEBFBB9EC01F0A1
:101632000B01EB6BB9EC01F00B01EB6BB9EC01F0B8
:101642000B01EB6BB9EC01F00B01EB6BB9EC01F0A8
:10165200020E0B01D415016E0150000A51E0020E78
:10166200EB6FB9EC01F0040E0B01EB6FB9EC01F07A
:10167200330E006E000E016ED5CB04F0000E056E27
:1016820078EC06F0860E0026090E0122140E0026C2
:10169200000E0122010E0024E96E000E0120EA6E06
:1016A200EECFEBFBB9EC01F0330E006E000E016ED3
:1016B200D5CB04F0000E056E78EC06F0860E0026FF
:1016C200090E0122140E0024E96E000E0120EA6EBA
:1016D200EECFEBFBB9EC01F0010E0B01EB6FB9ECB5
:1016E20001F0010E0B01EB6FB9EC01F0040E0B01DE
:1016F200EB6FB9EC01F0020E0B01EB6FB9EC01F0EC
:10170200330E006E000E016ED5CB04F0000E056E96
:1017120078EC06F0860E0026090E01222E0E002419
:10172200E96E000E0120EA6EEECF01F0EECF02F07C
:10173200000E006E0250005C02E10150000861E2FE
:101742000B01DE6BDF6B330E006E000E016ED5CB2C
:1017520004F0000E056E78EC06F0860E0026090EE7
:1017620001222E0E0024D96E000E0120DA6EDECF89
:1017720001F0DECF02F00250DF5D02E10150DE5DDA
:1017820040E2330E006E000E016ED5CB04F0000E67
:10179200056E78EC06F0860E0024046E090E012018
:1017A200056E260E0424E96E000E0520EA6EDE5157
:1017B200EE24026EDF51EE20036E800E006E000EEC
:1017C200016E010E005E000E015A00500216015019
:1017D2000316310E0424E96E000E0520EA6EEECFE8
:1017E20000F0EECF01F002500024E96E0350012018
:1017F200EA6EEECFEBFBB9EC01F00B01DE4BDF2B17
:10180200A2D70B01D10ED825E26F190ED921E36FB1
:10181200330E006E000E016ED5CB04F0000E056E85
:1018220078EC06F0860E0026090E01222E0E002408
:10183200026E000E0120036E02C0D9FF03C0DAFF60
:10184200DE50E225006EDE50E321016E00C0D6FBC1
:1018520001C0D7FB02C0E9FF03C0EAFF010EEE148C
:10186200DC6FEECFDDFB000EDD1700C0EBFB01C02D
:10187200ECFBED6B99EC03F00B01DC51D625E46F28
:10188200DD51D721E56F4FC7E6FB50C7E7FB1FECE1
:1018920005F00B01DC51D625E46FDD51D721E56F50
:1018A200020EE427000EE52351C7E6FB52C7E7FB11
:1018B2001FEC05F00B01DC51D625E46FDD51D72179
:1018C200E56F040EE427000EE523330E006E000ED2
:1018D200016ED5CB04F0000E056E78EC06F0860E94
:1018E2000026090E012200C0E9FF01C0EAFFEECF87
:1018F200E6FB010E0024E96E000E0120EA6EEECF37
:10190200E7FB1FEC05F00B01DC51D625E46FDD513E
:10191200D721E56F060EE427000EE523330E006E95
:10192200000E016ED5CB04F0000E056E78EC06F0C9
:10193200860E0026090E0122020E0024E96E000E18
:101942000120EA6EEECFE6FB030E0024E96E000EE4
:101952000120EA6EEECFE7FB1FEC05F0080E0B014B
:10196200D625E46F000ED721E56FDC51E427DD5167
:10197200E523E66B060EE76F1FEC05F00A0E0B017E
:10198200D625E46F000ED721E56FDC51E427DD5147
:10199200E523330E006E000E016ED5CB04F0000E6F
:1019A200056E78EC06F0860E0026090E01222E0E38
:1019B2000024E96E000E0120EA6EEECF05F0EECFB4
:1019C20006F00550D825036E0650D921046E04C0D6
:1019D20000F0016A00C0E6FB0550D825E76F1FEC56
:1019E20005F0D10E0B01E46F190EE56F330E006E98
:1019F200000E016ED5CB04F0000E056E78EC06F0F9
:101A0200860E0026090E01222E0E0024D96E000E2B
:101A12000120DA6EDE50D825E66FDE50D921E76F5D
:101A22000C0EE627000EE723DC51E627DD51E72303
:101A3200EFEC03F0160E0B01EB6FBAEC03F000C0F3
:101A4200E2FB170E0B01EB6FBAEC03F000C0E6FBF2
:101A5200E10E0B01E46F190EE56FE2CBE7FB1FEC21
:101A620005F0220E0B01D825E46F000ED921E56F97
:101A7200330E006E000E016ED5CB04F0000E056E23
:101A820078EC06F0860E0026090E01222E0E0024A6
:101A9200D96E000E0120DA6EDE50E427DE50E52317
:061AA20046EC04F0120006
:101AA8000B01D86BD96BD4CBEBFBD5CBECFB540E2D
:101AB800ED6F090EEE6F100EEF6F1BEC03F0005088
:101AC80001100BE0D4CBE4FBD5CBE5FBF2EC05F041
:101AD800005203E1010E006EDCD0D6CBEBFBD7CB76
:101AE800ECFB640E0B01ED6F090EEE6F100EEF6F3D
:101AF8001BEC03F000500110D8B4CAD078C97AF9A9
:101B080079C97BF9120E09017825006E000E79213A
:101B1800016E00C07AF901C07BF900C0EBFB01C07F
:101B2800ECFB510E0B01ED6F090EEE6F020EEF6F1D
:101B38004CEC03F0020E09017A250B01EB6F000E45
:101B480009017B210B01EC6F4F0EED6F090EEE6F53
:101B5800020EEF6F4CEC03F0040E09017A250B011D
:101B6800EB6F000E09017B210B01EC6F4E0EED6F40
:101B7800090EEE6F010EEF6F4CEC03F0050E090134
:101B88007A250B01DA6F000E09017B210B01DB6F4F
:101B9800DACB7AF9DBCB7BF9DACBD8FBDBCBD9FB19
:101BA8004EC900F0000E016E110E046E000E056E97
:101BB80078EC06F00050DA25D86F0150DB21D96F98
:101BC80009017C6B4E517C5D57E27AC9EBFB7BC9FE
:101BD800ECFB640E0B01ED6F090EEE6F100EEF6F4C
:101BE8004CEC03F0100E09017A25006E000E7B21E3
:101BF800016E00C07AF901C07BF900C0EBFB01C09F
:101C0800ECFB530E0B01ED6F090EEE6F010EEF6F3B
:101C18004CEC03F0010E09017A25006E000E7B21C1
:101C2800016E00C07AF901C07BF9D6CBEBFBD7CBAC
:101C3800ECFB640E0B01ED6F090EEE6F100EEF6FEB
:101C48001BEC03F00050011001E116D053C900F05D
:101C5800000E016E4FC904F050C905F078EC06F08B
:101C680000500B01D8270150D92309017C51010FDD
:101C7800006E00C07CF9A6D709014E517C5D04E3D3
:101C8800646B020E006E05D0D8CB7AF9D9CB7BF9FC
:041C9800006A1200CC
:101C9C00D6CB04F0D7CB05F0D4CB02F0D5CB03F0E8
:101CAC00D8CB00F0D9CB01F0010E0B01D85F000EA0
:101CBC00D95B005001100FE004C0E9FF05C0EAFF3A
:101CCC0002C0E1FF03C0E2FFEECFE6FF024A032AA7
:101CDC00044A052AE5D7D4CB00F0D5CB01F012008D
:101CEC000B01D96B0B01D851D95D40E250EC01F0DE
:101CFC00A00EF36FFAEC00F0D5CBF3FBFAEC00F08E
:101D0C00D4CBF3FBFAEC00F00B01D851D95D1EE2F9
:101D1C00D951D625E96E000ED721EA6EEECFF3FB32
:101D2C00FAEC00F00B01D44BD52B3F0ED415016E01
:101D3C00D5CB02F0000E0216000E021802E1000EC6
:101D4C00011802E1D92B02D0D92BDED78BEC01F094
:101D5C000B0150EC01F0A00EF36FFAEC00F0005206
:0E1D6C0001E101D0F5D78BEC01F0BCD71200DD
:101D7A000B01D86B050ED85D0AE2D851D625E16E63
:101D8A00000ED721E26E200EE66ED82BF3D7D8517B
:101D9A00D625E16E000ED721E26EE66AD807D85141
:101DAA00D625D96F000ED721DA6F0A0E046E000EFF
:101DBA00056ED4CB00F0D5CB01F0D7EC05F008C006
:101DCA0000F009C001F0300E0026D9CBE1FFDACBD2
:101DDA00E2FF00C0E6FF0A0E046E000E056ED4CBC9
:101DEA0000F0D5CB01F0D7EC05F000C0D4FB01C060
:101DFA00D5FB000E011802E1000E001801E102D025
:061E0A00D807CDD712003D
:101E1000800E0B01DF19006E800ED719005C08E1FF
:101E2000D651DE5D05E1D551DD5D02E1D451DC5DC9
:101E300009E2D8CBD4FBD9CBD5FBDACBD6FBDBCBB5
:101E4000D7FB18D0800ED719006E800EDB19005C0E
:101E500008E1DA51D65D05E1D951D55D02E1D851ED
:101E6000D45D08E2DCCBD4FBDDCBD5FBDECBD6FBEF
:101E7000DFCBD7FBD4CB00F0D5CB01F0D6CB02F033
:061E8000D7CB03F01200B5
:101E8600C6CBD4FBC7CBD5FBC8CBD6FBC9CBD7FBC0
:101E960008DE00C0CFFB005203E0CFCB00F03ED0FF
:101EA6000B01CE510901535D03E2040E006E36D0DC
:101EB600800E0B01CB19006E800E005C02E1010E54
:101EC600CA5D28E3CB510901505D04E10B01CA51FB
:101ED60009014F5D1FE3010E0B01CA5D006E000E86
:101EE600CB59016E53C904F0000E056E78EC06F06E
:101EF600005009017A250B01D46F015009017B219D
:101F06000B01D56FCCCBD6FBCDCBD7FBCECBD8FB3D
:0E1F1600EADE03D0030E006E01D0006A120056
:101F24000A0E046EC6CB00F091EC07F000C0D4FB9F
:101F3400A0EC07F000C0C7FB0A0E046EC6CB00F08D
:101F440091EC07F008C000F00B01C751002600C057
:041F5400C6FB1200B6
:101F58000B01C96B030EC625E96E000EC721EA6E98
:101F6800EECFD4FB000ED56FD66FD76F000ED56FAE
:101F7800D66FD76F070EC625D86F000EC721D96F49
:101F8800C951D827000ED923010EDA6FA4EC07F047
:101F98000B01C92BC8530FE0070EC625006E000EB3
:101FA800C721016EC9510024E16E000E0120E26EC6
:101FB8002D0EE66EC92B020EC625E96E000EC7214E
:101FC800EA6EEECFD4FB000ED56FD66FD76F000E3A
:101FD800D56FD66FD76F070EC625D86F000EC721ED
:101FE800D96FC951D827000ED923020EDA6FA4EC95
:101FF80007F0020E0B01C927C8530FE0070EC625CC
:10200800006E000EC721016EC9510024E16E000E5A
:102018000120E26E3A0EE66EC92B010EC625E96E66
:10202800000EC721EA6EEECFD4FB000ED56FD66F37
:10203800D76F000ED56FD66FD76F070EC625D86F2E
:10204800000EC721D96FC951D827000ED923020E17
:10205800DA6FA4EC07F0020E0B01C927C8530FE092
:10206800070EC625006E000EC721016EC951002457
:10207800E16E000E0120E26E3A0EE66EC92BC6CB69
:10208800E9FFC7CBEAFFEECFD4FB000ED56FD66FC2
:10209800D76F000ED56FD66FD76F070EC625D86FCE
:1020A800000EC721D96FC951D827000ED923020EB7
:1020B800DA6FA4EC07F0020E0B01C927C8530FE032
:1020C800070EC625006E000EC721016EC9510024F7
:1020D800E16E000E0120E26E200EE66EC92B040EA2
:1020E800C625E96E000EC721EA6EEECFD4FB000EBE
:1020F800D56FD66FD76F000ED56FD66FD76F070E17
:10210800C625D86F000EC721D96FC951D827000E30
:10211800D923020EDA6FA4EC07F0020E0B01C927CF
:10212800C8530FE0070EC625006E000EC721016ECA
:10213800C9510024E16E000E0120E26E2F0EE66EFA
:10214800C92B050EC625E96E000EC721EA6EEECF33
:10215800D4FB000ED56FD66FD76F000ED56FD66F34
:10216800D76F070EC625D86F000EC721D96FC95182
:10217800D827000ED923020EDA6FA4EC07F0020E5E
:102188000B01C927C8530FE0070EC625006E000EC5
:10219800C721016EC9510024E16E000E0120E26ED4
:1021A8002F0EE66EC92B060EC625E96E000EC72156
:1021B800EA6EEECFD4FB000ED56FD66FD76F000E48
:1021C800D56FD66FD76F070EC625D86F000EC721FB
:1021D800D96FC951D827000ED923020EDA6FA4ECA3
:1021E80007F0020E0B01C925026E02C0C9FB070EDB
:1021F800C625006E000EC721016E02500024E16E54
:10220800000E0120E26EE66A070EC625006E000E7B
:06221800C721016E120057
:10221E000B01CB6BCC6BCB51C625E96E000EC721E3
:10222E00EA6EEE5202E0CB2BF6D7CC51C825F66EF5
:10223E00000EC921F76E000ECA21F86E0900F5CF07
:10224E0000F0005217E0CB51C625E16E000EC721FB
:10225E00E26ECC51C825F66E000EC921F76E000E47
:10226E00CA21F86E0900F5CF00F000C0E6FFCB2BB7
:10227E00CC2BDBD7CB51C625E16E000EC721E26E0B
:08228E00E66ACBCB00F0120060
:10229600C6CBD4FBC7CBD5FBC8CBD6FBC9CBD7FBAC
:1022A60000DC00C0CEFB005203E0CECB00F037D0FE
:1022B600800E0B01CB19006E800E005C02E1010E50
:1022C600CA5D29E3CB510901505D04E10B01CA51F6
:1022D60009014F5D20E3010E0B01CA5D006E000E81
:1022E600CB59016E53C904F0000E056E78EC06F06A
:1022F600005009017A250B01EB6F015009017B2182
:102306000B01EC6FCCCBEDFBCDCBEEFB53C9EFFB5A
:102316004CEC03F003D0030E006E01D0006A1200ED
:10232600A0EC06F0959C02EC07F002EC07F0968212
:1023360004016A9184B204D06AA101D001D0FAD70F
:1023460002EC07F002EC07F002EC07F002EC07F0F3
:1023560002EC07F002EC07F002EC07F002EC07F0E3
:0C236600958C02EC07F002EC07F012006E
:10237200010E0B01C96F000ECA6F800EC76F000EEF
:10238200C86FC751C8112FE002EC07F002EC07F04A
:1023920002EC07F002EC07F0A9EC06F0969202ECD0
:1023A20007F002EC07F0C751C615006E000EC81503
:1023B200016E0050011002E0958C03D0A0EC06F0F3
:1023C200959C02EC07F002EC07F0968204016A91F8
:1023D20084B204D06AA101D001D0FAD70B01C8336C
:1023E200C733C89FCED7C96BCA6B02EC07F002ECA9
:1023F20007F0A9EC06F0969202EC07F002EC07F067
:10240200958C02EC07F002EC07F002EC07F002EC0C
:1024120007F0968204016A9184B204D06AA101D0C5
:1024220001D0FAD70B01C96BCA6B02EC07F002ECC0
:1024320007F083BCC98102EC07F002EC07F002EC62
:1024420007F002EC07F002EC07F002EC07F002ECF6
:1024520007F002EC07F002EC07F002EC07F002ECE6
:1024620007F002EC07F002EC07F002EC07F002ECD6
:1024720007F002EC07F0A9EC06F09692A0EC06F049
:08248200959CC9CB00F012008B
:10248A00958C02EC07F002EC07F0968202EC07F05A
:10249A0002EC07F0A0EC06F0959C02EC07F002ECC7
:0A24AA0007F0A9EC06F0969212006C
:1024B400C6CBD4FBC7CBD5FBC8CBD6FBC9CBD7FB8C
:1024C40054EC0DF000C0CDFB005203E0CDCB00F086
:1024D40061D00B01CC510901535D03E2040E006E7F
:1024E40059D0010E5125006E000E5221016E00C01C
:1024F40051F901C052F951C9D4FB52C9D5FB000EA0
:102504000B01D66FD76F010ED86F000ED96FDA6F3B
:10251400DB6F4FC9DCFB50C9DDFB000EDE6FDF6FE4
:1025240075DC00C051F901C052F90F0E090178257C
:102534000B01D46F000E090179210B01D56F030E35
:10254400D427000ED523510ED66F090ED76F020E75
:10255400D86F76EC0EF0010E0901515D006E000E8D
:102564005259016E53C904F0000E056E78EC06F062
:1025740000507A250B01D46F015009017B210B0116
:10258400D56FCACBD6FBCBCBD7FBCCCBD8FB76EC69
:062594000EF0006A1200C7
:10259A000B01CA6BCB6BCC6BCD6BC96BC851C95DD8
:1025AA003FE2C951C625E96E000EC721EA6EEE5018
:1025BA00000A36E0CACB00F0CBCB01F0CCCB02F05C
:1025CA00CDCB03F00A0E046E000E056E066E076E82
:1025DA00D9EC06F000C0CAFB01C0CBFB02C0CCFBA1
:1025EA0003C0CDFBC951C625E96E000EC721EA6EAC
:1025FA00300EEE5C046E056A000E055A0450002483
:10260A00CA6F05500120CB6F000E05BEFF0E0220D7
:10261A00CC6F000E05BEFF0E0320CD6FC92BBED7AF
:10262A00CACB00F0CBCB01F0CCCB02F0CDCB03F080
:02263A0012008C
:10263C000B01C86BC851C625E96E000EC721EA6EA6
:10264C00EE50000A17E0C851C625E96E000EC721EE
:10265C00EA6E300EEE5C0AE3C851C625E96E000E38
:10266C00C721EA6EEE50390801E302D0006A09D0A6
:10267C00C82BE0D7C851000A03E0010E006E01D050
:04268C00006A1200CE
:102690000B01CC6BCD6BC6CBCEFBC7CBCFFB800E7B
:1026A000C719006E800E005C02E1000EC65D0BE2F1
:1026B000010ECC6F000ECD6FC6510008CE6FC7CB98
:1026C000CFFB000ECF57CECBD4FBCFCBD5FBC8CBA7
:1026D000D6FBC9CBD7FBBDEC0EF0060ECA6F000EC1
:1026E000CB6F000E006ECB51005C02E1CA510008B6
:1026F00019E2CA51C825E16ECB51C921E26E010E23
:10270000CA5D006E000ECB59016E0050C825E96EFF
:102710000150C921EA6EEECFE6FF010ECA5F000E3E
:10272000CB5BDFD7C8CBE1FFC9CBE2FF200EE66E63
:10273000CC51CD111AE0CA6BCB6BCA51C825E96EDA
:10274000CB51C921EA6EEE50200A03E1CA4BCB2BD4
:10275000F4D7010ECA5F000ECB5BCA51C825E16EEB
:0C276000CB51C921E26E2D0EE66E120076
:10276C000B01C86BC851C625E96E000EC721EA6E75
:10277C00EE520DE0C851C625E96E000EC721EA6E77
:10278C00EECFADFFC82BACB201D0FDD7EBD712000A
:10279C000B01C86BC851C625E96E000EC721EA6E45
:0E27AC00EE5202E0C82BF6D7C8CB00F01200A8
:1027BA000B01C86BC851C625E96E000EC721EA6E27
:1027CA00EE520DE0C851C625E96E000EC721EA6E29
:1027DA00EECFADFFC82BACB201D0FDD7EBD70D0EB3
:1027EA00AD6EACB201D0FDD70A0EAD6EACB201D05F
:0427FA00FDD71200F5
:1027FE00AF0E0B01D46F190ED56FC6CBD6FBC7CB60
:10280E00D7FB060ED86F000ED96FFDEC07F0490E00
:10281E00E46F070EE56F060EE66F000EE76F17EC1E
:10282E0004F0000ED46F080ED56FB2EC06F01C0E3D
:10283E000B01CE25D16F000ECF21D26F000ED46FBB
:10284E00450ED56FB2EC06F0D1CBD4FBD2CBD5FB77
:10285E00B2EC06F085C4D4FB86C4D5FBB2EC06F010
:10286E000401854B862B0B01D46BD56BB2EC06F0B5
:10287E00110E0B01D46F800ED56FB2EC06F00B016A
:10288E00D46BD56BB2EC06F04F0E0B01E46F070E56
:10289E00E56F040EE66F000EE76F17EC04F0C8CB81
:1028AE00E4FBC9CBE5FB040EE66F000EE76F17ECF9
:1028BE0004F0080ECE25D16F000ECF21D26FCACBF9
:1028CE00D4FBCBCBD5FBB2EC06F0CCCBD4FBCDCB33
:1028DE00D5FBB2EC06F0D1CBD4FBD2CBD5FBB2EC10
:1028EE0006F00B01D46BD56BB2EC06F0BD0E0B01EE
:1028FE00E46F190EE56F140EE66F000EE76FEFEC46
:10290E0003F0160E0B01EB6FBAEC03F000C0D3FB15
:10291E00170E0B01EB6FBAEC03F000C0E6FBC70E0F
:10292E000B01E46F190EE56FD3CBE7FB1FEC05F03F
:10293E00010E0B01D115D06FD90ECE25EB6F190EEE
:10294E00CF21EC6FED6B99EC03F0C90E0B01D46F38
:10295E00190ED56FD10ED66F190ED76FD90ECE2593
:10296E00D86F190ECF21D96FD051D827000ED92389
:10297E00DA6B05EC07F0D90ECE25E46F190ECF21D8
:10298E00E56FD051E427000EE523080EE427000E74
:10299E00E523E66B110EE76F1FEC05F0D2CBEBFBD8
:1029AE00B9EC01F0D1CBEBFBB9EC01F0D10E0B0180
:1029BE00E46F190EE56F0C0ED125E66F000ED221D5
:1029CE00E76FD051E627000EE723EFEC03F0160E6B
:1029DE000B01EB6FBAEC03F000C0D3FB170E0B012B
:1029EE00EB6FBAEC03F000C0E6FBD70E0B01E46F01
:1029FE00190EE56FD3CBE7FB1FEC05F02A0E0B018A
:102A0E00CE25E46F000ECF21E56F46EC04F0000EEC
:042A1E00016E120033
:102A2200829293C4E1FF94C4E2FF7A0EE66E91C4EF
:102A320000F092C401F01EEC00F0C9CB00F0CACB4A
:102A420001F0010E0B01C95F000ECA5B00500110BC
:102A52001CE093C4E1FF94C4E2FFC6CBF6FFC7CBF0
:102A6200F7FFC8CBF8FF0900F5CF00F000C0E6FF82
:102A720091C400F092C401F01EEC00F0010E0B01B3
:0E2A8200C627000EC723C823D8D782821200B1
:102A9000C6CBD4FBC7CBD5FB4F0E0B01D66F070EB1
:102AA000D76F040ED86F000ED96F4EEC0EF0C86BC6
:102AB000C851030821E3C851C625026E000EC72184
:102AC000036E02C0E9FF03C0EAFFEECF01F0530E30
:102AD000E96E070EEA6EC851E926D8B0EA2AFF0E61
:102AE000EE18006E0150001202C0E1FF03C0E2FFC9
:0A2AF00000C0E6FFC82BDCD712007F
:102AFA00C6CB02F0C7CB03F002C000F003C001F05E
:102B0A00024A032A00C0E9FF01C0EAFFEE5201E0CF
:102B1A00F3D70B01C651025C006EC7510358016E10
:0A2B2A00010E005E000E015A1200B9
:102B3400C6CBD4FBC7CBD5FBC8CBD6FBC9CBD7FB05
:102B440054EC0DF000C0CEFB005203E0CECB00F0FD
:102B540046D0CCCBE1FFCDCBE2FFE66AE66AE66A7B
:102B6400E66A800E0B01CB19006E800E005C02E158
:102B7400010ECA5D30E3CB510901525D04E10B0142
:102B8400CA510901515D27E35351040820E3010EA2
:102B94000B01CA5D006E000ECB59016E53C904F0DF
:102BA400000E056E78EC06F0005009017A250B0141
:102BB400EB6F015009017B210B01EC6FCCCBEDFBDA
:102BC400CDCBEEFB53C9EFFB4CEC03F003D0060E68
:102BD400006E05D003D0030E006E01D0006A12000F
:102BE4000B01C751020AD8B497D0330E006E000E01
:102BF400016EC8CB04F0000E056E78EC06F0860E6C
:102C04000024066E090E0120076E2C0E0624E96EC0
:102C1400000E0720EA6E010EEE24026E000EEE2076
:102C2400036E800E006E000E016E010E005E000E3B
:102C3400015A00500214046E03500114056E04C0BE
:102C4400C9FB05C0CAFB280E0624D96E000E072056
:102C5400DA6EDECF01F0DECF02F00550021802E199
:102C64000150041819E1330E006E000E016EC8CB3A
:102C740004F0000E056E78EC06F0860E0026090EB0
:102C84000122300E0024E16E000E0120E26E010EDE
:102C9400E66E020E006EACD1330E006E000E016EB5
:102CA400C8CB04F0000E056E78EC06F0860E002406
:102CB400026E090E0120036E310E0224006E000E16
:102CC4000320016E2C0E0224D96E000E0320DA6E4E
:102CD40000C0E9FF01C0EAFFDE50EE24E16EDE50E1
:102CE400EE20E26EC6CBE6FF330E006E000E016EE0
:102CF400C8CB04F0000E056E78EC06F0860E0026B4
:102D0400090E01222C0E0024E16E000E0120E26E59
:102D1400C9CBE6FFCACBE6FFC7510008D8B066D1DD
:102D2400330E006E000E016EC8CB04F0000E056E6B
:102D340078EC06F0860E0026090E01222C0E0024E3
:102D4400E96E000E0120EA6EEECF03F0EECF04F040
:102D54002A0E0024D96E000E0120DA6EDECF01F0B7
:102D6400DECF02F00250045C02E10150035C25E274
:102D7400330E006E000E016EC8CB04F0000E056E1B
:102D840078EC06F0860E0026090E01222C0E002493
:102D9400E96E000E0120EA6E800EEE24C96F000E6B
:102DA400EE20CA6F2A0E0024D96E000E0120DA6EBE
:102DB400DE50C95FDE50CA5B20D0330E006E000EB9
:102DC400016EC8CB04F0000E056E78EC06F0860E9A
:102DD4000026090E01222C0E0024E96E000E0120AB
:102DE400EA6E2A0E0024D96E000E0120DA6EDE503F
:102DF400EE5CC96FDE50EE58CA6F330E006E000EE3
:102E0400016EC8CB04F0000E056E78EC06F0860E59
:102E14000026090E0122100E0024D96E000E012096
:102E2400DA6EDECF01F0DECF02F0CA51025C02E1BD
:102E3400C951015C18E2330E006E000E016EC8CB5E
:102E440004F0000E056E78EC06F0860E0026090EDE
:102E54000122100E0024E96E000E0120EA6EEECF6E
:102E6400C9FBEECFCAFB330E006E000E016EC8CB59
:102E740004F0000E056E78EC06F0860E0026090EAE
:102E840001222E0E0024E16E000E0120E26EC9CB59
:102E9400E6FFCACBE6FF330E006E000E016EC8CB10
:102EA40004F0000E056E78EC06F0860E0026090E7E
:102EB4000122260E0024E16E000E0120E26E2A0E8D
:102EC4000024E96E000E0120EA6EEECFE6FFEECF9D
:102ED400E6FF330E006E000E016EC8CB04F0000E48
:102EE400056E78EC06F0860E0026090E01222A0EE5
:102EF4000024046E000E0120056E04C0E9FF05C025
:102F0400EAFFC951EE24026ECA51EE20036E800E10
:102F1400006E000E016E010E005E000E015A02509A
:102F240000160350011604C0E1FF05C0E2FF00C013
:102F3400E6FF01C0E6FF330E006E000E016EC8CB43
:102F440004F0000E056E78EC06F0860E0026090EDD
:102F540001222A0E0024E96E000E0120EA6EEECF53
:102F640003F0EECF04F02C0E0024D96E000E0120E5
:102F7400DA6EDECF01F0DECF02F00450021802E177
:102F84000150031816E0330E006E000E016EC8CB1C
:102F940004F0000E056E78EC06F0860E0026090E8D
:102FA4000122300E0024E16E000E0120E26E010EBB
:102FB400E66E330E006E000E016EC8CB04F0000EF8
:102FC400056E78EC06F0860E0026090E01221F0E0F
:102FD4000024E16E000E0120E26E030EE66E100E78
:102FE400D46FC8CBD5FB31EC08F002D0030E006ED1
:022FF4001200C9
:102FF600CACB01F0CBCB02F0010E0B01CA5F000E6B
:10300600CB5B000E021802E1000E01181FE0C6CBD2
:10301600E9FFC7CBEAFFC8CBD9FFC9CBDAFFEE5031
:10302600DE180FE0C6CBE9FFC7CBEAFFC8CBD9FF56
:10303600C9CBDAFFDE50EE5C006E016A000E015A63
:1030460007D0C64BC72BC84BC92BD2D7006A016A1B
:02305600120066
:103058000B01C951FF0A02E1FF0EC81907E0F36B23
:10306800C8CBF4FBC9CBF5FB28EC01F0829293C4E2
:10307800E1FF94C4E2FF3A0EE66E91C400F092C4F8
:1030880001F01EEC00F0CACB00F0CBCB01F0010E32
:103098000B01CA5F000ECB5B0050011015E093C412
:1030A800E1FF94C4E2FFE66A91C400F092C401F023
:1030B8001EEC00F0C6CBE1FFC7CBE2FF00C0E6FF85
:0C30C8000B01C64BC72BDFD78282120021
:1030D400829293C4E1FF94C4E2FF3A0EE66E91C477
:1030E40000F092C401F01EEC00F093C4E1FF94C41C
:1030F400E2FFE66A91C400F092C401F01EEC00F015
:0431040082821200B1
:10310800C6CBD4FBA0EC07F00F0E00160A0E000287
:10311800F3CF01F00F0E0B01C615006E015000260B
:0631280000C0C6FB12000E
:10312E000B01C86BC96B800ECA6F000ECB6FCA51F4
:10313E00CB1125E002EC07F002EC07F0958C02ECC7
:10314E0007F002EC07F0968204016A9184B204D073
:10315E006AA101D001D0FAD783AC05D00B01CA51B8
:10316E00C813CB51C9130B0102EC07F002EC07F0A8
:10317E00A9EC06F09692CB33CA33CB9FD8D7958C59
:10318E0002EC07F002EC07F0C651C71103E0A0EC09
:10319E0006F0959C02EC07F002EC07F09682040113
:1031AE006A9184B204D06AA101D001D0FAD702ECA0
:1031BE0007F002EC07F0A9EC06F0969202EC07F08D
:1031CE0002EC07F0A0EC06F0959CC8CB00F01200C4
:1031DE00B8CB02F0B9CB03F0BBCB00F0BCCB01F007
:1031EE00010E0B01BB5F000EBC5B0050011009E02D
:1031FE0002C0E1FF03C0E2FFBACBE6FF024A032A98
:0C320E00EBD7B8CB00F0B9CB01F01200F8
:10321A000B01BC6BBD6BBC51B825E96E000EB92120
:10322A00EA6EEE5202E0BC2BF6D7BD51BA25E96E22
:10323A00000EBB21EA6EEE5211E0BC51B825E16ED8
:10324A00000EB921E26EBD51BA25E96E000EBB210E
:10325A00EA6EEECFE6FFBC2BBD2BE7D7BC51B825F3
:10326A00E16E000EB921E26EE66ABCCB00F01200F4
:10327A000B01BF6BBECB00F0BE070052D8B490D092
:10328A00BF51BC25C06F000EBD21C16FB80EE96EDB
:10329A000B0EEA6EBE51E926D8B0EA2AEECFD4FB6D
:1032AA00A0EC07F00F0E0016C0CBE1FFC1CBE2FF86
:1032BA0000C0E6FFBF51BC25E96E000EBD21EA6ED3
:1032CA000A0EEE5C14E2BF51BC25016E000EBD2150
:1032DA00026E01C0E9FF02C0EAFF300EEE24006E62
:1032EA0001C0E1FF02C0E2FF00C0E6FF13D0BF51F8
:1032FA00BC25016E000EBD21026E01C0E9FF02C0AD
:10330A00EAFF370EEE24006E01C0E1FF02C0E2FFC1
:10331A0000C0E6FFBF2BBF51BC25E16E000EBD21E8
:10332A00E26EB80EE96E0B0EEA6EBE51E926D8B00F
:10333A00EA2A0F0EEE14006E00C0E6FFBF51BC254C
:10334A00E96E000EBD21EA6E0A0EEE5C14E2BF5170
:10335A00BC25016E000EBD21026E01C0E9FF02C04C
:10336A00EAFF300EEE24006E01C0E1FF02C0E2FF68
:10337A0000C0E6FF13D0BF51BC25016E000EBD216F
:10338A00026E01C0E9FF02C0EAFF370EEE24006EAA
:10339A0001C0E1FF02C0E2FF00C0E6FFBF2B6AD70F
:1033AA00BF51BC25E16E000EBD21E26EE66ABCCBC0
:0833BA0000F0BDCB01F0120090
:1033C200530E0B01D46F070ED56FB8CBD6FBB9CB1A
:1033D200D7FB040ED86F000ED96F4EEC0EF0960E8E
:1033E200D46F040ED56FBACBD6FBBBCBD7FB040E82
:1033F200D86F000ED96F4EEC0EF0500ED46F040E43
:10340200D56FBCCBD6FBBDCBD7FB040ED86F000E5D
:10341200D96F4EEC0EF0570EC66F070EC76F48EC11
:0434220015F012008F
:103426000B01BA6B3C0E04016D6F000E6E6F6F6F71
:10343600706F4DDE00C0B8FB0050020AD8A419D147
:103446000B01B96B0F0EB95D04E241DE0B01B92B1E
:10345600F9D7750EC66F040EC76FFF0EC86FFF0E45
:10346600C96F040ECA6F000ECB6FF3DDB96B080E81
:10347600B95D04E22CDE0B01B92BF9D7B96B060E48
:10348600B95D12E224DE00C0B8FB490ED96E070E04
:10349600DA6E0B01B951D926D8B0DA2A0050DE18F7
:1034A60001E012D1B92BEBD7B96BCE0EB95D04E2B0
:1034B6000EDE0B01B92BF9D7BB6B09DE00C0B8FBDA
:1034C600B9D005DE00C0B8FB0050010A04E1FFDDFB
:1034D60000C0BAFB01D0F8D0C8D0F9DD00C0B8FBF7
:1034E6000050040A0FE1810E0B01C66F040EC76F70
:1034F600FF0EC86FFF0EC96F040ECA6F000ECB6FAA
:10350600A8DD01D0E1D0B1D0E2DD00C0B8FB040EE9
:10351600005C0FE37D0E0B01C66F040EC76FFF0E36
:10352600C86FFF0EC96F040ECA6F000ECB6F91DD18
:1035360001D0CAD00B01040EB85F0B01B8CB00F066
:10354600B807005202E0C3DDF8D78FD0C0DD00C057
:10355600B8FB040E005C0FE3790E0B01C66F040E78
:10356600C76FFF0EC86FFF0EC96F040ECA6F000E3D
:10357600CB6F6FDD01D0A8D00B01040EB85F0B0135
:10358600B8CB00F0B807005202E0A1DDF8D76DD045
:103596009EDD00C0B8FB0050040A0FE1BC0E0B0113
:1035A600C66F0B0EC76FFF0EC86FFF0EC96F040EF6
:1035B600CA6F000ECB6F4DDD01D086D056D00B0101
:1035C600010EBB6F52D083DD00C0B8FB0050040A69
:1035D60023E16D0E0B01C66F040EC76FFF0EC86F99
:1035E600FF0EC96F040ECA6F000ECB6F32DD0401E9
:1035F6007051000808E16F51000805E16E51070897
:1036060002E16D51080807E2080E6D5F070E6E5B5A
:10361600000E6F5B705B01D057D027D058DD00C01D
:10362600B8FBB8CB00F00B01B807005202E04FDD43
:10363600F8D71BD00B01B851350AD8B442D7B851C8
:10364600010AD8B44AD7B851030AD8B45DD7B851DD
:10365600060AD8B47BD7B851360A9AE0B851FF0AA1
:10366600AEE0B851330AAFE0D9D70B01BB53D8B49B
:1036760024D70B01BA51020A0FE1660ED46F040E6D
:10368600D56FBC0ED66F0B0ED76F040ED86F000E1B
:10369600D96F4EEC0EF015D0660EC66F040EC76FCE
:1036A600BC0EC86F0B0EC96F040ECA6F000ECB6F2F
:1036B6009FDC000E011802E1000E001802E00B016B
:0C36C600BA6BBACB00F001D0006A120011
:1036D2000B01BD6BBD51BA25F66E000EBB21F76E14
:1036E200000EBC21F86E0900F5CF00F0005216E082
:1036F200BD51B825E16E000EB921E26EBD51BA2569
:10370200F66E000EBB21F76E000EBC21F86E0900AA
:10371200F5CF00F000C0E6FFBD2BDCD7BD51B825C8
:10372200E16E000EB921E26EE66ABDCB00F0120036
:103732000B01BB6B030EBB5D0AE2BB51B925E16E07
:10374200000EBA21E26E200EE66EBB2BF3D7BB5100
:10375200B925E16E000EBA21E26EE66ABB07BB51E3
:10376200B925BC6F000EBA21BD6F0A0E046EB8CB2C
:1037720000F091EC07F008C000F0300E0026BCCB40
:10378200E1FFBDCBE2FF00C0E6FF0A0E046EB8CB3C
:1037920000F091EC07F000C0B8FB0050000A01E114
:0837A20002D0BB07DCD71200C6
:1037AA00B8CBD4FBB9CBD5FBBACBD6FBBBCBD7FBBB
:1037BA0054EC0DF000C0C0FB005203E0C0CB00F097
:1037CA0037D0800E0B01BD19006E800E005C02E13D
:1037DA00010EBC5D29E3BD510901525D04E10B01F3
:1037EA00BC510901515D20E3010E0B01BC5D006E65
:1037FA00000EBD59016E53C904F0000E056E78EC37
:10380A0006F0005009017A250B01EB6F01500901FE
:10381A007B210B01EC6FBECBEDFBBFCBEEFB53C99B
:10382A00EFFB4CEC03F003D0030E006E01D0006AEC
:02383A0012007A
:10383C00B8CBD4FBB9CBD5FBBACBD6FBBBCBD7FB28
:10384C0054EC0DF000C0C3FB005203E0C3CB00F0FE
:10385C008AD053C97CF909015351040803E2060EBE
:10386C00006E81D00B01C25347E009015051525DEB
:10387C0002E14F51515D3CE251C900F052C901F0D7
:10388C0053C904F0000E056E78EC06F000507A2552
:10389C000B01D46F015009017B210B01D56FBE0EBA
:1038AC00D66F0B0ED76F7CC9D8FB76EC0EF0010EE1
:1038BC0009015125006E000E5221016E00C051F914
:1038CC0001C052F90F0E78250B01D46F000E0901BF
:1038DC0079210B01D56F030ED427000ED523510E81
:1038EC00D66F090ED76F020ED86F76EC0EF003D0A0
:1038FC00050E006E38D036D0800E0B01BD19006E4F
:10390C00800E005C02E1010EBC5D29E3BD51090192
:10391C00525D04E10B01BC510901515D20E3010E24
:10392C000B01BC5D006E000EBD59016E53C904F055
:10393C00000E056E78EC06F0005009017A250B019B
:10394C00D46F015009017B210B01D56FBE0ED66FD0
:10395C000B0ED76F7CC9D8FB76EC0EF003D0030EA0
:08396C00006E01D0006A120098
:10397400F90E0B01BB6F000EBC6F020EF36FD90E74
:10398400F46F190EF56F28EC01F0590E0B01C66F98
:10399400F80EC76F000EC86F0C0EC96F000ECA6F09
:1039A40011EC15F0B851030A0DE1B9530BE0750E93
:1039B400E46F040EE56F040EE66F000EE76F17EC7C
:1039C40004F00AD0BA6B040EBA5D06E2EB6BB9ECF4
:1039D40001F00B01BA2BF7D7BA6B0C0EBA5D06E2F5
:1039E400EB6BB9EC01F00B01BA2BF7D7490EE46F7E
:1039F400070EE56F060EE66F000EE76F17EC04F096
:103A0400BA6BCA0EBA5D06E2EB6BB9EC01F00B01BE
:103A1400BA2BF7D7EF0EC66FF80EC76F000EC86F3C
:103A2400060EC96F000ECA6F11EC15F0B8CBEBFB94
:103A3400B9EC01F00B01B851030A1AE1B95318E1CA
:103A4400360EEB6FB9EC01F0040E0B01EB6FB9EC21
:103A540001F0660E0B01E46F040EE56F040EE66FD1
:103A6400000EE76F17EC04F0060EBB27000EBC2314
:103A7400F50EC66FF80EC76F000EC86F050EC96F3E
:103A8400000ECA6F11EC15F0B851030A23E1B953C3
:103A940021E1320EEB6FB9EC01F0040E0B01EB6F78
:103AA400B9EC01F00B01BA6B040EBA5D0FE2750EAE
:103AB400E96E040EEA6EBA51E926D8B0EA2AEECFCE
:103AC400EBFBB9EC01F00B01BA2BEED7060EBB27CA
:103AD400000EBC23FF0EEB6FB9EC01F05C0E0B0182
:103AE400C66F020EC76F5C0EC86F020EC96F440E1C
:103AF400CA6F000ECB6F430ECC6F000ECD6FBBCBE5
:0C3B0400CEFBBCCBCFFBFFEC13F012009B
:103B10000B01B853D8B48AD009014C530DE1B9CB8D
:103B2000C6FBBACBC7FB8A0E0B01C86FF90EC96F73
:103B3000000ECA6F0FEC11F0B9CBC6FBBACBC7FBB6
:103B40007DEC15F00050010FCC6FB80EC66F030E60
:103B5000C76F960EC86F030EC96FB9CBCAFBBACB3D
:103B6000CBFB5AEC12F0B80E0B01C66F030EC76FF9
:103B70009F0EC86F030EC96F51C9CAFB52C9CBFB58
:103B8000BD0ECC6F0B0ECD6F4BEC11F00B01BD5188
:103B9000310A03E00901044B052BB80E0B01C66F77
:103BA000030EC76F9F0EC86F030EC96F51C9CAFBC2
:103BB00052C9CBFB190ECC6F030ECD6F010ECE6F29
:103BC00043EC0FF0330E0B01C66F030EC76FB6EC5C
:103BD00013F051C9C6FB52C9C7FB6E0EC86F080E61
:103BE000C96F48EC13F06E0EC66F080EC76FB6ECC7
:103BF00013F01B0EC66F030EC76FB6EC13F004C9AB
:103C0000C6FB05C9C7FB6E0EC86F080EC96F48EC2E
:103C100013F06E0EC66F080EC76FB6EC13F0220ECF
:103C2000C66F030EC76FDDEC13F061D0B9CBC6FBD6
:103C3000BACBC7FBCEEC13F00050010FCC6F380E9F
:103C4000C66F030EC76F960EC86F030EC96FB9CB50
:103C5000CAFBBACBCBFB5AEC12F0380E0B01C66F85
:103C6000030EC76F9F0EC86F030EC96F51C9CAFB01
:103C700052C9CBFBBD0ECC6F0B0ECD6F4BEC11F0D0
:103C80000B01BD51310A03E008016C4B6D2B380E5E
:103C90000B01C66F030EC76F9F0EC86F030EC96F6F
:103CA00051C9CAFB52C9CBFB0C0ECC6F030ECD6FB2
:103CB000010ECE6F43EC0FF0BBCBC6FBBCCBC7FBFA
:103CC000CEEC13F00050010FCE6F380EC66F030E0E
:103CD000C76F0E0EC86F030EC96F51C9CAFB52C918
:103CE000CBFBBBCBCCFBBCCBCDFB43EC0FF0120032
:103CF0000B01BB6BBB51B825E96E000EB921EA6E12
:103D0000EE5202E0BB2BF6D7BB51B825E16E000E98
:103D1000B921E26EBACBE6FFBB2BBB51B825E16EF1
:0E3D2000000EB921E26EE66ABBCB00F0120085
:103D2E000B01BC6BBC51BA25E96E000EBB21EA6ECD
:103D3E00EE5210E0BC51B825E16E000EB921E26ED4
:103D4E00BC51BA25E96E000EBB21EA6EEECFE6FF3E
:103D5E00BC2BE8D7BC51B825E16E000EB921E26E3E
:083D6E00E66ABCCB00F0120074
:103D7600026A0B01BD51025C19E20250B825F66ECB
:103D8600000EB921F76E000EBA21F86E0900F5CFC4
:103D960001F00250BB25D96E000EBC21DA6E01502F
:103DA600DE1802E0006A04D0022AE3D7010E006E94
:023DB6001200F9
:103DB800016A0B01BC51015C18E20150BA25E96E99
:103DC800000EBB21EA6EEE5210E00150B825E16EFC
:103DD800000EB921E26E0150BA25E96E000EBB2132
:103DE800EA6EEECFE6FF012AE4D70150B825E16E6E
:0E3DF800000EB921E26EE66A01C000F0120072
:103E0600B8CBE4FBB9CBE5FBF2EC05F0005255E08C
:103E1600C0CBE1FFC1CBE2FF010EE66E000EE66EFF
:103E2600C0CBE9FFC1CBEAFFEECF01F0EECF02F047
:103E360002500901525D02E10150515D3BE3B8CBEE
:103E4600C6FBB9CBC7FBBACBC8FBBBCBC9FBC0CB48
:103E5600E9FFC1CBEAFFEECFCAFBEECFCBFBC20E2A
:103E66000B01CC6F0B0ECD6F9AEC15F000520FE1E3
:103E76000B01BF51C51908E1BE51C41905E1BD5179
:103E8600C31902E1BC51C21902E1006A18D0C0CBC5
:103E9600E9FFC1CBEAFFEECF00F0EECF01F0004A1A
:103EA600012AC0CBE1FFC1CBE2FF00C0E6FF01C0A3
:103EB600E6FFB6D7030E006E02D0010E006E1200AA
:103EC600B8CBC6FBB9CBC7FB7DEC15F0010E005E87
:103ED600000E015A00C0BBFBBC6BBD6BBE6BBF6B5B
:103EE600BA6B080EBA5DD8B0D1D0BA51B825E96E12
:103EF600000EB921EA6EEE52D8B4C8D0BA51B82530
:103F0600E96E000EB921EA6E300EEE5C2BE3BA5173
:103F1600B825E96E000EB921EA6EEE50390822E3A3
:103F2600BBCB00F00032009EBC0E016E0B0E026E83
:103F360000500126D8B0022ABA51B825E96E000E03
:103F4600B921EA6E300EEE5C006E01C0E9FF02C0D8
:103F5600EAFFEE50001201C0E1FF02C0E2FF00C01E
:103F6600E6FF6DD0BA51B825E96E000EB921EA6EAA
:103F7600610EEE5C2DE3BA51B825E96E000EB9214B
:103F8600EA6EEE50660824E3BBCB00F00032009EDA
:103F9600BC0E016E0B0E026E00500126D8B0022A2E
:103FA600BA51B825E96E000EB921EA6E610EEE5CD3
:103FB600006E0A0E002601C0E9FF02C0EAFFEE50BD
:103FC600001201C0E1FF02C0E2FF00C0E6FF37D0E9
:103FD600BA51B825E96E000EB921EA6E410EEE5CC3
:103FE6002DE3BA51B825E96E000EB921EA6EEE50FE
:103FF600460824E3BBCB00F00032009EBC0E016EE7
:104006000B0E026E00500126D8B0022ABA51B8250E
:10401600E96E000EB921EA6E410EEE5C006E0A0EE4
:10402600002601C0E9FF02C0EAFFEE50001201C0FF
:10403600E1FF02C0E2FF00C0E6FF01D027D0010E7B
:10404600BB15016E0150010A1EE1BBCB00F0003228
:10405600009EBC0EC06F0B0EC16F0050C027D8B0BB
:10406600C12BBC0EE96E0B0EEA6E0050E926D8B0E5
:10407600EA2AEECFD4FBA0EC07F0C0CBE1FFC1CB20
:10408600E2FF00C0E6FFBA2BBB072BD7BCCB00F084
:0E409600BDCB01F0BECB02F0BFCB03F0120099
:0C40A400B8CBADFFACB201D0FDD71200CC
:1040B000B8CBE4FBB9CBE5FBF2EC05F0005202E132
:1040C000006A1AD00901516B526B0F0E78250B0153
:1040D000D46F000E090179210B01D56F030ED4278F
:1040E000000ED523510ED66F090ED76F020ED86F72
:0A40F00076EC0EF0010E006E1200D7
:1040FA00800E0B01C319006E800EBB19005C08E12B
:10410A00BA51C25D05E1B951C15D02E1B851C05D64
:10411A0009E2C0CBB8FBC1CBB9FBC2CBBAFBC3CB5C
:10412A00BBFB18D0800EBB19006E800EBF19005C55
:10413A0008E1BE51BA5D05E1BD51B95D02E1BC516C
:10414A00B85D08E2BCCBB8FBBDCBB9FBBECBBAFBB2
:10415A00BFCBBBFBB8CB00F0B9CB01F0BACB02F0B6
:06416A00BBCB03F01200C4
:104170000B01BA6BBA51B825E96E000EB921EA6E8F
:10418000EE50000A27E0BA51B825E96E000EB921B9
:10419000EA6E610EEE5C1CE3BA51B825E96E000EC2
:1041A000B921EA6EEE507A0813E3BA51B825016ED0
:1041B000000EB921026E01C0E9FF02C0EAFF200E25
:1041C000EE5C006E01C0E1FF02C0E2FF00C0E6FF4E
:0E41D000BA2BD0D7B8CB00F0B9CB01F012005B
:1041DE00BACBC6FBBBCBC7FBCEEC13F000500D0A1F
:1041EE0009E1BACBC6FBBBCBC7FB1EEC13F00052EA
:1041FE0001E002D0006A0ED1030EB825BC6F000E8E
:10420E00B921BD6FBACBC6FBBBCBC7FB010EC86FC6
:10421E00CDEC12F0BCCBE1FFBDCBE2FF00C0E6FF60
:10422E00020EB825BC6F000EB921BD6F010EBA2566
:10423E00C66F000EBB21C76F020EC86FCDEC12F019
:10424E00BCCBE1FFBDCBE2FF00C0E6FF010EB825FF
:10425E00BC6F000EB921BD6F030EBA25C66F000EDE
:10426E00BB21C76F020EC86FCDEC12F0BCCBE1FFC5
:10427E00BDCBE2FF00C0E6FFB8CBBCFBB9CBBDFBAC
:10428E00050EBA25C66F000EBB21C76F020EC86F92
:10429E00CDEC12F0BCCBE1FFBDCBE2FF00C0E6FFE0
:1042AE00040EB825BC6F000EB921BD6F070EBA25DE
:1042BE00C66F000EBB21C76F020EC86FCDEC12F099
:1042CE00BCCBE1FFBDCBE2FF00C0E6FF050EB8257B
:1042DE00BC6F000EB921BD6F090EBA25C66F000E58
:1042EE00BB21C76F020EC86FCDEC12F0BCCBE1FF45
:1042FE00BDCBE2FF00C0E6FF060EB825BC6F000E78
:10430E00B921BD6F0B0EBA25C66F000EBB21C76F4C
:10431E00020EC86FCDEC12F0BCCBE1FFBDCBE2FFBD
:10432E0000C0E6FF45EC12F0D00EC66FB9EC11F0EE
:10433E00C66BB9EC11F0B8CBE9FFB9CBEAFFEECF03
:10434E00C6FB92EC0FF000C0C6FBB9EC11F0010EEB
:10435E00B825E96E000EB921EA6EEECFC6FB92ECDF
:10436E000FF000C0C6FBB9EC11F0020EB825E96ED5
:10437E00000EB921EA6EEECFC6FB92EC0FF000C034
:10438E00C6FBB9EC11F0030EB825E96E000EB9218B
:10439E00EA6EEECFC6FB92EC0FF000C0C6FBB9EC96
:1043AE0011F0040EB825E96E000EB921EA6EEECFBB
:1043BE00C6FB92EC0FF000C0C6FBB9EC11F0050E77
:1043CE00B825E96E000EB921EA6EEECFC6FB92EC6F
:1043DE000FF000C0C6FBB9EC11F0060EB825E96E61
:1043EE00000EB921EA6EEECFC6FB92EC0FF000C0C4
:1043FE00C6FBB9EC11F0800EC66FB9EC11F093EC60
:10440E0011F0B8CBC6FBB9CBC7FB010E0B01C86FC1
:06441E00ACEC0FF01200EF
:10442400B8CBC6FB0B01C76B230EB925E96E000E92
:10443400BA21EA6EEECFC8FBF2EC15F0020E005E74
:02444400120064
:1044460045EC12F0D00E0B01C66FB9EC11F0C66B3D
:10445600B9EC11F045EC12F0D10EC66FB9EC11F0C3
:10446600B8CBBBFBB9CBBCFB010EC66F000EC76F4A
:1044760097EC18F0BBCBE1FFBCCBE2FF00C0E6FF38
:10448600010E0B01B825BB6F000EB921BC6F010EE2
:10449600C66F000EC76F97EC18F0BBCBE1FFBCCB25
:1044A600E2FF00C0E6FF020E0B01B825BB6F000E4F
:1044B600B921BC6F010EC66F000EC76F97EC18F0DE
:1044C600BBCBE1FFBCCBE2FF00C0E6FF030E0B0156
:1044D600B825BB6F000EB921BC6F010EC66F000E6A
:1044E600C76F97EC18F0BBCBE1FFBCCBE2FF00C077
:1044F600E6FF040E0B01B825BB6F000EB921BC6F99
:10450600010EC66F000EC76F97EC18F0BBCBE1FF2C
:10451600BCCBE2FF00C0E6FF050E0B01B825BB6F62
:10452600000EB921BC6F010EC66F000EC76F97EC67
:1045360018F0BBCBE1FFBCCBE2FF00C0E6FF060EE6
:104546000B01B825BB6F000EB921BC6FC66BC76BDC
:1045560097EC18F0BBCBE1FFBCCBE2FF00C0E6FF57
:1045660093EC11F0B8CBBBFBB9CBBCFBB8CBE9FFE6
:10457600B9CBEAFFEECF00F07F0E00140B01C66F39
:1045860084EC18F0BBCBE1FFBCCBE2FF00C0E6FF3A
:10459600010EB825BB6F000EB921BC6FBBCBE9FF7E
:1045A600BCCBEAFFEECFC6FB84EC18F0BBCBE1FF39
:1045B600BCCBE2FF00C0E6FF020EB825BB6F000EC3
:1045C600B921BC6FBBCBE9FFBCCBEAFFEECFC6FB84
:1045D60084EC18F0BBCBE1FFBCCBE2FF00C0E6FFEA
:1045E600030EB825BB6F000EB921BC6FBBCBE9FF2C
:1045F600BCCBEAFFEECFC6FB84EC18F0BBCBE1FFE9
:10460600BCCBE2FF00C0E6FF040EB825BB6F000E70
:10461600B921BC6FBBCBE9FFBCCBEAFFEECFC6FB33
:1046260084EC18F0BBCBE1FFBCCBE2FF00C0E6FF99
:10463600050EB825BB6F000EB921BC6FBBCBE9FFD9
:10464600BCCBEAFFEECFC6FB84EC18F0BBCBE1FF98
:10465600BCCBE2FF00C0E6FF060EB825BB6F000E1E
:10466600B921BC6FBBCBE9FFBCCBEAFFEECFC6FBE3
:1046760084EC18F0BBCBE1FFBCCBE2FF00C0E6FF49
:10468600B8CBC6FBB9CBC7FBBACBC8FBACEC0FF0BB
:0E469600070EB825006E000EB921016E12004D
:0646A400006A016A120029
:1046AA00330E006E000E016E37CB04F0000E056E5D
:1046BA0078EC06F0860E0026090E0122220E00244E
:1046CA00E16E000E0120E26E010EE66E330E006E00
:1046DA00000E016E37CB04F0000E056E78EC06F082
:1046EA00860E0026090E0122230E0024E16E000E1A
:1046FA000120E26E37CBE6FF330E006E000E016E2C
:10470A0037CB04F0000E056E78EC06F0860E002614
:10471A00090E0122260E0024E16E000E0120E26E2F
:10472A00E66AE66A330E006E000E016E37CB04F0BD
:10473A00000E056E78EC06F0860E0026090E0122A0
:10474A00280E0024E16E000E0120E26EE66AE66A97
:10475A00330E006E000E016E37CB04F0000E056EAC
:10476A0078EC06F0860E0026090E01222A0E002495
:10477A00E16E000E0120E26EE66AE66A330E006E12
:10478A00000E016E37CB04F0000E056E78EC06F0D1
:10479A00860E0026090E01222C0E0024E16E000E60
:1047AA000120E26EE66AE66A330E006E000E016EC2
:1047BA0037CB04F0000E056E78EC06F0860E002664
:1047CA00090E01222E0E0024E16E000E0120E26E77
:1047DA00E66AE66A330E006E000E016E37CB04F00D
:1047EA00000E056E78EC06F0860E0026090E0122F0
:1047FA00200E0024E16E000E0120E26E010EE66E2C
:10480A00010EE66E330E006E000E016E37CB04F019
:10481A00000E056E78EC06F0860E0026090E0122BF
:10482A000A0E0024E16E000E0120E26EE66AE66AD4
:10483A00330E006E000E016E37CB04F0000E056ECB
:10484A0078EC06F0860E0026090E01220C0E0024D2
:10485A00E16E000E0120E26EE66AE66A330E006E31
:10486A00000E016E37CB04F0000E056E78EC06F0F0
:10487A00860E0026090E01221F0E0024E16E000E8C
:10488A000120E26EE66A330E006E000E016E37CB2F
:10489A0004F0000E056E78EC06F0860E0026090E6E
:1048AA0001221E0E0024E16E000E0120E26EE66A6D
:1048BA00330E006E000E016E37CB04F0000E056E4B
:1048CA0078EC06F0860E0026090E0122250E002439
:1048DA00E16E000E0120E26EE66A330E006E000EF3
:1048EA00016E37CB04F0000E056E78EC06F0860EEA
:1048FA000026090E01221A0E0024E16E000E012084
:10490A00E26EE66AE66AE66AE66A330E006E000E50
:10491A00016E37CB04F0000E056E78EC06F0860EB9
:10492A000026090E0122160E0024E16E000E012057
:10493A00E26EE66AE66AE66AE66A330E006E000E20
:10494A00016E37CB04F0000E056E78EC06F0860E89
:10495A000026090E0122140E0024E16E000E012029
:10496A00E26E1E0EE66E000EE66E330E006E000E4E
:10497A00016E37CB04F0000E056E78EC06F0860E59
:10498A000026090E0122120E0024E16E000E0120FB
:10499A00E26E1E0EE66E000EE66E330E006E000E1E
:1049AA00016E37CB04F0000E056E78EC06F0860E29
:1049BA000026090E0122240E0024E16E000E0120B9
:0649CA00E26EE66A120035
:1049D000030118B1F2EF3BF00E0E0B013725E96E23
:1049E000000E3821EA6EEECF00F0EECF01F000505D
:1049F000011002E129EF3CF00A0E3725E96E000EA6
:104A00003821EA6EEECF01F0EECF02F00250030142
:104A1000171902E116510118D8A4F1EF3BF00C0E62
:104A20000B013725E96E000E3821EA6EEECF01F05A
:104A3000EECF02F002500301661902E16551011840
:104A4000D8A4F1EF3BF00B015A6B9A6B9B6B0E0EE7
:104A50003725D96E000E3821DA6EDECF01F0DECFB9
:104A600002F002509B5D02E101509A5D65E2000E8A
:104A70009B5D02E13F0E9A5D5FE2C20E01017F2560
:104A80000B01B66F080E010180210B01B76F6AECB4
:104A900018F0B6CBE1FFB7CBE2FF00C0E6FFC20ED5
:104AA00001017F25E96E080E8021EA6EEE503C0A76
:104AB00004E17F6B806B7B6B3BD0C20E7F25E96E80
:104AC000080E8021EA6EEE503E0A01E135D0C20E9A
:104AD0007F25E96E080E8021EA6EEE50210A04E17E
:104AE000010E0301676F24D001018051000A02E129
:104AF0003F0E7F1902E1010E7B6F7F4B802B7FC140
:104B0000D4FB80C1D5FB000E0B01D66FD76FD86BDD
:104B1000D96BDA6BDB6B3F0EDC6F000EDD6F000EC6
:104B2000DE6FDF6F08EC0FF000C07FF101C080F195
:104B30000B019A4B9B2B8BD7C20E01017F25E96E8F
:104B4000080E8021EA6EEE503E0A02E029EF3CF0AA
:104B5000C20E7F25E16E080E8021E26EE66A7B536D
:104B600028E07B6B5A0E0B01B86F0B0EB96FAA0EC3
:104B7000BA6FF80EBB6F000EBC6F69EC1BF0400EF5
:104B8000B86F000EB96FBA6FBB6F6E0EBC6F080EB8
:104B9000BD6F010EBE6F3DEC19F05A0EB86F0B0ED3
:104BA000B96F6E0EBA6F080EBB6F0DEC19F00801ED
:104BB000C26B7FC1B8FB6E0E0B01B96F080EBA6FE6
:104BC00099EC1BF0740EC66F030EC76FB6EC13F0B2
:104BD0006E0EC66F080EC76FB6EC13F0680EC66F88
:104BE000030EC76FB6EC13F0C20EC66F080EC76F88
:104BF000DDEC13F09D6B01017C6B030E0B019C6FD0
:104C00004A0EB86FF90EB96F000EBA6FC20EBB6FC5
:104C1000080EBC6F9D51BB27D8B0BC2B030EBD6FD7
:104C2000BBEC1EF0005211E0C20EB86F080EB96F57
:104C3000C20EBA6F080EBB6F9C51BA27D8B0BB2BFF
:104C400097EC1EF0010E01017C6F030E0B019C6FAF
:104C5000460EB86FF90EB96F000EBA6FC20EBB6F79
:104C6000080EBC6F9D51BB27D8B0BC2B030EBD6F87
:104C7000BBEC1EF00052D8B444EF2AF09C519D25A5
:104C8000006E00C09DFB060E9C6F6E0EB86F080E86
:104C9000B96FC20EBA6F080EBB6F0050BA27D8B0FA
:104CA000BB2B060EBC6FDCEC1EF06E0EB86F080E50
:104CB000B96F63EC1FF000C0A3FB01C0A4FB02C0EE
:104CC000A5FB03C0A6FB590EB86F030EB96F430EC8
:104CD000BA6F030EBB6F00C0BCFB01C0BDFB02C0BE
:104CE000BEFB03C0BFFB9F0EC06F0B0EC16F03EC7A
:104CF0001FF00052010ED8A4000E0B019E6F9C51B4
:104D00009D25006E00C09DFB030E9C6F5A0EB86F70
:104D10000B0EB96FC20EBA6F080EBB6F030E0024E4
:104D2000BC6FDCEC1EF0820EB86F080EB96FC20EBD
:104D3000BA6F080EBB6F9C519D25BC6FDCEC1EF05A
:104D40004E0EB86FF90EB96F000EBA6FC20EBB6F80
:104D5000080EBC6F9D51BB27D8B0BC2B9CCBBDFBB4
:104D6000BBEC1EF00052D8B4E7D09C519D27460EF4
:104D7000B86F030EB96F560EBA6F030EBB6FA3CB9D
:104D8000BCFBA4CBBDFBA5CBBEFBA6CBBFFBA10E42
:104D9000C06F0B0EC16F03EC1FF00052010ED8A4C0
:104DA000000E0B01B36F4E0EB86F030EB96FA10E5C
:104DB000BA6F020EBB6FA3CBBCFBA4CBBDFBA5CBD4
:104DC000BEFBA6CBBFFBA10EC06F0B0EC16F03ECE9
:104DD0001FF00052010ED8A4000E016E01500B010D
:104DE000B3139E5303E1B35301E11ED05A0EC66FB5
:104DF0000B0EC76F9E5307E09F0E396FF80E3A6F88
:104E0000000E3B6F06D0650E396FF80E3A6F000E3C
:104E10003B6F39CBC8FB3ACBC9FB3BCBCAFB0FEC92
:104E200011F00801826B87D0590E0B01B86F030E89
:104E3000B96F430EBA6F030EBB6FFF0EBC6FFF0E50
:104E4000BD6FA3CBBEFBA4CBBFFBA5CBC0FBA6CB4A
:104E5000C1FB010EC26F1EEC1CF00052010ED8A463
:104E6000000E016E01C09EFB015256E0590E0B016F
:104E7000B86F030EB96F980EBA6F020EBB6F51C9AF
:104E8000BCFB52C9BDFBC20EE96E080EEA6E9D5115
:104E9000E926D8B0EA2AEECFBEFB000EBF6FC06F86
:104EA000C16F000EBF6FC06FC16FC26B1EEC1CF0F4
:104EB000590E0B01B86F030EB96FA40EBA6F020E34
:104EC000BB6F51C9BCFB52C9BDFB9D51010F006EA8
:104ED000016A000E0122C20E0024E96E080E0120B4
:104EE000EA6EEECFBEFB000EBF6FC06FC16F000E4B
:104EF000BF6FC06FC16FC26B1EEC1CF05A0E0B016E
:104F0000C66F0B0EC76F890EC86FF80EC96F000E03
:104F1000CA6F0FEC11F00FD00B015A0EC66F0B0EBB
:104F2000C76F710EC86FF80EC96F000ECA6F0FEC15
:104F300011F00801826B53D2560E0B01B86FF90EB7
:104F4000B96F000EBA6FC20EBB6F080EBC6F9D51D9
:104F5000BB27D8B0BC2B9CCBBDFBBBEC1EF00052DA
:104F6000D8B4D4D09C519D279E53D8B4BFD06E0ED8
:104F7000B86F080EB96FC20EBA6F080EBB6F9D51A5
:104F8000BA27D8B0BB2B060EBC6FDCEC1EF06E0E41
:104F9000B86F080EB96F63EC1FF000C0A7FB01C02B
:104FA000A8FB02C0A9FB03C0AAFB0350A61908E195
:104FB0000250A51905E10150A41902E10050A319FE
:104FC0001DE0590EB86F030EB96F430EBA6F030E92
:104FD000BB6F9FCBBCFBA0CBBDFBA7CBBEFBA8CBC5
:104FE000BFFBA9CBC0FBAACBC1FBC26B1EEC1CF064
:104FF0000052010ED8A4000E0B019E6F590EB86F1F
:10500000030EB96F980EBA6F020EBB6F9FCBBCFB3D
:10501000A0CBBDFB060E9D25006E016A000E01228D
:10502000C20E0024E96E080E0120EA6EEECFBEFB30
:10503000000EBF6FC06FC16F000EBF6FC06FC16F3A
:10504000C26B1EEC1CF00052010ED8A4000E0B0126
:105050009E6F590EB86F030EB96FA40EBA6F020E91
:10506000BB6F9FCBBCFBA0CBBDFB070E9D25006E8D
:10507000016A000E0122C20E0024E96E080E012012
:10508000EA6EEECFBEFB000EBF6FC06FC16F000EA9
:10509000BF6FC06FC16FC26B1EEC1CF00052010EDF
:1050A000D8A4000E016E01C09EFB5A0E0B01C66F04
:1050B0000B0EC76F015207E0940E3C6FF80E3D6F68
:1050C000000E3E6F06D07D0E3C6FF80E3D6F000E59
:1050D0003E6F3CCBC8FB3DCBC9FB3ECBCAFB0FECC4
:1050E00011F09E5302E10801826B0FD05A0E0B01A2
:1050F000C66F0B0EC76FBE0EC86FF80EC96F000EDD
:10510000CA6F0FEC11F00801826B69D1520E0B01CE
:10511000B86FF90EB96F000EBA6FC20EBB6F080EF2
:10512000BC6F9D51BB27D8B0BC2B9CCBBDFBBBEC4F
:105130001EF000526EE09C519D279E535BE0590E7D
:10514000B86F030EB96F980EBA6F020EBB6F9FCB8C
:10515000BCFBA0CBBDFB9E0EBE6F0B0EBF6FD5EC94
:105160001BF05A0E0B01B86F0B0EB96F9ECBBAFB3A
:1051700078EC1EF0590EB86F030EB96FA40EBA6F1B
:10518000020EBB6F9FCBBCFBA0CBBDFB9E0EBE6FC8
:105190000B0EBF6FD5EC1BF05A0E0B01B86F0B0E48
:1051A000B96F9ECBBAFB78EC1EF05A0EC66F0B0E91
:1051B000C76F880EC86FF90EC96F000ECA6F0FEC6B
:1051C00011F0C9C7B8FB000EB96FBA6FBB6F6E0E96
:1051D000BC6F080EBD6F010EBE6F3DEC19F05A0E8C
:1051E000B86F0B0EB96F6E0EBA6F080EBB6F0DEC79
:1051F00019F00ED05A0EC66F0B0EC76FBE0EC86FD9
:10520000F80EC96F000ECA6F0FEC11F00801826B27
:10521000E6D0360E0B01B86FF90EB96F000EBA6FFB
:10522000C20EBB6F080EBC6F9D51BB27D8B0BC2B04
:105230009CCBBDFBBBEC1EF000525DE09C519D275A
:105240009E5349E0590EB86F030EB96F980EBA6FAE
:10525000020EBB6F9FCBBCFBA0CBBDFBC20EE96EA9
:10526000080EEA6E9D51E926D8B0EA2AEECFBEFBC1
:10527000000EBF6FC06FC16F000EBF6FC06FC16FF8
:10528000C26B1EEC1CF00052010ED8A4000E016E81
:1052900001C09EFB5A0E0B01C66F0B0EC76F015269
:1052A00007E0940E3F6FF80E406F000E416F06D07E
:1052B0007D0E3F6FF80E406F000E416F3FCBC8FB75
:1052C00040CBC9FB41CBCAFB0FEC11F09E5302E16E
:1052D0000801826B0FD05A0E0B01C66F0B0EC76F01
:1052E000BE0EC86FF80EC96F000ECA6F0FEC11F03A
:1052F0000801826B74D0320E0B01B86FF90EB96FD2
:10530000000EBA6FC20EBB6F080EBC6F9D51BB275B
:10531000D8B0BC2B9CCBBDFBBBEC1EF000525DE0BB
:105320009C519D279E5349E0590EB86F030EB96FEB
:10533000A40EBA6F020EBB6F9FCBBCFBA0CBBDFB14
:10534000C20EE96E080EEA6E9D51E926D8B0EA2A2F
:10535000EECFBEFB000EBF6FC06FC16F000EBF6F00
:10536000C06FC16FC26B1EEC1CF00052010ED8A4BE
:10537000000E016E01C09EFB5A0E0B01C66F0B0E94
:10538000C76F015207E0940E426FF80E436F000E94
:10539000446F06D07D0E426FF80E436F000E446FCF
:1053A00042CBC8FB43CBC9FB44CBCAFB0FEC11F08B
:1053B0009E5302E10801826B0FD05A0E0B01C66F9B
:1053C0000B0EC76FBE0EC86FF80EC96F000ECA6F06
:1053D0000FEC11F00801826B02D00801826B820E83
:1053E0000B01C66F080EC76FCEEC13F00050000A19
:1053F00043E09FCBD4FBA0CBD5FB000EA0BFFF0E9C
:10540000D66FD76F6E0ED86F080ED96F040EDA6F95
:10541000A4EC07F0820E0B01B86F080EB96F6E0E88
:10542000BA6F080EBB6F0DEC19F0820EB86F080E44
:10543000B96FC20EBA6F080EBB6F9D51BA27D8B0B4
:10544000BB2B0DEC19F0B86B820EB96F080EBA6F5A
:10545000A60EBB6F070EBC6F88EC1DF08C0E0B0107
:10546000C66F020EC76FB6EC13F0820EC66F080E41
:10547000C76FDDEC13F006D0620EC66F020EC76F69
:10548000DDEC13F099EF3BF03A0EB86FF90EB96FFF
:10549000000EBA6FC20EBB6F080EBC6F9D51BB27CA
:1054A000D8B0BC2B9CCBBDFBBBEC1EF00052D8B4DB
:1054B000B9D09C519D25006E00C09DFB030E9C6FD2
:1054C0005A0EB86F0B0EB96FC20EBA6F080EBB6FD3
:1054D000030E0024BC6FDCEC1EF0420EB86FF90E18
:1054E000B96F000EBA6FC20EBB6F080EBC6F9D5134
:1054F000BB27D8B0BC2B9CCBBDFBBBEC1EF0005235
:1055000038E09C519D25006E00C09DFB5D0EB86F7C
:10551000070EB96FC20EBA6F080EBB6F0050BA27E4
:10552000D8B0BB2BEFEC20F05A0EC66F0B0EC76F36
:10553000940EC86FF80EC96F000ECA6F0FEC11F011
:10554000B86BC20EB96F080EBA6FA60EBB6F070E0E
:10555000BC6F88EC1DF07A0E0B01C66F020EC76F90
:10556000B6EC13F0820EC66F080EC76FDDEC13F0B9
:1055700057D03E0EB86FF90EB96F000EBA6FC20E5B
:10558000BB6F080EBC6F9D51BB27D8B0BC2B9CCB0A
:10559000BDFBBBEC1EF0005243E09C519D275D0E0D
:1055A000B86F070EB96F010EBA6F23EC22F05A0ED6
:1055B000B86F0B0EB96F640EBA6F070EBB6F0DECB0
:1055C00019F05A0EC66F0B0EC76F880EC86FF90E12
:1055D000C96F000ECA6F0FEC11F0C9C7B8FB000EFF
:1055E000B96FBA6FBB6F6E0EBC6F080EBD6F010E48
:1055F000BE6F3DEC19F05A0EB86F0B0EB96F6E0E00
:10560000BA6F080EBB6F0DEC19F0B86BC20EB96F14
:10561000080EBA6FA60EBB6F070EBC6F88EC1DF0AC
:1056200099EF3BF05A0E0B01B86FF90EB96F000EEF
:10563000BA6FC20EBB6F080EBC6F9D51BB27D8B0AE
:10564000BC2B9CCBBDFBBBEC1EF00052D8B4F6D0FB
:105650005A0EB86F0B0EB96F5A0EBA6FF90EBB6FB8
:10566000000EBC6F69EC1BF09C519D25006E00C0C4
:105670009DFB030E9C6F420EB86FF90EB96F000EC2
:10568000BA6FC20EBB6F080EBC6F0050BB27D8B0FC
:10569000BC2B030EBD6FBBEC1EF0005252E09C51C0
:1056A0009D25006E00C09DFBC20EB86F080EB96F3D
:1056B0000050B827D8B0B92B63EC1FF000C078F7C2
:1056C00001C079F702C07AF703C07BF7860EB86F86
:1056D000020EB96FE50EBA6F020EBB6F010EBC6F02
:1056E000000EBD6F00C0BEFB01C0BFFB02C0C0FB0F
:1056F00003C0C1FBC26B1EEC1CF00052010ED8A40B
:10570000000E016E01C09EFB5A0E0B01C66F0B0E00
:10571000C76F015207E0940E456FF80E466F000EFA
:10572000476F06D07D0E456FF80E466F000E476F2F
:1057300045CBC8FB46CBC9FB47CBCAFB0FEC11F0EE
:105740007BD03E0EB86FF90EB96F000EBA6FC20E65
:10575000BB6F080EBC6F9D51BB27D8B0BC2B9CCB38
:10576000BDFBBBEC1EF0005267E09C519D27860EEE
:10577000C66F020EC76FE50EC86F020EC96F010E2D
:10578000CA6F000ECB6F780ECC6F070ECD6F9AEC00
:1057900015F00052010ED8A4000E0B019E6F78C7C1
:1057A000B8FB79C7B9FB7AC7BAFB7BC7BBFB6E0EE8
:1057B000BC6F080EBD6F040EBE6F3DEC19F09E531A
:1057C0002FE05A0EB86F0B0EB96F6E0EBA6F080E3F
:1057D000BB6F0DEC19F05A0EC66F0B0EC76F880E1B
:1057E000C86FF90EC96F000ECA6F0FEC11F0C9C770
:1057F000B8FB000EB96FBA6FBB6F6E0EBC6F080EB0
:10580000BD6F010EBE6F3DEC19F05A0EB86F0B0E56
:10581000B96F6E0EBA6F080EBB6F0DEC19F00CD09D
:105820005A0EC66F0B0EC76F7D0EC86FF80EC96F8C
:10583000000ECA6F0FEC11F099EF3BF0720EB86FCB
:10584000F90EB96F000EBA6FC20EBB6F080EBC6FB7
:105850009D51BB27D8B0BC2B9CCBBDFBBBEC1EF035
:105860000052D8B496D25A0EB86F0B0EB96F720EA2
:10587000BA6FF90EBB6F000EBC6F69EC1BF09C5148
:105880009D27030E9C6F5A0EB86F0B0EB96F760EE4
:10589000BA6FF90EBB6F000EBC6F69EC1BF05A0EAD
:1058A000C66F0B0EC76F720EC86FF90EC96F000E70
:1058B000CA6F0FEC11F04A0EB86FF90EB96F000EF7
:1058C000BA6FC20EBB6F080EBC6F9D51BB27D8B01C
:1058D000BC2B9CCBBDFBBBEC1EF00052D8B41ED140
:1058E0009C519D27030E9C6F5A0EC66F0B0EC76FFF
:1058F0004A0EC86FF90EC96F000ECA6F0FEC11F097
:105900007A0EB86FF90EB96F000EBA6FC20EBB6F88
:10591000080EBC6F9D51BB27D8B0BC2B9CCBBDFBE8
:10592000BBEC1EF0005207E0DB0EB86F020EB96F41
:1059300058EC20F0D7D07E0E0B01B86FF90EB96F7E
:10594000000EBA6FC20EBB6F080EBC6F9D51BB2715
:10595000D8B0BC2B9CCBBDFBBBEC1EF0005241E091
:105960009C519D25006E00C09DFBC20EC66F080EA7
:10597000C76F0050C627D8B0C72BCEEC13F000502D
:105980009D259C6F9DCB9AFB000E9B6F000E9B5D2F
:1059900002E19C519A5D24E2DB0EB86F020EB96FF2
:1059A000EB0EBA6F020EBB6FFF0EBC6FFF0EBD6F2A
:1059B000C20E9A25E96E080E9B21EA6EEECFBEFB61
:1059C000000EBF6FC06FC16F000EBF6FC06FC16FA1
:1059D000010EC26F1EEC1CF00B019A4B9B2BD6D70D
:1059E00081D06E0EB86FF90EB96F000EBA6FC20E8D
:1059F000BB6F080EBC6F9D51BB27D8B0BC2B9CCB96
:105A0000BDFBBBEC1EF0005215E0DB0EB86F020EC2
:105A1000B96FEB0EBA6F020EBB6FFF0EBC6FFF0EBD
